:020000040000FA
:1060000050120020616100009361000045610000B2
:1060100097610000996100009B6100000000000092
:106020000000000000000000000000009D61000072
:106030009F61000000000000A1610000A36100005A
:10604000A5610000A5610000A5610000A561000038
:10605000A5610000A5610000A5610000A561000028
:10606000A5610000A5610000A5610000A561000018
:10607000A5610000A5610000A5610000A561000008
:10608000A5610000A5610000A5610000A5610000F8
:10609000A5610000A5610000A5610000A5610000E8
:1060A000A5610000A5610000A5610000A5610000D8
:1060B000A5610000A5610000A5610000A5610000C8
:1060C000E568000081D50000A561000003690000BB
:1060D000A56100003BD50000A5610000A56100009E
:1060E000ADD50000A5610000C7640000A5610000F7
:1060F000A5610000A5610000A5610000A561000088
:10610000A5610000A5610000A5610000A561000077
:10611000A5610000F5BC0000A5610000A5610000BC
:10612000A5610000A5610000A5610000DFF810D0A6
:106130000BF0EAFA004800475F950000AFF30080DB
:106140005012002004207146084202D0EFF309806B
:1061500001E0EFF308807146004A1047C7E20000F3
:1061600011484FF0590101604FF0160101604FF0E6
:10617000880101600D4A45F6A52111600C4A11689D
:1061800021F480511160002101600A4880470A48CB
:106190000047FEE7FEE7FEE7FEE7FEE7FEE7FEE775
:1061A000FEE7FEE7FEE7000000010040240000409B
:1061B00000020040076200002D61000070B500F091
:1061C00057F8414908604148006800F00705022D72
:1061D00002D10846046802E03D4850F825403B489B
:1061E0001030006800F00F00461CB4FBF6F039498F
:1061F000086008460068384908444900B0FBF1F0DF
:106200003649086070BD00BF00BF00BF5920344947
:10621000086016208905C1F800018820C1F8000136
:10622000C006D0F800010028F0D000BF0846006882
:1062300040F64511B1EB103F05D18807406940F0A9
:1062400080008907486121481038006820F4805098
:106250004FF08041C1F8000200BF002020490860D3
:1062600000BF2048006840F470001E490860704775
:10627000F8B500261CA00068009014483030016872
:1062800001F4A02008B10020F8BD01F4002008B1FD
:10629000164A00E0164A01F4003008B11046F3E750
:1062A000C1F381371DF80740C1F30800831CC1F317
:1062B0004420851C9008584315FB04F7B0FBF7F009
:1062C00086003046E0E70000080000201002004091
:1062D0000C0000200000002020A107000400002086
:1062E0000001004088ED00E001020204008051013D
:1062F000001BB70010B5002807DA0A07140EFE4A83
:1063000000F00F031B1FD45403E00A07130EFB4ACF
:10631000135410BD00BF5920F949086016208905A3
:10632000C1F800018820C1F80001C006D0F80001C2
:106330000028F0D07047F349096841434FF0E0224C
:106340005161002191610521116100BF4FF0E021F1
:10635000096901F480310029F8D000214FF0E022D2
:106360001161704710B5042009F050FD102009F0AC
:10637000D0FB0021072009F0DDFB012009F046FDDC
:10638000012009F0C6FBE04809F0C0FC042009F038
:10639000C0FBDE4809F032FB20220021DB4809F077
:1063A00006FBDB4809F02AFB0121022009F0C2FBB1
:1063B00000221146D64809F0FAFAD64809F01EFB29
:1063C00000224FF04071D34809F0F1FAD24809F0A9
:1063D0009AFAFFF7F3FED14809F010FB4FF40022C0
:1063E0000021CE4809F0E3FACD4809F007FB00226E
:1063F0001146CB4809F0DBFACA4809F0FFFACA484F
:1064000009F0FCFAC94809F0F9FA00224FF40071CA
:10641000C44809F0CCFA00224FF40051C24809F0F8
:10642000C6FA00221146C14809F0C1FA012009F05C
:10643000E5FABF48806940F07000BD4988610220DC
:1064400009F061FA02200AF0EBFD4FF08040406D48
:1064500020F0FF004FF0804148650846406D40F055
:10646000110048650846006C20F0704040F0C040C4
:1064700008644FF04020006C20F440604FF0402151
:1064800008640804806B20F47000090488630846DF
:10649000806B40F4801088634FF04020406C40F4E3
:1064A00000104FF04021486410BD10B5A14809F01C
:1064B0002AFA0121A04809F093FD4FF4E1319E48EA
:1064C00009F0ADFD10BD01209C4908609C480068A2
:1064D000401C9B49086001209A490860704710B52C
:1064E00004462046FFF727FF10BD10B5964804F07C
:1064F00078FB022195480AF0A8F800BF9348943031
:10650000006880B20028F9D1022190480AF0AEF864
:1065100002218E480AF0C9F900208D490860091D42
:1065200008608C48007803287EDD8B4800780128BD
:106530007AD1874944390860091D0860091D08603F
:10654000091D0860091D0860091D0860091D086013
:106550007F492C310860091D0860091D0860091D6C
:1065600008607B491831086079497C310860091D51
:106570000860091D08607748007811285ED17748C7
:10658000007830B9764890F8D900001F7549087036
:106590003FE072480078012806D1714890F8D90090
:1065A000801E7049087034E06C480078022806D1DB
:1065B0006B4890F8D900401E6A49087029E0674886
:1065C0000078032805D1664890F8D900654908701D
:1065D0001FE062480078042806D1614890F8D9008D
:1065E000401C6049087014E05C480078052806D11A
:1065F0005B4890F8D900801C5A49087009E0574858
:106600000078062805D1564890F8D900001D554954
:1066100008705448007800F0800018B9514800789C
:106620001A2804DD002000E064E04E4908704E495D
:106630004C4A1278885C04F089FBA2E04548007857
:10664000142857D14548007830B9484890F8D90007
:10665000001F474908703FE040480078012806D1F4
:10666000424890F8D900801E4149087034E03B4808
:106670000078022806D13D4890F8D900401E3C49D8
:10668000087029E035480078032805D1374890F88C
:10669000D900374908701FE030480078042806D137
:1066A000324890F8D900401C3149087014E02B485A
:1066B0000078052806D12D4890F8D900801C2C4977
:1066C000087009E025480078062805D1274890F889
:1066D000D900001D264908702548007800F0800088
:1066E00018B923480078112802DD002020490870DD
:1066F000204941E045E0000018ED00E000E400E042
:106700000001004004000020004495089B3C00402C
:10671000110010A2113D8057110000081CFE03401B
:106720000400005F0200805E0300C05E0500405F61
:1067300000C00040110000040010074000020020CB
:1067400004020020F830044000000540009005409D
:10675000C4480040D800002014030020700100202D
:10676000A408002072010020FC07002094090020EA
:106770007401002017080020FE4A1278885C04F09B
:1067800017FBFD48006890B1FB4909688800FFF7D6
:10679000A6FE0520FFF7A3FE0020F84908600520AB
:1067A000FFF79DFE0020F549643908600CE00520E4
:1067B000FFF795FE0020F14908600520FFF78FFEE6
:1067C0000020EE49643908600020ED490860ED4979
:1067D0000860ED4800780F2806DBE7480068C0F144
:1067E0001E00EA49086010E0E7480078032809DD48
:1067F000E748007830B9E0480068C0F11E00E3497E
:10680000086002E01E20E1490860E24804F0E9F96E
:106810002EE00120E0490860DF49F839486500BFF3
:10682000DD48006800F001000028F9D0DA48F838A7
:10683000006880B2D9490860D248006809680844F5
:10684000D0490860CE480068401CCD490860084621
:106850000068CE490968884203D1D0480068D04911
:106860000860C7480068C9490968884200D300E049
:10687000CFE700BFC74804F0AFF9C348007801284C
:1068800002D10020C74908600120BC490860BB490B
:1068900064390860B94940390860091D0860091D5C
:1068A0000860091D0860091D0860091D0860091DB0
:1068B0000860B24930310860091D0860091D086090
:1068C000091D0860AD491C310860AC498031086081
:1068D000091D0860091D0860B34908700020B3490C
:1068E000086010BD10B500BFAA482038806800F0CD
:1068F000010028B1A748203804F07DF9FFF7F5FD25
:1069000010BD10B500BFAA48806800F0010038B182
:10691000A74804F070F9A7480068401CA549086022
:1069200010BDA54800684FF6FA71884202D30020D6
:10693000A14908609F4800684FF6FA71884202D367
:1069400000209C490860704710B54FF000609149E5
:10695000203908606C204860084604F047F902219D
:106960002020FFF7C7FC0A224FF0006189480AF097
:10697000F6F9884804F03AF94FF000608C49203964
:10698000086242F6E0604862894804F02FF9182056
:106990008749203948604FF00260086002212220B8
:1069A000FFF7A8FC202004F008F9212004F005F9E5
:1069B000232004F002F9774804F00EF93223002274
:1069C00001217E4809F08AFD01217C4809F067FF1A
:1069D00000217148F83809F06BFC06216E48F83840
:1069E00009F0A2FC0D23002211466B48F83809F08B
:1069F0006EFC0120684908606748F838D0F8D0007C
:106A000040F0010064492839086010BD10B501202C
:106A10005A490C31086001220821694809F0A4FC98
:106A20000120564964390860012280216448803879
:106A300009F09AFC00205149091D08600122022139
:106A40005F4809F091FC00204C49083108600122A0
:106A500004215B4809F088FC012048493031086076
:106A600001220103564809F07FFC012043493431DB
:106A7000086001224103524809F076FC01203F4999
:106A800038310860012281034D4809F06DFC012076
:106A90003A493C3108600122C103494809F064FCCD
:106AA0000120364980310860012211464448803077
:106AB00009F05AFC01203149843108600122022189
:106AC0003F48803009F050FC01202C498831086093
:106AD000012204213A48803009F046FC0120274970
:106AE0001C31086001228021354809F03DFC01205D
:106AF000224940390860012211463148403809F0E6
:106B000033FC01201D493C390860012202212C4838
:106B1000403809F029FC0120184938390860012261
:106B200004212748403809F01FFC0120134934395B
:106B30000860012208212248403809F015FC012094
:106B40000E4930390860012210211D48403809F0F3
:106B50000BFC012009492C3908600122202118482A
:106B6000403809F001FC012004492839086001225D
:106B7000402127E07401002044010020C04800406B
:106B8000E40000205C010020D80000204801002023
:106B90001403002020000540F830044008020020C3
:106BA00060010020580100204C0100205401002009
:106BB000201005402C0100202801002000900540F5
:106BC000C0400040F948403809F0CEFB0120F849A8
:106BD00008600122C103F548803809F0C5FB012097
:106BE000F3494431086001221146F04809F0BCFB2A
:106BF0000120EF4920390860ED4944310860EC4933
:106C00006431086001220102E84809F0ADFB01206F
:106C1000E7496831086001224102E44809F0A4FB19
:106C20000020E34970390860012208214FF040201C
:106C300009F09AFB0020DE49B03108600122C91436
:106C4000DA48403009F090FB04F032F804F057F8CD
:106C500047F6FE40D749086044F61F60D6490860F1
:106C60000020D6490860D6490860D6490860062049
:106C7000D54908700220D5490870D549087002220C
:106C8000D449002005F0B8FAD2480068D24908601B
:106C9000D0484068D1490860CF480068401C18B906
:106CA0000120CF49086003E0CB480078CC49086058
:106CB000CA480068401C18B90220CA49086003E0AD
:106CC000C6480078C74908600122C249302005F053
:106CD00093FAC0480068C149086008460068401C33
:106CE00040B940F6D310C049086040F6F900BF49EA
:106CF00008600CE0B948008880B2BB490860B7481A
:106D000000684FF6FF7101EA1040B8490860502052
:106D1000B749087048704B2088704620C8704120E1
:106D200008713C204871372088713220C8712D20AD
:106D30000872487288722820C872232008731E20A7
:106D4000487319208873C8736420AA4908804FF4D7
:106D50002F7048804FF4167088804FF4FA70C88006
:106D60004FF4C87008814FF496704881C82088811C
:106D70004FF47A70C8814FF4617008824FF4487004
:106D8000488207208882C882088348838883C88312
:106D9000088448848884C884088548858885C8858F
:106DA0000886488600209449087002204870142004
:106DB00088704FF4966088804FF47A70C88008819C
:106DC0004FF4966048814FF47A708881C881012021
:106DD0008A49087001227F49402005F00DFA7D485C
:106DE00000687D49086008460068401C50B9844826
:106DF000007820F00100824908700122402005F04F
:106E000067F903E0744800687D4908607C480078B1
:106E100000F0010020B97B487B49C968486003E065
:106E20007A487949C968486010BD794800780128D6
:106E300032D17848007850B900205D490860764822
:106E400000687649086001207249087027E071489F
:106E50000078012811D17048006870490968401A0B
:106E600002281CD301205249086002206949087099
:106E7000694800686949086011E06648007802289E
:106E80000DD16548006865490968401A0E2806D387
:106E900000206049087002E000205E4908707047D9
:106EA0005F49096869B95F49097B01705D49898952
:106EB000090A41705C49097881705C490978C170A0
:106EC00005E157490968012911D1594991F8E010A4
:106ED00001705749B1F8E010090A4170544991F81E
:106EE000D9108170534991F8D910C170EFE04C4925
:106EF0000968022911D14F4991F8E01001704D49FC
:106F0000B1F8E010090A4170494991F8D91081702F
:106F1000484991F8D910C170D9E04149096803295D
:106F20000FD1454991F8801001704349B1F88010A4
:106F3000090A417021490978817021490978C17095
:106F4000C5E03749096804290FD13C490978017027
:106F50003A490988090A4170354991F8D910817078
:106F6000344991F8D910C170B1E02D49096805295B
:106F700066D12F49B1F8E0202E49B1F8E010114454
:106F8000C1F3470101702A49D1F8E0202949D1F81D
:106F9000E0101144490A4170254991F8D9108170D7
:106FA000244991F8D910C17091E049E0C0400040F7
:106FB0007C480040080100200C010020380100201E
:106FC0003C01002040010020710100209C010020B4
:106FD000150300203C0600201C0200202002002097
:106FE0001402002018020020D0020020D402002049
:106FF000EC0200203C0800202C0800202502002084
:107000002C020020131F0100C4220100A61E010053
:107010004F01002024010020280100202001002031
:107020001004002010050020A0020020A102002072
:10703000A408002094090020840A002038030020BE
:10704000FE49096806290DD1FD4909780170002122
:107050004170FC4991F8D9108170FB4991F8D91021
:10706000C17034E0F549096807290DD1F74909785D
:10707000017000214170F34991F8D9108170F249F3
:1070800091F8D910C17022E0EC49096808290DD1A6
:10709000EF4909780170EE49098809124170ED49FC
:1070A00009788170EC490978C17010E0E3490968FA
:1070B00009290CD1E94909780170E84909880912C0
:1070C0004170E44909788170E3490978C1707047DB
:1070D00000B587B0002004900590069001900290C2
:1070E0000390DF480078032855D107208DF8100061
:1070F000C020DC490870084600788DF81100DA4895
:1071000000788DF81200D8480088000A8DF8130026
:10711000D64800788DF81400D4480088000A8DF80D
:10712000150000208DF816008DF817008DF8180056
:107130008DF8190004A804F073FF00BF02208DF839
:107140000400C020C7490870084600788DF8050083
:10715000C54800788DF80600C3480088000A8DF8FD
:107160000700C24800788DF80800C0480088000A6F
:107170008DF8090000208DF80A008DF80B008DF8BD
:107180000C008DF80D0001A804F061FF00BF002085
:10719000B34908706FE0B648C06838B9B5480078A0
:1071A000A02101EB4000AF49087014E0AC48007822
:1071B00050B9B0480078A02101EB4000A9490870FF
:1071C0000020AB49C86006E0AA480078A12101EB85
:1071D0004000A449087007208DF81000A1480078ED
:1071E0008DF81100A448C0788DF81200A2480079EB
:1071F0008DF81300A04840798DF814009E488079DE
:107200008DF815009A48007B8DF816009848808903
:10721000000A8DF8170000208DF818008DF819006D
:1072200004A804F0FDFE02208DF804008D480078CB
:107230008DF805009048C0788DF806008E480079DA
:107240008DF807008C4840798DF808008A488079CD
:107250008DF809008648007B8DF80A0084488089F3
:10726000000A8DF80B0000208DF80C008DF80D0041
:1072700001A804F0ECFE07B000BD10B50AB1042A65
:1072800000DD0222012A06D0022A09D0032A0CD0EE
:10729000042A33D127E0794B1860794B19602DE02F
:1072A000764B1960764B186028E043F67F631B1A13
:1072B00000EE103AB8EE400ADFED720A20EE200A26
:1072C000BCEEC00A6D4B83ED000A00EE101AB8EE5A
:1072D000400ADFED6D0A20EE200ABCEEC00A684BC2
:1072E00083ED000A0AE042F20F735B1A634C2360DD
:1072F00043F67F631B1A624C236000BF00BF10BDC2
:1073000030B591B00546287802287DD16878B0283C
:1073100004D0B22828D0B42825D168E2A87800F09B
:107320007F005A490870A87800F07F00584908701B
:1073300028788DF804006878401CC0B28DF80500EC
:10734000A8788DF8060000208DF807008DF8080059
:107350008DF809008DF80A008DF80B0001A804F0E3
:1073600076FE0020287061E2A878182862D008DC38
:1073700009282DD2DFE800F0F5F32D2C492C2C2C18
:10738000F200202806D0402855D0482854D0802824
:107390001ED124E1E878012805D13E490860022089
:1073A0003D49086007E0E87828B9002039490860BD
:1073B00003203949086000208DF808008DF8090085
:1073C0008DF80A008DF80B008DF80C008DF80D007B
:1073D000FAE1002407E0601D285CE97821442F4A87
:1073E0005054601CC4B22879A042F4DC00208DF80F
:1073F00008008DF809008DF80A008DF80B008DF853
:107400000C008DF80D00DFE111E2E878012224493B
:1074100004F015FF224800682249086008460078F9
:107420008DF8080008460088000A8DF80900084613
:10743000006839E043E145E05BE100001004002012
:10744000E0020020A4080020940900207803002016
:10745000E2030020A0020020A1020020E40300209B
:107460003001002050010020D0000020D400002076
:10747000100500204303002072080020780100203E
:107480007C0100204D01203F23CBCC3F1503002081
:107490009C0100201402002018020020300500206A
:1074A0003C0600201C020020000C8DF80A00084653
:1074B0000068000E8DF80B0000208DF80C008DF890
:1074C0000D0081E1002434E0FE480078C01CFE4934
:1074D000085CFE4941F82400FA480078801CFA490B
:1074E000085CFA4951F8241040EA0120F74941F8B4
:1074F0002400F4480078401CF349085CF34951F833
:10750000241040EA0120F14941F82400ED480078B8
:10751000ED49085CED4951F8241040EA0120EB499F
:1075200041F82400E7480078001DE6490870601C17
:10753000C4B2402CC8DB4022E449002004F014FE11
:1075400000208DF808008DF809008DF80A008DF8EC
:107550000B008DF80C008DF80D0035E18BE024E078
:10756000FFE7E97801F110000122D94904F044FE57
:10757000D7480068D7490860084600788DF80800A9
:1075800008460088000A8DF8090008460068000CCB
:107590008DF80A0008460068000E8DF80B000020E8
:1075A0008DF80C008DF80D000EE1002407E0201D81
:1075B000285CE9782144C44A5054601CC4B2042CAD
:1075C000F5DD00208DF808008DF809008DF80A001F
:1075D0008DF80B008DF80C008DF80D00F4E0002400
:1075E00034E0B8480078C01CB749085CBA4941F893
:1075F0002400B4480078801CB349085CB64951F8AF
:10760000241040EA0120B44941F82400AD48007834
:10761000401CAD49085CB04951F8241040EA0120F3
:10762000AD4941F82400A7480078A749085CAA4959
:1076300051F8241040EA0120A74941F82400A1484C
:107640000078001D9F490870601CC4B2042CC8DB80
:107650000422A149102004F03BFD00208DF8080011
:107660008DF809008DF80A008DF80B008DF80C00DC
:107670008DF80D00A8E0E97801F13000012294496D
:1076800004F0BAFD92480068924908600846007804
:107690008DF8080008460088000A8DF809000846A1
:1076A0000068000C8DF80A0008460068000E8DF88E
:1076B0000B0000208DF80C008DF80D0084E00024F4
:1076C00007E0201D285CE97821447F4A5054601C63
:1076D000C4B2042CF5DD00208DF808008DF80900F7
:1076E0008DF80A008DF80B008DF80C008DF80D0058
:1076F0006AE000242FE073480078C01C7249085CDF
:10770000764941F824006F480078801C6E49085C77
:10771000724951F8241040EA0120704941F82400D0
:1077200068480078401C6849085C6C4951F824108E
:1077300040EA0120694941F8240062480078624922
:10774000085C664951F8241040EA0120634941F879
:107750002400601CC4B2012CCDDB01225F49302023
:1077600004F0B6FC5D4800685A49086000208DF8B6
:1077700008008DF809008DF80A008DF80B008DF8CF
:107780000C008DF80D0008460068401C28B1084622
:1077900000684FF6FF71884208D140F6D310504977
:1077A000086040F6F9004F4908600CE0494800883D
:1077B00080B24B490860474800684FF6FF7101EA04
:1077C00010404849086000BF00BF28788DF80400C9
:1077D00068788DF80500A8788DF8060001208DF8EE
:1077E000070001A804F033FC002028701EE0A878F0
:1077F00010281AD1E878782817D1287A3A490870E1
:10780000687A4870A87A8870E87AC870287B08710E
:10781000687B487105F004FB3448FEF78CFD05F0E9
:1078200029FB4FF47A70FEF786FD00BF00BF11B050
:1078300030BD10B52E48006818B101202D490860F0
:1078400010BD2D48007828B12C48FFF759FD0020C5
:10785000294908702A480078032876D129480078F9
:10786000032872DC284800780028F6D127480078E1
:1078700000286BD101201F4908604FF4FA60FEF721
:107880002EFE23480078012806D002285FD0032866
:107890007ED004287DD1ADE009201E49087000206B
:1078A0001D490870084600781A4948701B4800783E
:1078B00088701A480088000AC87019480078087152
:1078C00017482FE0FD000020300500205C06002056
:1078D0003C0600201C0200205C0700206C070020F2
:1078E000D0020020D4020020A503002040420F0057
:1078F000280300207C4800401C030020440B00208B
:1079000030010020D800002040030020CE000020DD
:10791000150300207C0700205001002010010020EA
:10792000140100200088000A487100208871C87185
:10793000084604F05FFB00BF0020F7490870F748D5
:10794000407808B10320087083E0B4E0C7E3072063
:10795000F2490870C020F249087008460078EF49E3
:107960004870F048006801281ED1EF4800680228DE
:107970001AD1EE480278EE480168EE480068FFF739
:107980007CFCED480078E5498870EB48008801E010
:107990002DE05AE0000AC870E84800780871E7480E
:1079A0000088000A48710EE0E2480078DB498870E0
:1079B000E0480088000AC870DD4800780871DC489B
:1079C0000088000A48710020D4498871C871087283
:1079D0004872084604F024FB00BF0020CE4908701E
:1079E000CE484078C02801D00320087031E0FFF76E
:1079F0006FFB2EE00220C9490870C020C8490870FA
:107A000008460078C5494870CA4800788870C94857
:107A10000088000AC870C64800780871C448008809
:107A2000000A487100208871C871087248720846BF
:107A300004F00DFB00BF0020B7490870B74840783C
:107A4000C02801D00320087003E00120BC49087061
:107A500000BF00BF0020BB490860BB490860BB49AC
:107A60000860BB490860BB490860BB490860BB4966
:107A70000860BB490860BB490860BB490860BB4956
:107A80000860BB490860BB49C860BB498860B94908
:107A90004860B9490860B7498860B7494860C8601C
:107AA0000861486108764876A2490860A0490860E4
:107AB000B249087013E3B24800780228FADBB148F3
:107AC0000078FF28F6D0B04800780128F2D1A94804
:107AD000C06810B9AB48007830B1A648C06838B962
:107AE000A8480078042803D10120A849087004E0C0
:107AF0000020A7490860A5490870A648007800281A
:107B0000D8D19F48007803285CD1A348007830B1D1
:107B10000020A249487188718D49086018E0A0488A
:107B20000078A8B186480078042808D19D480078DC
:107B30009A4948719B480088000A887108E00F2024
:107B4000964948712720887142F20F708049086079
:107B50009548007898B100209049C87008717B4919
:107B600008607148006802282CD17F208B49C870BA
:107B70003E20087143F67F607449086022E08B481C
:107B80000078F8B16E480078042808D18848007859
:107B90008249C87086480088000A087108E07F2082
:107BA0007E49C8703E20087143F67F6067490860CF
:107BB0005D480068022805D100207849C870087126
:107BC000624908605E480078012806D0022841D04A
:107BD000032875D0042874D187E16648C06838B995
:107BE00068480078002101EB40004D49087014E01E
:107BF0004948007850B963480078002101EB400003
:107C00004749087000205B49C86006E05D4800787D
:107C1000012101EB40004249087009203F490870EA
:107C20003F48007848705D48C07888705B480079AC
:107C3000C8705A48407908715848807948714D4851
:107C4000007B88714B488089000AC871084604F09F
:107C5000D1F91AE24748C06868B94A480078A021BB
:107C600001EB40002E4908700020524908700120A5
:107C7000424908702DE001204E49087026480078DE
:107C800068B940480078A02101EB40002449087001
:107C900000203849C86001203849087019E0374889
:107CA000007800280EDD35480078401E3349087002
:107CB00034480078A02101EB40001949087008E021
:107CC00010E1DEE12F480078A12101EB40001449CA
:107CD0000870072011490870114800784870124850
:107CE0000068022868D111480278194801681748CD
:107CF0000068FFF7C2FA11480078084988700F48F9
:107D00000088000AC8700C48007808710A4800888A
:107D1000000A48715FE04FE0300100207C0700203E
:107D2000500100201402002014040020180200203A
:107D300014010020100100207C01002078010020A7
:107D400015030020080300200C030020C8020020B7
:107D5000CC020020C0020020C4020020A8020020A3
:107D6000AC020020B0020020B4020020B8020020C3
:107D7000BC020020100500208808002030020020EE
:107D80001403002043030020400300204F01002083
:107D90007C480040CE000020A20200207208002093
:107DA000A30200200C010020A4020020A502002054
:107DB0000801002044030020FE480078FE49887036
:107DC000FC480088000AC870FC4800780871FB482D
:107DD0000088000A4871FA480078F7490872F948A3
:107DE00000784872F848007898BBF848C06880B3BB
:107DF000F748007800F0010058B3F6480078A02159
:107E000001EB4000EC49487000208871C8710120E6
:107E1000ED490870E848C078EF49096800EB012097
:107E2000ED490860E4488078096800EB0120EA49E0
:107E30000860E1484079E949096800EB0120E74919
:107E40000860DD480079096800EB0120E34908601B
:107E500032E0FFE7DC480078012827D1DB48C06822
:107E600020B3DB48007800F00100F8B1D948007871
:107E7000A12101EB4000D0494870D74800788870B4
:107E8000D5480088000AC870D44800780871D348E3
:107E90000088000A4871CD48007B8871CB488089F2
:107EA000000AC8710220C849087005E0C748C068C8
:107EB00010B90020C4490870C548007800F00100DE
:107EC00020B90020BC498871C87107E0BF48007B19
:107ED000B9498871BD488089000AC871B64804F064
:107EE0009FF8D2E0FFF7F4F8CFE0B848C06868B96F
:107EF000B8480078A02101EB4000B5490870002087
:107F0000B74908700120B74908702BE00120B44937
:107F10000870B548007868B9AE480078A02101EB38
:107F20004000AB4908700020A849C8600120AD4955
:107F3000087017E0AB48007800280CDDA9480078ED
:107F4000401EA8490870A3480078A02101EB40001A
:107F50009F49087006E09F480078A12101EB40008E
:107F60009B4908700220944908709948007848702D
:107F70009E48C07888709D480079C8709B484079B9
:107F800008719A4880794871881DFEF789FF8E48EC
:107F9000007898BB8D48C06880B38D48007800F0A9
:107FA000010058B38B480078A02101EB40008249C2
:107FB000487000208871C8710120834908707E488C
:107FC000C0788549096800EB0120834908607A4838
:107FD0008078096800EB01207F4908607648407985
:107FE0007E49096800EB01207C49086072480079ED
:107FF000096800EB01207949086032E0FFE7724828
:108000000078012827D17148C06820B370480078F3
:1080100000F00100F8B16F480078A12101EB4000A9
:10802000654948706C48007888706B480088000A81
:10803000C8706A480078087168480088000A48716A
:108040006248007B887161488089000AC8710220FB
:108050005D49087005E05D48C06810B900205A49C4
:1080600008705B48007800F0010030B96048006893
:1080700018B9002050498871C8714F4803F0E7FFD4
:1080800003E001205B49087000BF00BF00BF4A4801
:10809000C0785949086048488078096800EB012099
:1080A000554908604448407954490860424800797D
:1080B000096800EB0120514908604448C0685049F4
:1080C000086003204849087000204E49087000BF2E
:1080D0004D4800680028FBD000204B49086000BFD5
:1080E000FFF7AEBB10B54948007801283ED100200B
:1080F000474908704749087047480068C0430978F5
:1081000060F30001434801704348001D0068C0430C
:108110004049097860F341013E4801703E4808300B
:108120000068C0433B49097860F382013948017017
:1081300039480C300068C0433649097860F3C30100
:1081400034480170344810300068C0433149097820
:1081500060F304112F4801702F48F4300068C043C9
:108160002C49097860F345112A48017000202A49FA
:108170003C31086029480078012806D002287DD0CB
:1081800003287CD004287BD119E1204800780128FD
:1081900063D155202249087056204870F420887019
:1081A0000A20C870062008711E48007848711E48D1
:1081B00000783BE0C80200207C070020CC020020B1
:1081C000A0020020A1020020DA00002010050020FB
:1081D0005001002043030020DC000020E0000020CC
:1081E00044030020300200203001002072080020EB
:1081F00010040020150300201001002014010020AD
:1082000010030020FC000020200300209901002022
:10821000CD000020CC000020404800409C01002000
:10822000BC0700209A010020300600208871FC481D
:108230004078C871FA4880780872F948C078487266
:10824000F74800798872F6484079C87200200873B0
:1082500048730F21F34804F066FDF34800780128C5
:108260003FD15520EF49087056204870F42088709F
:108270000A20C87006200871012002E032E09DE06B
:10828000FBE048710020C871087248728872C87299
:10829000E6480078012805D1572088710020E3497D
:1082A00008700EE0E2480078012806D15620DD492A
:1082B00088710020DE49087003E00020D949487128
:1082C00088710020D749087348730F21D54804F0FE
:1082D0002AFD0020D4490870D248807908B10120D5
:1082E0000870CAE0D3480078012826D15520CD492E
:1082F000087056204870F42088700A20C870062044
:108300000871CD4800784871C54800788871C44824
:108310004078C871C24880780872C148C0784872F5
:10832000BF4800798872BE484079C872002008733F
:1083300048730F21BB4804F0F6FCBB4800780128C5
:108340003BD15520B749087056204870F4208870FA
:108350000A20C87006200871012048710020C871E9
:10836000087248728872C872B0480078012805D136
:10837000572088710020AD4908700EE0AC480078A5
:10838000012806D15620A74988710020A849087005
:1083900003E00020A349487188710020A1490873B7
:1083A00048730F219F4804F0BEFC00209E490870CE
:1083B0009C48807908B1012008705EE05DE09D482E
:1083C000007801281BD15520964908705620487026
:1083D000F42088700A20C87002200871F0204871CB
:1083E0009648007888710020C871087248728872B7
:1083F000C872087348730F218A4804F094FC8A48B5
:108400000078012838D189480078012805D18549AC
:10841000C8720020854908700DE085480078012861
:1084200006D102207F49C87200208149087002E00D
:1084300000207C49C87255207A490870562048703F
:10844000F42088700A20C87002200871F02048715A
:1084500000208871C8710872487288720873487366
:108460000F21704804F05FFC00206F4908706D48D0
:10847000C07A08B10120087000BF00BF6F480078C3
:1084800028B96948007810B901206D49086010BD0D
:1084900000216C4A11706C4A11706C4A11606C4A70
:1084A00011606C4A11606C4A11606C4A11606C4A30
:1084B00011606C4A11606C4A11606C4A11606C4A20
:1084C00011606C4A11606C4A11606C4A11606C4A10
:1084D00011606C4A1160FF216B4A117000216B4AD8
:1084E00011606B4A11706B4A117001216A4A117058
:1084F00000216A4A11706A4A11706A4A11706A4A08
:10850000117000200CE0002100EB4002674B03EBF0
:10851000C202516000EB400203EBC2025170401CEA
:108520000A28F0DB002017E0002100EB4002604B3E
:1085300003EBC202517000EB400203EBC202516038
:1085400000EB40025B4B03EBC202517000EB4002B8
:1085500003EBC2025160401C0A28E5DB0021564AA9
:108560005160564A1160544A9160544A5160524ACF
:10857000D160524A9160D16011615161117651769A
:108580004F4A116001212E4A121D1160121D116007
:10859000121D1160121D1160121D1160121D11605B
:1085A000121D1160264A74321160121D1160121DD5
:1085B0001160121D1160224A60321160204AC432DB
:1085C0001160121D1160121D1160704770B50446D4
:1085D0000D4601201A4948310860091D0860022132
:1085E000384808F032F80221364808F05EF93223A4
:1085F00022460121334807F071FF0221314808F07B
:108600004EF902212F4808F01CF82F4802F0E9FA31
:108610002D48456002F0EFFA2B4802F0DDFA70BDFC
:1086200030060020BC070020F8010020A101002036
:10863000A2010020990100209A010020CC00002016
:108640007C4800404F0100204003002038010020FA
:108650003C01002040010020080300200C03002002
:10866000C8020020CC020020C0020020C40200206A
:10867000A8020020AC020020B0020020B4020020BA
:10868000B8020020BC020020430300205801002053
:10869000D800002072010020740100206D0100202C
:1086A0006E0100201703002014030020840A00201C
:1086B000A40800209409002010050020880800204C
:1086C0003C030020009005400000054010B5FE4826
:1086D000007817284BD2DFE810F017004B00B900E4
:1086E000ED004A004A004A004A004A004A009A0146
:1086F000DC016A02C3024A00080366039403000413
:10870000A504D3043F057B050120F04908702A2009
:10871000EF490860EF4AF04B1B78D15CEF4AF04B11
:108720001B78D05C02F08CFA0020EE490860EE481D
:10873000EE49097850F82100ED490860ED48EB4911
:108740000978405CE24909684843EB490860002029
:10875000EA490860E8480168E5480068FFF736FF25
:108760000120D9490870E6480068E64908601DE222
:10877000E5480078012868D10220E3490870D6480E
:108780000078401CD44908700020D0490870DF48A8
:10879000D0F8DC00DE49096888421AD2DC4800685B
:1087A000DC490968884214D3D9480168D748C0F821
:1087B000DC10C9480078401EC1B2D44880F8D910F6
:1087C000CA480078D4490870D4480168CF48C0F836
:1087D000E010C148007812282FDB0120BE49087044
:1087E000C2480078401CC149087008460078082833
:1087F0001FDBC648D0F8E010C64800685030814200
:108800000FD9C24890F8D90058B10120B449087076
:10881000BE4890F8D900B04908700220AA490870F3
:108820000EE0FFF735FE0020BD490870A74908702B
:1088300006E00020A449087002E00020A249087068
:108840000020B3490860B549086090E72A20A04994
:108850000860A04AA04B1B78D15CA04AA04B1B78B3
:10886000D05C02F0EDF900209E4908600120974994
:1088700008709D48A849097850F821009C49086073
:108880009C48A5490978405C9149096848439A4940
:10889000086000209949086097480168944800687A
:1088A000FFF794FE032088490870954800689549B1
:1088B00008605CE79448007801286ED10220924954
:1088C000087087480078401C8549087000207F495F
:1088D00008709448D0F8DC008D490968884216D2A7
:1088E0008B4800688B490968884210D38848016822
:1088F0008C48C0F8DC107A480078401EC1B2894824
:1089000080F8D910854801688648C0F8E01074489E
:1089100000781B2874DB0120714908708148D0F869
:10892000E0107C4800685030814262D97D4890F860
:10893000D90000285DD00A206349087000207A49D8
:1089400008707548007820B9784800787249087036
:108950003EE071480078012804D1744840786E499F
:10896000087035E06C480078022804D16F488078A0
:10897000694908702CE068480078032804D16B48E6
:10898000C0786549087023E063480078042805D161
:1089900066480079604908701AE037E05E48007860
:1089A000052804D1614840795B49087010E05A48B5
:1089B0000078062804D15D4880795749087007E09F
:1089C00055480078072803D15848C07952490870A3
:1089D00051480078801E45490870002054490870AD
:1089E0005449086054490860544908604349086084
:1089F00009E0FFF74DFD00203449087003E0FFE770
:108A0000022031490870002041490860AFE637482C
:108A100000782A2802DDFFF73BFD39E02C202C49A5
:108A20000860404890F8D9002D490870374890F800
:108A3000D90029490870274A0B461B78D15C274A80
:108A4000274B1B78D05C02F0FBF80020254908601A
:108A50003B482649097850F82100254908603948E3
:108A600022490978405C1A4909684843224908604C
:108A700022480078344908701F4801681C48006883
:108A8000FFF7A4FD0B201049087001200F49087062
:108A9000DDE31D48007801287ED114480078244980
:108AA000097801EB4101294A02EBC10148701848DD
:108AB00000681F49097801EB410102EBC1014860E0
:108AC000164800681A4943E0D8000020FC00002046
:108AD000340100201708002074010020FC0700204A
:108AE0007201002054010020DC2201006D010020F1
:108AF0007C020020FC2201008002002044010020B2
:108B000028010020680100204C0100209409002069
:108B10005C010020580100206E010020600100204F
:108B20004E010020A4080020300100200423010091
:108B300042030020380100203C01002040010020B9
:108B40003C250100E425010025010020840A0020C5
:108B5000097801EB410102EBC1018860F748007818
:108B6000F649097801EB410102F83100F448007838
:108B7000401CF3490870F1480078401CEF49087028
:108B80000220F0490870ED480078052808DB002035
:108B9000EA4908700C2000E008E0EB49087002E0A8
:108BA0000A20E94908700020E84908604FE30021E5
:108BB000E748C167002415E004EB4400E44901EBF9
:108BC000C0004168E248C06F814209D904EB44000B
:108BD000DF4A02EBC0011822DD48783008F004FCBF
:108BE000601CC4B2052CE7DBD94890F87900D9495C
:108BF0000870D74890F87900801ED1490870D44891
:108C0000D0F88000642806D9D348007818B901202C
:108C1000D14908700BE0D0480078012807D1CC4832
:108C2000D0F880003C2802D20020CB49087003F025
:108C30003FFB03F0E5FBC648D0F88000B0F51B7F92
:108C40000AD2C4480078172806D1C24800781828EC
:108C500002D1FFF71DFC02E00D20BB490870F6E2CF
:108C6000BE48007818B1BD48007804281CD103F034
:108C7000B8FFBB480068BB49884207D9B7480078AD
:108C800020B9B9488068B649086011E0B448006866
:108C9000B64988420CD9B1480078042808D1B248B6
:108CA0008068AF49086003E00020AF49487648611A
:108CB000AB4800680A21B0FBF1F0AD490860A84854
:108CC0000068AC49086003F0B1FDAB49C86803F027
:108CD000FBFEA949C8600F209B4908700020A749E6
:108CE00008700120A6490870B1E2A64890F8D900A2
:108CF000A5490870A54890F8D900A5490870A24870
:108D00000078A4490870A2480078A3490870102090
:108D10008D4908709C48007800F0800038B99A4866
:108D200000781A2803DC98480078012801DAFFF758
:108D3000AFFB9448D0F8E00040F28371884219D923
:108D40009048D0F8E00040F6B861884205D99348D1
:108D500000680A309149086004E090480068401CAF
:108D60008E4908608D4800682D2817D92D208B4921
:108D7000086013E08348D0F8E00040F207718842B1
:108D80000CD28648006848B184480068401E834978
:108D900008600846006808B9002008607F4800683D
:108DA0007F49086053E27E4800787E49087032208F
:108DB0007D4908601120644908707C4A744B1B7817
:108DC000D15C7B4A704B1B78D05C01F039FF0020EE
:108DD0007849086078485F49097850F82100774958
:108DE000086077485B490978405C6F4909684843E7
:108DF000744908600846016870480068FFF7E6FBA0
:108E000025E250480078012866D102204D490870BB
:108E10005D4800785949097801EB4101594A02EB54
:108E2000C1014870494800685449097801EB410183
:108E300002EBC1014860514800785049097801EBC4
:108E4000410102F83100604800684C49097801EBA3
:108E5000410102EBC101C8605C48006847490978DC
:108E600001EB410102EBC101886044480078401CDD
:108E700042490870104690F8D900434908703F48AD
:108E80000078062806DA3D480078012802DD19201E
:108E9000FDF725FB394800784D490978884215DBF4
:108EA0000020364908703748806B3E280AD835487C
:108EB000006D3E2806D83348806E3E2802D8FFF762
:108EC000E7FA06E012202049087002E010201E494F
:108ED000087000201D490860B9E12A4890F8D900BF
:108EE00029490870294890F8D900294908701320A9
:108EF000154908702648007800F0800038B92448E9
:108F00000078112803DC22480078012801DAFFF7F5
:108F1000BFFA1E48D0F8E00040F28371884268D959
:108F20001A48D0F8E00040F6B861884254D9294880
:108F300000680A302749086053E00000420300201F
:108F40006D0100204C010020D80000205C010020B1
:108F5000840A00206E01002040030020430300200B
:108F60002C030020E4C307008808002090BE060000
:108F7000380300203C030020100500207001002071
:108F800014030020A408002072010020940900208E
:108F900074010020730100207501002038010020B9
:108FA0004401002025010020340100201708002082
:108FB000FC070020540100203C2501007C02002019
:108FC000E4250100800200206401002060010020EF
:108FD000710100203C010020F9480068401CF8495C
:108FE0000860F74800682D2817D92D20F44908603B
:108FF00013E0F448D0F8E00040F2077188420CD248
:10900000EF48006848B1EE480068401EEC4908602F
:109010000846006808B900200860E9480068EA4985
:10902000086014E1E8480078E84908703220E8490F
:1090300008601420E7490870E74AE84B1B78D15CC8
:10904000E74AE84B1B78D05C01F0FAFD0020E649C6
:109050000860E648E649097850F82100E5490860CB
:10906000E548E3490978405CD94909684843E34940
:10907000086008460168DF480068FFF7A7FAE6E0E5
:10908000DF480078012866D10220DD490870D34806
:109090000078DC49097801EB4101CA4A02EBC101C1
:1090A0004870D9480068D749097801EB410102EBC3
:1090B000C1014860D3480078D249097801EB4101E9
:1090C00002F83100D1480068CE49097801EB41012E
:1090D00002EBC101C860CE480068CA49097801EBBB
:1090E000410102EBC1018860C6480078401CC549B7
:1090F0000870104690F8D900B8490870C148007847
:10910000062806DABF480078012802DD1920FDF79D
:10911000E6F9BC480078BF490978884215DB002091
:10912000B8490870A748806B3E280AD8A548006D4A
:109130003E2806D8A348806E3E2802D8FFF7A8F93B
:1091400006E01520A349087002E01320A149087029
:109150000020AD4908607AE001F00AFF01F042FF0B
:1091600001F087FF01F060FE01F0ABFEAA48016844
:10917000AA48006802F088F802F053FC02F0B9F93E
:10918000A7480078042802D002F02BF801E002F092
:10919000B1FC02F0B8FCA3480078A349C870A1480C
:1091A0000088000A0871A148007848719F4800882B
:1091B000000A88719E480078012802D102209C494B
:1091C000087001209B4908601620824908703EE023
:1091D0000A20804908700020954908709648D0F808
:1091E000800040F28371884218D99348D0F88000FB
:1091F000B0F57A6F05D9914800680A308F49086048
:1092000004E08E480068401C8C4908608B48006868
:109210000F2817D90F208949086013E08648D0F835
:10922000800040F2077188420CD28448006848B13F
:1092300082480068401E814908600846006808B9F5
:10924000002008607D4800685F49086000BF00BFDB
:1092500010BD10B5FFF73AFA79480068022803D12B
:1092600000207849086005E075480068012801D1B0
:10927000744908607448007818B974480078002868
:1092800067D06F480068022827D16F48007800280F
:109290005FD055206E49087056204870F3208870C2
:1092A0000A20C87002200871F220487101208871DC
:1092B00068480078C87168480078087200204872D1
:1092C0008872C872087348730F21614803F01BFD50
:1092D00000BF00205C4908703BE059480068012845
:1092E00037D159480078C8B102205C490870F22093
:1092F00048700120887057480078C8705648007838
:109300000871002048718871C87108724872084657
:1093100002F09DFE00BF00204B4908704B480078CA
:10932000B8B102204D490870B420487011208870EF
:109330001220C87001200871487100208871C8711E
:1093400008724872084602F082FE00BF00203F49C2
:10935000087043480078012816D13948006802286F
:1093600006D140480068012802D1FEF7BBFE0BE0A1
:1093700033480068012807D100BF3B480068002837
:10938000FBD00020384908603848007801286FD1A8
:109390002B480068022802D1FEF7A4FE0BE0284803
:1093A0000068012807D100BF2F4800680028FBD0C3
:1093B00000202D49086000202C4908705AE057E031
:1093C0003C010020940900204401002025010020D8
:1093D00034010020D800002017080020740100206C
:1093E000FC07002072010020540100203C250100F0
:1093F0006E0100207C020020E42501008002002094
:109400004C010020700100205C010020640100205C
:109410006001002071010020AC020020A8020020A1
:1094200015030020C802002072080020CC02002092
:10943000140300200C480040840A00204001002052
:10944000240300202C490040980300209E030020A4
:10945000BC07002097030020990300207C07002010
:10946000F8010020C0030020200300209901002003
:10947000FEF7DFF9FB480078F8B9FB4800780128CF
:1094800006D103F08EFC42F21070FCF754FF14E09A
:10949000F6480078012806D103F098FC4FF47A7062
:1094A000FCF749FF09E0F2480078012805D103F0F4
:1094B000A2FC4FF47A70FCF73EFF0020ED490860F3
:1094C00010BD10B500220121EB4806F04DFF00222F
:1094D0000221E94806F048FF00220421E64806F090
:1094E00043FF00220821E44806F03EFF002210213D
:1094F000E14806F039FF00224FF40051DE48C03049
:1095000006F032FF00224FF40061DB4806F02CFF2A
:1095100000224FF48051D84806F026FF0120D74999
:10952000087248720121D5480177417780F83010E0
:1095300080F8311080F8441080F8451080F85810F9
:1095400080F8591080F86C1080F86D1080F8801049
:1095500080F8811080F8941080F8951010BDFCF709
:10956000D9FEFCF7FFFE01F033FBFCF79EFFFFF78F
:10957000A8FFFDF74BFAFDF7E7F90022C049C14803
:1095800004F061FF02F081FC04F076FF352001F069
:1095900014FB03213520FCF7ADFE0020B549C03196
:1095A0000860B44970310860002404E04FF47A7018
:1095B000FCF795FF641C40F2DC508442F6DB01208E
:1095C000AC497031086000BFAF4800780228FBDB6F
:1095D000AE480068022839D1AB480078022835DB54
:1095E000AB480078002830D00020A949087001203D
:1095F000A04970310860A748007800F001000028F9
:1096000023D1A448007820F00100401CA149087033
:109610000846007820F00200801C087001224020DB
:1096200002F056FDFCF776FE9B48006920F08000B2
:10963000994908610846006920F01000086106F0A9
:1096400050F906F057F901F0C3FA75E08F48006849
:10965000012838D18C480078022834DB8C48007807
:10966000002869D000208A490870012081497031A2
:1096700008608848007800F0010000285CD0854828
:10968000007820F00100834908700846007820F037
:109690000200801C08700122402002F019FDFCF736
:1096A00039FE7D48006920F080007B49086108464A
:1096B000006920F01000086106F013F906F01AF9AD
:1096C00001F086FA38E071480068A8BB6E4800785F
:1096D000022831DB6E48007870B300206C490870B6
:1096E00001206449703108606A48007800F0010088
:1096F00010B36848007820F00100664908700846F9
:10970000007820F00200801C08700122402002F046
:10971000DFFCFCF7FFFD6048006920F080005E4937
:1097200008610846006920F01000086106F0D9F8C9
:1097300006F0E0F801F04CFA05E0FFF78AFDFDF7CE
:1097400074FBFDF7EEF8F8E74A49343109684B4AF3
:109750001172484938310968CAB248490A774549FF
:109760003C310968CAB2454981F83020414940314D
:109770000968CAB2414981F844203E494431096828
:10978000CAB23E4981F8582044490968CAB23B49E7
:1097900081F86C20097A394A527A914260D00121CD
:1097A0003F4A11703549097A01295AD10021334ABB
:1097B00011743C494A783C49097891433A4A1170FE
:1097C0002E49487C4AE0394A411C515C11541146EB
:1097D000095C374A1278914203D1284981F8250063
:1097E0003AE03249095C334A1278914203D1234965
:1097F00081F8390030E02D49095C2F4A12789142F6
:1098000003D11E4981F84D0026E02849095C2B4A06
:109810001278914203D1194981F861001CE0234973
:10982000095C274A1278914203D1144981F87500E6
:1098300012E01E49095C234A1278914203D10F4974
:1098400081F8890008E01949095C1F4A12789142A1
:1098500002D10A4981F89D00411CC8B20628B2DB3A
:1098600061E033E0FC0000209A0300209B0300200D
:109870009C0300200C480040404000407004002041
:109880000DBF0000C42201001803002014040020B2
:10989000250200202C02002000000C40344900402A
:1098A00099010020810100209A010020300600204B
:1098B00084010020870100208A0100208D01002002
:1098C000900100209301002096010020FE490978B4
:1098D000FE4A1174FC494978FD4A12781143FC4A4A
:1098E00011700021FB4A117000201AE0FA49F94A70
:1098F0001278895C71B9F749097805290ADCF349BE
:10990000097CF54AF34B1B78D154F2490978EF4AA8
:1099100051740620EF490978491CEE4A1170411C28
:10992000C8B20628E2DBE949097AE84A51721146D1
:109930000A7F497F8A4261D00121E84A1170E349D8
:10994000097F01295BD10022E04981F82420E44904
:109950004A78DF4909789143DD4A1170DB4991F873
:10996000250049E0DC4A411C515C11541146095C58
:10997000D54A1278914202D1D44948743AE0D64986
:10998000095CD84A1278914203D1D04981F8390054
:1099900030E0D149095CD44A1278914203D1CB49D5
:1099A00081F84D0026E0CC49095CD04A12789142FA
:1099B00003D1C64981F861001CE0C749095CCC4A63
:1099C0001278914203D1C14981F8750012E0C24971
:1099D000095CC84A1278914203D1BC4981F88900D8
:1099E00008E0BD49095CC44A1278914202D1B749E6
:1099F00081F89D00411CC8B20628B3DB2FE0B849AE
:109A00000A78B24981F82420B5494978B04A1278D9
:109A10001143AF4A11700021AE4A117000201CE0C2
:109A2000AD49AC4A1278895C81B9AA4909780529FF
:109A30000CDCA64991F82410A74AA64B1B78D154F8
:109A4000A4490A78A14981F825200620A14909786E
:109A5000491CA04A1170411CC8B20628E0DB9B4992
:109A60000A7F4A7791F8302091F831108A4262D00B
:109A700001219A4A1170954991F8301001295BD162
:109A80000022924981F8382096494A78904909780D
:109A900091438F4A11708D4991F8390049E08E4AFF
:109AA000411C515C11541146095C8D4A1278914257
:109AB00003D1864981F8250039E08749095C824A4B
:109AC0001278914202D18149487430E08249095CA0
:109AD000854A1278914203D17C4981F84D0026E0F5
:109AE0007D49095C814A1278914203D1774981F816
:109AF00061001CE07849095C7D4A1278914203D1EB
:109B0000724981F8750012E07349095C794A12784C
:109B1000914203D16D4981F8890008E06E49095CE2
:109B2000754A1278914202D1684981F89D00411C22
:109B3000C8B20628B3DB2FE06A490A78634981F886
:109B4000382068494978624A12781143604A117096
:109B50000021604A117000201CE05F495D4A1278C4
:109B6000895C81B95B49097805290CDC574991F872
:109B70003810594A574B1B78D15456490A785349E3
:109B800081F83920062053490978491C514A11703F
:109B9000411CC8B20628E0DB4C4991F8302081F81E
:109BA000312091F8442091F845108A4262D0012179
:109BB0004A4A1170454991F8441001295BD10022AD
:109BC000424981F84C2048494A78414909789143F3
:109BD0003F4A11703D4991F84D0049E03E4A411C11
:109BE000515C11541146095C3D4A1278914203D1EF
:109BF000364981F8250039E03749095C394A12783D
:109C0000914203D1314981F839002FE03249095C92
:109C10002D4A1278914202D12C49487426E02E49EF
:109C2000095C324A1278914203D1284981F86100D7
:109C30001CE02949095C2E4A1278914203D123493C
:109C400081F8750012E02449095C2A4A1278914291
:109C500003D11E4981F8890008E01F49095C264AA2
:109C60001278914202D1194981F89D00411CC8B275
:109C70000628B3DB4AE01C490A78144981F84C20D5
:109C800019494978124A12781143114A117000217A
:109C9000104A1170002037E00F490E4A1278895C93
:109CA00081B90C49097805290CDC084991F84C1058
:109CB000094A084B1B78D15406490A78034981F8B0
:109CC0004D200620034919E0810100207004002086
:109CD0009A0100209B0100203006002099010020FD
:109CE00084010020870100208A0100208D010020CE
:109CF0009001002093010020960100200978491C62
:109D0000F84A1170411CC8B20628C5DBF64991F823
:109D1000442081F8452091F8582091F859108A4242
:109D200062D00121F14A1170EF4991F858100129D0
:109D30005BD10022EC4981F86020ED494A78ED4979
:109D400009789143EB4A1170E74991F8610049E0C5
:109D5000E94A411C515C11541146095CE74A1278EA
:109D6000914203D1E04981F8250039E0E249095CDC
:109D7000E34A1278914203D1DB4981F839002FE0A0
:109D8000DD49095CDF4A1278914203D1D64981F856
:109D90004D0025E0D849095CDB4A1278914202D196
:109DA000D14948741CE0D449095CD84A12789142E0
:109DB00003D1CD4981F8750012E0CF49095CD44A3E
:109DC0001278914203D1C84981F8890008E0CA4954
:109DD000095CD04A1278914202D1C34981F89D00B2
:109DE000411CC8B20628B3DB2FE0C1490A78BE493E
:109DF00081F86020BE494978BE4A12781143BD4AB5
:109E000011700021B74A117000201CE0BA49B54A10
:109E10001278895C81B9B349097805290CDCB2490B
:109E200091F86010B44AAF4B1B78D154AD490A7811
:109E3000AD4981F861200620AA490978491CA94A40
:109E40001170411CC8B20628E0DBA74991F85820E0
:109E500081F8592091F86C2091F86D108A4262D0F7
:109E60000121A24A1170A04991F86C1001295BD11F
:109E700000229D4981F87420A4494A789D490978B7
:109E800091439C4A1170984991F8750049E09A4AAB
:109E9000411C515C11541146095C984A1278914258
:109EA00003D1914981F8250039E09349095C944A2E
:109EB0001278914203D18C4981F839002FE08E4904
:109EC000095C904A1278914203D1874981F84D008C
:109ED00025E08949095C864A1278914203D182497A
:109EE00081F861001BE08449095C874A127891423D
:109EF00002D17D49487412E07F49095C844A127896
:109F0000914203D1784981F8890008E07A49095CD7
:109F1000804A1278914202D1734981F89D00411C18
:109F2000C8B20628B3DB2FE078490A786E4981F879
:109F30007420764949786F4A127811436D4A11703E
:109F40000021684A117000201CE06B49654A1278B4
:109F5000895C81B96349097805290CDC624991F86B
:109F60007410654A5F4B1B78D1545E490A785E498C
:109F700081F8752006205B490978491C594A1170FF
:109F8000411CC8B20628E0DB574991F86C2081F8E3
:109F90006D2070476048007810B1012816D116E096
:109FA0005E4800685E49086000205E4908605E49BE
:109FB00008605E4908605E4908605E4908705E4955
:109FC000087055480078401C5349087040E15348D8
:109FD000006853490968401A02281FD8574800688A
:109FE000012805D14F480068401C4E49086004E034
:109FF0004D480068401C4C4908605048001D0068EE
:10A00000012805D149480068401C484908601EE104
:10A0100047480068401C4649086018E1414800680C
:10A0200041490968884203D901204549087008E080
:10A030003C4800683C490968884202D200204049F7
:10A0400008703A4800683A490968884203D90120F3
:10A050003C49087008E0354800683549096888427D
:10A0600002D2002037490870354800783549097810
:10A07000884277D134480068401C3349086008465C
:10A080000068022805D30220086001202F490870CB
:10A09000C8E000202D4908702D48007801280DD116
:10A0A000284800782B490978884207D0022028499F
:10A0B0000870012020490870274908702748007857
:10A0C00001280DD11E48007825490978884207D01B
:10A0D0000220224908700120164908701E490870A4
:10A0E000A0E03FE09B0100207004002099010020C7
:10A0F0008D0100209A0100203006002084010020FC
:10A10000870100208A0100208101002090010020A9
:10A1100093010020960100209F0100202C010020C7
:10A12000BC010020D8010020DC010020E00100205B
:10A13000E4010020A2010020A10100206C480040A1
:10A14000A5010020A7010020C8010020A0010020D7
:10A150009D010020AE010020F80100209E0100209A
:10A16000AD0100200020F9490860F9480078012875
:10A170003AD1F8480078F8490978884215D0F5486E
:10A180000078F649097888420FD0F3480078F449FE
:10A1900008700020F34908700120F349087000207E
:10A1A000F2490870F24908601AE0EA480078EA4982
:10A1B0000978884214D0E8480078EE490978884246
:10A1C0000ED0E4480078EC4908700020E54908709A
:10A1D000E54908700120E54908700020E74908605A
:10A1E0000020DB4908701DE0DF48007802280AD112
:10A1F000D8480078D9490978884204D0DC480068FA
:10A20000401CDB490860D948007802280AD1D248AE
:10A210000078D8490978884204D0D8480068401CA2
:10A22000D6490860CB480078CC490870CA48007805
:10A23000D04908700020D2490860D2490860D2494C
:10A240000860D2490860D2480068D249086000BF5F
:10A2500000BF704710B5D048007801283ED10020DB
:10A26000CE490870CE490870CE480068C0430978CE
:10A2700060F30001CA480170CA48001D0068C0436D
:10A28000C749097860F34101C5480170C5480830E5
:10A290000068C043C249097860F38201C048017078
:10A2A000C0480C300068C043BD49097860F3C30161
:10A2B000BB480170BB4810300068C043B8490978FA
:10A2C00060F30411B6480170B648F4300068C0432A
:10A2D000B349097860F34511B14801700020B149D4
:10A2E0003C310860B0480078012806D0022859D0D7
:10A2F00003287DD004287CD1ADE0A7480078012850
:10A300001BD10620A9490870A94800784870A948BF
:10A3100000788870A7484078C870A648807808718F
:10A32000A448C0784871A34800798871A148407951
:10A33000C871084601F05EFE00BF9F480078012802
:10A340002FD1062099490870012048700020C8705C
:10A35000087148718871C87198480078012805D142
:10A36000572088700020954908700EE094480078C6
:10A37000012806D156208D49887000209049087028
:10A3800003E00020894948708870884801F032FE57
:10A3900000BF0020884908708448807808B10120F7
:10A3A0000870AAE07C48007801281BD106207F496C
:10A3B00008707F48007848707E48007888707D4833
:10A3C0004078C8707B48807808717A48C0784871B6
:10A3D00078480079887177484079C871084601F05B
:10A3E00009FE00BF74480078012832D1062001E040
:10A3F00030E07EE06D490870012048700020C87090
:10A40000087148718871C8716C480078012805D1BD
:10A41000572088700020694908700EE0684800786D
:10A42000012806D1562061498870002064490870CF
:10A4300003E000205D49487088705C4801F0DAFD57
:10A4400000BF00205C4908705848807808B101209E
:10A45000087052E051E050480078012813D10220E2
:10A4600052490870F02048704D48007888700020EC
:10A47000C870087148718871C871087248720846BE
:10A4800001F0E5FD00BF4C480078012830D14B4871
:10A490000078012805D14549C87100204749087056
:10A4A0000DE047480078012806D102203F49C871D5
:10A4B00000204349087002E000203C49C871022096
:10A4C0003A490870F020487000208870C870087100
:10A4D0004871887108724872084601F0B8FD00BFE3
:10A4E0000020354908703148C07908B10120087052
:10A4F00003E002202C49087000BF00BF2848007804
:10A5000030B92D48007818B9012026493C3108603F
:10A5100010BD10B52B48007803287DD12A4800785B
:10A52000032879DC294800780028F6D101201D494C
:10A530003C3108602648007801284BD002287CD0A6
:10A5400003286BD004286AD1CAE00000C8010020AB
:10A55000A0010020A5010020A7010020A6010020E5
:10A56000AE0100209F0100209D0100209E010020DF
:10A57000B4010020A8010020AD010020B801002096
:10A58000D8010020DC010020E0010020E4010020CF
:10A590002C010020BC01002099010020CD000020EA
:10A5A000CC000020404800409C0100207C07002097
:10A5B0009A01002030060020F8010020A1010020AF
:10A5C000A201002030010020D8000020400300201C
:10A5D000150300205520FE49087056204870F420CD
:10A5E00088700A20C8700920087100204871F94855
:10A5F00000788871F7480088000AC871F64800782A
:10A600000872F5480088000A487200208872C872F3
:10A61000087348730F2103E0C3E00EE05DE08EE0B5
:10A62000EB4802F080FB00BF0020EC490870E848CE
:10A63000407908B10320087085E0E94800680128E6
:10A640001BD1E8480068022817D1E7480278E248A1
:10A650000168E0480068FCF710FEE4480078DC4937
:10A660008871E2480088000AC871E14800780872E1
:10A67000DF480088000A48720EE0D6480078D449C6
:10A680008871D4480088000AC871D34800780872DD
:10A69000D1480088000A48725520CD4908705620DC
:10A6A0004870F42088700A20C87007200871C02004
:10A6B000487100208872C872087348730F21C4481B
:10A6C00002F031FB00BF0020C4490870C048407947
:10A6D000C02801D00320087035E0FCF7F9FC32E017
:10A6E0005520BB49087056204870F42088700A2015
:10A6F000C87002200871C0204871B648007888717F
:10A70000B4480088000AC871B34800780872B2489B
:10A710000088000A487200208872C8720873487363
:10A720000F21AB4802F0FFFA00BF0020AB490870D0
:10A73000A7484079C02801D00320087003E0012019
:10A74000AC49087000BF00BF0020AB490860AB49AE
:10A750000860AB490860AB490860AB490860AB4989
:10A760000860AB490860AB490860AB490860AB4979
:10A770000860AB490860AB490860AB49C860AB49A9
:10A780008860A9494860A9490860A7498860A74925
:10A790004860C8600861486108764876A449087036
:10A7A0000AE2A44800780228FADBA3480078FF28D0
:10A7B000F6D0A24800780128F2D19B48C06810B9B1
:10A7C0009D48007830B19848C06838B99A480078F8
:10A7D000042803D101209A49087004E00020994917
:10A7E00008609749087093480078032845D1964837
:10A7F000007830B10020954948718871814908601E
:10A8000018E093480078A8B17A480078042808D165
:10A81000904800788D4948718E480088000A8871F8
:10A8200008E00F20894948712720887142F20F7093
:10A83000744908608848007830B100208349C870A6
:10A8400008716F49086018E084480078A8B1694829
:10A850000078042808D1824800787C49C870804874
:10A860000088000A087108E07F207849C8703E20FF
:10A87000087143F67F60624908605E4800780128ED
:10A8800006D002284AD003287DD004287CD11BE1C1
:10A890006548C06838B968480078002101EB40007D
:10A8A0007049087014E04D48007850B9624800784B
:10A8B000002101EB40006B49087000205A49C86034
:10A8C00006E05D480078012101EB40006549087011
:10A8D00055203F49087056204870F42088700820A1
:10A8E000C870092008715F48007848715748C078DF
:10A8F000887156480079C8715448407908725348A5
:10A90000807948724848007B887247488089000AED
:10A91000C8720F212E4802F006FA2BE14248C068A7
:10A9200050B945480078A02101EB40004D4908701E
:10A9300000204D49087017E001204B490870274856
:10A94000007850B93C480078A02101EB400045490F
:10A95000087000203449C86006E037480078A1211B
:10A9600001EB40003F4908701D48006801281ED1D6
:10A970001C48006802281AD11B4802782148016847
:10A980001F48006801E09CE0F0E0FCF776FC174807
:10A9900000780F49887115480088000AC87114486A
:10A9A0000078087212480088000A48720EE01448C5
:10A9B00000780749887112480088000AC871114858
:10A9C000007808720F480088000A487255204DE050
:10A9D000BC070020100100201401002030010020DD
:10A9E0001402002014040020180200207C01002022
:10A9F0007801002015030020080300200C0300202C
:10AA0000C8020020CC020020C0020020C4020020A6
:10AA1000A8020020AC020020B0020020B4020020F6
:10AA2000B8020020BC020020100500208808002089
:10AA30008001002014030020430300204003002075
:10AA40004F0100207C480040A20200207208002034
:10AA5000A30200200C010020A4020020A502002077
:10AA600008010020500100204403002065490870BF
:10AA700056204870F42088700A20C870072008719A
:10AA80006148007848716148C07888715F480079F2
:10AA9000C8715E48407908725C48807948725C48A9
:10AAA000007B88725A488089000AC8725948007829
:10AAB00008735948007848730F21524802F033F95F
:10AAC00058E0FCF705FB55E05148C06850B95348C1
:10AAD0000078A02101EB40004B490870002050494C
:10AAE000087017E001204E4908704E48007850B9B0
:10AAF0004A480078A02101EB40004349087000203B
:10AB00004349C86006E045480078A12101EB4000B8
:10AB10003D49087055203B49087056204870F42084
:10AB200088700A20C8700220087137480078487180
:10AB30003648C078887135480079C8713348407903
:10AB400008723248807948723148007B88723048F8
:10AB50008089000AC8722F48007808732E48007850
:10AB600048730F21274802F0DEF803E001202E4948
:10AB7000087000BF00BF00BF2248C0792B490860A1
:10AB800020488079096800EB0120284908601D48A9
:10AB9000407A274908601B48007A096800EB0120C9
:10ABA000234908601A48C0682249086003201D49EB
:10ABB000087000202049087010BD00F01F0201211C
:10ABC00091404209920002F1E022C2F80011704760
:10ABD00000201A4908607047016841F08041016017
:10ABE0007047016821F0804101607047016841F0C1
:10ABF000005101607047816821F0020141F00101BC
:10AC000081607047BC0700205001002072080020BE
:10AC100010050020A0020020A10200204303002014
:10AC20004403002030010020150300201001002003
:10AC30001401002010030020FC000020000100404F
:10AC4000C0F3C0126F4B1A60C0F380126D4B2033FB
:10AC50001A60C0F340121B1F1A60C0F300121B1FC2
:10AC60001A60C0F3C0021B1F1A60C0F38002654B5C
:10AC70006C331A60C0F340021B1F1A6000F001021F
:10AC80001B1F1A608A095F4B443B1A604A091B1F4D
:10AC90001A600A091B1F1A60CA081B1F1A608A085B
:10ACA0001B1F1A604A081B1F1A601A1F1160704789
:10ACB00010B5002000210122F823534C237000BF5F
:10ACC0001AE0002115E0032809D0504B13F820307A
:10ACD0004F4C645C23444C4CA354521C08E04B4B37
:10ACE00013F820304B4C645C2344474CA354521C53
:10ACF000491C0729E7DD401C0428E2DD10BD10B522
:10AD0000002000210122F823434C237000BF1AE0E9
:10AD1000002115E0022809D0404B13F82030404CA8
:10AD2000645C23443C4CA354521C08E03B4B13F896
:10AD300020303C4C645C2344374CA354521C491CC7
:10AD40000729E7DD401C0328E2DD10BD01212D4A63
:10AD50005C3A1160121D1160121D1160121D11600C
:10AD6000121D1160121D1160121D1160C109254ACA
:10AD70001160C0F38011234A20321160C0F34011EA
:10AD8000121F1160C0F30011121F1160C0F3C00147
:10AD9000121F1160C0F380011A4A6C321160C0F3B7
:10ADA0004001121F116000F00101121F1160704775
:10ADB0000121144A14321160121D1160121D11601C
:10ADC000121D11600F4A11600E4A64321160121D8B
:10ADD0001160121D116081110A4A443A116041113B
:10ADE000121F11600111121F1160C110121F11609A
:10ADF0008110121F11604110121F1160111F086095
:10AE000070470000DC480040FC07002034020020AE
:10AE10005C0200206C02002017080020480200207D
:10AE200064020020740200204C4949684C4A1268B0
:10AE3000914245D349494968494AD2F85021914243
:10AE40000ED946494968464AD2F85021891A444ADF
:10AE5000126848F240331A441144424A11602FE00C
:10AE600000202BE03D4949683D4A52F8202091429C
:10AE700022D93A493A4B4A68411C53F821108A4278
:10AE80001AD8364949681A4652F82020891A4FF4D0
:10AE9000C8725143421C53F8222053F82030D21A72
:10AEA000B1FBF2F12E4A12684FF4C87303FB002283
:10AEB00011442C4A11605420411C88B25428D1DB23
:10AEC000704726498968284A1268914245D3234928
:10AED0008968254AD2F8D82091420ED91F4989683D
:10AEE000214AD2F8D820891A1F4A126845F26043D5
:10AEF0001A4411441D4A11602FE000202BE017492D
:10AF00008968194A52F82020914222D91349164BD8
:10AF10008A68411C53F821108A421AD80F4989685F
:10AF20001A4652F82020891A4FF4C8725143421C25
:10AF300053F8222053F82030D21AB1FBF2F10A4A1A
:10AF400012684FF4C87303FB00221144074A1160D2
:10AF50003620411C88B23628D1DB7047100500200E
:10AF60000C230100A802002060240100AC02002094
:10AF700010B500240021FB48C0F8E010FA48C0F8E2
:10AF8000E01000BF2BE004EB4400F64901EBC000E9
:10AF90008168F448D0F8E000814209D304EB440012
:10AFA000F04A02EBC0011822EE48D83006F01CFA35
:10AFB00004EB4400EC4901EBC0008168EA48D0F89A
:10AFC000E000814209D304EB4400E74A02EBC001F0
:10AFD0001822E548D83006F007FA601CC4B2092CE4
:10AFE000D1DB10BD2DE9FE43DE4890F8D800DF49E3
:10AFF000087008460078801E00EB4000D94901EB3C
:10B00000C0008468D9480078401E00EB400001EB86
:10B01000C0008568D548007800EB400001EBC00017
:10B020008668D2480078401C00EB400001EBC0006D
:10B030008768CE480078801C00EB400001EBC00020
:10B04000D0F808804FF4A661C848007800EB4000B3
:10B05000C44A02EBC00040783B463246CDE900804E
:10B0600002912946204606F080FBC1494860BDE8B0
:10B07000FE832DE9FE43BC4890F8D800BB49087018
:10B0800008460078801E00EB4000B74901EBC00085
:10B090008468B6480078401E00EB400001EBC00019
:10B0A0008568B248007800EB400001EBC00086687C
:10B0B000AE480078401C00EB400001EBC000876800
:10B0C000AA480078801C00EB400001EBC000D0F8DB
:10B0D00008804FF4A661A548007800EB4000A24A22
:10B0E00002EBC00040783B463246CDE90080029139
:10B0F0002946204606F039FB9D498860BDE8FE835D
:10B100009C48006840F6F61188420BD803209A4903
:10B1100008700120994908700020994908709949E0
:10B12000086025E0934800684CF6D07188420DD93C
:10B1300003209149087001209149087000208F492F
:10B14000087047F6FE408F49086011E089480068A2
:10B15000A0F6F61047F6FE4148434CF2DA51B0FB38
:10B16000F1F088490860002084490870844908701B
:10B170008048406840F6543188420BD803207E490D
:10B1800008700120804908700020804908708049BB
:10B19000086025E07748406847F6A82188420DD925
:10B1A000032075490870012078490870002076490D
:10B1B000087044F61F607649086011E06D484068E9
:10B1C000A0F6543044F61F61484346F65471B0FB74
:10B1D000F1F06F49086000206B4908706B490870F6
:10B1E00070476C48006878B16A48006847F6FE41CD
:10B1F000884209D867480068491048434900B0FBB5
:10B20000F1F0654908600FE06248006818B9002055
:10B210006149086008E05F48006847F6FE418842DF
:10B2200002D948105C4908605C48006880B15B48FE
:10B23000006844F61F6188420AD8584800684910DF
:10B24000484344F61F61B0FBF1F0554908600FE038
:10B250005248006818B900205149086008E04F487A
:10B26000006844F61F61884202D948104C490860C2
:10B270004C480068022806D14748006843F67F61C1
:10B28000081A45490860704738B504460D464648D7
:10B29000006838B93648C06820B100203549C86018
:10B2A00008610876414800903148324B2946C2680F
:10B2B000204606F033FB3C48006860B92C48C06863
:10B2C00048B13B48006830B900202949C8600120D6
:10B2D0003749086002E000203549086038BD0A207F
:10B2E000344908602748006833490968884207D311
:10B2F0002448006830490968401A3049086006E06F
:10B300002D4800681F490968401A2C4908602048E8
:10B3100000682B490968884207D31D4800682849FE
:10B320000968401A2749086006E02548006818495E
:10B330000968401A23490860204800681D490968C7
:10B34000884241D30F48006847F6FE4188423FD803
:10B350000C4800680F4908600A48006816490860F0
:10B3600036E00000A408002094090020D802002044
:10B37000100500208808002014030020A4020020EB
:10B38000A5020020B8020020A2020020A302002093
:10B39000BC020020B8020020C8020020BC0200202D
:10B3A000CC02002014040020100300203C080020E0
:10B3B0009C020020E002002008030020E40200209C
:10B3C0000C030020E8020020F9480068F9490860F1
:10B3D000F9480068F949096888420ED3F8480068BE
:10B3E00044F61F6188420CD8F5480068F5490860AA
:10B3F000F3480068F449086003E0F3480068F14945
:10B4000008607047F1490968E94A1268914207D318
:10B41000EE490968E64A1268891AED4A116006E0A9
:10B42000E3490968E94A1268891AE94A1160E4495E
:10B430000968E54A1268914207D3E1490968E24A7E
:10B440001268891ADC4A116006E0DF490968DC4AA3
:10B450001268891AD84A1160DD490968D64A12680B
:10B46000114481423CD3D949096847F6FE429142D2
:10B4700017D8CF49096861B1D4490968CC4A126824
:10B4800011444908CB4A1160D0490968C84A116083
:10B4900007E0CE490968C74A1160CC490968C44A27
:10B4A0001160C749096844F61F62914220D8C64915
:10B4B000096861B1C2490968C34A12681144490860
:10B4C000C04A1160BE490968BF4A116010E0BC491A
:10B4D0000968BC4A1160BA490968BB4A116007E0B3
:10B4E000B3490968B34A1160B7490968B54A1160A0
:10B4F000704700B5B548006847F61611884205D96F
:10B50000AF48006844F6372188421FD8AF4800682A
:10B51000B0F57A7F05D2AA48006844F63721884200
:10B5200014D8AA48006847F61611884204D9A448DE
:10B530000068B0F57A7F09D3A4480068B0F57A7F37
:10B5400017D29F480068B0F57A7F12D20220A14935
:10B550000870A148D0F8E000B0F5487F05D99F48B1
:10B56000D0F8E000B0F5487F2FD800209C49087043
:10B570002BE09648006847F6161188420FD893488A
:10B580000068B0F57A7F0AD38D48006844F6372109
:10B59000884204D88A480068B0F57A7F12D2012028
:10B5A0008C4908708C48D0F8E000B0F5E17F05D9EF
:10B5B0008A48D0F8E000B0F5E17F06D8002088493D
:10B5C000087002E000208349087000208549086067
:10B5D00080480078022806D18348C06818B11E2030
:10B5E0007649086059E07B480078012806D17E48FA
:10B5F000C06818B11E20714908604EE07A48C068E2
:10B6000018B119206D49086047E072480078022897
:10B6100014D176480068801C7249086008460068AA
:10B620000F2804D37248C07B6449086035E0704835
:10B630006C490968405C614908602EE06548007803
:10B64000012814D169480068401C66490860084612
:10B6500000680F2804D36648C07B584908601CE086
:10B66000634860490968405C5449086015E05948DE
:10B67000007890B95D4800685A490860084600683B
:10B680000F2804D35A48C07B4C49086005E058484D
:10B6900054490968405C4949086048490878FFF7FF
:10B6A000B1FE00BD53480068B0F5C86F10D95148CD
:10B6B000006848F6103188420AD24E484068B0F51A
:10B6C000C86F05D94B48406845F63041884203D3DE
:10B6D00001204949087002E00020474908704548A8
:10B6E000006840F26C71884211D34248006848F605
:10B6F000801188420BD83F48406840F29E718842D2
:10B7000005D33C48406845F6D221884202D9002042
:10B710003549C860704737484068384909688842E9
:10B7200076D83748006835490968884270D92E486C
:10B73000C068D8B333480068C0BB012031490860F5
:10B740002C4840682D490968081A2F490968484360
:10B7500001EE100AB8EE412A2648406828490968D7
:10B76000081A01EE100AB8EE411AC2EE011A244876
:10B77000006822490968401A1E490968484301EED9
:10B78000100AB8EE412A1B4840681D490968081A8A
:10B7900001EE100AB8EE411AC2EE012A71EEA20AB9
:10B7A000BCEEE01A194880ED001A85E030E0000098
:10B7B00008030020C0020020E8020020E002002070
:10B7C000BC020020C40200200C030020B8020020AC
:10B7D000E4020020FC020020A408002094090020BC
:10B7E00040030020DC02002010050020380100206A
:10B7F000EC0200208808002017030020D40200205B
:10B800009802002084020020940200208C02002074
:10B81000D3484068D349096844F61F6211448842FE
:10B820004AD3D048006811460844CF490968884285
:10B8300042D9CE48C068E0B3CD480068C8BB0120FB
:10B84000CB490860C6484068C64909681144401A97
:10B85000C8490968484301EE100AB8EE412AC048B9
:10B860004068C1490968401A01EE100AB8EE411A51
:10B87000C2EE011ABB48006811460844BA4909687B
:10B88000401AB7490968484301EE100AB8EE412A48
:10B89000B3484068B4490968401A01EE100AB8EE8E
:10B8A000411AC2EE012A71EEA20ABCEEE01AB248B9
:10B8B00000E001E080ED001AAD480068012806D1E3
:10B8C0000220AB490860AC480068A5490860A4485C
:10B8D0000068AA490968884245D8A6480068A7496F
:10B8E000096888423FD9A148C068D8B3A448006815
:10B8F000C0BB0120A2490860994800689F490968B7
:10B90000081A99490968484301EE100AB8EE412A1D
:10B910009348006897490968081A01EE100AB8EEC2
:10B92000411AC2EE011A9348006894490968401A06
:10B930008B494968484301EE100AB8EE412A88480D
:10B9400000688C490968081A01EE100AB8EE411A1D
:10B95000C2EE012A31EEA20ABCEEC01A894880ED7F
:10B96000001A52E0FFE77E4800688449096847F6FC
:10B97000FE421144884248D380480068114608447A
:10B980007C490968884240D97848C068E8B37C4857
:10B990000068D0BB01207A49086071480068774987
:10B9A00009681144401A70490968484301EE100AB9
:10B9B000B8EE412A6A4800686E490968401A01EEEB
:10B9C000100AB8EE411AC2EE011A6C48006811461E
:10B9D000084468490968401A61494968484301EECA
:10B9E000100AB8EE412A5E48006862490968401AA8
:10B9F00001EE100AB8EE411AC2EE012A31EEA20A97
:10BA0000BCEEC01A5F4880ED001A5D48006801284E
:10BA100006D102205A4908605A48006850494860D7
:10BA200070474F4800685549096888420BD8032081
:10BA30005549087001205549087000205449087084
:10BA40005449086021E0464800684C49096847F6B7
:10BA5000FE42114488420CD303204B490870012058
:10BA60004B49087000204949087010464949086050
:10BA70000BE00020464908704449087038480068C7
:10BA80003E490968401A43490860354840683549CD
:10BA9000096888420BD803203B49087001203E49C1
:10BAA000087000203D4908703D49086021E02C489D
:10BAB00040682C49096844F61F62114488420CD33F
:10BAC00003203149087000203349087001203349B0
:10BAD00008701046324908600BE000202E490870BB
