:020000040800F2
:10380000380C002069390008DB5000087D460008AC
:10381000D9500008A5430008A96F00080000000067
:10382000000000000000000000000000E557000854
:10383000D9430008000000006D510008D559000868
:103840008339000883390008833900088339000868
:1038500083390008114400088339000883390008BF
:1038600083390008B9430008833900088339000808
:1038700083390008795A000883390008A95B0008D9
:10388000C95B00088339000800000000CD5A000819
:1038900083390008D15A00088339000883390008A9
:1038A0008339000883390008833900088339000808
:1038B0008339000800000000833900080000000080
:1038C0008339000800000000833900080000000070
:1038D00000000000000000000000000000000000E8
:1038E0000000000000000000D56E0008000000008D
:1038F00000000000000000000000000000000000C8
:1039000083390008000000000000000000000000F3
:1039100000000000000000000000000000000000A7
:103920000000000000000000000000000000000097
:103930000000000000000000000000000000000087
:10394000000000000000000000000000C96E000838
:10395000DFF810D000F070FB004800471984000821
:10396000AFF30080380C0020064880470648004727
:10397000FEE7FEE7FEE7FEE7FEE7FEE7FEE7FEE71F
:10398000FEE7FEE7D95900085139000830B50B466B
:10399000014600202022012409E021FA02F59D427F
:1039A00005D303FA02F5491B04FA02F52844151E53
:1039B000A2F10102F1DC30BD70B5002425460028DB
:1039C00001DA01244042002901DA01254942FFF7CA
:1039D000DDFFAC4200D04042002C00D0494270BD17
:1039E00040EA01039B0703D009E008C9121F08C081
:1039F000042AFAD203E011F8013B00F8013B521E01
:103A0000F9D27047D2B201E000F8012B491EFBD277
:103A100070470022F6E710B513460A4604461946D9
:103A2000FFF7F0FF204610BDF0B480EA0102D40F8A
:103A30004200B2EB410F02D20246084611464A004C
:103A400042D0C30DDDB2C1F3C752AD1A202D35DA15
:103A5000C1F3160141F4000204B15242C5F120063F
:103A600002FA06F12A411044B3EBD05F23D0C4B16F
:103A7000012DA0EBC35009DCF0BC4FF0004202EA7C
:103A8000C352DBB200F5000000F04ABA400000F17A
:103A9000807000EBC350A0F1807040EAD170490003
:103AA00009E0490841EAC071A0EBC35000F50000ED
:103AB000400800EBC350F0BC00F029BA614201227B
:103AC00002EB4101001BF6E7F0BC704781F00041BA
:103AD000AAE780F00040A7E780EA010210B502F0F3
:103AE0000043400022D04A001FD0010E01EB1261BA
:103AF000C0F35600C2F3560240F4000042F4000244
:103B0000A0FB022000047F39140400D0401C50EABE
:103B1000124001D44000491EC2B20C0604EBD01082
:103B2000401C4008802A02D003E0002010BD20F095
:103B30000100002900DA0020184310BD30B480EAEB
:103B4000010202F0004530F0004221F0004013D0A5
:103B500090B1C30DD40DC2F31601C0F31600E41AE0
:103B600041F4000140F400027D34914201D3641C11
:103B700000E04900002C02DA30BC002070474FF40E
:103B800000000023914201D3891A034340084FEA01
:103B90004101F7D151B1914202D14FF0004105E00E
:103BA00002D24FF0010101E06FF0010103EBC450BC
:103BB000284430BC00F0ABB92DE9FE4F804681EAC5
:103BC0000300C00F0C46009021F0004123F0004597
:103BD000B8EB0200A94105D24046214690461C465A
:103BE0000B46024623F00040104347D0270DC7F391
:103BF0000A00C3F30A510290401A019040286BDA80
:103C0000C3F3130040F4801B0098924620B10023B8
:103C1000D2EB030A63EB0B0B01985946C0F140024B
:103C2000504600F043F906460D4650465946019A63
:103C300000F05BF910EB08006141002487EA1152A3
:103C400084EAE7731A4340D0009A62B3019A012ACA
:103C50004FEA075215DC001B61EB02014FF00042F6
:103C600002EA0752CDE90042001C41F580113246BC
:103C70002B4600F092F903B0BDE8F08F4046214694
:103C8000F9E7001B61EB0201001C41F580130018ED
:103C90005B412018A2F5001747EB030140EAD570FD
:103CA000B6196D4111E06D084FEA360645EAC07558
:103CB0004FEA0752001B61EB0201001C41F5801125
:103CC00049084FEA30000019514132462B4603B0F3
:103CD000BDE8F04F00F052B90098012240000023E7
:103CE000D0EB020263EBE073009821464FEAE074E8
:103CF000B8EB000061EB0401E9E783F000435BE708
:103D000081F0004158E72DE9FE4F81EA030404F0F9
:103D1000004421F0004100944FF0000B23F00043D9
:103D200050EA01045ED052EA03045BD0C3F30A54A4
:103D3000C1F30A552C44A4F2F3340194A0FB0254BD
:103D4000C1F3130141F48011C3F3130343F480134F
:103D500001FB024400FB034E840A970A44EA8154A3
:103D600047EA8357A4FB076802958D0A05FB078580
:103D70004FEA932C04FB0C542705029D4FEA06588A
:103D800047EA1637B5EB08056EEB070C870E920E67
:103D900047EA811742EA8312A7FB0201B6EB0B0147
:103DA00064EB00042B0D43EA0C335E1844EB1C500B
:103DB000DA465146E7FB0201C5F313044FEA0B3321
:103DC00043EA14534FEA0432019C43EA0603A4F188
:103DD0000C040294009CCDE900B400F0DEF803B0BE
:103DE000BDE8F08F00200146F9E7C10F80EAE070DE
:103DF0000844CA079623002100F092B896230022B7
:103E0000114600F08DB80EB540F233410291002109
:103E1000CDE900110A460B4600F0BFF803B000BD23
:103E200000F0004220F00040C10DC0F3160040F445
:103E300000007F2901DA00207047962903DCC1F1D8
:103E40009601C84001E096398840002AF4D04042EB
:103E5000704720F00040C10DC0F3160040F4000090
:103E60007F2901DA00207047962903DCC1F1960111
:103E7000C8407047963988407047C1F30A5210B560
:103E8000C1F3130140F2FF3341F480119A4201DA89
:103E9000002010BD40F233439A42A2F2334203DCC9
:103EA000524200F012F810BD904010BD202A04DBF1
:103EB000203A00FA02F1002070479140C2F120033D
:103EC00020FA03F3194390407047202A04DB203A7C
:103ED00021FA02F00021704721FA02F3D040C2F12A
:103EE00020029140084319467047202A06DBCB1771
:103EF000203A41FA02F043EAE07306E041FA02F3A5
:103F0000D040C2F120029140084319467047002971
:103F1000A8BF7047401C490008BF20F0010070474F
:103F200010B4B0FA80FC00FA0CF050EA010404BFAF
:103F300010BC704749B1CCF1200421FA04F411FA05
:103F40000CF118BF012121430843A3EB0C01CB1D49
:103F50004FEA00614FEA102042BF002010BC7047BA
:103F600000EBC35010440029A4BF10BC7047401C94
:103F7000490008BF20F0010010BC704710B5141EA6
:103F800073F1000408DA401C41F1000192185B4112
:103F90001A4301D120F0010010BD2DE9F04D9246E9
:103FA0009B4611B1B1FA81F202E0B0FA80F2203200
:103FB0009046FFF77BFF04460F4640EA0A0041EABD
:103FC0000B0153465A46084313D0114653EA0100E9
:103FD00019D0C8F140025046FFF777FF05460E465C
:103FE000504659464246FFF761FF084305D001207D
:103FF00004E020463946BDE8F08D0020054346EA3E
:10400000E0762C4337430A986305E40AA0EB0800E6
:104010000022FD0A44EA47540A3002D50020014636
:10402000E9E7010510196941DDE908450019694111
:10403000BDE8F04DA2E70000064C074D06E0E06841
:1040400040F0010394E8070098471034AC42F6D3DF
:10405000FFF782FC04C0000824C0000870B58C186B
:1040600010F8015B15F0070301D110F8013B2A118C
:1040700006D110F8012B03E010F8016B01F8016B79
:104080005B1EF9D12B0705D40023521E0DD401F875
:10409000013BFAE710F8013BCB1A921C03E013F83E
:1040A000015B01F8015B521EF9D5A142D8D3002073
:1040B00070BD10B503F0D0F903F021F903F018F941
:1040C000BDE8104003F094B810B502F081FFBDE8E0
:1040D000104002F06BBF000010B51948017800EBEA
:1040E00041004088002804D01548B838407901289C
:1040F0001BD014490020C86003F060FC03F0FAF9FB
:1041000003F0D8FF04F010F803F0E8FB03F01EFC06
:1041100001F0F4FB00F062F900F0E0FF0A480078DB
:10412000042805D000F09EFF04E003F097F9E3E7D0
:1041300000F08EFF01F072FDBDE8104000F02EB8D7
:10414000FC040020940600203202002010B507482D
:104150000078062809D1FFF7BFFF04490220303953
:104160008871BDE8104002F047BE10BD7404002005
:104170000948007806280ED2DFE800F00D03050795
:10418000090B01F02DBA01F0F7B901F079BA07F087
:1041900047B907F067B97047740400202DE9F001B2
:1041A0004A49AA200870487088708C20C870502036
:1041B0000871322048712D2088712820C87108723A
:1041C00048721E208872C87208731420487388735E
:1041D000C8733F4A4BF2982746F62E059369D26979
:1041E0004FF0000CA1F10C04BB4201D9AA420FD838
:1041F00041F24348434501D2AA4209D841F2F2466E
:10420000BB4201D9B24203D3434504D2B24202D2E7
:104210000222A2700FE0A3F5A053433B49F6566774
:10422000BB4203D2AA4201D8B24202D20122A270FA
:1042300001E084F802C0C4F804C0264AD26822B162
:10424000A060BDE8F00100F04BB8234A234DA378ED
:10425000B2F87420B5F87450022B2A440CD0012B0C
:104260001AD0002B2FD14FF4FA73B2FBF3F2626035
:104270000F2A21D3A06021E04FF47073B2FBF3F258
:1042800062600F2A01D3A06001E0885CA060207A00
:10429000BDE8F00100F024B84FF41673B2FBF3F25E
:1042A00062600F2A01D3A06001E0885CA060207AE0
:1042B000BDE8F00100F014B8885CA060207ABDE889
:1042C000F00100F00DB8BDE8F001704720030020B8
:1042D00044040020940600202C050020A4050020A2
:1042E0002DE9F0432D490F78042F06D0C0EBC030E4
:1042F0004CF27061B0FBF1F0C0B2294E736AB16943
:10430000B46ACA1AF169091B00D54942002A00DAC9
:1043100052421144814239DBDFF88490D9F81810F9
:10432000D9F824004A1E08444508D9F81C00CBB22D
:10433000C1F30724D9F82890411E00F0FF0CC0F308
:10434000072848444008042F0FD047F6FE77BA42AA
:1043500002D8337274727562B94204D886F80AC002
:1043600086F80B80B062BDE8F0834CF26F67BA420A
:1043700002D833727472756247F605429142F2D8E0
:1043800086F80AC086F80B80B062ECE73372180A30
:104390007072B472200AF072E5E700003202002069
:1043A00044040020FEE7000002480021C16180F8BB
:1043B000201070472802002010B50221002003F0D1
:1043C00069FD002807D00121002003F059FDBDE858
:1043D000104002F031BD10BD704700000A484DF298
:1043E00049220168A1F2CD61914208D2406840F2B1
:1043F0005D61884203D348F6D471884202D90349EB
:104400000020088470470000B40600204404002007
:1044100070B5012003F0B2FD002827D0144D686963
:10442000F8B101F0D9FA002004F0E8F91148006869
:1044300004F008FB40F20C5004F0DAFA284605F0CC
:10444000F3FC0D4C206840F001002060052003F0D3
:10445000B5FC206820F001002060E87B6873002034
:104460006861BDE87040012003F082BD70BD0000AE
:1044700018000020140000200408005070B5054604
:1044800000200021084B094A03E033F81140204482
:10449000491C5479167AA41B8C42F6D85179491ECE
:1044A00033F81110298070BDD0060020740400205C
:1044B0002DE9F05F00246A4EA04686F80880DFF8F8
:1044C000A4A14FF40041504603F0B8FE40F2C620CC
:1044D00005F086F83078644D644F04280DD03078AC
:1044E00005282FD03078032851D03078604F01282C
:1044F0005BD03078022867D072E0FFF7E5FD79786D
:10450000C1B106291AD078790844C01EB870B878AD
:10451000010601D42A2801D987F80280B87805F06D
:104520006DF828788E2110FB01F005F059F82878F5
:10453000307255E07879001FB870E8E77879001D8F
:10454000B870E4E7FFF7C0FD7978C1B106291AD049
:10455000B8790844C01EB870B878010601D41B2889
:1045600001D987F80280B87805F066F869788E205E
:1045700011FB00F005F034F86878307230E0B8795B
:10458000001FB870E8E7B879001DB870E4E7FFF7DE
:104590009BFDB87905F050F8A8788E2110FB01F04A
:1045A00005F01EF8A87830721AE0FFF78DFD7878D4
:1045B00005F042F86978C1EBC10000EB811005F00D
:1045C0000FF8687830720BE06978C1EBC10000EB3E
:1045D000811005F005F8FFF777FD787805F00EF803
:1045E0004FF40071504603F029FE4FF4807B59468A
:1045F000504603F023FE204DDFF87C901D4FDFF87E
:104600007880083D09F1440913E0641C022002F09F
:1046100067FED8F8000040F48000C8F800000120D0
:1046200004F0DEFF28688007FCD5D9F8000027F8E1
:1046300014007079317A401AA042E6DC37F8141081
:104640007079401E27F8101002F0F6FB59465046CC
:1046500003F0F6FDFFF738FDBDE8F05FFFF788BD1A
:10466000740400200004004830030020920400205D
:1046700080040020D006002008240140FEE700004E
:104680002DE9F05F03F0A2FD032873D103F086FD4E
:1046900050B905F0F9F9012004F038FB0A23F94A72
:1046A0000321F94805F048FFF84FB87A03F09CFA67
:1046B00000285FD0F64DDFF8DCB30326297900240B
:1046C000DFF8D4834FF090404FF00209032901D165
:1046D000697971B1E979FF294CD0AA79022A49D3C5
:1046E0006A79012A46D12A8C4FF0010A002A73D038
:1046F000D5E0FC72042103F0A3FDB87A012805D0AF
:10470000C021022842D0042867D185E0092088F81A
:1047100000002C7488F80140F878012803D1DBF8F8
:104720000000022814D0A88C88F80200000A88F83B
:104730000300288D88F80400000A88F8050088F82E
:10474000064088F80740812003F02EFD98B117E05D
:104750007A79D5E9090101F023F8388A88F802004E
:10476000000A88F80300B88A88F80400000A88F86C
:104770000500E4E78EE00822C749812005F000F932
:104780002C7198F8010040B32E7171E0072088F871
:104790000000297488F80110F878012803D1DBF8AB
:1047A000000002281AD0A88C88F80200000A88F8B5
:1047B0000300288D88F80400000A88F8050088F8AE
:1047C000064088F8074088F8084088F809408220A9
:1047D00003F0EAFCA0B118E05EE01CE07A79D5E9CC
:1047E000090100F0DDFF388A88F80200000A88F825
:1047F0000300B88A88F80400000A88F80500DEE79C
:104800000A22A549822005F0BBF82C7198F8010016
:10481000C0282DD02E712BE088F80090297488F8DC
:104820000110A88C88F80200000A88F80300288D7F
:1048300088F80400000A88F8050088F8064088F81F
:10484000074088F8084088F8094088F80A4088F846
:104850000B40832003F0A8FC20B90C228E49832052
:1048600005F08EF82C7198F80100C02800D02E7148
:104870006C62AC622C848949CC60894884604C604D
:1048800004608C604460C4600461446104764476D2
:1048900084480470BDE8F09F99B1042911D0042127
:1048A00003F0CCFCFC72AC71AA7CFF207F21B2B17A
:1048B000BA7A042A01D0A872E972FA78012A07D0DC
:1048C0001AE0F87A0028EED187F80BA03C73EAE7EB
:1048D000DBF80020022A0FD1AC72EC720CE0EA7C0B
:1048E00052B1AC72EC72FA78012A05D1DBF80020E3
:1048F000022A01D1A872E9722A7D12B12C726C725F
:1049000006E06A7D22B1BA7A042A01D0287269725F
:10491000B87A012806D0A122A021022858D0042864
:1049200035D167E1288C78B1287988B1E8790AEB2C
:1049300040002874092088F80000287C88F80100CD
:10494000F878012809D00CE0E87940002874F1E7F4
:10495000E879400028742C84ECE7DBF8000002289A
:1049600016D0287A88F80200687A88F80300A87AB6
:1049700088F80400E87A88F80500288C88F8060092
:10498000000A88F80700812003F00EFCD0B157E23E
:10499000287A697A00EB01203861A97AEA7A01EB7A
:1049A000022179617A7900F0FBFE388A88F80200EA
:1049B000000A88F80300B88A88F80400000A88F81A
:1049C0000500DAE708223449812004F0D9FF37E2F4
:1049D000288C48B1287960B1E87902EB400028744E
:1049E000287CA9280BD00CE0E87901EB4000287462
:1049F000F6E7E87901EB400028742C84F0E7A42066
:104A00002874072088F80000287C88F80100F878CE
:104A1000012803D1DBF8000002281ED0287A88F88C
:104A20000200687A88F80300A87A88F80400E87A17
:104A300088F80500288C88F80600000A88F8070026
:104A40001948007888F808001848007888F80900A4
:104A5000822003F0A9FB58B3F2E1287A697A00EBCF
:104A600001203861A97AEA7A01EB022179613A786A
:104A700012B1012A1DD0AAE04A4687F8059000F03D
:104A80008FFEA4E0DC030020180000202802002094
:104A900044040020C4020020E80300209406002003
:104AA000B406002049030020140300201503002051
:104AB0009AE07A78012A04D0022A05D0032A05D088
:104AC00006E087F805A003E07E7101E087F8059015
:104AD0007A7900F065FE7A784FF47A7047F6FF71C4
:104AE000032A08D03B7ADE4A012B25D0022B37D08F
:104AF000032B6CD153E0FA79642312FB03F2BB79E8
:104B0000B2FBF3F2A02A03D29E22BA71FE22FA71FE
:104B1000BA7942F2107312FB03F3FA79B3FBF2F2A3
:104B2000D04BB3FBF2F23B695A43B2FBF0F0386171
:104B300088424CD339614AE0BB7941F66A0C13FBD9
:104B40000CF397F807C0B3FBFCF3B2FBF3F23B693D
:104B50005A43B2FBF0F03861884238D3396136E00D
:104B60003B6942F6AA2C634501D23C6103E0A3F500
:104B70002853AA3B3B61BB7941F66A0C13FB0CF34B
:104B800097F807C0B3FBFCF3B2FBF3F23B695A435F
:104B9000B2FBF0F03861884219D3396117E03B6904
:104BA000CB1A97F806C041F66A091CFB09FC97F876
:104BB0000790BCFBF9FCB2FBFCF25A43B2FBF0F0ED
:104BC0003861884200D339613869081A3861388AF7
:104BD00088F80200000A88F80300B88A88F8040000
:104BE000000A88F8050025E70A229F49822004F080
:104BF000C7FE25E1288C58B1287970B1E87902EB1D
:104C000040002874287CA0280DD0BA786AB145E00D
:104C1000E87901EB40002874F4E7E87901EB400003
:104C200028742C84EEE7BC7038E0A12836D187F8D0
:104C300002A088F8009088F80110287A88F802000D
:104C4000687A88F80300A87A88F80400E87A88F877
:104C50000500288C88F80600000A88F807008348B9
:104C6000007888F808008248007888F8090088F8F9
:104C70000A4088F80B40832003F096FA20B90C22F2
:104C80007949832004F07CFE7A4F384604F0EEFB2D
:104C9000052003F093F8384604F0EDFB88F8009007
:104CA000287C88F80100287A88F80200687A88F859
:104CB0000300A87A88F80400E87A88F80500288CB0
:104CC00000F0FF0C88F806C0070A88F807706748EC
:104CD000027888F808206648037888F8093088F850
:104CE0000A4088F80B406448DFF8909164490068F6
:104CF00001281ED0DFF88CA1022828D0032834D048
:104D0000042841D005284ED006285ED007286AD056
:104D1000082878D0092875D088F806C088F8077068
:104D200088F8082088F80930832003F03DFAC8B3DA
:104D300086E0B9F8740088F80600000A88F80700D1
:104D4000487988F80800887988F80900ECE7BAF80B
:104D5000740088F80600000A88F80700487988F887
:104D60000800887988F80900DEE74748B0F8740041
:104D700088F80600000A88F80700487988F80800D3
:104D8000887988F80900CFE74048008888F806004D
:104D9000000A88F80700487988F80800887988F8B8
:104DA0000900C1E747E0B9F87400BAF8742010446C
:104DB000420888F80620400A88F80700487988F8F1
:104DC0000800887988F80900AEE73148008888F83B
:104DD0000600000A88F80700487988F808008879F2
:104DE00088F80900A0E72B48008888F80600000A28
:104DF00088F80700487988F80800887988F8090059
:104E000092E700E00BE02448008888F80600000ADA
:104E100088F8070088F8082088F8093084E71F48D8
:104E2000008888F80600000A88F8070088F808203B
:104E300088F8093078E70C220B49832004F0A0FDA4
:104E4000687A297A01EB00206862E87AA97A01EB96
:104E50000020A862288CA8852E71AC60EC6019E552
:104E600080969800105E5F00E80300201403002085
:104E70001503002000440140C00200202C05002042
:104E800092040020A40500201C06002058030020E6
:104E90001C030020C0030020A4030020A603002060
:104EA0002DE9F04703F092F903287BD1524D287881
:104EB000012877D1DFF844A19AF80A0002F094FEA5
:104EC00000286FD04FF090470421384603F0B6F920
:104ED00028784B4E01281AD10024DFF8289180460B
:104EE00009EBC400416859F8340003F0ABF928B16C
:104EF000306808FA04F18843306004E0306808FA4A
:104F000004F108433060641CE4B2082CE8D39AF83A
:104F10000A0006233C49DFF8F4C03D4A002401287A
:104F200004D0022820D004285AD13CE02878012857
:104F300056D10B709CF8000048701078887050783B
:104F4000C87090780871D07848711079887150795C
:104F5000C871812003F028F918BB08222A49812052
:104F600004F00EFD2C703BE02878012838D10B703E
:104F70009CF800004870107888705078C87090785D
:104F80000871D0784871107988715079C871812082
:104F900003F00AF928B908221B49812004F0F0FC2B
:104FA0002C701DE025E02878012819D10220087016
:104FB000F020487030888870000AC8700C714C71FD
:104FC0008C71CC710C724C728C72CC72832003F099
:104FD000EBF828B90C220C49832004F0D1FC2C708A
:104FE0003068002805D13846BDE8F047042103F0B9
:104FF00027B9BDE8F08700007803002028020020D0
:105000008C03002054B80008E80300207903002036
:105010008403002010B50B210B48FEF7FAFC0A4868
:1050200030213038FEF7F5FC08480021016001719D
:1050300002F0BAFD04F0AAFB0348012101710170DE
:105040002821417110BD00007404002030030020AD
:10505000034847F60642C169511AC1617047000012
:105060004404002030B519494CF26F656B1C886907
:1050700047F6FF72441EAC4205D8C0EBC030B0FB0F
:10508000F3F0886103E010B1984200D98A61C869E1
:1050900047F60545441E6B1CAC4205D8C0EBC0303A
:1050A000B0FBF3F0C86103E010B1984200D9CA61C7
:1050B000C869101AC861064B1B78012B05D1054B36
:1050C0001B68022B01D1101AC86130BD44040020B6
:1050D0002B020020C4020020FEE7704770B5214C6F
:1050E00040F6F4350123216800221F48A94201D966
:1050F000027501E0037582614DF26425A94203D86F
:105100004DF23C35A94204D943754CF27065856176
:1051100000E04275A1F6F5354CF26F66B54201D854
:10512000691C81616168B1F5526F01D9827401E037
:105130008374C26148F62614A14203D848F6A3142A
:10514000A14204D9C37447F60642C26100E0C274AA
:10515000A1F6215247F605439A4201D8511CC1617C
:1051600070BD0000B4060020440400207047FFB565
:1051700089B0099808900A9C0B9F0C9D1298079083
:1051800013980690149EE01B411B079808180028EE
:105190002AD00898001BC01B4019002824D0A54223
:1051A00011DBE21B531B079A9918621B72431046CE
:1051B000FEF702FC01460698704308180290FEF7BD
:1051C00014FE059010E0089A121BD21B5119621BA5
:1051D00072431046FEF7F0FB01460698704308182C
:1051E0000290FEF702FE05907800001B401B400075
:1051F000002810D07A00121B521B5100621B724310
:105200001046FEF7D9FB014606987043401A0290FB
:10521000FEF7EBFD049005990498FEF757FC01900A
:10522000FEF7FEFD0290002801DB029801E00298E3
:105230004042B04207DD0498FEF7F2FD0290FEF70F
:10524000D4FD03900DE004990598FEF7EDFB019065
:10525000FEF7E6FDC20F111802904810FEF7C5FDDB
:1052600003900398FEF7F5FD0DB0F0BDF0B58BB0DF
:1052700004460D4616461F4600200A90781EC7B207
:105280006800001B801B3FD0A9006200A218891A89
:10529000881B002801DB014600E0414209916900BA
:1052A000091B881B002801DB014600E041420891F0
:1052B0000898FEF7A3FD06900998FEF79FFD05905C
:1052C0000699FEF73BFC079010994808FEF796FDFB
:1052D000059010994808FEF791FD01900799FEF797
:1052E000FBFB0390109979430846FEF787FD029077
:1052F0000399FEF799FB04900599FEF7E7FB0690EA
:10530000FEF7A7FD0A9001E000200A900A980BB072
:10531000F0BD000070B590B005460E461446202240
:10532000294608A8FEF75CFB1C22314601A8FEF7BF
:1053300057FB01990998884205D901990998401AA3
:105340007D49086004E009990198401A7A4908608B
:1053500002990A98884208D902990A98401A76490F
:10536000096840187449086007E00A990298401AD1
:10537000714909684018704908606F480068322810
:1053800003D200206D49087002E001206B490870CB
:105390000B9800285DD0608A67490968884203D26B
:1053A000608E674908607BE0208A6349096888420B
:1053B00003D2208E6249086072E0E0895E49096884
:1053C000884203D2E08D5E49086069E060885A49EE
:1053D0000968884203D2608C5949086060E0A0885F
:1053E00055490968884203D2A08C5549086057E0A6
:1053F000E08851490968884203D2E08C504908602E
:105400004EE020894C490968884203D2208D4C49DE
:10541000086045E0608948490968884203D2608D88
:10542000474908603CE0A08943490968884203D2A3
:10543000A08D4349086033E020883F4909688842CD
:1054400003D2208C3E4908602AE0E08B3C4908608A
:1054500026E0E08938490968884203D2A08B3849A0
:1054600008601DE0608834490968884203D2208BB7
:105470003349086014E0A0882F490968884203D2A4
:10548000608B2F4908600BE020882B49096888420F
:1054900003D2E08A2A49086002E0A08A284908600D
:1054A00027480068012805D100200490059069462E
:1054B000087714E00DE001990498401A04900299CD
:1054C0000598401A05906846007F401EC1B26846A4
:1054D00001776846007F1A4909688842EBD209992A
:1054E0000498401804900A99059840180590684659
:1054F000007F401CC1B268460177007F00280CDDA8
:105500006A46117F0498FEF741FA01906A46117FBE
:105510000598FEF73BFA029006E0099801900A9878
:1055200002900020694608771C2201A93046FEF748
:1055300057FA10B070BD0000BC0300209A03002091
:10554000C003002010B54FF090440421204602F023
:1055500075FE002247F230534FF4FA700021491CC7
:105560009942FCD3521C8242F8D32046BDE8104039
:10557000042102F065BE000010B51748FEF77EFF5B
:1055800002F084FB144910390878012822D14878A8
:10559000401CC0B248702A2818D301F15003CA89B0
:1055A0009868B43290420DD95A784A7180B2088115
:1055B00003220C390A70094901F026FFBDE81040AA
:1055C00001F0E2BBBDE8104001F088BBBDE810402F
:1055D00003F0FABF10BD000090040020300300204B
:1055E00010B52548FEF74AFF02F050FB224810385C
:1055F000017800293ED14178491CC9B241701B296C
:1056000006D301790122062906D0491C0171427096
:10561000BDE8104003F0D8BF174C4034A168B4294E
:1056200024D9A37803716378837141810270427039
:10563000018AC181A4F18C0100200871022030315F
:1056400008703021A4F12C00FEF7E3F93021204648
:10565000FEF7DFF92089094C80B2611C01F0D4FE0D
:105660006078A070BDE8104003F0AEBFBDE8104008
:1056700001F034BB10BD0000900400203003002076
:1056800070B5124C04F16A05607805EB4000801C8F
:10569000FEF7F4FE617805EB81025061491CC8B247
:1056A0006070052803D3BDE8704002F003B820798C
:1056B000401CC0B22071272803D9BDE8704001F01A
:1056C0000DBBBDE8704003F07FBF000092040020D6
:1056D00070B590B0044620221E4908A8FEF780F954
:1056E00020221C4920316846FEF77AF9002108ADD6
:1056F00055F82100A0421FD24A1C134655F822201B
:10570000A24219D35DF823305DF82110261A5B1AE6
:10571000734300EE103A101AB8EE401A00EE100A69
:10572000B8EE400AC1EE000A00EE101AB8EE400AC8
:1057300030EE800A072103E000EE104AB8EE400A7E
:10574000491C89B20729D3D3BDEEC00A10B010EEB0
:10575000100A70BDA0BF000810B505230E498A6865
:1057600004E04C69A41A4C61401E4876487E984279
:10577000F7D20A484B69426813444B61487E401C8B
:10578000C0B2487618B1B3FBF0F0886010BD8A60F3
:105790000020487610BD0000B40600204803002019
:1057A00030B50F4C206147F6FF735B1A6361002A26
:1057B00001D0042A00D90222012A0AD0022A09D0E3
:1057C00047F6FF75281A032A07D0042A01D123615E
:1057D000606130BD2161606130BD2061616130BDBB
:1057E000280200207047000070B5404C4048A17866
:1057F00000680E290ED2DFE801F0070E3D42474C4B
:1058000051565B60656A6F74A06002F09DFDA078E0
:10581000401CA07070BDA168884201D3401A03E00B
:105820004FF6FA72511A084402281DD80024314E4E
:10583000314D06EBC400416856F8340002F002FD19
:1058400038B104EB840055F82010491C45F82010AD
:1058500006E004EB840005EB80004168491C4160D0
:10586000641C082CE5D370BD02F0F6F9A078401C4A
:10587000A07070BDBDE87040002002F019BABDE80C
:105880007040012002F014BABDE87040022002F01E
:105890000FBABDE87040032002F00ABABDE87040BC
:1058A000042002F005BABDE87040052002F000BAFD
:1058B000BDE87040062002F0FBB9BDE8704007204B
:1058C00002F0F6B9BDE87040082002F0F1B9BDE879
:1058D0007040092002F0ECB9BDE870400A2002F0E7
:1058E000E7B9BDE870400B2002F0E2B97803002070
:1058F0003C03002054B800089807002000B58FB082
:10590000C820ADF804004FF49660ADF806004FF4DF
:105910004870ADF808004FF41670ADF80A004FF467
:10592000FA70ADF80C004FF4C870ADF80E004FF4EB
:105930009670ADF810004FF47A60ADF81200401088
:10594000ADF81400ADF816000520ADF81800ADF85C
:105950001A00ADF81C00ADF81E00ADF82000ADF83F
:105960002200ADF82400ADF82600ADF82800ADF80F
:105970002A00ADF82C00ADF82E00ADF83000ADF8DF
:105980003200ADF83400ADF836000F48818D0020AC
:10599000002908D10D4940F2DC52C968914202D376
:1059A000ADF8380002E00121ADF83810BDF838102C
:1059B00019B90749C8600861087601AA0449034873
:1059C000FFF7A8FC0FB000BD44040020940600209F
:1059D000B4060020704700002048016841F47001BF
:1059E00001601F48016841F00101016001688907F9
:1059F000FCD541681B4A1140416041681A4A114078
:105A00004160416821F440014160016B174A114037
:105A100001630168164A11400160C16A154A1140CC
:105A2000C162016B40F2031291430163016B21F4E7
:105A300080310163016B21F000410163416B21F072
:105A400001014163D0F8C01021F48031C0F8C010CA
:105A500000218160C0F8CC1003F0A4B988ED00E00B
:105A6000001002400C00FF08FFFFC277BFFFFFBF1E
:105A7000FFFFF2FEF0FFFF3F70B5114C0121204601
:105A800003F005FD002819D00121204603F0FCFC9D
:105A90000C4D0D4A697B507A81420CD3507A814279
:105AA00004D1206840F00800206004E0204603F0A4
:105AB000DDFCFEF7FDFC687B401C687370BD0000D8
:105AC000002C0140920400207404002003F0DAB995
:105AD0002DE9F0412F4E0121304603F0D8FC00287B
:105AE00055D00121304603F0CFFC03F049FE294C8C
:105AF00032252C34F0B303F06DFDB420206026482D
:105B00000078274F254B274AA7F15001062830D2AD
:105B1000DFE800F02F030D171F27187937F8100062
:105B200011F810105878BDE8F04103F0CBBD18799A
:105B300037F8100011F810105878BDE8F04103F064
:105B400099BD107911F810109079BDE8F04103F07B
:105B5000B9BDD07811F810105079BDE8F04103F0CC
:105B600089BDD07811F810109079BDE8F04103F0AC
:105B7000A9BD00E005E025603046BDE8F04103F036
:105B80007ABC25603046BDE8F04103F074BCBDE846
:105B9000F0810000004401407404002080040020D3
:105BA00046B800089204002010B501218C07204659
:105BB00003F06DFC002805D02046BDE8104001210F
:105BC00003F062BC10BD000010B5104C012120464E
:105BD00003F05DFC002814D00121204603F054FCA2
:105BE0000B490868401C08600A280AD34868401C12
:105BF000486000220A60074801780748012901D05F
:105C0000028010BD0188491C018010BD00040040C5
:105C100038030020380100203A01002010B59AB066
:105C200041F288300A903C200B9040F28A200C9080
:105C30004FF461730D934FF496600E904FF4AF6183
:105C40000F9140F2AA52109240F2DC54119440F2AB
:105C5000726412944C101394149315901691179229
:105C600040F20E60189040F29A6019900E480F4969
:105C7000CDE908100E4A0AA8531ECDE906320121CB
:105C8000CDE9041000221B23CDE9023209482A2263
:105C90008179CDE900124379074A0849084800F0A4
:105CA00011F81AB010BD0000A6030020A4030020C4
:105CB0001503002092040020A0060020A405002067
:105CC0002C0500200FB593B0FE48007800281CD1A9
:105CD000FD480078002806D10120FC49087000200A
:105CE000FB49087014E0F8480078012810D1F84802
:105CF00000780A2803DB0220F449087008E0F44821
:105D00000078401CF249087002E00020EF4908705A
:105D1000F0480078F04908701698042806DC012045
:105D2000EE4908700020EE4908700AE01998001F3B
:105D30001699884205DA0020E84908700120E849F0
:105D400008701898042806DC0120E6490870002035
:105D5000E54908700AE01A98001F1899884205DA88
:105D60000020E04908700120DF4908701998001FE1
:105D70001699884217DB1698042814DD1A98001F1C
:105D8000189988420FDB189804280CDD0120D149AE
:105D900008700020D1490870D1490870D1490870B5
:105DA000D149087016E01A98001F1899884202DB42
:105DB0001898042803DC0320C64908700AE01998E3
:105DC000001F1699884202DB1698042802DC022084
:105DD000C0490870C048007801280CD1BD4800783F
:105DE000022803D0BB480078032804D10120BF4912
:105DF0000870BF490870B8480078032808D1B54832
:105E00000078012804D1BB4908700020B749087008
:105E1000B1480078022809D1AE480078012805D1A0
:105E2000B54908700020B149087000E000BFAF48D4
:105E30000078002871D1119010900F900E900D9065
:105E40000C900B900A90099008901B98002809D09C
:105E50001398C06C11901398806A0F901398406843
:105E60000D9008E01398406811901398806A0F9085
:105E70001398C06C0D901C98002809D01498C06C21
:105E80000C901498806A0A9014984068089008E072
:105E9000149840680C901498806A0A901498C06C0A
:105EA000089096480078964908700D991198884294
:105EB00006D99248007840084000904908700AE0EE
:105EC0000D991198884206D28C480078400840000D
:105ED000401C8A49087008990C98884206D987485E
:105EE000007802218843854908700AE008990C98D7
:105EF000884206D28148007802218843801C7F496D
:105F000008707E4800787E490978884206D07D482E
:105F10000078401C7B49087003E0F9E300207949D0
:105F20000870784800781E2803DD00207549087045
:105F300003E0734800787149087070480078C00722
:105F4000C00F002815D10D98002805D00D99119883
:105F5000FDF71CFD6C4908800F9800281ED06B4986
:105F60001198484307900F99FDF710FD6849088084
:105F700014E01198002805D011990D98FDF706FD41
:105F8000614908800F98002808D060490D9848435F
:105F900007900F99FDF7FAFC5D4908805748007893
:105FA0008007C00F002815D10898002805D008994F
:105FB0000C98FDF7EBFC574908800A9800281ED082
:105FC00052490C98484307900A99FDF7DFFC524963
:105FD000088014E00C98002805D00C990898FDF76B
:105FE000D5FC4C4908800A98002808D047490898F1
:105FF000484307900A99FDF7C9FC474908800E9964
:106000001098401A0790002801DB079801E00798D4
:1060100040421D990968884203D22B480078022823
:1060200003D129480078022803D1394800883B4928
:10603000088009990B98401A0790002801DB0798FF
:1060400001E0079840421D990968884203D21E4822
:106050000078022803D11C480078022803D12E487A
:1060600000882F4908802D480088FDF7CCFE2D4A76
:106070002D4B01910090FDF746FE059104902B48B1
:106080000088FDF7C0FE274A294B01910090FDF7DB
:106090003AFE03910290059B049AFDF78DFD07914E
:1060A0000690FDF7EAFE1D4908801D480088FDF7AF
:1060B000AAFE1C4A1C4B01910090FDF724FE05919D
:1060C000049037E09A030020D5030020D603002077
:1060D000D7030020900300209103002097030020A5
:1060E00096030020980300209903002094030020C9
:1060F000950300209303002092030020B5030020A5
:10610000B6030020B4030020AC030020B80B00004D
:10611000A0030020AE030020A2030020A40300205F
:10612000A60300209A9999999999C93FA80300203C
:106130009999E93FFE480088FDF765FEFD4AFE4B50
:1061400001910090FDF7DFFD03910290059B049AF9
:10615000FDF732FD07910690FDF78FFEF7490880A5
:10616000F7480088F7490880F4480088F04908801B
:1061700015980068079000F03FFCF3480088F0494C
:106180000880F2480088ED490880ED480188209891
:106190000180EA480188219801801D988068EA49B9
:1061A0000968884203D90020E94908701CE11D985C
:1061B0008068E5490968884227D81D98C068E24987
:1061C0000968884221D91D98C1688068081A0A2187
:1061D0000290FDF7DBFB0390FDF710FE05901D9884
:1061E0008068D9490968081A0390FDF707FE0490F2
:1061F0000599FDF7A3FC00210690FDF715FC07901B
:10620000FDF727FED2490870EEE01D98C068CE4920
:106210000968884227D81D980069CB4909688842D7
:1062200021D91D980169C068081A0A210290FDF75A
:10623000ADFB0390FDF7E2FD05901D98C068C249D3
:106240000968081A0390FDF7D9FD04900599FDF738
:1062500075FCC0490690FDF7E7FB0790FDF7F9FDD7
:10626000BB490870C0E01D980069B74909688842B9
:1062700027D81D984069B4490968884221D91D98DA
:1062800041690069081A0A210290FDF77FFB03901B
:10629000FDF7B4FD05901D980069AB490968081A1F
:1062A0000390FDF7ABFD04900599FDF747FCAA4963
:1062B0000690FDF7B9FB0790FDF7CBFDA4490870E8
:1062C00092E01D984069A0490968884227D81D9826
:1062D00080699D490968884221D91D988169406972
:1062E000081A0A210290FDF751FB0390FDF786FD85
:1062F00005901D98406994490968081A0390FDF7B4
:106300007DFD04900599FDF719FC94490690FDF771
:106310008BFB0790FDF79DFD8D49087064E01D988B
:10632000806989490968884227D81D98C0698649CB
:106330000968884221D91D98C1698069081A0A2113
:106340000290FDF723FB0390FDF758FD05901D9883
:1063500080697D490968081A0390FDF74FFD049094
:106360000599FDF7EBFB7E490690FDF75DFB079075
:10637000FDF76FFD7649087036E01D98C0697249D7
:106380000968884227D81D98006A6F4909688842C1
:1063900021D91D98016AC069081A0A210290FDF7E7
:1063A000F5FA0390FDF72AFD05901D98C06966492E
:1063B0000968081A0390FDF721FD04900599FDF77F
:1063C000BDFB68490690FDF72FFB0790FDF741FDE7
:1063D0005F49087008E01D98006A5B4909688842B7
:1063E00002D83C205A4908701D98406A57490968EC
:1063F000884203D900205C4908703BE11D98406A3F
:1064000052490968884227D81D98806A4F4909680F
:10641000884221D91D98816A406A081A0A2102908F
:10642000FDF7B4FA0390FDF7E9FC05901D98406A6A
:1064300046490968081A0390FDF7E0FC04900599A5
:10644000FDF77CFB00210690FDF7EEFA0790FDF7C3
:1064500000FD454908700DE11D98806A3B490968B7
:10646000884227D81D98C06A38490968884221D9CE
:106470001D98C16A806A081A0A210290FDF786FAFF
:106480000390FDF7BBFC05901D98806A2F490968B1
:10649000081A0390FDF7B2FC04900599FDF74EFB36
:1064A0002C490690FDF7C0FA0790FDF7D2FC2E4963
:1064B0000870DFE01D98C06A24490968884227D81F
:1064C0001D98006B21490968884221D91D98016BEC
:1064D000C06A081A0A210290FDF758FA0390FDF7E6
:1064E0008DFC05901D98C06A18490968081A039028
:1064F000FDF784FC04900599FDF720FB16490690F2
:10650000FDF792FA0790FDF7A4FC17490870B1E077
:106510001D98006B0D490968884246D81D98406B4C
:106520000A490968884240D91D98416B006B1DE0FB
:10653000AA0300209A9999999999E93FA603002006
:10654000A4030020A8030020C4030020C8030020E7
:10655000B0030020000020410000A0410000F041F5
:106560000000204200004842B1030020081A0A211E
:106570000290FDF70BFA0390FDF740FC05901D9883
:10658000006BFE490968081A0390FDF737FC049078
:106590000599FDF7D3FAFA490690FDF745FA0790F9
:1065A000FDF757FCF749087064E01D98406BF3490C
:1065B0000968884227D81D98806BF049096888428D
:1065C00021D91D98816B406B081A0A210290FDF7B2
:1065D000DDF90390FDF712FC05901D98406BE7492B
:1065E0000968081A0390FDF709FC04900599FDF766
:1065F000A5FAE5490690FDF717FA0790FDF729FC83
:10660000E049087036E01D98806BDC4909688842D3
:1066100027D81D98C06BD9490968884221D91D988F
:10662000C16B806B081A0A210290FDF7AFF9039045
:10663000FDF7E4FB05901D98806BD0490968081AA6
:106640000390FDF7DBFB04900599FDF777FACF493E
:106650000690FDF7E9F90790FDF7FBFBC9490870C3
:1066600008E01D98C06BC5490968884202D83C20E3
:10667000C4490870C6480078002839D0C548007859
:10668000002835D1C44800780A281DDDBD480078AF
:10669000C149097888420CDC0020C0490870BC4917
:1066A0000870BD490870B748007841B21F98017062
:1066B00034E0B9480078401CB749087008460078B3
:1066C00041B21F98017029E0B4480078142825DCF5
:1066D000B1480078401CB04908700846007841B2C3
:1066E0001F980170AD480078401CAC49087015E057
:1066F000AB480078002803D1AA480078002808D0C9
:10670000A9480078002804D100211F98017005E0F5
:106710001CE19C48007841B21F980170A3480078A2
:10672000002839D09B480078002835D1A04800784F
:106730000A281DDD9F4800789D49097888420CDCB5
:1067400000209D4908709949087099490870994836
:10675000007841B21E98017033E095480078401CE3
:10676000934908700846007841B21E98017028E0ED
:1067700091480078142824DC8D480078401C8C490E
:1067800008700846007841B21E9801708A48007867
:10679000401C8949087014E088480078002803D11B
:1067A00087480078002807D07F480078002803D168
:1067B00000211E98017004E07E48007841B21E98C6
:1067C00001707E480078002803D17D4800780028B9
:1067D0000CD074480078002803D171480078002854
:1067E00004D000211E9801701F9801707548008820
:1067F000022807DC74480088022803DC734800780C
:106800007349087000211E9841561D9840688142C6
:1068100006D200211F9841561D984068814202D33C
:1068200000211598016015980068002809D1694970
:1068300008705D490870564908705C4908705549F0
:1068400008705C48007800280BD061480078C007C9
:10685000C00F002805D11E980078404241B21E9812
:1068600001704848007800280BD05948007880070C
:10687000C00F002805D11F980078404241B21F98F0
:10688000017053480078C007C00F53490978884207
:1068900029D04F480078C007C00F002811D04F48BA
:1068A0000078801C41B21E98017000211E9841564C
:1068B000002918DA4648007840084000444908702A
:1068C00011E046480078801E41B21E9801700021F8
:1068D0001E984156002906DD3D48007840084000DA
:1068E000401C3B4908703A4800788007C00F3C497B
:1068F0000978884229D0364800788007C00F0028E0
:1069000011D038480078801C41B21F9801700021D6
:106910001F984156002918DA2D4800780221884333
:106920002B49087011E02F480078801E41B21F9853
:10693000017000211F984156002906DD2448007887
:1069400002218843801C2249087000BF2648007835
:10695000264908701E980078204908701F98007812
:10696000204908701A480078C007C00F1A490870FB
:10697000174800788007C00F194939E0C803002084
:106980000000F041B1030020000020420000484216
:1069900093030020950300209F0300209D03002007
:1069A0009903002098030020940300209203002004
:1069B0009E030020B00300209C03002096030020CB
:1069C00097030020AE030020AC030020B603002094
:1069D000B503002090030020B7030020B20300207D
:1069E000B8030020B3030020D6030020D503002005
:1069F000087017B000BD000070B506464A48008810
:106A00004A490968884205D94748008847490968C2
:106A1000441A04E04548006843490988441A444838
:106A2000008844490968884206D94148008841499C
:106A30000968401A041905E03E4800683C49098885
:106A4000401A0419002E18D07D20C000844201D9BC
:106A5000032510E019204001844201D904250AE0F1
:106A6000FF200130844201D9052504E0642C01D9BE
:106A70000A2500E00A250A2500E00125012D07D19D
:106A800000202D4908602D4908602D49087017E045
:106A900012E02948006825490968401A264908601B
:106AA0002648006823490968401A24490860244898
:106AB0000078401E2249087021480078A842E8D298
:106AC0001D4800681849098840181B4908601B4880
:106AD0000068174909884018184908601848007864
:106AE000401C1749087008460078002810DD084649
:106AF000017811480068FCF749FF0C49086010480C
:106B000001780E480068FCF741FF0A4908600AE076
:106B1000054800880549086005480088054908605F
:106B200000200749087070BDA4030020C4030020A2
:106B3000A6030020C8030020CC030020D0030020BF
:106B4000D40300202DE9F04140F2125001F050FF33
:106B50000024254E06F1180706EBC40556F834004C
:106B6000002201216B6801F074FB56F8340069685B
:106B700001F064FB07EBC40557F834000022012143
:106B80006B6801F066FB57F83400696801F056FB4A
:106B9000641CE4B2032CDFD30024134E303606F11C
:106BA000300706EBC40556F83400002201216B685B
:106BB00001F04FFB56F83400696801F041FB07EB28
:106BC000C40557F83400002201216B6801F041FB35
:106BD00057F83400696801F033FB641CE4B2062CFA
:106BE000DFD3BDE8F081000044B9000870B540F281
:106BF000115001F0FDFE40F2125001F0F9FE40F29A
:106C0000135001F0F5FE264E4FF480452B4600222E
:106C10000121304601F01DFB00242946304601F0D9
:106C20000FFB642001F0C0F82946304601F006FB56
:106C3000012001F0B9F8641CC82CEED34FF0904449
:106C4000042300220121204601F003FB04212046F9
:106C500001F0F6FA134D4FF480742346002201210F
:106C6000284601F0F6FA2146284601F0E7FAE40149
:106C7000234600220121284601F0EBFA214628464E
:106C800001F0DEFAA411234600220121284601F07A
:106C9000E0FA21462846BDE8704001F0CFBA000076
:106CA000000800480004004870B540F2165001F09A
:106CB0009FFE0024084D012205EBC400002143681B
:106CC00055F8340001F0C5FA641CE4B2082CF2D384
:106CD000BDE8704001F04ABB54B8000870B51221FD
:106CE0002248FCF796FE214812211230FCF791FE53
:106CF0001E482C212430FCF78CFE1C482C215030DF
:106D0000FCF787FE194C02206070A4F13C030021BF
:106D10009971174A1170174A1170174A1170FF22A2
:106D2000DA7103F1300501222A70144A0A25D57060
:106D3000917011705170198403F51473596003F147
:106D40002002116099605160D9609160D160116139
:106D50005161117651762179094A32F81110094AA8
:106D600012F81110BDE8704002F0ACBC80040020A5
:106D700033020020140300201503002030030020FC
:106D800046B80008F6B7000810B530211748FCF7E0
:106D900040FE164830216A30FCF73BFE1C211448A7
:106DA000FCF737FE1148114A123881799171437905
:106DB0005371C389D38100790E4B13F81000D07042
:106DC0000023022802D9801E107100E01371074AC7
:106DD00003201E3A1070A2F1300083711B2903D8E2
:106DE000BDE8104002F0F0BB10BD0000920400208E
:106DF000B406002046B80008074900224A70C87847
:106E0000022802D9801E087100E00A71024903209D
:106E10001E39087002F0D8BB92040020AFF3008046
:106E2000014900208871704774040020014880796E
:106E300070470000740400200149012088717047E8
:106E40007404002010B55A2801D95A2204E00A28F7
:106E500001D2012200E00246064C6521E1620121D7
:106E6000204602F059FA2046BDE81040012102F008
:106E700089BB00000040014010B51149086011496C
:106E80000A78032A18D00A78012A15D00A78022A2B
:106E900012D01E224A720A4C42082C3C0021204685
:106EA00002F03AFA0121204602F06CFB2046BDE8D0
:106EB0001040012102F0E4BA28224A72EBE70000F8
:106EC0002C2C014074040020014804F0F5B80000A7
:106ED0001800002010B50D48807900280FD0FEF76B
:106EE0007BFD002001F08AFC0948006801F0AAFD42
:106EF00040F20C5001F07CFD044802F095FFBDE823
:106F000010404FF4802001F033B80000180000203A
:106F1000140000202DE9F041064640F2115001F026
:106F200067FD2048008801F063FD1E4C4FF090473C
:106F30000C3401213846226801F04EF9251D01214B
:106F400038462A6801F048F90122022138462368B0
:106F500001F07FF9012200213846236801F09DF9F4
:106F60000122022138462B6801F073F90122002129
:106F700038462B6801F091F9304602F045FD4FF498
:106F8000E131304602F00EFD0421304602F06CFD86
:106F90000821304602F070FD3046BDE8F04102F0B5
:106FA00051BD00004C020020FEE7000070B5002437
:106FB000064D05EBC400416855F8340001F040F976
:106FC000641CE4B2062CF4D370BD000074B9000850
:106FD00070B50024064D05EBC400416855F8340037
:106FE00001F02EF9641CE4B2042CF4D370BD00004F
:106FF000A4B900080FB4054B10B503A9044A0298C0
:1070000000F018F810BC5DF814FB00008D8000083B
:10701000D803002002E008C8121F08C1002AFAD1D4
:1070200070477047002001E001C1121F002AFBD108
:10703000704700002DE9FF4F89B09B4604460025AC
:1070400006E025280BD05A460B999047641C6D1C0E
:1070500020780028F5D10DB02846BDE8F08F002734
:10706000B8460122474900E0074314F8013F203B9E
:1070700002FA03F00842F7D120782E2819D114F82B
:10708000010F47F004072A280ED06FF02F02207856
:10709000A0F1300109290CD808EB880102EB41016D
:1070A00000EB0108641CF2E70A98641C50F8048B9A
:1070B0000A9020780028CED0642808D0692806D00D
:1070C00075281ED05A460B9990476D1C58E00A99B6
:1070D0004FF00A0901C90A91002802DA40422D2125
:1070E00002E0390504D52B218DF82010012103E0A1
:1070F000F90704D02021F7E78A4608AE0DE0002109
:10710000FAE70A994FF00A0901C90A91F7E74946D7
:10711000FCF73CFC303106F8011D0028F7D1ADEB3F
:10712000060000F12009780701D44FF00108C84596
:1071300002DDA8EB090000E000208046002706E001
:1071400008A85A46C05D0B9990476D1C7F1C574597
:10715000F6DB04E030205A460B9990476D1CB8F1DD
:107160000001A8F10108F5DC05E016F8010B5A460C
:107170000B9990476D1CB9F10001A9F10109F4DCEC
:10718000641C65E7092801000748016841F008010F
:10719000016001680907FCD4016841F00401016045
:1071A00001684907FCD4704708240140491E0128A2
:1071B0000ED002280BD10D48026822F44012026062
:1071C00002684FF4401303EA01510A43026070471A
:1071D00006480C38026822F47002026002684FF41C
:1071E000700303EA01510A430260704738240140EA
:1071F00010B50021022000F0DBF84FF460210120DF
:1072000000F056F8002000F017F801210846FFF7BB
:10721000CDFF01221146002000F080F80121084630
:1072200000F026F800F018F8012000F0C7FDBDE8D6
:107230001040FFF7A9BF00000649002804D00868E5
:1072400040F4006008607047086820F4006008603F
:10725000704700000824014004480168C90703D1B1
:10726000016841F0010101607047000008240140FD
:107270000E4A00290CD0C10703D0116841F48011D7
:107280001160800703D5106840F40040106070471B
:10729000C10703D0116821F4801111608007F6D571
:1072A000106820F40040106070470000082401407E
:1072B0000A4A012809D0022806D1106820F4E040CB
:1072C00010601068084310607047106820F4602058
:1072D00010601068084310607047000008240140E7
:1072E00002490A6882430A60704700000024014096
:1072F0000223002203214FF0904000F0AABF10B5F6
:1073000040F2115001F074FB40F2096001F070FB93
:10731000BDE81040032001F0F5B9000030B51F238F
:1073200006280AD2214D2C6800EB800083409C4344
:1073300001FA00F323432B601CE00C280CD21B4DF8
:107340002D1F2C68801F00EB800083409C4301FAB6
:1073500000F323432B600DE010280BD2134D083DA2
:107360002C680C3800EB800083409C4301FA00F34A
:1073700023432B6007240A290AD20C4D243D2B6895
:1073800001EB41008440A34382401A432A6030BD90
:107390001329FCD2054D283D2B680A3901EB410029
:1073A0008440A34382401A432A6030BD3424014004
:1073B000144B1A1F002912D0C10503D5116841F4DE
:1073C00080711160410503D5116841F4806111603D
:1073D000800703D5186840F0020018607047C105A7
:1073E00003D5116821F480711160410503D511683E
:1073F00021F4806111608007F0D5186820F0020048
:1074000018607047082401400A7840F63E0398420D
:107410000CD940F6B863984202D90832D2B201E0E2
:10742000921CD2B2182A15D9182213E040F2C27366
:1074300098420FD25AB13E2807D2082A02D9083AF8
:10744000D2B204E0921ED2B201E0921ED2B2182A49
:1074500000D900220A70704770470000F8B51E4836
:10746000C3781E4C20784FF496510091411C04EBD8
:1074700081014A6904EB8001401E04EB80004969E8
:107480004069FDF7F3FE1649C860164A40F69803B6
:10749000B2F874209A4202D8A0F57A70C860124CF3
:1074A000C968A1604FF41660B1FBF0F0E0600F4BCB
:1074B000421C53F8225053F82030EE1A0C4D55F868
:1074C0002000091A4E4355F82210081AB6FBF0F0B6
:1074D00018446060F8BD000092040020FC04002005
:1074E000940600201C0600204803002040BD000830
:1074F00070BE00082DE9F041634F644C644EF8798A
:10750000002500280DD06576656170680A21B0FB02
:10751000F1F131613860F9795E4C43F6FF7249B19F
:107520000EE0FEF719F95C4970688842EDD9A06851
:107530007060EAE77369012B05D0B369032B02D0B1
:1075400001294AD04FE055490969FF2943D95449D7
:1075500041F6E2030144994225D27078012804D013
:1075600075703570FD71E56030E03078401CC0B258
:107570003070032805D302203070FD71E56075700E
:1075800024E0022806D3F16A4FF4E870814201D961
:10759000E0601BE0F06A00EB401040006421B0FBAB
:1075A000F1F0E06012E03C494942084447F63E31C0
:1075B00088420AD8C0EB803043F2E261B0FBF1F0C0
:1075C000E06001207070357000E0E560E068904296
:1075D0002ED3E2602CE0E5602AE0F369032B05D0AE
:1075E000336A032B02D002291BD020E02D4942F23E
:1075F000E3530144994201D2E5600DE02A498842F3
:1076000009D349420844C0EB803042F26C01B0FB20
:10761000F1F0E06000E0E560E068904208D3E260ED
:1076200006E0716A032906D0B16A032903D0E56038
:10763000F879D0B11BE01D4941F61F43014499423E
:1076400001D2E5600CE01A49884208D3401AC0EB29
:10765000803041F6E841B0FBF1F0E06000E0E56029
:10766000E0689042E4D3E260E2E7E068F0623879F3
:1076700010B9E56003203871E068FEF729F8E06092
:107680003884BDE8F081000044040020B4060020E6
:10769000480300209406002022C20700FC040020BA
:1076A000C056F8FFD706F9FF0C1F07006FABF8FFB5
:1076B000B07007002DE9F041002000210022244E87
:1076C00006F16A04757808E004EB80035B69934275
:1076D00001D91A460146401CC0B28542F4D81C4F5D
:1076E00004EB41054E3F6B887879B3F5D27F00D922
:1076F00010B1012803D007E00120787104E0B3F550
:107700008C7F01D20020787111480229C07803D9FA
:107710008B1E1844F07003E0C1F10203C01AF07030
:10772000226121700B484260017069880181F07804
:10773000401E272802D3FFF7D1FA05E002F08EF8A9
:1077400068880549FFF760FE0020BDE8F081000071
:107750009204002088060020320300202DE9F04723
:10776000002400250026DFF8C480A8F19A07797864
:107770000AE004EB440008EB80004068B04201D905
:1077800006462546641CE4B2A142F2D805EB45004A
:10779000264A08EB8004E83A21894FF4D2735079E5
:1077A0004FF00109994208D902F1B80C0CEB450CD5
:1077B000BCF802C09C4500D910B1012803D00AE0F2
:1077C00082F8059008E0B1F58C7F04D2002050715A
:1077D000FFF784FA00E058B1032D0ED97979E81E3D
:1077E0000844C0B278712A2812D92A2078710FE093
:1077F000FFF774FA0020BDE8F0877879C5F103013E
:10780000401AC0B278712A2800D808B987F80590C4
:10781000C8F8706088F86C502089A8F87400044992
:10782000FFF7F2FD02F02CF80520E4E72C0500201C
:107830003003002070B5002000210022244CA4F564
:1078400089756E780AE000EB400304EB83035B6804
:10785000934201D91A460146401CC0B28642F2D872
:1078600001EB410004EB80031889B0F58C7F06D250
:10787000FFF734FA174900204871012070BD154800
:107880004E300329807908D9CE1E3044C0B2A87189
:107890001B280CD91B20A87109E0C1F10306801B2D
:1078A000C0B2A8711B2800D808B90120A8716C3497
:1078B00062602170188920810749FFF7A5FD0549FD
:1078C000062030310870FFF7B7FA052070BD0000C0
:1078D000A4050020440400203103002070B5194D98
:1078E00040F2CD616868884201D2696070BD4DF296
:1078F0002B01884203D900F60200686070BD0020A9
:10790000114C6A6854F820108A4215D9431C54F867
:1079100023309A4210D8521A4FF4C8767243591A3B
:10792000B2FBF1F100EBC00202EB001001EB001022
:1079300000F2CD6068608620401C80B28628E0D3CB
:1079400070BD000094060020C4B9000870B5194D40
:1079500040F25D61A868884201D2A96070BD48F21A
:107960002151884203D900F62C10A86070BD002078
:10797000114CAA6854F820108A4215D9431C54F8B7
:1079800023309A4210D8521A4FF4C8767243591ACB
:10799000B2FBF1F100EBC00202EB001001EB0010B2
:1079A00000F25D60A8605720401C80B25728E0D3E9
:1079B00070BD000094060020E0BB0008F0B5524BFB
:1079C000524841F6E2045968514A0E180125002038
:1079D000A64211D25969491C596139B1D0715D6112
:1079E0009861D861186258629862F0BD9861D86158
:1079F000186258629862F0BD464C47F63E370E1941
:107A00000324BE4212D29969491C9961032907D304
:107A1000D07158619C61D861186258629862F0BD5B
:107A20005861D861186258629862F0BD3A4E42F2CD
:107A3000E4570E44BE4212D2D969491CD9610329C8
:107A400007D3D57158619861DC61186258629862F9
:107A5000F0BD58619861186258629862F0BD2F4E6F
:107A600043F284570E44BE4212D2196A491C19626D
:107A7000032907D3D57158619861D8611C62586297
:107A80009862F0BD58619861D86158629862F0BD03
:107A9000234D4E190225B6F5E15F12D2596A491CF1
:107AA0005962032907D3D57158619861D86118626A
:107AB0005C629862F0BD58619861D8611862986202
:107AC000F0BDA1F5EE21B03943F69006B14212D2D5
:107AD000996A491C9962032907D3D5715861986145
:107AE000D861186258629C62F0BD58619861D86193
:107AF00018625862F0BDFF21D17158619861D86158
:107B0000186258629862F0BD48030020C056F8FF22
:107B100044040020DE3DF8FFD806F9FFF4E0F8FF4A
:107B200070ABF8FF10B518490978184A127842EA84
:107B30000121174A127842EA0121164A127842EAD4
:107B40000122154C81682478CBB2A34205D1134B96
:107B5000C1F307211B78994201D0012010BD104BC1
:107B6000017B1B78994201D0012010BD0D4B017C97
:107B70001B78994201D0012010BD4069904201D08C
:107B8000012010BD002010BD2E0200202F02002079
:107B900030020020290200202B0200202D020020AC
:107BA0002C0200203102002010B586B00D4C0222BC
:107BB0006946204601F0D8FD009B42F6BD0240F622
:107BC0004711934202D1019B8B4209D0009201914F
:107BD000204601F09FFD02226946204601F0ABFDE0
:107BE00006B010BD0030000800B5012805D00228FD
:107BF0000BD0042811D0002000BD812000F0D4FA61
:107C000008B1002000BD012000BD822000F0CCFAA8
:107C100008B1002000BD012000BD832000F0C4FA9F
:107C200008B1002000BD012000BD0000002009496E
:107C30004978002901D00120704706490C310A5CBF
:107C40000AB101207047401CC0B20828F7D30020B9
:107C5000704700007803002070B5002001230A4A15
:107C6000002400EB800152F8215002EB81014E68A4
:107C7000B54201D90B7201E000D20C7200F1010093
:107C8000C0B20828EDD370BD98070020B4280CD9E5
:107C90000649CA68824208D2C860A1F15000028A2F
:107CA0008A6042784A70007988707047D00400205A
:107CB0002DE9F047DFF8E48000EB800108EB810359
:107CC000002793F808A0597ADFF8D4C08A4556D027
:107CD00001218CF800106146324D4C7891F80490E7
:107CE00001F10C0600EB40025119BAF1010F12D05C
:107CF000AA5C1A74487820438CF801008CF8037051
:107D0000887840EA09008CF8040000219CF8030000
:107D1000345C44B32CE01F744A7894438CF80140DF
:107D2000897829EA01098CF804905A7C17E0B11887
:107D30004C78B454002181420BD001EB410915F875
:107D400009904C4505D101EB810108EB81014A7492
:107D500003E0491CC9B20829EDD3521CD2B2072A4C
:107D6000E5D3F7710BE0072802D832545874082184
:107D7000401C8CF80300491CC9B20829C6D3187AE4
:107D800058729CF80200401CC0B28CF802000A280D
:107D900001D18CF80270BDE8F08700009807002040
:107DA00078030020E0BF00080022002100E0491C09
:107DB0008142FCD3521C022AF7D3704710B5064CFF
:107DC0002060012000F00CF820680028FCD1BDE8FC
:107DD0001040024801F04ABB3C0100200020004056
:107DE0007FB504464FF4E16000F002FE194D2846CD
:107DF00001F0CCFA022C02D0012C03D005E00B20BC
:107E0000029002E042F6DF60029013480078ADF87D
:107E100000000020ADF80200ADF80400ADF8060047
:107E20008DF80C006946284601F038FB284601F021
:107E3000B7FB0121284601F081FB0121284601F012
:107E400023FB0121284601F0B0FB284601F013FB7B
:107E50007FBD0000002000401000002010B5064C3F
:107E600020600220FFF7BCFF20680028FCD1BDE89D
:107E70001040024801F0FABA3C0100200020004006
:107E8000034A5368800081400B43536070470000F1
:107E90000000024070B50023002286000C46124DFF
:107EA000B14000EB800005EB8000022C04D0042CD4
:107EB00008D0082C11D10BE02A680A40806800F035
:107EC00002030AE02A680A40806800F0040304E024
:107ED0002A680A40806800F0080312B10BB1012043
:107EE00070BD002070BD000000000240F0B51B4EC8
:107EF000336883433360351D2B6883432B602B1D10
:107F00001C6884431C601C1D276887432760002968
:107F100002D0012907D103E031680143316002E05A
:107F200029680143296052B1012A0FD0022A05D1E4
:107F3000196801431960216801432160F0BD196887
:107F400001431960216881432160F0BD19688143B4
:107F50001960216801432160F0BD00000004014068
:107F600002490A6802430A607047000000040140A9
:107F700001490860704700001404014006490A687E
:107F800002400549143909680140002A02D009B1AC
:107F90000120704700207047140401400149C86067
:107FA00070470000002002400248016941F0800152
:107FB000016170470020024070B505464FF47026FD
:107FC000304600F017F8002810D1094C206940F025
:107FD000020020616561206940F040002061304668
:107FE00000F008F8216921F00201216170BD000054
:107FF0000020024000B5034600F00AF85B1E01288D
:1080000001D1002BF8D1012800D1042000BD0000CF
:1080100000200849CA68D20701D001207047CA6809
:10802000D20601D503207047C9684907FBD5022055
:10803000704700000020024004480169090603D58A
:10804000034941600349416070470000002002403D
:1080500023016745AB89EFCDF0B506460D464FF4D9
:1080600070273846FFF7C6FF00280CD1064C206960
:1080700040F00100206135603846FFF7BBFF216901
:1080800021F001012161F0BD0020024070B50446DD
:10809000074DE1B2284601F0B3FC40F207763146C5
:1080A000284601F0D4FC0028F9D0204670BD00001D
:1080B000003801403EB519484279194C94F86C00DB
:1080C000002828D0082800D90720811C01EB410195
:1080D00004EB81014FF4A06349688DE80E00411C58
:1080E00001EB410104EB81014B6800EB400104EB23
:1080F00081014A68411E801E01EB410100EB4000F6
:1081000004EB810104EB800049684068FDF72FF81B
:10811000044948603EBD0120D7E7000092040020DA
:108120002C050020940600203EB519488279194C90
:1081300094F86C00002828D0082800D90720811C5A
:1081400001EB410104EB81014FF4A06349688DE824
:108150000E00411C01EB410104EB81014B6800EB77
:10816000400104EB81014A68411E801E01EB410180
:1081700000EB400004EB810104EB8000496840689B
:10818000FCF7F5FF044988603EBD0120D7E70000F9
:1081900092040020A40500209406002001480079E4
:1081A00070470000440200200749812805D082283A
:1081B00005D0832805D008787047487870478878BC
:1081C0007047C87870470000440200200148407B97
:1081D00070470000180000202DE9F043046A456A4A
:1081E000002301274FF00F0C07FA03F6164208D0C0
:1081F0009E000CFA06F824EA080401FA06F848EA98
:1082000004045B1C9BB2082BEED3082307FA03F887
:1082100018EA020F0AD0A3F10806B6000CFA06F815
:1082200025EA080501FA06F949EA05055B1C9BB237
:10823000102BEBD304624562BDE8F0838162704786
:10824000816170470069084201D001207047002019
:1082500070472DE9F0470568C66800244FF0010813
:108260004FF0030908FA04F71F420ED0670009FA1D
:1082700007FC25EA0C0501FA07FA4AEA050526EA91
:108280000C0602FA07FC4CEA0606641CA4B2102C89
:10829000E8D30560C660BDE8F087F0B5012931D0AC
:1082A000416899434160816801260327A2F57F4414
:1082B000FF3C13D0002406FA04F51D4208D06500E7
:1082C00007FA05FC21EA0C0102FA05FC4CEA01015F
:1082D000641CA4B2102CEED38160F0BDC46B0022EC
:1082E00006FA02F51D4206D04FEA420C07FA0CFCD2
:1082F0004CEA01012C43521C92B2102AF0D3816047
:10830000C463F0BD416819434160CCE710B50C4827
:1083100006210170002444708470C470047144719B
:108320008471C4718120FFF73FFF002806D1082225
:108330000349812001F024FB0248047010BD0000B5
:10834000E8030020780300200020074A002300EB08
:10835000800142F8213002EB81014B60401CC0B229
:108360000828F4D3704700009807002070B50C4C23
:108370000025A57065702571A0210A48FBF749FB0F
:10838000E56025610020074A012100EB800302EB34
:1083900083035972401CC0B20828F6D370BD000098
:1083A00078030020980700202DE9F041174C0027A2
:1083B000E07A012802D02773BDE8F081217B144DBB
:1083C000144E4FF0904071B12A46334612681B6834
:1083D000D21A01290FD00229EED140F6282082427C
:1083E000EAD32773E8E70421FFF728FF2868306005
:1083F00001202073E0E7C82ADED30421FFF720FF25
:108400000220207328683060D6E700002802002090
:108410003C0300204403002032494FF0006000F08C
:10842000EDF862B601F0CEFC01F0A6FEFEF7DEFB31
:10843000FEF73AFCFEF786FB2B48FEF76BFD0121A9
:108440002A4802F0EDFB01F043FEFCF7E3FDFBF7E9
:1084500030FE00F0A9FC00F0CDFD00F0FBFD00F0C7
:108460002DFD00F099FDFDF76DF8002000F0D0F92A
:1084700001461FA0FEF7BEFD012000F0C9F901462C
:108480001FA0FEF7B7FD022000F0C2F9014620A0B0
:10849000FEF7B0FD032000F0BBF9014620A0FEF777
:1084A000A9FD2348017823A0FEF7A4FD2548016813
:1084B00025A0FEF79FFDFEF7B1FCFEF70FFCFEF7CF
:1084C000B5FC18B1FEF7AAFCFBF740FEFCF7D8F8A4
:1084D000FDF78AF9FCF7E4FCFFF766FF01F032F8DC
:1084E000EDE70000003800080038014018000020C7
:1084F0000D0A434B5F5359532069732025640000D4
:108500000D0A434B5F4148422069732025640000F7
:108510000D0A434B5F4150423120697320256400AE
:108520000D0A434B5F41504232206973202564009D
:108530002B0200200A414F535F666C6167203D2586
:10854000640A0000C4020020636865636B5F73798E
:1085500073203D2025640A00F0B506460F4600232F
:1085600000242048006800F4E0654FF4A0608542D4
:108570002FD006DCB5F5407F31D0B5F5806F06D140
:108580002AE0B5F5C06F21D0B5F5E06F1CD000F042
:108590002BF802230224C3F104008740C4F1040134
:1085A0000F20C84010403843000106F1E02181F857
:1085B000000406F01F01012088407109890001F1C3
:1085C000E021C1F80001F0BD0424E4E70123032405
:1085D000E1E702230224DEE703230124DBE704238F
:1085E000D9E700000CED00E00249084302490860A9
:1085F000704700000000FA050CED00E0024A11404F
:10860000014302480160704780FFFF1F08ED00E052
:1086100010B50A4A02EB4001497812F810400629C9
:108620000AD8491EC8B200F023FA082C04D220460A
:10863000BDE8104000F038BA10BD0000B4B8000822
:1086400010B50A4A02EB4001497812F8104004299B
:108650000AD8491EC8B200F0A5FA082C04D2204658
:10866000BDE8104000F0BABA10BD00000AB9000819
:1086700030B51F4A136823F00303136013680343E4
:1086800013601C4B186840F0040018604FF0E020A5
:108690000469194A1460D0F800415460D0F80441CC
:1086A0009460D0F80841D4600469144D2C400461F2
:1086B000134CC0F880416FF48064C0F884414417C3
:1086C000C0F88841002911D040BF20BF20BF8C30A6
:1086D000116840F87C1C5168416791688167D168D6
:1086E000C167186820F00400186030BD30BFEEE7A5
:1086F0000070004010ED00E0340400200400010090
:1087000019EFFFB73B494A6822F440424A600A6BBE
:10871000394B1A400A630A280ED2DFE800F0050E32
:10872000171E29323F48555E086B20F480300863DD
:10873000086B20F4807008637047086B40F4803049
:108740000863086B20F480700863704748684860CD
:10875000086B40F480700863704748684860086B95
:1087600040F000400863086B40F480700863704775
:10877000486840F480404860086B40F480700863AB
:108780007047486840F480404860086B40F0004003
:108790000863086B40F4807008637047486840F4D1
:1087A00000404860086B40F4807008637047486878
:1087B00040F400404860086B40F000400863086BDC
:1087C00040F4807008637047486840F44040486057
:1087D000086B40F4807008637047486840F440407C
:1087E0004860086B40F000400863086B40F48070FC
:1087F0000863704700100240FFFEFE7F034A1168C5
:1088000021F001010143116070470000C0100240D7
:108810002DE9F04788B0064600200021002569A216
:1088200092E89800D268CDE905470493079266A2C2
:108830000CCACDE9022364A20CCACDE90023654F1E
:108840007A68C2F38102DFF890C1002A27D0DFF8EE
:108850008C81012A25D0022A25D062467B68C3F389
:10886000031304ACE35C22FA03F37C68C4F3022430
:108870000DF1080818F8044023FA04F87C68C4F3E2
:10888000C2241DF8044023FA04F44FF40049072ED3
:1088900036D2DFE806F034383A3C3E747C0062465B
:1088A000DCE74246DAE77A68C2F383427B68C3F3C7
:1088B000C064FB6ADB0F0CB1113202E00F2A03D057
:1088C000921C012B02D002E01022FAE71F327B68D3
:1088D000C3F30043FC6AC4F380746BB1FB6A03F01A
:1088E0000F035B1C24B13E4CB4FBF3F35A43B5E7D2
:1088F000B8FBF3F35A43B1E73A4B5A43AEE710469D
:1089000008B0BDE8F0871846FAE74046F8E7204689
:10891000F6E7386BC00506D4386BC00301D4324982
:1089200029E0324927E07868C0F38132386BC00F04
:1089300032B1012A0BD0022A10D0032A1BD116E033
:1089400018B10320B3FBF0F115E0610813E018B192
:108950000520B3FBF0F10EE0A1080CE018B10720F0
:10896000B3FBF0F107E00620B4FBF0F103E020B127
:108970000920B3FBF0F10846C2E7E108FBE7386BDA
:10898000400602D448F21200BAE74846B8E7386B0E
:1089900080070ED0386B00F0030001280BD0386B35
:1089A00000F00300022808D0386BC043800706D0CF
:1089B00006E0254604E0154602E04D4600E0654627
:1089C00028469DE7000000000000000001020304AB
:1089D000060708090010024000127A00001BB700C9
:1089E000006CDC0200093D00809FD500003FAB0118
:1089F000054901EB90110A6800F01F03012098401F
:108A000002430A607047000000100240054901EB74
:108A100090110A6800F01F030120984082430A6009
:108A20007047000000100240054901EB90110A68F0
:108A300000F01F030120984002430A6070470000C5
:108A40000010024009494A6822F440024A600A6B59
:108A500022F080420A634A6820F080431A434A6049
:108A60000A6B00F0804002430A6370470010024026
:108A700070B5064600240B4DB44207D105EBC40087
:108A8000416855F83400FFF7D9FB06E005EBC40058
:108A9000416855F83400FFF7D3FB641CE4B2062CA0
:108AA000EAD370BD74B9000810B53D4C082875D2E2
:108AB000DFE800F00412202E3C4A586601212046CF
:108AC000FFF7BCFB02212046FFF7B8FB2046BDE8BC
:108AD00010400421FFF7B2BB01212046FFF7B0FB95
:108AE00002212046FFF7AAFB2046BDE810400421E2
:108AF000FFF7A4BB01212046FFF7A0FB022120467F
:108B0000FFF79EFB2046BDE810400421FFF796BB0F
:108B100001212046FFF794FB02212046FFF790FB3E
:108B20002046BDE810400421FFF788BB0121204604
:108B3000FFF784FB02212046FFF780FB2046BDE8BB
:108B400010400421FFF77CBB01212046FFF778FB92
:108B500002212046FFF772FB2046BDE810400421A9
:108B6000FFF76EBB01212046FFF768FB022120467C
:108B7000FFF766FB2046BDE810400421FFF760BB0D
:108B800001212046FFF75CFB02212046FFF758FB3E
:108B90002046BDE810400421FFF752BB10BD000085
:108BA0000004004870B5064600240B4DB44207D1BE
:108BB00005EBC400416855F83400FFF73FFB06E0C1
:108BC00005EBC400416855F83400FFF739FB641C1D
:108BD000E4B2042CEAD370BDA4B9000810B53D4C32
:108BE000082875D2DFE800F00412202E3C4A5866AF
:108BF00008212046FFF722FB10212046FFF71EFB2D
:108C00002046BDE810402021FFF718BB0821204670
:108C1000FFF716FB10212046FFF710FB2046BDE8AA
:108C200010402021FFF70ABB08212046FFF706FB72
:108C300010212046FFF704FB2046BDE8104020210C
:108C4000FFF7FCBA08212046FFF7FAFA1021204668
:108C5000FFF7F6FA2046BDE810402021FFF7EEBAF4
:108C600008212046FFF7EAFA10212046FFF7E6FA2E
:108C70002046BDE810402021FFF7E2BA0821204637
:108C8000FFF7DEFA10212046FFF7D8FA2046BDE8AC
:108C900010402021FFF7D4BA08212046FFF7CEFA72
:108CA00010212046FFF7CCFA2046BDE810402021D5
:108CB000FFF7C6BA08212046FFF7C2FA1021204666
:108CC000FFF7BEFA2046BDE810402021FFF7B8BAF2
:108CD00010BD00000004004810B586B01821684699
:108CE000FAF797FE084C06226946204600F03CFD44
:108CF00001210091204600F00DFD06226946204624
:108D000000F019FD06B010BD0034000801490871DB
:108D10007047000044020020064A812905D08229BC
:108D200005D0832900D1D070704750707047907083
:108D30007047000044020020002018490A6842F4ED
:108D400080320A60CB14401C0A6802F400320AB96F
:108D50009842F8D1086880031FD548684860086BBE
:108D600040F00100086348680D4A104048604868B8
:108D700040F488104860086840F080700860086817
:108D80008001FCD5486820F003004860486840F046
:108D90000200486048680007FCD570470010024098
:108DA000FFFFC277FFF7C8BF30B589B040F20B6054
:108DB000FFF71EFE40F21150FFF71AFE4FF48074C9
:108DC0004FF090452346002202212846FFF741FA42
:108DD00023464FF6FF7200212846FFF75EFA22462F
:108DE00002212846FFF7F8F9254D284600F0CEFA73
:108DF0000024ADF80440ADF80640ADF808408D20E1
:108E00000390ADF80A408DF8104001A9284600F003
:108E100045FB01200590ADF818400221ADF81A106D
:108E2000ADF81C10ADF81E40ADF8204005AA002199
:108E3000284600F04BF947220021284600F06CFA42
:108E400060220021284600F03DFA00221146284603
:108E500000F072FA284600F034F90021284600F0AC
:108E6000A4FB0121284600F081FB0121284600F0E7
:108E700065FB012200210D20FFF76EFB09B030BD1C
:108E8000002C014010B50B4C0121204600F0FFFAE8
:108E9000002809D00121204600F0F6FA06490A68A8
:108EA0001AB10868401E086010BD2046BDE8104099
:108EB00000F0DCBA002000403C01002030B589B051
:108EC0004FF4C260FFF794FD314D284600F05EFA82
:108ED00040F21150FFF78CFD4FF090440823002220
:108EE00002212046FFF7B5F908234FF6FF72002153
:108EF0002046FFF7D2F9082200212046FFF76CF93F
:108F00004620ADF804000024ADF80640ADF8084056
:108F100065200390ADF80A408DF8104001A928465D
:108F200000F0BCFA01200590ADF818400221ADF820
:108F30001A10ADF81C10ADF81E40ADF8204005AA7F
:108F40000121284600F0C2F812490878642801D9A6
:108F50005A2008700878FDF775FF60220121284625
:108F600000F0B0F900220121284600F0E5F90121C6
:108F7000284600F007FB284600F0A3F80121284608
:108F800000F0F4FA284600F076FA09B030BD00008F
:108F900000400140310200201FB540F21160FFF790
:108FA00027FD134C204600F0F1F94721ADF80010E1
:108FB0000021ADF80210ADF80410B4220292ADF811
:108FC00006108DF80C106946204600F067FA20461E
:108FD00000F072F80021204600F0D4FA012120466A
:108FE00000F0ACFA022201211520FFF7B5FA1FBDEF
:108FF000004401401FB54FF4E060FFF7F9FC4FF06B
:109000008044204600F0C2F90021ADF80010ADF810
:109010000210ADF804104CF250320292ADF8061076
:109020008DF80C106946204600F038FA204600F012
:1090300048F80121204600F0A5FA0121204600F061
:109040007DFA022201210F20FFF786FA204600F068
:1090500012FA1FBD1FB540F20170FFF7C9FC154C95
:10906000204600F093F94721ADF800100021ADF83B
:109070000210ADF8041064220292ADF806108DF8CB
:109080000C106946204600F009FA204600F014F85A
:109090000121204600F076FA0121204600F04EFA28
:1090A000032201211020FFF757FA204600F0E3F9D0
:1090B0001FBD000000040040016821F08001016034
:1090C0007047016841F080010160704730B5794B0D
:1090D000794C002927D0012964D002297ED00329A8
:1090E00020D1016A21F480510162C16921F44071EB
:1090F000C161016A146841EA04310162016A21F424
:1091000000510162016AD48841EA04310162984247
:1091100008D1416821F4804141604168528941EAA7
:109120008211416030BD016A21F001010162816953
:1091300021F003018161016A156829430162016A16
:1091400021F002010162016AD58829430162984237
:1091500007D0A04205D05949884202D058498842D8
:10916000E0D1016A21F004010162016A9388194388
:109170000162016A21F008010162016A1389194341
:109180000162416821F4807141604168538919434B
:109190004160416821F40071416041689289114346
:1091A000416030BD016A21F010010162816921F442
:1091B00040718161016A156841EA05110162016A25
:1091C00021F020010162016AD58841EA051101629E
:1091D000984225D1016A21F0400100E02CE00162B3
:1091E000016A938841EA03110162016A21F080015A
:1091F0000162016A138941EA03110162416821F4A5
:10920000806141604168538941EA8301416041685E
:1092100021F4006141604168938941EA8301416022
:10922000A042BED1416821F4806141604168528909
:1092300041EA8201416030BD016A21F4807101621E
:10924000C16921F00301C161016A146841EA042186
:109250000162016A21F400710162016AD48841EA65
:10926000042101629842E6D1016A21F48061016221
:10927000016A938841EA03210162016A21F40061D5
:109280000162016A138941EA03210162416821F404
:10929000805141604168538941EA0311416041684E
:1092A00021F4005141604168928941EA0211416014
:1092B00030BD0000002C014000400140004401404E
:1092C0000048014000290ED0012914D002291BD0EA
:1092D000032907D1C16921F4E041C161C16941EAB3
