:020000040800F2
:10380000280C002069390008EB4D0008B546000877
:10381000E94D0008A94300084D6C000800000000B5
:10382000000000000000000000000000B15400088B
:10383000DD430008000000007D4E0008B55600087A
:103840008339000883390008833900088339000868
:1038500083390008154400088339000883390008BB
:1038600083390008BD430008833900088339000804
:10387000833900085957000883390008895800081F
:10388000A95800088339000800000000AD5700085F
:1038900083390008B15700088339000883390008CC
:1038A0008339000883390008833900088339000808
:1038B0008339000800000000833900080000000080
:1038C0008339000800000000833900080000000070
:1038D00000000000000000000000000000000000E8
:1038E0000000000000000000796B000800000000EC
:1038F00000000000000000000000000000000000C8
:1039000083390008000000000000000000000000F3
:1039100000000000000000000000000000000000A7
:103920000000000000000000000000000000000097
:103930000000000000000000000000000000000087
:103940000000000000000000000000006D6B000897
:10395000DFF810D000F070FB0048004741800008FD
:10396000AFF30080280C0020064880470648004737
:10397000FEE7FEE7FEE7FEE7FEE7FEE7FEE7FEE71F
:10398000FEE7FEE7B95600085139000830B50B468E
:10399000014600202022012409E021FA02F59D427F
:1039A00005D303FA02F5491B04FA02F52844151E53
:1039B000A2F10102F1DC30BD70B5002425460028DB
:1039C00001DA01244042002901DA01254942FFF7CA
:1039D000DDFFAC4200D04042002C00D0494270BD17
:1039E00040EA01039B0703D009E008C9121F08C081
:1039F000042AFAD203E011F8013B00F8013B521E01
:103A0000F9D27047D2B201E000F8012B491EFBD277
:103A100070470022F6E710B513460A4604461946D9
:103A2000FFF7F0FF204610BDF0B480EA0102D40F8A
:103A30004200B2EB410F02D20246084611464A004C
:103A400042D0C30DDDB2C1F3C752AD1A202D35DA15
:103A5000C1F3160141F4000204B15242C5F120063F
:103A600002FA06F12A411044B3EBD05F23D0C4B16F
:103A7000012DA0EBC35009DCF0BC4FF0004202EA7C
:103A8000C352DBB200F5000000F04ABA400000F17A
:103A9000807000EBC350A0F1807040EAD170490003
:103AA00009E0490841EAC071A0EBC35000F50000ED
:103AB000400800EBC350F0BC00F029BA614201227B
:103AC00002EB4101001BF6E7F0BC704781F00041BA
:103AD000AAE780F00040A7E780EA010210B502F0F3
:103AE0000043400022D04A001FD0010E01EB1261BA
:103AF000C0F35600C2F3560240F4000042F4000244
:103B0000A0FB022000047F39140400D0401C50EABE
:103B1000124001D44000491EC2B20C0604EBD01082
:103B2000401C4008802A02D003E0002010BD20F095
:103B30000100002900DA0020184310BD30B480EAEB
:103B4000010202F0004530F0004221F0004013D0A5
:103B500090B1C30DD40DC2F31601C0F31600E41AE0
:103B600041F4000140F400027D34914201D3641C11
:103B700000E04900002C02DA30BC002070474FF40E
:103B800000000023914201D3891A034340084FEA01
:103B90004101F7D151B1914202D14FF0004105E00E
:103BA00002D24FF0010101E06FF0010103EBC450BC
:103BB000284430BC00F0ABB92DE9FE4F804681EAC5
:103BC0000300C00F0C46009021F0004123F0004597
:103BD000B8EB0200A94105D24046214690461C465A
:103BE0000B46024623F00040104347D0270DC7F391
:103BF0000A00C3F30A510290401A019040286BDA80
:103C0000C3F3130040F4801B0098924620B10023B8
:103C1000D2EB030A63EB0B0B01985946C0F140024B
:103C2000504600F043F906460D4650465946019A63
:103C300000F05BF910EB08006141002487EA1152A3
:103C400084EAE7731A4340D0009A62B3019A012ACA
:103C50004FEA075215DC001B61EB02014FF00042F6
:103C600002EA0752CDE90042001C41F580113246BC
:103C70002B4600F092F903B0BDE8F08F4046214694
:103C8000F9E7001B61EB0201001C41F580130018ED
:103C90005B412018A2F5001747EB030140EAD570FD
:103CA000B6196D4111E06D084FEA360645EAC07558
:103CB0004FEA0752001B61EB0201001C41F5801125
:103CC00049084FEA30000019514132462B4603B0F3
:103CD000BDE8F04F00F052B90098012240000023E7
:103CE000D0EB020263EBE073009821464FEAE074E8
:103CF000B8EB000061EB0401E9E783F000435BE708
:103D000081F0004158E72DE9FE4F81EA030404F0F9
:103D1000004421F0004100944FF0000B23F00043D9
:103D200050EA01045ED052EA03045BD0C3F30A54A4
:103D3000C1F30A552C44A4F2F3340194A0FB0254BD
:103D4000C1F3130141F48011C3F3130343F480134F
:103D500001FB024400FB034E840A970A44EA8154A3
:103D600047EA8357A4FB076802958D0A05FB078580
:103D70004FEA932C04FB0C542705029D4FEA06588A
:103D800047EA1637B5EB08056EEB070C870E920E67
:103D900047EA811742EA8312A7FB0201B6EB0B0147
:103DA00064EB00042B0D43EA0C335E1844EB1C500B
:103DB000DA465146E7FB0201C5F313044FEA0B3321
:103DC00043EA14534FEA0432019C43EA0603A4F188
:103DD0000C040294009CCDE900B400F0DEF803B0BE
:103DE000BDE8F08F00200146F9E7C10F80EAE070DE
:103DF0000844CA079623002100F092B896230022B7
:103E0000114600F08DB80EB540F233410291002109
:103E1000CDE900110A460B4600F0BFF803B000BD23
:103E200000F0004220F00040C10DC0F3160040F445
:103E300000007F2901DA00207047962903DCC1F1D8
:103E40009601C84001E096398840002AF4D04042EB
:103E5000704720F00040C10DC0F3160040F4000090
:103E60007F2901DA00207047962903DCC1F1960111
:103E7000C8407047963988407047C1F30A5210B560
:103E8000C1F3130140F2FF3341F480119A4201DA89
:103E9000002010BD40F233439A42A2F2334203DCC9
:103EA000524200F012F810BD904010BD202A04DBF1
:103EB000203A00FA02F1002070479140C2F120033D
:103EC00020FA03F3194390407047202A04DB203A7C
:103ED00021FA02F00021704721FA02F3D040C2F12A
:103EE00020029140084319467047202A06DBCB1771
:103EF000203A41FA02F043EAE07306E041FA02F3A5
:103F0000D040C2F120029140084319467047002971
:103F1000A8BF7047401C490008BF20F0010070474F
:103F200010B4B0FA80FC00FA0CF050EA010404BFAF
:103F300010BC704749B1CCF1200421FA04F411FA05
:103F40000CF118BF012121430843A3EB0C01CB1D49
:103F50004FEA00614FEA102042BF002010BC7047BA
:103F600000EBC35010440029A4BF10BC7047401C94
:103F7000490008BF20F0010010BC704710B5141EA6
:103F800073F1000408DA401C41F1000192185B4112
:103F90001A4301D120F0010010BD2DE9F04D9246E9
:103FA0009B4611B1B1FA81F202E0B0FA80F2203200
:103FB0009046FFF77BFF04460F4640EA0A0041EABD
:103FC0000B0153465A46084313D0114653EA0100E9
:103FD00019D0C8F140025046FFF777FF05460E465C
:103FE000504659464246FFF761FF084305D001207D
:103FF00004E020463946BDE8F08D0020054346EA3E
:10400000E0762C4337430A986305E40AA0EB0800E6
:104010000022FD0A44EA47540A3002D50020014636
:10402000E9E7010510196941DDE908450019694111
:10403000BDE8F04DA2E70000064C074D06E0E06841
:1040400040F0010394E8070098471034AC42F6D3DF
:10405000FFF782FC4CBB00086CBB000870B58C18E5
:1040600010F8015B15F0070301D110F8013B2A118C
:1040700006D110F8012B03E010F8016B01F8016B79
:104080005B1EF9D12B0705D40023521E0DD401F875
:10409000013BFAE710F8013BCB1A921C03E013F83E
:1040A000015B01F8015B521EF9D5A142D8D3002073
:1040B00070BD10B503F01EF802F073FF02F06AFF46
:1040C000BDE8104002F0E6BE10B502F0D3FDBDE839
:1040D000104002F0BDBD000010B51948017800EB9A
:1040E00041004088002804D01548B838407901289C
:1040F0001BD014490020C86003F090FA03F048F880
:1041000003F0ECFD03F024FE03F018FA03F04EFA7E
:1041100001F05AFA00F064F900F068FE0A480078ED
:10412000042805D000F026FE04E002F0E5FFE3E7F6
:1041300000F016FE01F0CEFBBDE8104000F02EB8F6
:10414000E8040020800600202802002010B507485F
:104150000078062809D1FFF7BFFF04490220303953
:104160008871BDE8104002F099BC10BD60040020C9
:104170000948007806280ED2DFE800F00D03050795
:10418000090B01F0B5B801F07FB801F001B906F0F4
:10419000DFBE06F0FFBE7047600400202DE9F0018D
:1041A0004B49642008705A2048705020887046207F
:1041B000C87008713C20487188713220C87128206D
:1041C000087248721E208872C872087314204873DF
:1041D0008873C8733F4A4BF2982746F62E059369B9
:1041E000D2694FF0000CA1F10C04BB4201D9AA42E4
:1041F0000FD841F24348434501D2AA4209D841F2BF
:10420000F246BB4201D9B24203D3434504D2B24283
:1042100002D20222A2700FE0A3F5A053433B49F65D
:104220005667BB4203D2AA4201D8B24202D201224F
:10423000A27001E084F802C0C4F804C0264AD26823
:1042400022B1A060BDE8F00100F04CB8234A244D33
:10425000A378B2F87420B5F87450022B2A440CD01D
:10426000012B1AD0002B2FD14FF40C73B2FBF3F2B9
:1042700062600F2A21D3A06021E04FF45773B2FB94
:10428000F3F262600F2A01D3A06001E0885CA060B5
:10429000207ABDE8F00100F025B84FF42073B2FB9E
:1042A000F3F262600F2A01D3A06001E0885CA06095
:1042B000207ABDE8F00100F015B8885CA060207A93
:1042C000BDE8F00100F00EB8BDE8F0017047000055
:1042D0000C03002030040020800600201805002078
:1042E000900500202DE9F0432D490F78042F06D0CA
:1042F000C0EBC0304CF27061B0FBF1F0C0B2294E9F
:10430000736AB169B46ACA1AF169091B00D54942D6
:10431000002A00DA52421144814239DBDFF88490EE
:10432000D9F81810D9F824004A1E08444508D9F8CD
:104330001C00CBB2C1F30724D9F82890411E00F02D
:10434000FF0CC0F3072848444008042F0FD047F65D
:10435000FE77BA4202D8337274727562B94204D8D9
:1043600086F80AC086F80B80B062BDE8F0834CF294
:104370006F67BA4202D833727472756247F60542AB
:104380009142F2D886F80AC086F80B80B062ECE75A
:104390003372180A7072B472200AF072E5E70000F6
:1043A0002802002030040020FEE70000024800211F
:1043B000C1600174704700002402002010B5022182
:1043C000002003F07BFB002807D00121002003F030
:1043D0006BFBBDE8104002F081BB10BD70470000D0
:1043E0000A484DF249220168A1F2CD61914208D2FA
:1043F000406840F25D61884203D348F6D471884238
:1044000002D903490020088470470000A00600205C
:104410003004002070B5012003F0C4FB002827D031
:10442000144D6869F8B101F047F9002003F0FAFF74
:104430001148006804F01AF940F20C5004F0ECF84E
:10444000284605F089FA0D4C206840F001002060F4
:10445000052003F0C7FA206820F001002060E87B07
:10446000687300206861BDE87040012003F094BBD0
:1044700070BD000018000020140000200408005047
:1044800070B5054600200021084B094A03E033F8C7
:1044900011402044491C5479167AA41B8C42F6D84A
:1044A0005179491E33F81110298070BDBC060020D7
:1044B000600400202DE9F05F0024774EA14686F8C5
:1044C0000890764F4FF48051384603F0CBFC40F211
:1044D000C62004F0A3FE3078714DDFF8C8810428AF
:1044E0000ED03078052839D03078032864D0307861
:1044F000DFF8B481012870D0307802287DD089E0BF
:10450000FFF7E2FD98F80110E1B1062920D098F8F4
:1045100005000844C01E88F8020098F80200010651
:1045200001D42A2801D988F8029098F8020004F0F2
:1045300083FE28788E2110FB01F004F06FFE2878AE
:10454000307267E098F80500001F88F80200E4E781
:1045500098F80500001D88F80200DEE7FFF7B4FDBB
:1045600098F80110E1B1062920D098F80600084417
:10457000C01E88F8020098F80200010601D41B282A
:1045800001D988F8029098F8020004F073FE697867
:104590008E2011FB00F004F041FE6878307239E0A3
:1045A00098F80600001F88F80200E4E798F8060073
:1045B000001D88F80200DEE7FFF786FD98F8060088
:1045C00004F058FEA8788E2110FB01F004F026FEBE
:1045D000A87830721EE000E00FE0FFF775FD98F854
:1045E000010004F047FE6978C1EBC10000EB8110C7
:1045F00004F014FE687830720CE06978C1EBC100F9
:1046000000EB811004F00AFEFFF75EFD98F8010050
:1046100004F012FE4FF48071384603F023FC4FF48F
:10462000004A4FF0904B5146584603F01BFC204D7A
:10463000DFF87C901D4FDFF87880083D09F14409D0
:1046400013E0641C022002F09DFCD8F8000040F446
:104650008000C8F80000012004F0E0FD2868800711
:10466000FCD5D9F8000027F814007079317A401A87
:10467000A042E6DC37F814107079401E27F81010BD
:1046800002F02CFA5146584603F0EEFBFFF71CFDF2
:10469000BDE8F05FFFF76CBD600400200008004833
:1046A0001C0300207E0400206C040020BC060020B7
:1046B00008240140FEE700002DE9F05F03F09AFBBB
:1046C000032878D103F07EFB50B904F0ADFF012040
:1046D00004F030F90A23FA4A0321FA4805F0C4FC31
:1046E000F94C207903F094F8002864D0F74DDFF8F6
:1046F000E09300272979F74E4FF003084FF09040E0
:104700004FF0090A032901D1697971B1E979FF29CB
:1047100051D0AA79022A4ED36A79012A4BD12A8C28
:104720004FF0010B002A7CD095E06771042103F063
:104730009BFB2079012805D0C02102281FD0042826
:1047400072D14EE086F800A02F747770A88CB070FC
:10475000000AF070288D3071000A7071B771F7711E
:10476000812003F035FB20B90822DA49812004F0CA
:10477000D7FE2F71707898B385F8048054E0072035
:104780003070297471702078012803D1D9F80000A5
:10479000022811D0A88CB070000AF070288D3071FA
:1047A000000A7071B771F77137727772822003F067
:1047B0000FFB50B10EE049E0288DB070000AF07098
:1047C000A88C3071000A7071ECE70A22C14982207E
:1047D00004F0A6FE2F717078C02825D085F80480DB
:1047E00022E00220307029747170A88CB070000A29
:1047F000F070288D3071000A7071B771F7713772DF
:104800007772B772F772832003F0E2FA20B90C22B4
:10481000B049832004F084FE2F717078C02803D043
:1048200000E015E085F804806F62AF622F84AA492A
:10483000CF60AA4887604F6007608F604760C7609D
:104840000761476107764776A5480770BDE8F09F86
:1048500099B1042911D0042103F004FB6771AF71F1
:10486000AA7CFF207F21B2B12279042A01D0A8724C
:10487000E9722278012A07D01AE060790028EED187
:1048800084F805B0A771EAE7D9F80020022A0FD111
:10489000AF72EF720CE0EA7C52B1AF72EF72227825
:1048A000012A05D1D9F80020022A01D1A872E972A3
:1048B0002A7D12B12F726F7206E06A7D22B12279D1
:1048C000042A01D0287269722079012809D0A02316
:1048D000844A85494FF0A10C02282ED004281CD10F
:1048E00073E0288CD0B12879E0B1E8790BEB400077
:1048F000287486F800A0287C7070287AB070687AD6
:10490000F070A87A3071E87A7071288CB071000A62
:10491000F071812003F05CFA48B12FE1E8794000A2
:104920002874E6E7E879400028742F84E1E708223C
:104930006849812004F0F4FD20E1288C48B12879F1
:1049400060B1E8790CEB40002874287CA9280BD0D2
:104950000CE0E87903EB40002874F6E7E87903EB14
:10496000400028742F84F0E7A420287407203070BA
:10497000287C70702078012803D1D9F80000022823
:1049800014D0287AB070687AF070A87A3071E87A1A
:104990007071288CB071000AF0711078307208784C
:1049A0007072822003F014FA48B1E7E0A87AB07080
:1049B000E87AF070287A3071687A7071E9E70A2233
:1049C0004449822004F0ACFDD8E0288CE8B3287973
:1049D000E0B3E8790CEB4000287402203070287CAA
:1049E0007070287AB070687AF070A87A3071E87ABE
:1049F0007071288C00F0FF0C86F806C0040AF47170
:104A0000127832720B787372B772F7723748DFF828
:104A1000E09038490068012828D0374F02282FD06D
:104A2000032837D0042840D0052870D006287CD031
:104A3000072869D0082868D0092867D086F806C0FA
:104A4000F47132727372832001E004E008E003F035
:104A5000BFF9A0B392E0E87903EB40002874BCE70B
:104A6000E87903EB400028742F84B6E7B9F87400A6
:104A7000B071000AF0714879307288797072E2E79B
:104A8000B7F87400B071000AF07148793072887913
:104A90007072D8E71948B0F87400B071000AF0716C
:104AA0004879307288797072CDE715480088B07106
:104AB000000AF0714879307288797072C3E758E063
:104AC000C803002018000020240200203004002029
:104AD000B0020020D403002080060020A0060020A1
:104AE000350300200003002001030020AC02002059
:104AF000180500207E0400209005002008060020F4
:104B00004403002003E010E019E022E029E0B9F8B6
:104B10007400B7F8742010444208B271400AF07172
:104B200048793072887970728DE71C480088B071BE
:104B3000000AF071487930728879707283E71848FA
:104B40000088B071000AF07148793072887970720B
:104B500079E714480088B071000AF07132727372FC
:104B600071E711480088B071000AF07132727372F7
:104B700069E70C220D49832004F0D2FC687A297A77
:104B800001EB00206862E87AA97A01EB0020A862B4
:104B9000288CA88585F8048058E6000008030020CA
:104BA000AC0300209003002092030020D4030020D7
:104BB0002DE9F04703F01EF903287BD1524D2878E8
:104BC000012877D1DFF844A19AF8040002F020FE12
:104BD00000286FD04FF090470421384603F042F987
:104BE00028784B4E01281AD10024DFF828918046FE
:104BF00009EBC400416859F8340003F037F928B1D3
:104C0000306808FA04F18843306004E0306808FA3C
:104C100004F108433060641CE4B2082CE8D39AF82D
:104C2000040006233C49DFF8F4C03D4A0024012873
:104C300004D0022820D004285AD13CE0287801284A
:104C400056D10B709CF8000048701078887050782E
:104C5000C87090780871D07848711079887150794F
:104C6000C871812003F0B4F818BB08222A498120BA
:104C700004F056FC2C703BE02878012838D10B70EA
:104C80009CF800004870107888705078C870907850
:104C90000871D0784871107988715079C871812075
:104CA00003F096F828B908221B49812004F038FC4B
:104CB0002C701DE025E02878012819D10220087009
:104CC000F020487030888870000AC8700C714C71F0
:104CD0008C71CC710C724C728C72CC72832003F08C
:104CE00077F828B90C220C49832004F019FC2C70A9
:104CF0003068002805D13846BDE8F047042103F0AC
:104D0000B3B8BDE8F087000064030020240200204F
:104D1000780300208CB30008D40300206503002032
:104D20007003002010B50B210B48FEF772FE0A48F5
:104D300030213038FEF76DFE084800210160017116
:104D400002F046FD04F040FB0348012101710170AF
:104D50002D21417110BD0000600400201C030020C3
:104D6000034847F60642C169511AC1617047000005
:104D70003004002030B519494CF26F656B1C88690E
:104D800047F6FF72441EAC4205D8C0EBC030B0FB02
:104D9000F3F0886103E010B1984200D98A61C869D4
:104DA00047F60545441E6B1CAC4205D8C0EBC0302D
:104DB000B0FBF3F0C86103E010B1984200D9CA61BA
:104DC000C869101AC861064B1B78012B05D1054B29
:104DD0001B68022B01D1101AC86130BD30040020BD
:104DE00024020020B0020020FEE7704770B5214C7D
:104DF00040F6F4350123216800221F48A94201D959
:104E0000027501E0037582614DF26425A94203D861
:104E10004DF23C35A94204D943754CF27065856169
:104E200000E04275A1F6F5354CF26F66B54201D847
:104E3000691C81616168B1F5526F01D9827401E02A
:104E40008374C26148F62614A14203D848F6A3141D
:104E5000A14204D9C37447F60642C26100E0C2749D
:104E6000A1F6215247F605439A4201D8511CC1616F
:104E700070BD0000A0060020300400207047FFB580
:104E800089B0099808900A9C0B9F0C9D1298079076
:104E900013980690149EE01B411B079808180028E1
:104EA0002AD00898001BC01B4019002824D0A54216
:104EB00011DBE21B531B079A9918621B72431046C1
:104EC000FEF77AFD01460698704308180290FEF737
:104ED0008CFF059010E0089A121BD21B5119621B1F
:104EE00072431046FEF768FD0146069870430818A5
:104EF0000290FEF77AFF05907800001B401B4000EF
:104F0000002810D07A00121B521B5100621B724302
:104F10001046FEF751FD014606987043401A029074
:104F2000FEF763FF049005990498FEF7CFFD01900A
:104F3000FEF776FF0290002801DB029801E002985C
:104F40004042B04207DD0498FEF76AFF0290FEF788
:104F50004CFF03900DE004990598FEF765FD019064
:104F6000FEF75EFFC20F111802904810FEF73DFFDA
:104F700003900398FEF76DFF0DB0F0BDF0B58BB058
:104F800004460D4616461F4600200A90781EC7B2FA
:104F90006800001B801B3FD0A9006200A218891A7C
:104FA000881B002801DB014600E0414209916900AD
:104FB000091B881B002801DB014600E041420891E3
:104FC0000898FEF71BFF06900998FEF717FF05905B
:104FD0000699FEF7B3FD079010994808FEF70EFFFB
:104FE000059010994808FEF709FF01900799FEF710
:104FF00073FD0390109979430846FEF7FFFE029077
:105000000399FEF711FD04900599FEF75FFD0690E8
:10501000FEF71FFF0A9001E000200A900A980BB0EB
:10502000F0BD000070B590B005460E461446202233
:10503000294608A8FEF7D4FC1C22314601A8FEF739
:10504000CFFC01990998884205D901990998401A1D
:105050007D49086004E009990198401A7A4908607E
:1050600002990A98884208D902990A98401A764902
:10507000096840187449086007E00A990298401AC4
:10508000714909684018704908606F480068322803
:1050900003D200206D49087002E001206B490870BE
:1050A0000B9800285DD0608A67490968884203D25E
:1050B000608E674908607BE0208A634909688842FE
:1050C00003D2208E6249086072E0E0895E49096877
:1050D000884203D2E08D5E49086069E060885A49E1
:1050E0000968884203D2608C5949086060E0A08852
:1050F00055490968884203D2A08C5549086057E099
:10510000E08851490968884203D2E08C5049086020
:105110004EE020894C490968884203D2208D4C49D1
:10512000086045E0608948490968884203D2608D7B
:10513000474908603CE0A08943490968884203D296
:10514000A08D4349086033E020883F4909688842C0
:1051500003D2208C3E4908602AE0E08B3C4908607D
:1051600026E0E08938490968884203D2A08B384993
:1051700008601DE0608834490968884203D2208BAA
:105180003349086014E0A0882F490968884203D297
:10519000608B2F4908600BE020882B490968884202
:1051A00003D2E08A2A49086002E0A08A2849086000
:1051B00027480068012805D1002004900590694621
:1051C000087714E00DE001990498401A04900299C0
:1051D0000598401A05906846007F401EC1B2684697
:1051E00001776846007F1A4909688842EBD209991D
:1051F0000498401804900A9905984018059068464C
:10520000007F401CC1B268460177007F00280CDD9A
:105210006A46117F0498FEF7B9FB01906A46117F38
:105220000598FEF7B3FB029006E0099801900A98F2
:1052300002900020694608771C2201A93046FEF73B
:10524000CFFB10B070BD0000A80300208603002033
:10525000AC03002010B54FF090440421204602F02A
:1052600001FE002247F230534FF4FA700021491C2E
:105270009942FCD3521C8242F8D32046BDE810402C
:10528000042102F0F1BD000010B51748FFF7F8F84F
:1052900002F010FB144910390878012822D148780F
:1052A000401CC0B248702A2818D301F15003CA89A3
:1052B0009868FA3290420DD95A784A7180B20881C2
:1052C00003220C390A70094901F0F0FEBDE81040D4
:1052D00001F0ACBBBDE8104001F052BBBDE810408E
:1052E00003F090BF10BD00007C0400201C030020D0
:1052F00010B52548FFF7C4F802F0DCFA2248103850
:10530000017800293ED14178491CC9B241701B295E
:1053100006D301790122052906D0491C017142708A
:10532000BDE8104003F06EBF174C4034A168FA2965
:1053300024D9A3780371637883714181027042702C
:10534000018AC181A4F18C01002008710220303152
:1053500008703021A4F12C00FEF75BFB30212046C1
:10536000FEF757FB2089094C80B2611C01F09EFEBC
:105370006078A070BDE8104003F044BFBDE8104065
:1053800001F0FEBA10BD00007C0400201C030020C8
:1053900070B5124C04F16A05607805EB4000801C82
:1053A000FFF76EF8617805EB81025061491CC8B2C5
:1053B0006070052803D3BDE8704001F0C9BF2079B3
:1053C000401CC0B22071272803D9BDE8704001F00D
:1053D000D7BABDE8704003F015BF00007E0400207E
:1053E00070B590B0044620221E4908A8FEF7F8FACE
:1053F00020221C4920316846FEF7F2FA002108AD50
:1054000055F82100A0421FD24A1C134655F822200D
:10541000A24219D35DF823305DF82110261A5B1AD9
:10542000734300EE103A101AB8EE401A00EE100A5C
:10543000B8EE400AC1EE000A00EE101AB8EE400ABB
:1054400030EE800A072103E000EE104AB8EE400A71
:10545000491C89B20729D3D3BDEEC00A10B010EEA3
:10546000100A70BDE8BA000810B505230E498A6815
:1054700004E04C69A41A4C61401E4876487E98426C
:10548000F7D20A484B69426813444B61487E401C7E
:10549000C0B2487618B1B3FBF0F0886010BD8A60E6
:1054A0000020487610BD0000A00600203403002034
:1054B0007047000070B5404C4048A17800680E2944
:1054C0000ED2DFE801F0070E3D42474C51565B60BB
:1054D000656A6F74A06002F04BFDA078401CA0705C
:1054E00070BDA168884201D3401A03E04FF6FA72FA
:1054F000511A084402281DD80024314E314D06EBC4
:10550000C400416856F8340002F0B0FC38B104EB36
:10551000840055F82010491C45F8201006E004EBE3
:10552000840005EB80004168491C4160641C082C24
:10553000E5D370BD02F0A4F9A078401CA07070BD46
:10554000BDE87040002002F0C7B9BDE870400120FE
:1055500002F0C2B9BDE87040022002F0BDB9BDE85A
:105560007040032002F0B8B9BDE87040042002F09A
:10557000B3B9BDE87040052002F0AEB9BDE8704097
:10558000062002F0A9B9BDE87040072002F0A4B9D6
:10559000BDE87040082002F09FB9BDE870400920C6
:1055A00002F09AB9BDE870400A2002F095B9BDE852
:1055B00070400B2002F090B96403002030030020FB
:1055C0008CB300088407002010B58EB0C820ADF859
:1055D00000004FF49660ADF802004FF44870ADF84B
:1055E00004004FF41670ADF806004FF4FA70ADF8F1
:1055F00008004FF4C870ADF80A004FF49670ADF88B
:105600000C004FF47A60ADF80E004010ADF81000B9
:10561000ADF812000A23ADF814300822ADF81620B8
:105620000320ADF818000521ADF81A10ADF81C00E4
:105630000D24ADF81E400C24ADF820400624ADF832
:1056400022400724ADF82440ADF826200922ADF809
:105650002820ADF82A300B22ADF82C20ADF82E0012
:105660000420ADF83000ADF832100F48818D0020D5
:10567000002908D10D4940F2DC52C968914202D399
:10568000ADF8340002E00121ADF83410BDF834105B
:1056900019B90749C860086108766A460449034891
:1056A000FFF7C0FC0EB010BD3004002080060020C3
:1056B000A0060020704700002048016841F47001F6
:1056C00001601F48016841F001010160016889071C
:1056D000FCD541681B4A1140416041681A4A11409B
:1056E0004160416821F440014160016B174A11405B
:1056F00001630168164A11400160C16A154A1140F0
:10570000C162016B40F2031291430163016B21F40A
:1057100080310163016B21F000410163416B21F095
:1057200001014163D0F8C01021F48031C0F8C010ED
:1057300000218160C0F8CC1003F048B988ED00E08A
:10574000001002400C00FF08FFFFC277BFFFFFBF41
:10575000FFFFF2FEF0FFFF3F70B5114C0121204624
:1057600003F0A9FC002819D00121204603F0A0FC79
:105770000C4D0D4A697B507A81420CD3507A81429C
:1057800004D1206840F00800206004E0204603F0C7
:1057900081FCFEF78FFE687B401C687370BD0000C3
:1057A000002C01407E0400206004002003F07EB93C
:1057B0002DE9F0412F4E0121304603F07CFC0028FA
:1057C00055D00121304603F073FC03F0F7FD294C5E
:1057D00032252C34F0B303F01BFDB42020602648A2
:1057E0000078274F254B274AA7F15001062830D2D1
:1057F000DFE800F02F030D171F27187937F8100086
:1058000011F810105878BDE8F04103F079BD18790F
:1058100037F8100011F810105878BDE8F04103F087
:1058200047BD107911F810109079BDE8F04103F0F0
:1058300067BDD07811F810105079BDE8F04103F041
:1058400037BDD07811F810109079BDE8F04103F021
:1058500057BD00E005E025603046BDE8F04103F0AB
:105860001EBC25603046BDE8F04103F018BCBDE821
:10587000F081000000440140600400206C0400201E
:105880007EB300087E04002010B501218C0720465D
:1058900003F011FC002805D02046BDE8104001218E
:1058A00003F006BC10BD000010B5084C01212046D5
:1058B00003F001FC002807D00121204603F0F8FB8B
:1058C00003480168491C016010BD0000000400404D
:1058D0002403002070B59AB041F288300A903C2031
:1058E0000B9040F28A200C904FF461700D904FF4B1
:1058F00096610E914FF4AF630F9340F2A46510953B
:1059000040F26C72119240F6980412945E10139655
:105910001490159116931795189219940E480F49E3
:10592000CDE908100E4A0AA8531ECDE9063201211E
:10593000CDE9041000221B23CDE9023209492A22B5
:105940008879CDE900024B79074A0849084800F0F8
:1059500011F81AB070BD00009203002090030020DF
:10596000010300207E0400208C060020900500200A
:10597000180500200FB593B0FE48007800281CD110
:10598000FD480078002806D10120FC49087000205D
:10599000FB49087014E0F8480078012810D1F84855
:1059A00000780A2803DB0220F449087008E0F44874
:1059B0000078401CF249087002E00020EF490870AE
:1059C000F0480078F04908701698042806DC012099
:1059D000EE4908700020EE4908700AE01998001F8F
:1059E0001699884205DA0020E84908700120E84944
:1059F00008701898042806DC0120E6490870002089
:105A0000E54908700AE01A98001F1899884205DADB
:105A10000020E04908700120DF4908701998001F34
:105A20001699884217DB1698042814DD1A98001F6F
:105A3000189988420FDB189804280CDD0120D14901
:105A400008700020D1490870D1490870D149087008
:105A5000D149087016E01A98001F1899884202DB95
:105A60001898042803DC0320C64908700AE0199836
:105A7000001F1699884202DB1698042802DC0220D7
:105A8000C0490870C048007801280CD1BD48007892
:105A9000022803D0BB480078032804D10120BF4965
:105AA0000870BF490870B8480078032808D1B54885
:105AB0000078012804D1BB4908700020B74908705C
:105AC000B1480078022809D1AE480078012805D1F4
:105AD000B54908700020B149087000E000BFAF4828
:105AE0000078002871D1119010900F900E900D90B9
:105AF0000C900B900A90099008901B98002809D0F0
:105B00001398C06C11901398806A0F901398406896
:105B10000D9008E01398406811901398806A0F90D8
:105B20001398C06C0D901C98002809D01498C06C74
:105B30000C901498806A0A9014984068089008E0C5
:105B4000149840680C901498806A0A901498C06C5D
:105B5000089096480078964908700D9911988842E7
:105B600006D99248007840084000904908700AE041
:105B70000D991198884206D28C4800784008400060
:105B8000401C8A49087008990C98884206D98748B1
:105B9000007802218843854908700AE008990C982A
:105BA000884206D28148007802218843801C7F49C0
:105BB00008707E4800787E490978884206D07D4882
:105BC0000078401C7B49087003E0F9E30020794924
:105BD0000870784800781E2803DD00207549087099
:105BE00003E0734800787149087070480078C00776
:105BF000C00F002815D10D98002805D00D991198D7
:105C0000FDF7C4FE6C4908800F9800281ED06B4930
:105C10001198484307900F99FDF7B8FE684908802E
:105C200014E01198002805D011990D98FDF7AEFEEB
:105C3000614908800F98002808D060490D984843B2
:105C400007900F99FDF7A2FE5D490880574800783C
:105C50008007C00F002815D10898002805D00899A2
:105C60000C98FDF793FE574908800A9800281ED02B
:105C700052490C98484307900A99FDF787FE52490C
:105C8000088014E00C98002805D00C990898FDF7BE
:105C90007DFE4C4908800A98002808D0474908989A
:105CA000484307900A99FDF771FE474908800E990D
:105CB0001098401A0790002801DB079801E0079828
:105CC00040421D990968884203D22B480078022877
:105CD00003D129480078022803D1394800883B497C
:105CE000088009990B98401A0790002801DB079853
:105CF00001E0079840421D990968884203D21E4876
:105D00000078022803D11C480078022803D12E48CD
:105D100000882F4908802D480088FEF774F82D4A26
:105D20002D4B01910090FDF7EEFF059104902B485B
:105D30000088FEF768F8274A294B01910090FDF78B
:105D4000E2FF03910290059B049AFDF735FF07914E
:105D50000690FEF792F81D4908801D480088FEF75E
:105D600052F81C4A1C4B01910090FDF7CCFF0591A5
:105D7000049037E086030020C1030020C203002006
:105D8000C30300207C0300207D0300208303002048
:105D9000820300208403002085030020800300206C
:105DA000810300207F0300207E030020A103002048
:105DB000A2030020A003002098030020B80B0000DD
:105DC0008C0300209A0300208E0300209003002003
:105DD000920300209A9999999999C93F94030020B8
:105DE0009999E93FFE480088FEF70DF8FD4AFE4B01
:105DF00001910090FDF787FF03910290059B049AA3
:105E0000FDF7DAFE07910690FEF737F8F7490880AC
:105E1000F7480088F7490880F4480088F04908806E
:105E200015980068079000F03FFCF3480088F0499F
:105E30000880F2480088ED490880ED4801882098E4
:105E40000180EA480188219801801D988068EA490C
:105E50000968884203D90020E94908701CE11D98AF
:105E60008068E5490968884227D81D98C068E249DA
:105E70000968884221D91D98C1688068081A0A21DA
:105E80000290FDF783FD0390FDF7B8FF05901D9884
:105E90008068D9490968081A0390FDF7AFFF04909C
:105EA0000599FDF74BFE00210690FDF7BDFD07901B
:105EB000FDF7CFFFD2490870EEE01D98C068CE49CB
:105EC0000968884227D81D980069CB49096888422B
:105ED00021D91D980169C068081A0A210290FDF7AE
:105EE00055FD0390FDF78AFF05901D98C068C249D3
:105EF0000968081A0390FDF781FF04900599FDF7E2
:105F00001DFEC0490690FDF78FFD0790FDF7A1FF2C
:105F1000BB490870C0E01D980069B749096888420C
:105F200027D81D984069B4490968884221D91D982D
:105F300041690069081A0A210290FDF727FD0390C4
:105F4000FDF75CFF05901D980069AB490968081AC8
:105F50000390FDF753FF04900599FDF7EFFDAA4963
:105F60000690FDF761FD0790FDF773FFA4490870E7
:105F700092E01D984069A0490968884227D81D9879
:105F800080699D490968884221D91D9881694069C5
:105F9000081A0A210290FDF7F9FC0390FDF72EFF85
:105FA00005901D98406994490968081A0390FDF707
:105FB00025FF04900599FDF7C1FD94490690FDF772
:105FC00033FD0790FDF745FF8D49087064E01D988B
:105FD000806989490968884227D81D98C06986491F
:105FE0000968884221D91D98C1698069081A0A2167
:105FF0000290FDF7CBFC0390FDF700FF05901D9884
:1060000080697D490968081A0390FDF7F7FE04903E
:106010000599FDF793FD7E490690FDF705FD079074
:10602000FDF717FF7649087036E01D98C069724980
:106030000968884227D81D98006A6F490968884214
:1060400021D91D98016AC069081A0A210290FDF73A
:106050009DFC0390FDF7D2FE05901D98C06966492E
:106060000968081A0390FDF7C9FE04900599FDF729
:1060700065FD68490690FDF7D7FC0790FDF7E9FE3E
:106080005F49087008E01D98006A5B49096888420A
:1060900002D83C205A4908701D98406A574909683F
:1060A000884203D900205C4908703BE11D98406A92
:1060B00052490968884227D81D98806A4F49096863
:1060C000884221D91D98816A406A081A0A210290E3
:1060D000FDF75CFC0390FDF791FE05901D98406A6A
:1060E00046490968081A0390FDF788FE049005994F
:1060F000FDF724FD00210690FDF796FC0790FDF7C3
:10610000A8FE454908700DE11D98806A3B49096861
:10611000884227D81D98C06A38490968884221D921
:106120001D98C16A806A081A0A210290FDF72EFCA8
:106130000390FDF763FE05901D98806A2F4909685A
:10614000081A0390FDF75AFE04900599FDF7F6FC36
:106150002C490690FDF768FC0790FDF77AFE2E4962
:106160000870DFE01D98C06A24490968884227D872
:106170001D98006B21490968884221D91D98016B3F
:10618000C06A081A0A210290FDF700FC0390FDF78F
:1061900035FE05901D98C06A18490968081A0390D1
:1061A000FDF72CFE04900599FDF7C8FC16490690F2
:1061B000FDF73AFC0790FDF74CFE17490870B1E077
:1061C0001D98006B0D490968884246D81D98406BA0
:1061D0000A490968884240D91D98416B006B1DE04F
:1061E000960300209A9999999999E93F9203002082
:1061F0009003002094030020B0030020B40300208B
:106200009C030020000020410000A0410000F0415C
:1062100000002042000048429D030020081A0A2185
:106220000290FDF7B3FB0390FDF7E8FD05901D9884
:10623000006BFE490968081A0390FDF7DFFD049022
:106240000599FDF77BFCFA490690FDF7EDFB0790F9
:10625000FDF7FFFDF749087064E01D98406BF349B6
:106260000968884227D81D98806BF04909688842E0
:1062700021D91D98816B406B081A0A210290FDF705
:1062800085FB0390FDF7BAFD05901D98406BE7492B
:106290000968081A0390FDF7B1FD04900599FDF710
:1062A0004DFCE5490690FDF7BFFB0790FDF7D1FDDA
:1062B000E049087036E01D98806BDC490968884227
:1062C00027D81D98C06BD9490968884221D91D98E3
:1062D000C16B806B081A0A210290FDF757FB0390EF
:1062E000FDF78CFD05901D98806BD0490968081A50
:1062F0000390FDF783FD04900599FDF71FFCCF493E
:106300000690FDF791FB0790FDF7A3FDC9490870C2
:1063100008E01D98C06BC5490968884202D83C2036
:10632000C4490870C6480078002839D0C5480078AC
:10633000002835D1C44800780A281DDDBD48007802
:10634000C149097888420CDC0020C0490870BC496A
:106350000870BD490870B748007841B21F980170B5
:1063600034E0B9480078401CB74908700846007806
:1063700041B21F98017029E0B4480078142825DC48
:10638000B1480078401CB04908700846007841B216
:106390001F980170AD480078401CAC49087015E0AA
:1063A000AB480078002803D1AA480078002808D01C
:1063B000A9480078002804D100211F98017005E049
:1063C0001CE19C48007841B21F980170A3480078F6
:1063D000002839D09B480078002835D1A0480078A3
:1063E0000A281DDD9F4800789D49097888420CDC09
:1063F00000209D490870994908709949087099488A
:10640000007841B21E98017033E095480078401C36
:10641000934908700846007841B21E98017028E040
:1064200091480078142824DC8D480078401C8C4961
:1064300008700846007841B21E9801708A480078BA
:10644000401C8949087014E088480078002803D16E
:1064500087480078002807D07F480078002803D1BB
:1064600000211E98017004E07E48007841B21E9819
:1064700001707E480078002803D17D48007800280C
:106480000CD074480078002803D1714800780028A7
:1064900004D000211E9801701F9801707548008873
:1064A000022807DC74480088022803DC734800785F
:1064B0007349087000211E9841561D98406881421A
:1064C00006D200211F9841561D984068814202D390
:1064D00000211598016015980068002809D16949C4
:1064E00008705D490870564908705C490870554944
:1064F00008705C48007800280BD061480078C0071D
:10650000C00F002805D11E980078404241B21E9865
:1065100001704848007800280BD05948007880075F
:10652000C00F002805D11F980078404241B21F9843
:10653000017053480078C007C00F5349097888425A
:1065400029D04F480078C007C00F002811D04F480D
:106550000078801C41B21E98017000211E9841569F
:10656000002918DA4648007840084000444908707D
:1065700011E046480078801E41B21E98017000214B
:106580001E984156002906DD3D480078400840002D
:10659000401C3B4908703A4800788007C00F3C49CE
:1065A0000978884229D0364800788007C00F002833
:1065B00011D038480078801C41B21F98017000212A
:1065C0001F984156002918DA2D4800780221884387
:1065D0002B49087011E02F480078801E41B21F98A7
:1065E000017000211F984156002906DD24480078DB
:1065F00002218843801C2249087000BF2648007889
:10660000264908701E980078204908701F98007865
:10661000204908701A480078C007C00F1A4908704E
:10662000174800788007C00F194939E0B4030020EB
:106630000000F0419D03002000002042000048427D
:106640007F030020810300208B03002089030020AA
:106650008503002084030020800300207E030020A7
:106660008A0300209C03002088030020820300206E
:10667000830300209A03002098030020A203002037
:10668000A10300207C030020A30300209E03002020
:10669000A40300209F030020C2030020C1030020A8
:1066A000087017B000BD000070B506464A48008863
:1066B0004A490968884205D9474800884749096816
:1066C000441A04E04548006843490988441A44488C
:1066D000008844490968884206D9414800884149F0
:1066E0000968401A041905E03E4800683C490988D9
:1066F000401A0419002E18D07D20C000844201D910
:10670000032510E019204001844201D904250AE044
:10671000FF200130844201D9052504E0642C01D911
:106720000A2500E00A250A2500E00125012D07D1F0
:1067300000202D4908602D4908602D49087017E098
:1067400012E02948006825490968401A264908606E
:106750002648006823490968401A244908602448EB
:106760000078401E2249087021480078A842E8D2EB
:106770001D4800681849098840181B4908601B48D3
:1067800000681749098840181849086018480078B7
:10679000401C1749087008460078002810DD08469C
:1067A000017811480068FDF7F1F80C4908601048BD
:1067B00001780E480068FDF7E9F80A4908600AE028
:1067C00005480088054908600548008805490860B3
:1067D00000200749087070BD90030020B00300201E
:1067E00092030020B4030020B8030020BC03002063
:1067F000C00300202DE9F04140F2125001F00CFFDF
:106800000024254E06F1180706EBC40556F834009F
:10681000002201216B6801F030FB56F834006968F2
:1068200001F020FB07EBC40557F8340000220121DA
:106830006B6801F022FB57F83400696801F012FB25
:10684000641CE4B2032CDFD30024134E303606F16F
:10685000300706EBC40556F83400002201216B68AE
:1068600001F00BFB56F83400696801F0FDFA07EB04
:10687000C40557F83400002201216B6801F0FDFACD
:1068800057F83400696801F0EFFA641CE4B2062C92
:10689000DFD3BDE8F08100007CB4000870B540F2A1
:1068A000115001F0B9FE40F2125001F0B5FE40F275
:1068B000135001F0B1FE4FF090451023002201214A
:1068C000284601F0DAFA00241021284601F0CCFA1B
:1068D000642001F07DF81021284601F0C3FA012060
:1068E00001F076F8641CC82CEED3042300220121A9
:1068F000284601F0C2FA0421284601F0B5FA4FF407
:106900000044234600220121284601F0B6FA214620
:10691000284601F0A7FA0C4DE4102346002201217D
:10692000284601F0AAFA2146284601F09DFA2411D2
:10693000234600220121284601F09FFA21462846DD
:10694000BDE8704001F08EBA0008004870B540F212
:10695000165001F061FE0024084D012205EBC40031
:106960000021436855F8340001F087FA641CE4B252
:10697000082CF2D3BDE8704001F00CBB8CB30008CA
:1069800070B512212248FDF744F821481221123037
:10699000FDF73FF81E482C212430FDF73AF81C483B
:1069A0002C215030FDF735F8194C02206070A4F10D
:1069B0003C0300219971174A1170174A1170174A48
:1069C0001170FF22DA7103F1300501222A70144A96
:1069D0000A25D570917011705170198403F51473E4
:1069E000596003F12002116099605160D960916093
:1069F000D16011615161117651762179094A32F8DD
:106A00001110094A12F81110BDE8704002F078BC6C
:106A10006C04002029020020000300200103002054
:106A20001C0300207EB300082EB3000810B53021EF
:106A30001748FCF7EEFF164830216A30FCF7E9FFF3
:106A40001C211448FCF7E5FF1148114A12388179DE
:106A5000917143795371C389D38100790E4B13F837
:106A60001000D0700023022802D9801E107100E0AF
:106A70001371074A03201E3A1070A2F1300083718F
:106A80001B2903D8BDE8104002F0BCBB10BD0000BC
:106A90007E040020A00600207EB3000807490022E3
:106AA0004A70C878022802D9801E087100E00A7175
:106AB000024903201E39087002F0A4BB7E040020A6
:106AC000AFF3008001490020887170476004002006
:106AD00001488079704700006004002001490120CE
:106AE000887170476004002010B55A2801D95A22D5
:106AF00004E00A2801D2012200E00246064C65218A
:106B0000E1620121204602F01BFA2046BDE8104058
:106B1000012102F055BB00000040014010B51149B1
:106B2000086011490A78032A18D00A78012A15D07A
:106B30000A78022A12D020224A720A4C42082C3CBF
:106B40000021204602F0FCF90121204602F038FB2A
:106B50002046BDE81040012102F0A6BA2A224A725E
:106B6000EBE700002C2C014060040020014804F0F9
:106B70003BB800001800002010B50D4880790028AF
:106B80000FD0FEF799FD002001F04CFC0948006889
:106B900001F06CFD40F20C5001F03EFD044802F0A3
:106BA000DBFEBDE810404FF4802000F0F5BF000090
:106BB00018000020140000202DE9F041064640F2A4
:106BC000115001F029FD2048008801F025FD1E4CE0
:106BD0004FF090470C3401213846226801F010F93B
:106BE000251D012138462A6801F00AF901220221F7
:106BF0003846236801F041F9012200213846236814
:106C000001F05FF90122022138462B6801F035F9C5
:106C10000122002138462B6801F053F9304602F07A
:106C2000C3FC4FF4E131304602F08CFC04213046C5
:106C300002F0EAFC0821304602F0EEFC3046BDE8E6
:106C4000F04102F0CFBC000038020020FEE7000057
:106C500070B50024064D05EBC400416855F83400BA
:106C600001F002F9641CE4B2062CF4D370BD0000FC
:106C7000ACB4000870B50024064D05EBC4004168B3
:106C800055F8340001F0F0F8641CE4B2042CF4D39D
:106C900070BD0000DCB400080FB4054B10B503A9AB
:106CA000044A029800F018F810BC5DF814FB0000CC
:106CB000B57C0008C403002002E008C8121F08C108
:106CC000002AFAD170477047002001E001C1121F6D
:106CD000002AFBD1704700002DE9FF4F89B09B4689
:106CE0000446002506E025280BD05A460B9990470C
:106CF000641C6D1C20780028F5D10DB02846BDE835
:106D0000F08F0027B8460122474900E0074314F8F6
:106D1000013F203B02FA03F00842F7D120782E28E9
:106D200019D114F8010F47F004072A280ED06FF08C
:106D30002F022078A0F1300109290CD808EB880136
:106D400002EB410100EB0108641CF2E70A98641CA5
:106D500050F8048B0A9020780028CED0642808D000
:106D6000692806D075281ED05A460B9990476D1C8D
:106D700058E00A994FF00A0901C90A91002802DA7D
:106D800040422D2102E0390504D52B218DF8201039
:106D9000012103E0F90704D02021F7E78A4608AE75
:106DA0000DE00021FAE70A994FF00A0901C90A919A
:106DB000F7E74946FCF7EAFD303106F8011D0028E7
:106DC000F7D1ADEB060000F12009780701D44FF0B0
:106DD0000108C84502DDA8EB090000E0002080465C
:106DE000002706E008A85A46C05D0B9990476D1C25
:106DF0007F1C5745F6DB04E030205A460B9990473C
:106E00006D1CB8F10001A8F10108F5DC05E016F8E9
:106E1000010B5A460B9990476D1CB9F10001A9F17D
:106E20000109F4DC641C65E70928010007480168D2
:106E300041F00801016001680907FCD4016841F0D4
:106E40000401016001684907FCD47047082401402F
:106E5000491E01280ED002280BD10D48026822F4E9
:106E60004012026002684FF4401303EA01510A43E2
:106E70000260704706480C38026822F47002026013
:106E800002684FF4700303EA01510A43026070473D
:106E90003824014010B50021022000F0DBF84FF447
:106EA0006021012000F056F8002000F017F80121C1
:106EB0000846FFF7CDFF01221146002000F080F8C0
:106EC0000121084600F026F800F018F8012000F033
:106ED00089FDBDE81040FFF7A9BF00000649002862
:106EE00004D0086840F4006008607047086820F427
:106EF00000600860704700000824014004480168F1
:106F0000C90703D1016841F0010101607047000029
:106F1000082401400E4A00290CD0C10703D0116893
:106F200041F480111160800703D5106840F40040DF
:106F300010607047C10703D0116821F480111160FF
:106F40008007F6D5106820F40040106070470000FC
:106F5000082401400A4A012809D0022806D11068F5
:106F600020F4E0401060106808431060704710681B
:106F700020F4602010601068084310607047000023
:106F80000824014002490A6882430A6070470000F1
:106F9000002401400223002203214FF0904000F022
:106FA0006CBF10B540F2115001F036FB40F20960A1
:106FB00001F032FBBDE81040032001F0B7B900003A
:106FC00030B51F2306280AD2214D2C6800EB800023
:106FD00083409C4301FA00F323432B601CE00C2800
:106FE0000CD21B4D2D1F2C68801F00EB80008340AE
:106FF0009C4301FA00F323432B600DE010280BD2D1
:10700000134D083D2C680C3800EB800083409C43F6
:1070100001FA00F323432B6007240A290AD20C4DFE
:10702000243D2B6801EB41008440A34382401A4376
:107030002A6030BD1329FCD2054D283D2B680A3942
:1070400001EB41008440A34382401A432A6030BDD3
:1070500034240140144B1A1F002912D0C10503D556
:10706000116841F480711160410503D5116841F444
:1070700080611160800703D5186840F00200186035
:107080007047C10503D5116821F480711160410575
:1070900003D5116821F4806111608007F0D518686C
:1070A00020F0020018607047082401400A78B0F50B
:1070B0001F6F0CD940F6B863984202D90A32D2B297
:1070C00001E0921CD2B21E2A12D91E2210E040F614
:1070D000741398420CD25AB13E2807D20A2A02D918
:1070E0000A3AD2B204E0921ED2B201E0921ED2B2AB
:1070F0000A70704770470000F8B51E48C3781E4CF0
:1071000020784FF496510091411C04EB81014A69AB
:1071100004EB8001401E04EB800049694069FDF7E3
:107120002DFF1649C860164A40F69803B2F874203D
:107130009A4202D8A0F57A70C860124CC968A16062
:107140004FF41660B1FBF0F0E0600F4B421C53F8B7
:10715000225053F82030EE1A0C4D55F82000091A31
:107160004E4355F82210081AB6FBF0F01844606040
:10717000F8BD00007E040020E80400208006002006
:10718000080600203403002088B80008B8B90008B9
:107190002DE9F041634F644C644EF87900250028D6
:1071A0000DD06576656170680A21B0FBF1F131613F
:1071B0003860F9795E4C41F6FF7249B10EE0FEF796
:1071C00053F95C4970688842EDD9A0687060EAE7BD
:1071D0007369012B05D0B369032B02D001294AD072
:1071E0004FE055490969FF2943D9544941F6EE3327
:1071F0000144994225D27078012804D07570357009
:10720000FD71E56030E03078401CC0B2307003287A
:1072100005D302203070FD71E560757024E002280E
:1072200006D3F16A4FF4E870814201D9E0601BE0B7
:10723000F06A00EB401040006421B0FBF1F0E06028
:1072400012E03C494942084447F6820188420AD884
:10725000C0EB403042F66E01B0FBF1F0E06001207F
:107260007070357000E0E560E06890422ED3E26017
:107270002CE0E5602AE0F369032B05D0336A032B89
:1072800002D002291BD020E02D4942F2E3530144F1
:10729000994201D2E5600DE02A49884209D349426A
:1072A0000844C0EB403041F68441B0FBF1F0E060AF
:1072B00000E0E560E068904208D3E26006E0716AB1
:1072C000032906D0B16A032903D0E560F879D0B16B
:1072D0001BE01D4941F61F430144994201D2E5607C
:1072E0000CE01A49884208D3401AC0EB403041F6FE
:1072F000E841B0FBF1F0E06000E0E560E06890425A
:10730000E4D3E260E2E7E068F062387910B9E56062
:1073100003203871E068FEF763F8E0603884BDE868
:10732000F081000030040020A0060020340300207B
:1073300080060020DEC40700E80400201057F8FF94
:10734000D706F9FF0C1F07006FABF8FFB0700700FE
:107350002DE9F041002000210022244E06F16A04AC
:10736000757808E004EB80035B69934201D91A4603
:107370000146401CC0B28542F4D81C4F04EB4105C5
:107380004E3F6B887879B3F5FA7F00D910B10128A8
:1073900003D007E00120787104E0B3F5AF7F01D29C
:1073A0000020787111480229C07803D98B1E184437
:1073B000F07003E0C1F10203C01AF0702261217085
:1073C0000B484260017069880181F078401E2728CF
:1073D00002D3FFF7D5FA05E002F02EF868880549D8
:1073E000FFF764FE0020BDE8F08100007E0400206D
:1073F000740600201E03002070B50020002100222A
:10740000224CA4F19A056E780AE000EB400304EBED
:1074100083035B68934201D91A460146401CC0B2FF
:107420008642F2D801EB410004EB80031889B0F5E5
:10743000AF7F07D2FFF7A4FA14490020E83948715A
:10744000022070BD11489A380329407908D9CE1E10
:107450003044C0B268712A280CD92A20687109E02A
:10746000C1F10306801BC0B268712A2800D808B990
:10747000012068716C346260217018892081044990
:10748000FFF714FE01F0EAFF052070BD180500208B
:107490001C03002070B5002000210022244CA4F51C
:1074A00089756E780AE000EB400304EB83035B68A8
:1074B000934201D91A460146401CC0B28642F2D816
:1074C00001EB410004EB80031889B0F5AF7F06D2D1
:1074D000FFF756FA174900204871012070BD154882
:1074E0004E300329807908D9CE1E3044C0B2A8712D
:1074F0001B280CD91B20A87109E0C1F10306801BD1
:10750000C0B2A8711B2800D808B90120A8716C343A
:1075100062602170188920810749FFF7C7FD05497E
:10752000062030310870FFF7D9FA052070BD000041
:1075300090050020300400201D03002070B5194D77
:1075400040F2CD616868884201D2696070BD4DF239
:107550002B01884203D900F60200686070BD00204C
:10756000114C6A6854F820108A4215D9431C54F80B
:1075700023309A4210D8521A4FF4C8767243591ADF
:10758000B2FBF1F100EBC00202EB001001EB0010C6
:1075900000F2CD6068608620401C80B28628E0D36F
:1075A00070BD0000800600200CB5000870B5194DB4
:1075B00040F25D61A868884201D2A96070BD48F2BE
:1075C0002151884203D900F62C10A86070BD00201C
:1075D000114CAA6854F820108A4215D9431C54F85B
:1075E00023309A4210D8521A4FF4C8767243591A6F
:1075F000B2FBF1F100EBC00202EB001001EB001056
:1076000000F25D60A8605720401C80B25728E0D38C
:1076100070BD00008006002028B70008F0B5524B6E
:10762000524841F6EE345968514A0E18012500209F
:10763000A64211D25969491C596139B1D0715D61B5
:107640009861D861186258629862F0BD9861D861FB
:10765000186258629862F0BD464C47F682070E19D0
:107660000324BE4212D29969491C9961032907D3A8
:10767000D07158619C61D861186258629862F0BDFF
:107680005861D861186258629862F0BD3A4E42F271
:10769000E4570E44BE4212D2D969491CD96103296C
:1076A00007D3D57158619861DC611862586298629D
:1076B000F0BD58619861186258629862F0BD2F4E13
:1076C00043F284570E44BE4212D2196A491C196211
:1076D000032907D3D57158619861D8611C6258623B
:1076E0009862F0BD58619861D86158629862F0BDA7
:1076F000234D4E190225B6F5E15F12D2596A491C95
:107700005962032907D3D57158619861D86118620D
:107710005C629862F0BD58619861D86118629862A5
:10772000F0BDA1F5EE21B039B1F5615F12D2996AD1
:10773000491C9962032907D3D57158619861D861B2
:10774000186258629C62F0BD58619861D8611862F5
:107750005862F0BDFF21D17158619861D8611862FB
:1077600058629862F0BD0000340300201057F8FF03
:1077700030040020223BF8FFD806F9FFF4E0F8FFC0
:1077800070ABF8FF0E4B81681B78CAB29A4205D1E4
:107790000C4AC1F307211278914201D001207047B1
:1077A000094A017B1278914201D0012070470749B4
:1077B000007C0978884201D0012070470020704782
:1077C000240200202602002025020020270200209B
:1077D00010B586B00D4C02226946204601F0E2FD4C
:1077E000009B42F6BD0240F60511934202D1019B77
:1077F0008B4209D000920191204601F0A9FD02229E
:107800006946204601F0B5FD06B010BD0030000805
:1078100000B5012805D002280BD0042811D0002083
:1078200000BD812000F0D4FA08B1002000BD012085
:1078300000BD822000F0CCFA08B1002000BD01207C
:1078400000BD832000F0C4FA08B1002000BD012073
:1078500000BD0000002009494978002901D001201D
:10786000704706490C310A5C0AB101207047401C80
:10787000C0B20828F7D3002070470000640300203E
:1078800070B5002001230A4A002400EB800152F861
:10789000215002EB81014E68B54201D90B7201E023
:1078A00000D20C7200F10100C0B20828EDD370BD07
:1078B00084070020FA280CD90649CA68824208D2F7
:1078C000C860A1F15000028A8A6042784A7000794B
:1078D00088707047BC0400202DE9F047DFF8E48091
:1078E00000EB800108EB8103002793F808A0597A88
:1078F000DFF8D4C08A4556D001218CF800106146CB
:10790000324D4C7891F8049001F10C0600EB4002E6
:107910005119BAF1010F12D0AA5C1A7448782043A9
:107920008CF801008CF80370887840EA09008CF824
:10793000040000219CF80300345C44B32CE01F7465
:107940004A7894438CF80140897829EA01098CF837
:1079500004905A7C17E0B1184C78B454002181424D
:107960000BD001EB410915F809904C4505D101EB0D
:10797000810108EB81014A7403E0491CC9B208295E
:10798000EDD3521CD2B2072AE5D3F7710BE00728DA
:1079900002D8325458740821401C8CF80300491C4A
:1079A000C9B20829C6D3187A58729CF80200401C44
:1079B000C0B28CF802000A2801D18CF80270BDE830
:1079C000F0870000840700206403002028BB000823
:1079D0000022002100E0491C8142FCD3521C022AF3
:1079E000F7D3704710B5064C2060012000F00CF86A
:1079F00020680028FCD1BDE81040024801F04ABBD5
:107A000038010020002000407FB504464FF4E160BB
:107A100000F002FE194D284601F0CCFA022C02D0EB
:107A2000012C03D005E00B20029002E042F6DF605B
:107A3000029013480078ADF800000020ADF8020075
:107A4000ADF80400ADF806008DF80C006946284634
:107A500001F038FB284601F0C1FB0121284601F066
:107A600081FB0121284601F023FB0121284601F07A
:107A7000BAFB284601F013FB7FBD00000020004048
:107A80001000002010B5064C20600220FFF7BCFF5C
:107A900020680028FCD1BDE81040024801F0FABA85
:107AA0003801002000200040034A536880008140D4
:107AB0000B435360704700000000024070B5002384
:107AC000002286000C46124DB14000EB800005EB11
:107AD0008000022C04D0042C08D0082C11D10BE01B
:107AE0002A680A40806800F002030AE02A680A4017
:107AF000806800F0040304E02A680A40806800F00F
:107B0000080312B10BB1012070BD002070BD000050
:107B100000000240F0B51B4E336883433360351DCF
:107B20002B6883432B602B1D1C6884431C601C1D29
:107B3000276887432760002902D0012907D103E085
:107B400031680143316002E029680143296052B184
:107B5000012A0FD0022A05D1196801431960216852
:107B600001432160F0BD1968014319602168814318
:107B70002160F0BD196881431960216801432160CB
:107B8000F0BD00000004014002490A6802430A6097
:107B90007047000000040140014908607047000080
:107BA0001404014006490A6802400549143909686D
:107BB0000140002A02D009B101207047002070471F
:107BC000140401400149C8607047000000200240D1
:107BD0000248016941F080010161704700200240C4
:107BE00070B505464FF47026304600F017F80028AF
:107BF00010D1094C206940F00200206165612069C4
:107C000040F040002061304600F008F8216921F082
:107C10000201216170BD00000020024000B5034652
:107C200000F00AF85B1E012801D1002BF8D10128D1
:107C300000D1042000BD000000200849CA68D20716
:107C400001D001207047CA68D20601D503207047D1
:107C5000C9684907FBD50220704700000020024098
:107C600004480169090603D503494160034941609D
:107C7000704700000020024023016745AB89EFCD2B
:107C8000F0B506460D464FF470273846FFF7C6FF9D
:107C900000280CD1064C206940F0010020613560BD
:107CA0003846FFF7BBFF216921F001012161F0BDDA
:107CB0000020024070B50446074DE1B2284601F0AD
:107CC0006FFC40F207763146284601F090FC002810
:107CD000F9D0204670BD0000003801403EB519487B
:107CE0004279194C94F86C00002828D0082800D953
:107CF0000720811C01EB410104EB81014FF4A063DB
:107D000049688DE80E00411C01EB410104EB810143
:107D10004B6800EB400104EB81014A68411E801E64
:107D200001EB410100EB400004EB810104EB80001A
:107D300049684068FDF7A3F8044948603EBD01204A
:107D4000D7E700007E0400201805002080060020F0
:107D50003EB519488279194C94F86C00002828D057
:107D6000082800D90720811C01EB410104EB8101A7
:107D70004FF4A06349688DE80E00411C01EB4101FE
:107D800004EB81014B6800EB400104EB81014A6880
:107D9000411E801E01EB410100EB400004EB81011C
:107DA00004EB800049684068FDF769F80449886081
:107DB0003EBD0120D7E700007E0400209005002092
:107DC0008006002001480079704700003002002042
:107DD0000749812805D0822805D0832805D0087856
:107DE00070474878704788787047C87870470000B7
:107DF000300200200148407B70470000180000203E
:107E00002DE9F043046A456A002301274FF00F0C67
:107E100007FA03F6164208D09E000CFA06F824EA88
:107E2000080401FA06F848EA04045B1C9BB2082B1C
:107E3000EED3082307FA03F818EA020F0AD0A3F1D9
:107E40000806B6000CFA06F825EA080501FA06F954
:107E500049EA05055B1C9BB2102BEBD3046245621B
:107E6000BDE8F08381627047816170470069084214
:107E700001D001207047002070472DE9F0470568C8
:107E8000C66800244FF001084FF0030908FA04F710
:107E90001F420ED0670009FA07FC25EA0C0501FA1B
:107EA00007FA4AEA050526EA0C0602FA07FC4CEA3C
:107EB0000606641CA4B2102CE8D30560C660BDE8B9
:107EC000F087F0B5012931D041689943416081685C
:107ED00001260327A2F57F44FF3C13D0002406FAB5
:107EE00004F51D4208D0650007FA05FC21EA0C01E3
:107EF00002FA05FC4CEA0101641CA4B2102CEED37A
:107F00008160F0BDC46B002206FA02F51D4206D066
:107F10004FEA420C07FA0CFC4CEA01012C43521CBC
:107F200092B2102AF0D38160C463F0BD4168194356
:107F30004160CCE710B50C48062101700024447064
:107F40008470C470047144718471C4718120FFF71E
:107F50003FFF002806D108220349812001F0E0FA02
:107F60000248047010BD0000D40300206403002008
:107F70000020074A002300EB800142F8213002EB89
:107F800081014B60401CC0B20828F4D37047000048
:107F90008407002070B50C4C0025A5706570257114
:107FA000A0210A48FBF735FDE56025610020074A5E
:107FB000012100EB800302EB83035972401CC0B225
:107FC0000828F6D370BD0000640300208407002059
:107FD0002DE9F041174C00276079012802D0A771E4
:107FE000BDE8F081A179144D144E4FF0904071B16D
:107FF0002A46334612681B68D21A01290FD002297B
:10800000EED140F628208242EAD3A771E8E70421A6
:10801000FFF728FF286830600120A071E0E7C82A38
:10802000DED30421FFF720FF0220A0712868306012
:10803000D6E7000024020020300300202C0300209B
:1080400032494FF0006000F0EDF862B601F052FCEA
:1080500001F02AFEFEF722FCFEF778FCFEF7CAFBD1
:108060002B48FEF7A9FD01212A4802F071FB01F01F
:10807000C7FDFCF757FEFCF71CF800F0A9FC00F068
:10808000CDFD00F0FBFD00F02DFD00F099FDFDF7AA
:10809000E1F8002000F0D0F901461FA0FEF7FCFD3A
:1080A000012000F0C9F901461FA0FEF7F5FD0220EE
:1080B00000F0C2F9014620A0FEF7EEFD032000F01B
:1080C000BBF9014620A0FEF7E7FD2348017823A075
:1080D000FEF7E2FD2548016825A0FEF7DDFDFEF76D
:1080E000EFFCFEF74DFCFEF7F3FC18B1FEF7E8FCE1
:1080F000FCF72CF8FCF7E0FAFDF7DCF9FCF758FD8B
:10810000FFF766FF01F032F8EDE7000000380008E5
:1081100000380140180000200D0A434B5F535953AB
:1081200020697320256400000D0A434B5F414842DB
:1081300020697320256400000D0A434B5F415042C3
:1081400031206973202564000D0A434B5F41504282
:108150003220697320256400240200200A414F5315
:108160005F666C6167203D25640A0000B002002054
:10817000636865636B5F737973203D2025640A0033
:10818000F0B506460F46002300242048006800F49E
:10819000E0654FF4A06085422FD006DCB5F5407F46
:1081A00031D0B5F5806F06D12AE0B5F5C06F21D08A
:1081B000B5F5E06F1CD000F02BF802230224C3F1C8
:1081C00004008740C4F104010F20C8401040384328
:1081D000000106F1E02181F8000406F01F010120F2
:1081E00088407109890001F1E021C1F80001F0BD6A
:1081F0000424E4E701230324E1E702230224DEE769
:1082000003230124DBE70423D9E700000CED00E0A1
:108210000249084302490860704700000000FA055F
:108220000CED00E0024A1140014302480160704732
:1082300080FFFF1F08ED00E010B50A4A02EB400185
:10824000497812F8104006290AD8491EC8B200F031
:1082500023FA082C04D22046BDE8104000F038BABA
:1082600010BD0000ECB3000810B50A4A02EB400153
:10827000497812F8104004290AD8491EC8B200F003
:10828000A5FA082C04D22046BDE8104000F0BABA86
:1082900010BD000042B4000830B51F4A136823F037
:1082A000030313601368034313601C4B186840F00A
:1082B000040018604FF0E0200469194A1460D0F8F7
:1082C00000415460D0F804419460D0F80841D46073
:1082D0000469144D2C400461134CC0F880416FF4C4
:1082E0008064C0F884414417C0F88841002911D047
:1082F00040BF20BF20BF8C30116840F87C1C516803
:10830000416791688167D168C167186820F00400EF
:10831000186030BD30BFEEE70070004010ED00E0A7
:10832000200400200400010019EFFFB73B494A6810
:1083300022F440424A600A6B394B1A400A630A2809
:108340000ED2DFE800F0050E171E29323F48555EB9
:10835000086B20F480300863086B20F48070086399
:108360007047086B40F480300863086B20F480701D
:108370000863704748684860086B40F48070086381
:10838000704748684860086B40F000400863086B1D
:1083900040F4807008637047486840F4804048604B
:1083A000086B40F4807008637047486840F4804070
:1083B0004860086B40F000400863086B40F4807030
:1083C00008637047486840F400404860086B40F418
:1083D000807008637047486840F400404860086B4C
:1083E00040F000400863086B40F4807008637047F9
:1083F000486840F440404860086B40F4807008636F
:108400007047486840F440404860086B40F00040C6
:108410000863086B40F480700863704700100240E6
:10842000FFFEFE7F034A116821F001010143116044
:1084300070470000C01002402DE9F04788B00646A2
:1084400000200021002569A292E89800D268CDE9B9
:1084500005470493079266A20CCACDE9022364A2E1
:108460000CCACDE90023654F7A68C2F38102DFF8B8
:1084700090C1002A27D0DFF88C81012A25D0022A5A
:1084800025D062467B68C3F3031304ACE35C22FA95
:1084900003F37C68C4F302240DF1080818F80440C3
:1084A00023FA04F87C68C4F3C2241DF8044023FABC
:1084B00004F44FF40049072E36D2DFE806F03438D2
:1084C0003A3C3E747C006246DCE74246DAE77A6872
:1084D000C2F383427B68C3F3C064FB6ADB0F0CB159
:1084E000113202E00F2A03D0921C012B02D002E0CD
:1084F0001022FAE71F327B68C3F30043FC6AC4F31F
:1085000080746BB1FB6A03F00F035B1C24B13E4C1B
:10851000B4FBF3F35A43B5E7B8FBF3F35A43B1E7BF
:108520003A4B5A43AEE7104608B0BDE8F08718460C
:10853000FAE74046F8E72046F6E7386BC00506D470
:10854000386BC00301D4324929E0324927E078680A
:10855000C0F38132386BC00F32B1012A0BD0022A2E
:1085600010D0032A1BD116E018B10320B3FBF0F1A1
:1085700015E0610813E018B10520B3FBF0F10EE03F
:10858000A1080CE018B10720B3FBF0F107E00620CA
:10859000B4FBF0F103E020B10920B3FBF0F1084691
:1085A000C2E7E108FBE7386B400602D448F212004C
:1085B000BAE74846B8E7386B80070ED0386B00F052
:1085C000030001280BD0386B00F00300022808D00C
:1085D000386BC043800706D006E0254604E0154608
:1085E00002E04D4600E0654628469DE70000000099
:1085F0000000000001020304060708090010024001
:1086000000127A00001BB700006CDC0200093D007C
:10861000809FD500003FAB01054901EB90110A682E
:1086200000F01F030120984002430A6070470000D9
:1086300000100240054901EB90110A6800F01F0389
:108640000120984082430A607047000000100240F9
:10865000054901EB90110A6800F01F0301209840C2
:1086600002430A60704700000010024009494A684E
:1086700022F440024A600A6B22F080420A634A6890
:1086800020F080431A434A600A6B00F080400243A6
:108690000A6370470010024070B5064600240B4D77
:1086A000B44207D105EBC400416855F83400FFF728
:1086B000D9FB06E005EBC400416855F83400FFF72C
:1086C000D3FB641CE4B2062CEAD370BDACB4000842
:1086D00010B53D4C082875D2DFE800F00412202EBA
:1086E0003C4A586601212046FFF7BCFB0221204688
:1086F000FFF7B8FB2046BDE810400421FFF7B2BBEE
:1087000001212046FFF7B0FB02212046FFF7AAFB1C
:108710002046BDE810400421FFF7A4BB01212046FC
:10872000FFF7A0FB02212046FFF79EFB2046BDE895
:1087300010400421FFF796BB01212046FFF794FB70
:1087400002212046FFF790FB2046BDE8104004219F
:10875000FFF788BB01212046FFF784FB022120465A
:10876000FFF780FB2046BDE810400421FFF77CBBEB
:1087700001212046FFF778FB02212046FFF772FB1C
:108780002046BDE810400421FFF76EBB01212046C2
:10879000FFF768FB02212046FFF766FB2046BDE895
:1087A00010400421FFF760BB01212046FFF75CFB6E
:1087B00002212046FFF758FB2046BDE81040042167
:1087C000FFF752BB10BD00000004004870B506461C
:1087D00000240B4DB44207D105EBC400416855F8A5
:1087E0003400FFF73FFB06E005EBC400416855F895
:1087F0003400FFF739FB641CE4B2042CEAD370BDEB
:10880000DCB4000810B53D4C082875D2DFE800F054
:108810000412202E3C4A586608212046FFF722FB0E
:1088200010212046FFF71EFB2046BDE81040202106
:10883000FFF718BB08212046FFF716FB1021204642
:10884000FFF710FB2046BDE810402021FFF70ABBD0
:1088500008212046FFF706FB10212046FFF704FB06
:108860002046BDE810402021FFF7FCBA0821204631
:10887000FFF7FAFA10212046FFF7F6FA2046BDE886
:1088800010402021FFF7EEBA08212046FFF7EAFA50
:1088900010212046FFF7E6FA2046BDE810402021CF
:1088A000FFF7E2BA08212046FFF7DEFA1021204642
:1088B000FFF7D8FA2046BDE810402021FFF7D4BAD0
:1088C00008212046FFF7CEFA10212046FFF7CCFA08
:1088D0002046BDE810402021FFF7C6BA08212046F7
:1088E000FFF7C2FA10212046FFF7BEFA2046BDE886
:1088F00010402021FFF7B8BA10BD00000004004866
:1089000010B586B0142101A8FBF783F8084C0522A6
:1089100001A9204600F046FD01210191204600F00A
:1089200017FD052201A9204600F023FD06B010BD69
:10893000003400080149087170470000300200202F
:10894000064A812905D0822905D0832900D1D0701B
:1089500070475070704790707047000030020020E0
:10896000002018490A6842F480320A60CB14401C87
:108970000A6802F400320AB99842F8D10868800304
:108980001FD548684860086B40F0010008634868DC
:108990000D4A10404860486840F4881048600868F4
:1089A00040F08070086008688001FCD5486820F0BD
:1089B00003004860486840F00200486048680007CB
:1089C000FCD5704700100240FFFFC277FFF7C8BF19
:1089D00030B589B040F20B60FFF71EFE40F2115037
:1089E000FFF71AFE4FF480744FF0904523460022A3
:1089F00002212846FFF741FA23464FF6FF72002175
:108A00002846FFF75EFA224602212846FFF7F8F9CA
:108A1000254D284600F0CEFA0024ADF80440ADF80C
:108A20000640ADF808408D200390ADF80A408DF85F
:108A3000104001A9284600F045FB01200590ADF843
:108A400018400221ADF81A10ADF81C10ADF81E4008
:108A5000ADF8204005AA0021284600F04BF9472236
:108A60000021284600F06CFA60220021284600F020
:108A70003DFA00221146284600F072FA284600F01E
:108A800034F90021284600F0AEFB0121284600F011
:108A90008BFB0121284600F065FB012200210D20FF
:108AA000FFF76EFB09B030BD002C014010B50B4C38
:108AB0000121204600F0FFFA002809D001212046BC
:108AC00000F0F6FA06490A681AB10868401E086004
:108AD00010BD2046BDE8104000F0DCBA0020004088
:108AE0003801002030B589B04FF4C260FFF794FD23
:108AF000314D284600F05EFA40F21150FFF78CFD30
:108B00004FF090440823002202212046FFF7B5F9D8
:108B100008234FF6FF7200212046FFF7D2F9082202
:108B200000212046FFF76CF94620ADF80400002430
:108B3000ADF80640ADF8084065200390ADF80A4056
:108B40008DF8104001A9284600F0BCFA01200590DC
:108B5000ADF818400221ADF81A10ADF81C10ADF8B0
:108B60001E40ADF8204005AA0121284600F0C2F8B9
:108B700012490878642801D95A2008700878FDF74E
:108B8000B3FF60220121284600F0B0F90022012144
:108B9000284600F0E5F90121284600F011FB28469F
:108BA00000F0A3F80121284600F0FEFA284600F064
:108BB00076FA09B030BD00000040014027020020D5
:108BC0001FB540F21160FFF727FD134C204600F05F
:108BD000F1F94721ADF800100021ADF80210ADF811
:108BE0000410B4220292ADF806108DF80C106946FC
:108BF000204600F067FA204600F072F80021204677
:108C000000F0DEFA0121204600F0ACFA0222012138
:108C10001520FFF7B5FA1FBD004401401FB54FF402
:108C2000E060FFF7F9FC4FF08044204600F0C2F905
:108C30000021ADF80010ADF80210ADF804104CF2B0
:108C400050320292ADF806108DF80C10694620469D
:108C500000F038FA204600F048F80121204600F0E4
:108C6000AFFA0121204600F07DFA022201210F20F7
:108C7000FFF786FA204600F012FA1FBD1FB540F23A
:108C80000170FFF7C9FC154C204600F093F947210D
:108C9000ADF800100021ADF80210ADF80410642208
:108CA0000292ADF806108DF80C106946204600F0CF
:108CB00009FA204600F014F80121204600F080FA5D
:108CC0000121204600F04EFA032201211020FFF777
:108CD00057FA204600F0E3F91FBD000000040040F1
:108CE000016821F0800101607047016841F0800156
:108CF0000160704730B5794B794C002927D00129A4
:108D000064D002297ED0032920D1016A21F4805148
:108D10000162C16921F44071C161016A146841EACC
:108D200004310162016A21F400510162016AD488B0
:108D300041EA04310162984208D1416821F480413E
:108D400041604168528941EA8211416030BD016A47
:108D500021F001010162816921F003018161016A51
:108D6000156829430162016A21F002010162016A6A
:108D7000D58829430162984207D0A04205D05949BD
:108D8000884202D058498842E0D1016A21F00401AA
:108D90000162016A938819430162016A21F00801A6
:108DA0000162016A138919430162416821F48071EB
:108DB00041604168538919434160416821F4007161
:108DC0004160416892891143416030BD016A21F0E0
:108DD00010010162816921F440718161016A1568A5
:108DE00041EA05110162016A21F020010162016A74
:108DF000D58841EA05110162984225D1016A21F026
:108E0000400100E02CE00162016A938841EA03110D
:108E10000162016A21F080010162016A138941EA5D
:108E200003110162416821F4806141604168538906
:108E300041EA83014160416821F400614160416879
:108E4000938941EA83014160A042BED1416821F487
:108E5000806141604168528941EA8201416030BDD0
:108E6000016A21F480710162C16921F00301C161CD
:108E7000016A146841EA04210162016A21F4007167
:108E80000162016AD48841EA042101629842E6D174
:108E9000016A21F480610162016A938841EA032139
:108EA0000162016A21F400610162016A138941EAE9
:108EB00003210162416821F4805141604168538976
:108EC00041EA03114160416821F400514160416869
:108ED000928941EA0211416030BD0000002C01403E
:108EE00000400140004401400048014000290ED0EC
:108EF000012914D002291BD0032907D1C16921F40B
:108F0000E041C161C16941EA0221C16170478169E3
:108F100021F070018161816911438161704781692C
:108F200021F4E0418161816941EA02218161704758
:108F3000C16921F07001C161C1691143C16170470C
:108F4000002907D0012907D0022907D0032900D121
:108F5000026470474263704782637047C263704720
:108F600000290ED0012914D002291BD0032907D1D2
:108F7000C16921F40061C161C16941EA0221C16195
:108F80007047816921F00801816181691143816124
:108F90007047816921F400618161816941EA0221A0
:108FA00081617047C16921F00801C161C169114344
:108FB000C161704710B5354A4FF4E053811A9042B1
:108FC00027D014DCB0F1804F2DD03149401834D077
:108FD000B0F5406F3BD0984257D14FF481642046A2
:108FE000FFF736FB2046BDE81040FFF723BBB1F585
:108FF000A05F36D0B1F5C05F3DD0994245D140F277
:1090000012342046FFF724FB2046BDE81040FFF74E
:1090100011BB40F20B342046FFF71AFB2046BDE897
:109020001040FFF707BB4FF480642046FFF710FBAA
:109030002046BDE81040FFF7FDBA40F2014420464B
:10904000FFF706FB2046BDE81040FFF7F3BA40F2F9
:1090500004442046FFF7FCFA2046BDE81040FFF725
:10906000E9BA4FF444742046FFF7F2FA2046BDE80F
:109070001040FFF7DFBA40F211342046FFF7E8FA5C
:109080002046BDE81040FFF7D5BA10BD002C0140C6
:1090900000FCFFBF016821F0010101607047016819
:1090A00041F001010160704742690A434261704723
:1090B000C943016170470069084201D0012070472F
:1090C00000207047F0B50A888262204A204D4FF098
:1090D0008047904203D0B84201D0A8420BD1036828
:1090E00023F07003036003684C8823430360036824
:1090F0008C88234303608B68C362164B164C174E53
:1091000090420CD0B8420AD0A84208D0144DA842D0
:1091100005D0984203D0A04201D0B04207D10568E3
:1091200025F4407505600568CF883D430560904291
:1091300005D0984203D0A04201D0B04201D1097BB2
:109140000163416941F001014161F0BD002C014022
:10915000000400400040014000440140004801403C
:1091600000200040C2680A43C26070470B4A0C49A5
:10917000002013680A2B03D310600A68521C0A608F
:109180000A684FF6FA739A4200D3086005494CF218
:1091900050330A689A4200D90860704724030020BF
:1091A0003003002028030020012904D0416C21F461
:1091B000004141647047416C41F400414164704793
:1091C000002906D0012903D1016821F008010160BE
:1091D0007047016841F0080101607047016821F0A3
:1091E000020101607047002906D0012903D10168FE
:1091F00021F0040101607047016841F00401016041
:109200007047000001490120C871704760040020C8
:1092100001490020C87170476004002070B5054600
:109220004FF080440021204661620121FFF740FF9A
:10923000606AA842FCD370BD10B52A2817D80C4923
:1092400001EB4002547811F81000072C0FD20828C7
:1092500001D2FFF73DFA0648C030641E00EBC4019E
:1092600050F834004968BDE81040FEF7FBBD10BD62
:10927000ECB3000810B51B2817D80C4901EB4002CD
:10928000547811F81000072C0FD2082801D2FFF7EC
:10929000B9FA06489A30641E00EBC40150F8340055
:1092A0004968BDE81040FEF7DDBD10BD42B40008BE
:1092B00070B5054608462A2D18D80D4C207300219C
:1092C0006173FDF72BFCA079FEF7CEFF2846FEF771
:1092D000B3FF4FF480510748FEF7C6FD0648FFF77D
