:020000040800F2
:10380000700E0020693900088F5300089B4700089C
:103810008D53000899430008017300080000000060
:10382000000000000000000000000000BD5A000879
:10383000E94300080000000031540008615C000802
:103840008339000883390008833900088339000868
:1038500083390008ED4300085944000897440008E4
:1038600083390008C94300088339000883390008F8
:1038700083390008055D0008833900088339000892
:10388000455E00088339000800000000595D00080B
:103890005D5D0008815D00088339000883390008F8
:1038A0008339000883390008833900085171000802
:1038B0008339000800000000833900080000000080
:1038C0008339000800000000833900080000000070
:1038D00000000000000000000000000000000000E8
:1038E0000000000000000000097200080000000055
:1038F00000000000000000000000000000000000C8
:1039000083390008000000000000000000000000F3
:1039100000000000000000000000000000000000A7
:103920000000000000000000000000000000000097
:103930000000000000000000000000000000000087
:10394000000000000000000000000000FD71000801
:10395000DFF810D000F070FB00480047FD8600083B
:10396000AFF30080700E00200648804706480047ED
:10397000FEE7FEE7FEE7FEE7FEE7FEE7FEE7FEE71F
:10398000FEE7FEE7655C00085139000830B50B46DC
:10399000014600202022012409E021FA02F59D427F
:1039A00005D303FA02F5491B04FA02F52844151E53
:1039B000A2F10102F1DC30BD70B5002425460028DB
:1039C00001DA01244042002901DA01254942FFF7CA
:1039D000DDFFAC4200D04042002C00D0494270BD17
:1039E00040EA01039B0703D009E008C9121F08C081
:1039F000042AFAD203E011F8013B00F8013B521E01
:103A0000F9D27047D2B201E000F8012B491EFBD277
:103A100070470022F6E710B513460A4604461946D9
:103A2000FFF7F0FF204610BDF0B480EA0102D40F8A
:103A30004200B2EB410F02D20246084611464A004C
:103A400042D0C30DDDB2C1F3C752AD1A202D35DA15
:103A5000C1F3160141F4000204B15242C5F120063F
:103A600002FA06F12A411044B3EBD05F23D0C4B16F
:103A7000012DA0EBC35009DCF0BC4FF0004202EA7C
:103A8000C352DBB200F5000000F04ABA400000F17A
:103A9000807000EBC350A0F1807040EAD170490003
:103AA00009E0490841EAC071A0EBC35000F50000ED
:103AB000400800EBC350F0BC00F029BA614201227B
:103AC00002EB4101001BF6E7F0BC704781F00041BA
:103AD000AAE780F00040A7E780EA010210B502F0F3
:103AE0000043400022D04A001FD0010E01EB1261BA
:103AF000C0F35600C2F3560240F4000042F4000244
:103B0000A0FB022000047F39140400D0401C50EABE
:103B1000124001D44000491EC2B20C0604EBD01082
:103B2000401C4008802A02D003E0002010BD20F095
:103B30000100002900DA0020184310BD30B480EAEB
:103B4000010202F0004530F0004221F0004013D0A5
:103B500090B1C30DD40DC2F31601C0F31600E41AE0
:103B600041F4000140F400027D34914201D3641C11
:103B700000E04900002C02DA30BC002070474FF40E
:103B800000000023914201D3891A034340084FEA01
:103B90004101F7D151B1914202D14FF0004105E00E
:103BA00002D24FF0010101E06FF0010103EBC450BC
:103BB000284430BC00F0ABB92DE9FE4F804681EAC5
:103BC0000300C00F0C46009021F0004123F0004597
:103BD000B8EB0200A94105D24046214690461C465A
:103BE0000B46024623F00040104347D0270DC7F391
:103BF0000A00C3F30A510290401A019040286BDA80
:103C0000C3F3130040F4801B0098924620B10023B8
:103C1000D2EB030A63EB0B0B01985946C0F140024B
:103C2000504600F043F906460D4650465946019A63
:103C300000F05BF910EB08006141002487EA1152A3
:103C400084EAE7731A4340D0009A62B3019A012ACA
:103C50004FEA075215DC001B61EB02014FF00042F6
:103C600002EA0752CDE90042001C41F580113246BC
:103C70002B4600F092F903B0BDE8F08F4046214694
:103C8000F9E7001B61EB0201001C41F580130018ED
:103C90005B412018A2F5001747EB030140EAD570FD
:103CA000B6196D4111E06D084FEA360645EAC07558
:103CB0004FEA0752001B61EB0201001C41F5801125
:103CC00049084FEA30000019514132462B4603B0F3
:103CD000BDE8F04F00F052B90098012240000023E7
:103CE000D0EB020263EBE073009821464FEAE074E8
:103CF000B8EB000061EB0401E9E783F000435BE708
:103D000081F0004158E72DE9FE4F81EA030404F0F9
:103D1000004421F0004100944FF0000B23F00043D9
:103D200050EA01045ED052EA03045BD0C3F30A54A4
:103D3000C1F30A552C44A4F2F3340194A0FB0254BD
:103D4000C1F3130141F48011C3F3130343F480134F
:103D500001FB024400FB034E840A970A44EA8154A3
:103D600047EA8357A4FB076802958D0A05FB078580
:103D70004FEA932C04FB0C542705029D4FEA06588A
:103D800047EA1637B5EB08056EEB070C870E920E67
:103D900047EA811742EA8312A7FB0201B6EB0B0147
:103DA00064EB00042B0D43EA0C335E1844EB1C500B
:103DB000DA465146E7FB0201C5F313044FEA0B3321
:103DC00043EA14534FEA0432019C43EA0603A4F188
:103DD0000C040294009CCDE900B400F0DEF803B0BE
:103DE000BDE8F08F00200146F9E7C10F80EAE070DE
:103DF0000844CA079623002100F092B896230022B7
:103E0000114600F08DB80EB540F233410291002109
:103E1000CDE900110A460B4600F0BFF803B000BD23
:103E200000F0004220F00040C10DC0F3160040F445
:103E300000007F2901DA00207047962903DCC1F1D8
:103E40009601C84001E096398840002AF4D04042EB
:103E5000704720F00040C10DC0F3160040F4000090
:103E60007F2901DA00207047962903DCC1F1960111
:103E7000C8407047963988407047C1F30A5210B560
:103E8000C1F3130140F2FF3341F480119A4201DA89
:103E9000002010BD40F233439A42A2F2334203DCC9
:103EA000524200F012F810BD904010BD202A04DBF1
:103EB000203A00FA02F1002070479140C2F120033D
:103EC00020FA03F3194390407047202A04DB203A7C
:103ED00021FA02F00021704721FA02F3D040C2F12A
:103EE00020029140084319467047202A06DBCB1771
:103EF000203A41FA02F043EAE07306E041FA02F3A5
:103F0000D040C2F120029140084319467047002971
:103F1000A8BF7047401C490008BF20F0010070474F
:103F200010B4B0FA80FC00FA0CF050EA010404BFAF
:103F300010BC704749B1CCF1200421FA04F411FA05
:103F40000CF118BF012121430843A3EB0C01CB1D49
:103F50004FEA00614FEA102042BF002010BC7047BA
:103F600000EBC35010440029A4BF10BC7047401C94
:103F7000490008BF20F0010010BC704710B5141EA6
:103F800073F1000408DA401C41F1000192185B4112
:103F90001A4301D120F0010010BD2DE9F04D9246E9
:103FA0009B4611B1B1FA81F202E0B0FA80F2203200
:103FB0009046FFF77BFF04460F4640EA0A0041EABD
:103FC0000B0153465A46084313D0114653EA0100E9
:103FD00019D0C8F140025046FFF777FF05460E465C
:103FE000504659464246FFF761FF084305D001207D
:103FF00004E020463946BDE8F08D0020054346EA3E
:10400000E0762C4337430A986305E40AA0EB0800E6
:104010000022FD0A44EA47540A3002D50020014636
:10402000E9E7010510196941DDE908450019694111
:10403000BDE8F04DA2E70000064C074D06E0E06841
:1040400040F0010394E8070098471034AC42F6D3DF
:10405000FFF782FCBCC50008DCC5000870B58C18F1
:1040600010F8015B15F0070301D110F8013B2A118C
:1040700006D110F8012B03E010F8016B01F8016B79
:104080005B1EF9D12B0705D40023521E0DD401F875
:10409000013BFAE710F8013BCB1A921C03E013F83E
:1040A000015B01F8015B521EF9D5A142D8D3002073
:1040B00070BD10B503F00AFA03F000FABDE8104035
:1040C00003F084B910B503F02FF9BDE8104003F0F8
:1040D00019B900001B4810B501781B4C00EB4100DA
:1040E000408820B1A4F51670407901281ED0002028
:1040F000C4F80C0003F01CFD03F0BCFA04F046F910
:1041000004F06AF9241D94E8070003F0D9FD03F0D8
:104110009FFC03F0D5FC01F039FD01F039F90B48A3
:104120000078042805D001F001F904E003F06AFAF0
:10413000E0E701F0EDF801F0A5FEBDE8104000F069
:104140003FB8000024070020BC0800202503002001
:104150000A4810B500218171007807280CD1084960
:1041600003200870FFF7B6FF044902203439887134
:10417000BDE8104002F086BF10BD00009806002088
:10418000E80300200C48027803200C49072A11D2CA
:10419000DFE802F0100410070A0C0E00087001F0AE
:1041A00081BB087001F04CBB01F0C8BB07F0FEBC3E
:1041B00007F01EBD7047000098060020E8030020AD
:1041C000F0B539484621192201703C214170322155
:1041D00081702D21C17028210171232141711E217F
:1041E0008171C271027242728272C2720273427330
:1041F0002E498273C273CC6948F2A52700260B6A48
:1042000044F6F035A0F10C01BC4201D9AB420FD805
:1042100040F6154C644501D2AB4209D84FF4276EE5
:10422000BC4201D9734503D9644503D2734501D813
:1042300002230AE047F29167A4F61544BC4203D278
:10424000AB4201D8734502D801238B7000E08E7019
:10425000174B4E60DB6813B1142088601EE0154ECA
:10426000154B8C78B6F87460B3F874304FF4207541
:104270003344022C0CD0012C0AD0002C12D14FF464
:104280000C74B3FBF4F34B600F2B04D38A6004E08F
:10429000B3FBF5F3F7E7C05C8860087ABDE8F0404F
:1042A00000F00CB8F0BD0000D80300206406002028
:1042B000BC08002054070020CC0700202DE9F0475F
:1042C000334991F80080B8F1040F06D0C0EBC0303C
:1042D00047F6FE41B0FBF1F0C0B2DFF8B890D9F874
:1042E0001C10D9F82820D9F82050D9F82C408A463B
:1042F000891AA5EB040300D54942002B00DA5B4282
:104300001944814235DB234BD869996A421E00F07B
:10431000FF0CC0F3072708444608186ADB6A411EF1
:10432000C5B2C0F3072418444308B8F1040F484647
:104330000BD047F6FE78424503D880F808C0477294
:104340008662414510D9BDE8F08747F6FD484245F1
:1043500006D880F808C047724FEA1A420273866294
:1043600044F24D629142EED88572C472C9F82C3085
:10437000E9E789F80820110A89F80910110C89F871
:104380000C1089F80A40210A89F80B10DBE70000BD
:104390002503002064060020FEE7000010B5182168
:1043A0000348FFF736FB034800214170817010BDC0
:1043B0003C060020440300200248002101600171F6
:1043C000704700003803002010B50221002003F0E0
:1043D000D7FE002807D00121002003F0C7FEBDE86A
:1043E000104002F071BE10BD7047000070B5012092
:1043F00003F032FF002827D0144D6869F8B101F0AE
:1044000031FC002004F056FC1148006804F06CFDFB
:1044100040F20C5004F03EFD284606F017F90D4C12
:10442000206840F001002060052003F03FFE206876
:1044300020F001002060E87B687300206861BDE81F
:104440007040012003F002BF70BD00003400002066
:10445000180000200408005010B5042003F0FCFEF2
:1044600040B1042003F0F2FE072004F0C2F9062058
:1044700004F0BFF9082003F0EFFE00280AD008205E
:1044800003F0E4FE072004F0B4F9BDE81040062074
:1044900004F0AFB910BD10B5102003F0DDFE40B13F
:1044A000102003F0D3FE072004F0A3F9062004F047
:1044B000A0F9202003F0D0FE40B1202003F0C6FE7A
:1044C000072004F096F9062004F093F94FF4806475
:1044D000204603F0C1FE40B1204603F0B7FE07209E
:1044E00004F087F9062004F084F94FF400642046B4
:1044F00003F0B2FE40B1204603F0A8FE072004F00E
:1045000078F9062004F075F94FF48054204603F042
:10451000A3FE40B1204603F099FE072004F069F99C
:10452000062004F066F94FF40044204603F094FEA0
:1045300000280AD0204603F089FE072004F059F92C
:10454000BDE81040062004F054B910BD70B5044613
:1045500000200146094A0A4B04E000BF32F811501E
:10456000491C28445D791E7AAD1B8D42F6D85979D5
:1045700002EB410131F8021C218070BD2C090020A2
:10458000980600202DE9F05F764D0027B8462F727F
:10459000DFF8D4914FF40041484603F093FF4FF405
:1045A0000E7005F0A3F92878704E714C05280DD0D7
:1045B0002878062835D0287804285AD028786D4CD9
:1045C000012863D02878032870D07BE0FFF77AFDBC
:1045D000607800B3062821D0A1790844C01EA070DD
:1045E000C0B2010601D4202801D984F802804720F6
:1045F00005F07CF9A07805F089F930788E2110FB60
:1046000001F005F073F9472005F070F9472005F037
:104610006DF9307847E0A079001FE0E7A079001D30
:10462000DDE7FFF74FFD6078E8B106281ED0E1799D
:104630000844C01EA070C0B2010601D4132801D9DD
:1046400084F80280472005F051F9A07805F07AF946
:1046500070788E2110FB01F005F048F9472005F035
:1046600045F947201CE0E079001FE3E7E079001DF1
:10467000E0E7FFF727FDE07905F064F9B0788E21D7
:1046800010FB01F005F032F9B0780CE0FFF71AFDED
:10469000607805F057F97078C0EBC00101EB80102D
:1046A00005F024F9707828720CE0FFE77078C0EB11
:1046B000C00101EB801005F019F9FFF703FD6078E8
:1046C00005F024F94FF400714E46484603F0FAFE17
:1046D000472005F00BF94FF4807B5946304603F034
:1046E000F1FEDFF89890DFF894A0234CDFF88C807F
:1046F000A9F108090AF1440A16E002207F1C02F021
:10470000D5FED8F8001041F48001C8F8001001204F
:1047100005F0ECF8484601688907FCD5DAF8000096
:1047200020F0070024F817006879297A401AB84267
:10473000E3DC34F81700697904EB410121F8020C3D
:1047400002F0C2FC5946304603F0BEFE4FF4007141
:10475000304603F0B9FEFFF7B5FCBDE8F05FFFF7A8
:1047600011BD00009806002000040048E903002065
:10477000B8060020A40600202C09002008240140CF
:10478000034610B50020024604E09C5C521C204405
:10479000C0B2D2B28A42F8DB10BDFEE72DE9F05F6D
:1047A00003F058FE032846D1FA4E707C03F0A0FBBC
:1047B000002840D0F84CF948002522794FF40051E8
:1047C000032A01D162796AB1E279FF2A33D0A37951
:1047D000022B30D36379012B2DD1A38C4FF001092B
:1047E000ABB117E0B57403F06FFE03F0C3FD50B139
:1047F000A07C48B3C02827D0E07C012824D104F055
:104800008BF8E57415E0BDE8F05F04F085B8A2B15F
:10481000042A12D003F056FE86F8125003F0B6FEBA
:1048200003F0A8FDA0B1A07C70B1C0280CD004F0AA
:1048300073F803202071BDE8F09FB07C0028EDD113
:1048400086F81290F574E9E7BDE8F05F07F02CB93F
:10485000D348C078002846D1707CDFF848A3DFF841
:104860004883012805D0A027022856D00428F2D179
:104870007CE1A08C60B1022004F05CFC207968B17E
:10488000E17909EB4100A074C0B2A0280BD00DE083
:10489000012004F04FFCE0794000F4E7E0794000AB
:1048A000A074A584F0E78AF80050A584092188F84F
:1048B000001088F80100707A4746012803D1BB48F0
:1048C0000068022810D0207AB870607AF870A07A58
:1048D0003871E07A7871A08CB871000AF871812083
:1048E00003F0A6FDA8B100E2207A617A00EB012076
:1048F0007061A17AE27A01EB0221B161F27A01F0F2
:10490000AFF8B08AB870000AF870308B3871000ABE
:10491000E0E70822A449812025E1A08C4FF00A0B92
:1049200058B1022004F006FC207970B1307AD0B181
:104930003572E07907EB400019E0012004F0FAFB42
:10494000E07907EB4000A07404E0E07907EB400059
:10495000A074A584307A401CC0B230720A2807D9EE
:1049600086F808B004E0E179A12000EB4100A074D2
:10497000A07CA92802D0A02803D004E0A420A07421
:1049800001E08AF80050072188F80010A17C88F81F
:1049900001107378C246B346F3B3207A617A00EB14
:1049A0000120CBF81400A17AE67A01EB0621CBF8BE
:1049B0001810A28C8AF80620120A8AF8072004220E
:1049C000022B03D05E46012B05D044E08BF80B2070
:1049D00001F046F83FE0B378012B04D0022B05D05C
:1049E000032B04D004E086F80B9001E00322F2725E
:1049F000F27A01F035F8B2784FF47A7143F67F60BD
:104A0000032A0AD0B27BDFF8A8C1012A11D0022AFA
:104A100046D0032A1FD14FE066E0327B41F69B036C
:104A200012FB03F2737BB2FBF3F2624BB3FBF2F2C5
:104A300009E0327B40F6D75312FB03F2737BB2FBE3
:104A4000F3F2BCFBF2F273695A43B2FBF1F171610C
:104A5000814200D37061BBF814108AF80210090A71
:104A60008AF80310BBF818108AF804105FEA1121C5
:104A70008AF80510A08C8AF80600000A8AF8070058
:104A80004D48564600788AF808004C4800788AF865
:104A90000900A07CA02833D09BF803207AB356E00D
:104AA000726941F2D5439A4201D27561C1E7A2F51C
:104AB000A052D53A7261BCE7726940F6D753A0EBB9
:104AC0000208327B12FB03F2737BB2FBF3F2BCFBF6
:104AD000F2F202FB08F2B2FBF1F17161814200D304
:104AE00070617169401AB5E7217A8AF80210617A1B
:104AF0008AF80310A17A8AF80410E17AB8E702E094
:104B00008BF8035023E0A12803D0A32801D0A528C7
:104B10001DD18BF80390A12819D107203070777030
:104B2000B571F571822003F083FC20B90A221E4979
:104B3000822005F0BDF8224F384604F007FE05201C
:104B400003F0B4FA384604F006FEA07C707070786A
:104B5000A02801D1B571F571822003F069FC88BBF2
:104B60000A221149822005F0A3F8BEE0A08C50B3C0
:104B7000022004F0DFFA207968B3E179A12000EB8C
:104B80004100A074C0B24FF0020BA02829D0F178E8
:104B900061B368E0140300206406002000080048A8
:104BA000C00400200D040020F00500207C0300203C
:104BB000781D6000D80F3600CC030020CD03002004
:104BC0000044014091E0FFE7012004F0B3FAE079EE
:104BD00007EB4000D5E7E07907EB4000A074A5841F
:104BE000D0E78AF80050A584F5703CE0A12803D0F6
:104BF000A32801D0A52836D186F80390A12832D168
:104C000088F800B088F80170217A88F80210617A7B
:104C100088F80310A17A88F80410E17A88F8051062
:104C2000A18C88F80610090A88F807104F494046F9
:104C3000097801724E4909784172857288F80B50E3
:104C4000832003F0F5FB20B90C224A49832005F0AC
:104C50002FF8494E304604F079FD052003F026FA7E
:104C6000304604F078FD88F800B0A17C88F8011087
:104C7000227A88F80220627A88F80320A27A88F8DB
:104C80000420E27A88F80520384A4046A0291678A0
:104C9000374A88F80860137843728572C57201D16B
:104CA0008571C5713549DFF8D8C00A683549012AD0
:104CB00030D0354F022A30D0032A33D0042A35D0E1
:104CC000052A35D0062A43D0072A43D0082A44D0E3
:104CD000092A44D0A18C8171090AC171067288F831
:104CE0000930832003F0A4FB88B3607A217A01EBBA
:104CF0000020A062E07AA17A01EB0020E062A08CA3
:104D0000208603202071A571BDE8F05F0A211F48AD
:104D1000FEF77FBEBCF8742001E0B7F87420827102
:104D2000120A0DE01A4AB2F87420F8E7194A12E0A4
:104D3000BCF87420B7F874301A4453088371520ACF
:104D4000C2718A790272C97988F80910C9E709E045
:104D5000114A00E0114A1288E1E7114900E01149C7
:104D60000988B8E70C2203498320FCE6CC03002025
:104D7000CD030020F005002000440140780300200E
:104D800054070020B8060020CC0700206C06002045
:104D9000440800201C040020D4030020A8040020A4
:104DA0008C0400208E04002010B503F053FB032870
:104DB00019D103F0E5FA042803D003F0E1FA05283D
:104DC00001D100F017F8084C207900280BD105F02C
:104DD00045F8012020711423BDE81040034A032147
:104DE000034805F049BF10BD38030020C804002067
:104DF0003400002070B5832003F01AFB00281BD17B
:104E00000E4C02202070B42060708020A07003F04F
:104E1000B7FA002504280BD0E570012004F084F9CE
:104E20002571BDE8704008220449832004F040BF8A
:104E30000120E0700220F1E770BD0000F0050020C5
:104E40002DE9F05F03F006FB03287CD1F74E3078A4
:104E5000012878D1DFF8D88398F8110003F048F8DA
:104E6000002870D04FF4005B5946F24803F02AFB4B
:104E70003078F14D4FF00109012817D1DFF8BCA3BC
:104E800000244F460AEBC4015AF83400496803F085
:104E90001DFB0028286807FA04F101D0884300E0D0
:104EA0000843641CE4B22860062CEBD3474698F80C
:104EB0001180E34BE34AE448E44900244FF0060C38
:104EC000B8F1010F06D0B8F1020F6ED0B8F1040F9F
:104ED0006CD1CBE1B1463678012EF9D181F800C012
:104EE0001B784B7092F800C081F802C092F80180E4
:104EF00081F8038097780F71D6784E7113798B7192
:104F00005279CA71BCF1080F2DD009DCBCF1010F38
:104F10001ED0BCF1020F1ED0BCF1040F06D11FE061
:104F2000BCF1100F22D0BCF1200F22D081F802403A
:104F3000B8F1080F3ED01FDCB8F1010F2DD0B8F149
:104F4000020F2DD000E0BFE1B8F1040F1AD12EE01E
:104F500090F800C001E090F803C081F802C0E7E7D4
:104F600090F806C0F9E790F809C0F6E790F80CC091
:104F7000F3E790F80FC0F0E7B8F1100F1DD0B8F1CB
:104F8000200F1DD0CC70082F33D01CDC012F29D06E
:104F9000022F29D0042F1AD129E090F800C001E097
:104FA00090F803C081F803C0EDE76CE0DFE090F813
:104FB00006C0F7E790F809C0F4E790F80CC0F1E7F5
:104FC00090F80FC0EEE7102F15D0202F15D00C71E0
:104FD000082E2AD013DC012E20D0022E20D0042E41
:104FE00011D120E0077800E0C7780F71F0E78779EA
:104FF000FBE7477AF9E7077BF7E7C77BF5E7102E72
:1050000015D0202E15D04C71082B2AD013DC012B83
:1050100020D0022B20D0042B11D120E0067800E014
:10502000C6784E71F0E78679FBE7467AF9E7067BAA
:10503000F7E7C67BF5E7102B15D0202B15D08C7128
:10504000082A70D013DC012A6ED0022A6DD0042AFF
:1050500011D1E6E0037800E0C3788B71F0E7837943
:10506000FBE7437AF9E7037BF7E7C37BF5E7102A11
:1050700070D0202A6FD0CC7100E0C871812003F07D
:10508000D7F9D8B317E1B1463678012E6FD181F840
:1050900000C01B784B7092F8008081F8028092F873
:1050A00001C081F803C097780F71D6784E711379DB
:1050B0008B715279CA71B8F1080F2BD009DCB8F1A5
:1050C000010F1CD0B8F1020F1CD0B8F1040F06D1AB
:1050D0001DE0B8F1100F20D0B8F1200F20D08C7057
:1050E000BCF1080F40D021DCBCF1010F2FD0BCF186
:1050F000020F31D0BCF1040F1ED132E0ACE090F8C9
:10510000008001E090F8038081F80280E8E790F8E1
:105110000680F9E790F80980F6E790F80C80F3E74D
:1051200090F80F80F0E77EE077E078E0BCF1100FB8
:105130001ED0BCF1200F1ED0CC70082F34D01DDC47
:10514000012F2AD0022F2AD0042F1BD12AE090F859
:1051500000C003E07CE07DE090F803C081F803C06C
:10516000EBE790F806C0F9E790F809C0F6E7A2E08F
:1051700090F80CC0F2E790F80FC0EFE7102F15D0B1
:10518000202F15D00C71082E2AD013DC012E20D030
:10519000022E20D0042E11D120E0077800E0C7783D
:1051A0000F71F0E78779FBE7477AF9E7077BF7E7C5
:1051B000C77BF5E7102E15D0202E15D04C71082B8B
:1051C00025D013DC012B1BD0022B1BD0042B11D1BB
:1051D0001BE0067800E0C6784E71F0E78679FBE7C1
:1051E000467AF9E7067BF7E7C67BF5E7102B10D088
:1051F000202B10D08C71082A15D03FF738AF22E74A
:10520000037800E0C3788B71F5E78379FBE7437A95
:10521000F9E7037BF7E7C37BF5E700782DE7C07874
:105220002BE7807929E7407A27E700003C0400203B
:10523000140300200008004874040020CCBF0008BC
:105240003D040020480400204E040020F00500200A
:10525000007B12E7C07B10E74FF008021B494FF0BC
:10526000810004F025FD89F8004024E03078012811
:1052700021D102200870F02048702A88D0B28870AE
:10528000C2F30722CA700C714C718C71CC710C7214
:105290004C728C72CC72104302D087F8079000E0F9
:1052A000FC71832003F0C4F828B90C22074983203D
:1052B00004F0FEFC34702868002805D15946BDE88A
:1052C000F05F034803F000B9BDE8F09FF00500204F
:1052D0000008004810B50B210B48FEF79AFB0A485E
:1052E00034213438FEF795FB08480021C0F801103E
:1052F000417102F0A1FD04F0CFFB034801210171CF
:1053000001702D21417110BD98060020E803002096
:10531000054847F6FE42C169511AC161016A44F26B
:105320004E62511A016270476406002070B516483B
:1053300047F6FD456B1CC1695A104C1EAC4205D89E
:1053400014466143B1FBF3F1C16103E011B199422D
:1053500000D9C261016A44F24D66741C4D1E63108F
:10536000B54205D81D466943B1FBF4F1016203E083
:1053700011B1A14200D90362C169511AC161016A28
:10538000591A016270BD000064060020FEE77047F4
:1053900070B5254B40F6C105012419680022234849
:1053A000A94203D940F62D05A94202D2C475C261B3
:1053B00000E0C27548F2BF55A94203D848F28D6596
:1053C000A94204D9047647F6FE45C56100E002769D
:1053D000A1F6C20547F6FD46B54201D8691CC16178
:1053E000596840F21B73994202D9B1F5D16F02D8C6
:1053F0004475026200E0427544F66953994203D84D
:1054000045F23C03994204D9847544F24E6202622B
:1054100000E08275A1F21C7244F24D639A4201D8F9
:10542000511C016270BD0000DC08002064060020F1
:105430007047FFB589B0099808900A9C0B9F0C9D96
:105440001298079013980690149EE01B411B079832
:10545000081800282AD00898001BC01B40190028F3
:1054600024D0A54211DBE21B531B079A9918621B3B
:1054700072431046FEF7A0FA0146069870430818DA
:105480000290FEF7B2FC059010E0089A121BD21BA6
:105490005119621B72431046FEF78EFA01460698B8
:1054A000704308180290FEF7A0FC05907800001BDE
:1054B000401B4000002810D07A00121B521B5100E4
:1054C000621B72431046FEF777FA01460698704356
:1054D000401A0290FEF789FC049005990498FEF7A3
:1054E000F5FA0190FEF79CFC0290002801DB02987F
:1054F00001E002984042B04207DD0498FEF790FCBC
:105500000290FEF772FC03900DE004990598FEF7F7
:105510008BFA0190FEF784FCC20F1118029048101C
:10552000FEF763FC03900398FEF793FC0DB0F0BD0B
:10553000F0B58BB004460D4616461F4600200A9073
:10554000781EC7B26800001B801B3FD0A900620014
:10555000A218891A881B002801DB014600E041429D
:1055600009916900091B881B002801DB014600E046
:10557000414208910898FEF741FC06900998FEF711
:105580003DFC05900699FEF7D9FA07901099480856
:10559000FEF734FC059010994808FEF72FFC0190A7
:1055A0000799FEF799FA0390109979430846FEF798
:1055B00025FC02900399FEF737FA04900599FEF74F
:1055C00085FA0690FEF745FC0A9001E000200A905B
:1055D0000A980BB0F0BD000070B590B005460E46BD
:1055E00014462022294608A8FEF7FAF91C22314663
:1055F00001A8FEF7F5F901990998884205D90199A2
:105600000998401A7D49086004E009990198401AF8
:105610007A49086002990A98884208D902990A983A
:10562000401A7649096840187449086007E00A99E9
:105630000298401A714909684018704908606F481B
:105640000068322803D200206D49087002E0012072
:105650006B4908700B9800285DD0608A674909681B
:10566000884203D2608E674908607BE0208A6349E4
:105670000968884203D2208E6249086072E0E0899E
:105680005E490968884203D2E08D5E49086069E09E
:1056900060885A490968884203D2608C5949086079
:1056A00060E0A08855490968884203D2A08C55491A
:1056B000086057E0E08851490968884203D2E08CCD
:1056C000504908604EE020894C490968884203D25D
:1056D000208D4C49086045E0608948490968884246
:1056E00003D2608D474908603CE0A08943490968BE
:1056F000884203D2A08D4349086033E020883F49A7
:105700000968884203D2208C3E4908602AE0E08B79
:105710003C49086026E0E08938490968884203D29C
:10572000A08B384908601DE06088344909688842C8
:1057300003D2208B3349086014E0A0882F49096800
:10574000884203D2608B2F4908600BE020882B49E8
:105750000968884203D2E08A2A49086002E0A08AE8
:105760002849086027480068012805D100200490D6
:1057700005906946087714E00DE001990498401AF5
:10578000049002990598401A05906846007F401ED3
:10579000C1B2684601776846007F1A4909688842A5
:1057A000EBD209990498401804900A99059840187A
:1057B00005906846007F401CC1B268460177007FB3
:1057C00000280CDD6A46117F0498FEF7DFF801908F
:1057D0006A46117F0598FEF7D9F8029006E009980D
:1057E00001900A9802900020694608771C2201A9BE
:1057F0003046FEF7F5F810B070BD0000A40400209C
:1058000082040020A804002070B50C4D4FF4005411
:105810002146284602F056FE002347F230504FF44E
:10582000FA710022521C8242FCD35B1C8B42F8D3DB
:1058300021462846BDE8704002F046BE00080048F8
:1058400010B51648FEF782FE02F0A4FB134910398A
:105850000878022821D14878A1F10C02401CC0B27E
:105860004870202817D901F15400CC89836864342A
:10587000A3420CD94078887198B208810421117034
:10588000074901F09BFEBDE8104001F0C5BBBDE833
:10589000104001F05DBB0120D07110BDB4060020A6
:1058A000E903002070B52348FEF750FE02F072FBBA
:1058B00020481038017800290FD141780125491C72
:1058C000C9B24170A0F10C06132905D3017906294C
:1058D00004D0491C01714570F57170BD154C4434FC
:1058E000A168642921D9A27802716278C2714181CC
:1058F000022101704570018AC181A4F19401002048
:105900000871032030703021A4F12C00FEF781F8DB
:1059100030212046FEF77DF82089074C80B2611CBB
:1059200001F04CFE6078A070D6E7BDE8704001F051
:105930000FBB0000B4060020E903002070B5124C34
:1059400004F16C05607805EB4000801CFEF7FEFD5D
:10595000617805EB8102491C5061C8B2607006286D
:1059600003D3BDE8704001F06BBF2079401CC0B28A
:105970002071272803D9BDE8704001F0E9BA024937
:1059800001202039C87170BDB806002070B590B0F4
:10599000044620221F496846FEF722F81D492022AE
:1059A000203108A8FEF71CF80021684650F8212095
:1059B000A24220D200EB81035B68A3421BD308AD57
:1059C00005EB810655F821107668751AA61A7543FD
:1059D00000EE105A9A1AB8EE401A00EE102AB8EEED
:1059E000400AC1EE000A00EE101A0721B8EE400A84
:1059F00030EE800A03E000EE104AB8EE400A491C7F
:105A000089B20729D2D3BDEEC00A10B010EE100A39
:105A100070BD00007CC500080F4810B505218268E4
:105A200004E04469A41A5B1E44614376437E8B42C2
:105A3000F7D20A4943694A6813444361417E491CCD
:105A400011F0FF01417603D0B3FBF1F1816010BD8D
:105A500000218260417610BDDC0800200C0400208B
:105A6000154BC3E90501DAB1042A19D8012A16D069
:105A7000022A15D0032A16D0042A10D141F69B021F
:105A8000514340F6D752B1FBF2F15961504341F610
:105A90009B01B0FBF1F042F22631081A9861704781
:105AA000C3E90510704743F67F62101A586142F24D
:105AB0002730401AF2E7000014030020704700006E
:105AC00070B52E4C2E48A17800680E2933D2DFE83D
:105AD00001F0070B393B3D3F41434547494B4D4F93
:105AE000A06002F0A1FD29E0A168884201D3401A1C
:105AF00003E04FF6FA72511A084402281CD8214ECE
:105B0000214D002406EBC400416856F8340002F031
:105B1000DDFC002804EB840005D055F82010491C5A
:105B200045F8201004E005EB80004168491C416005
:105B3000641C062CE6D370BD02F000FAA078401C6D
:105B4000A07070BD002014E0012012E0022010E0DF
:105B500003200EE004200CE005200AE0062008E007
:105B6000072006E0082004E0092002E00A2000E007
:105B70000B20BDE8704002F01FBA00003C0400207A
:105B800008040020CCBF0008F409002000B58FB045
:105B9000C820ADF800004FF49660ADF802004FF455
:105BA0004870ADF804004FF41670ADF806004FF4DD
:105BB000FA70ADF808004FF4C870ADF80A004FF461
:105BC0009670ADF80C004FF4FA50ADF80E0040108E
:105BD000ADF810004010ADF812000520ADF814002B
:105BE0000320ADF81800ADF81C00ADF81600ADF8B4
:105BF0001A00ADF81E00ADF82000ADF82400ADF895
:105C00002800ADF82C00ADF83000ADF82200ADF85A
:105C10002600ADF82A00ADF82E00ADF832000D4890
:105C2000008E68B90C4840F2DC51C068884207D346
:105C30000A490020ADF83400C8600861087602E027
:105C40000120ADF834006A4604490348FFF7C4FC5C
:105C50000FB000BD64060020BC080020DC08002056
:105C6000704700002048016841F4700101601F483E
:105C7000016841F00101016001688907FCD54168B4
:105C80001B4A1140416041681A4A11404160416815
:105C900021F440014160016B174A11400163016822
:105CA000164A11400160C16A154A1140C162016B78
:105CB00040F2031291430163016B21F480310163CF
:105CC000016B21F000410163416B21F0010141634F
:105CD000D0F8C01021F48031C0F8C01000218160DC
:105CE000C0F8CC1003F042BA88ED00E0001002408A
:105CF0000C00FF08FFFFC277BFFFFFBFFFFFF2FEF0
:105D0000F0FFFF3F70B5114C0121204603F02FFD3D
:105D1000002819D00121204603F026FD0C4D0D4826
:105D2000697B427A91420CD3407A814204D1206847
:105D300040F00800206004E0204603F007FDFEF775
:105D400021FC687B401C687370BD0000002C014082
:105D5000B80600209806002003F0ACBA10B5074C36
:105D60000121204603F003FD002805D02046BDE8B0
:105D70001040012103F0F8BC10BD000000400140BC
:105D80002DE9F047294C0121204603F0F0FC0028C2
:105D900049D00121A146204603F0E6FC03F076FE3F
:105DA000224C32252C34C0B303F09AFDC820206069
:105DB0001F4890F800C0204B00261E4A1F48204F65
:105DC000A3F15001BCF1070F27D2DFE80CF0260445
:105DD000260B12141D00107933F8100011F8101062
:105DE000507816E0107933F8100011F81010507840
:105DF00006E002790AE03E70C278807911F812104C
:105E0000BDE8F04703F0BABD3E70C278C07911F822
:105E10001210BDE8F04703F0D9BD25604846BDE843
:105E2000F04703F098BCBDE8F08700000044014053
:105E300098060020A4060020BEBF0008B806002077
:105E4000E803002010B50C4C0121204603F08FFC24
:105E500000280FD00121204603F086FC0748084A9D
:105E60008168491C8160C168491CC160914201D3AD
:105E70000021C16010BD000000040040F0030020BC
:105E8000A086010000B59BB040F6B8300A903C20D7
:105E90000B90D2204FF4C871CDE90C0140F24E2195
:105EA0000E914FF443710F9140F2CA3110914FF4AB
:105EB0009161119140F24651CDE912104FF4D0702A
:105EC000149040F26E2015904FF44F70169040F2EF
:105ED0000A4017904FF49B60189040F2AA50104966
:105EE00019900DF1180C0C4B0C4A481E8CE80F0051
:105EF00001201322CDE902200AA9CDE904010948B5
:105F00002022C179CDE900128379074A0749084860
:105F100000F010F81BB000BD8E0400208C0400209F
:105F2000CD030020B8060020C8080020CC070020C0
:105F3000540700200FB593B0FE48007800281CD10C
:105F4000FD480078002806D10120FC490870002097
:105F5000FB49087014E0F8480078012810D1F8488F
:105F600000780A2803DB0220F449087008E0F448AE
:105F70000078401CF249087002E00020EF490870E8
:105F8000F0480078F04908701698042806DC0120D3
:105F9000EE4908700020EE4908700AE01998001FC9
:105FA0001699884205DA0020E84908700120E8497E
:105FB00008701898042806DC0120E64908700020C3
:105FC000E54908700AE01A98001F1899884205DA16
:105FD0000020E04908700120DF4908701998001F6F
:105FE0001699884217DB1698042814DD1A98001FAA
:105FF000189988420FDB189804280CDD0120D1493C
:1060000008700020D1490870D1490870D149087042
:10601000D149087016E01A98001F1899884202DBCF
:106020001898042803DC0320C64908700AE0199870
:10603000001F1699884202DB1698042802DC022011
:10604000C0490870C048007801280CD1BD480078CC
:10605000022803D0BB480078032804D10120BF499F
:106060000870BF490870B8480078032808D1B548BF
:106070000078012804D1BB4908700020B749087096
:10608000B1480078022809D1AE480078012805D12E
:10609000B54908700020B149087000E000BFAF4862
:1060A0000078002871D1119010900F900E900D90F3
:1060B0000C900B900A90099008901B98002809D02A
:1060C0001398C06C11901398806A0F9013984068D1
:1060D0000D9008E01398406811901398806A0F9013
:1060E0001398C06C0D901C98002809D01498C06CAF
:1060F0000C901498806A0A9014984068089008E000
:10610000149840680C901498806A0A901498C06C97
:10611000089096480078964908700D991198884221
:1061200006D99248007840084000904908700AE07B
:106130000D991198884206D28C480078400840009A
:10614000401C8A49087008990C98884206D98748EB
:10615000007802218843854908700AE008990C9864
:10616000884206D28148007802218843801C7F49FA
:1061700008707E4800787E490978884206D07D48BC
:106180000078401C7B49087003E0F9E3002079495E
:106190000870784800781E2803DD002075490870D3
:1061A00003E0734800787149087070480078C007B0
:1061B000C00F002815D10D98002805D00D99119811
:1061C000FDF7E4FB6C4908800F9800281ED06B494E
:1061D0001198484307900F99FDF7D8FB684908804C
:1061E00014E01198002805D011990D98FDF7CEFB09
:1061F000614908800F98002808D060490D984843ED
:1062000007900F99FDF7C2FB5D4908805748007859
:106210008007C00F002815D10898002805D00899DC
:106220000C98FDF7B3FB574908800A9800281ED048
:1062300052490C98484307900A99FDF7A7FB524929
:10624000088014E00C98002805D00C990898FDF7F8
:106250009DFB4C4908800A98002808D047490898B7
:10626000484307900A99FDF791FB474908800E992A
:106270001098401A0790002801DB079801E0079862
:1062800040421D990968884203D22B4800780228B1
:1062900003D129480078022803D1394800883B49B6
:1062A000088009990B98401A0790002801DB07988D
:1062B00001E0079840421D990968884203D21E48B0
:1062C0000078022803D11C480078022803D12E4808
:1062D00000882F4908802D480088FDF794FD2D4A3D
:1062E0002D4B01910090FDF70EFD059104902B4878
:1062F0000088FDF788FD274A294B01910090FDF7A2
:1063000002FD03910290059B049AFDF755FC07914D
:106310000690FDF7B2FD1D4908801D480088FDF775
:1063200072FD1C4A1C4B01910090FDF7ECFC05919D
:10633000049037E082040020BD040020BE04002049
:10634000BF04002078040020790400207F0400208E
:106350007E04002080040020810400207C040020B2
:106360007D0400207B0400207A0400209D0400208E
:106370009E0400209C04002094040020B80B000020
:1063800088040020960400208A0400208C04002049
:106390008E0400209A9999999999C93F90040020F8
:1063A0009999E93FFE480088FDF72DFDFD4AFE4B17
:1063B00001910090FDF7A7FC03910290059B049AC0
:1063C000FDF7FAFB07910690FDF757FDF7490880A6
:1063D000F7480088F7490880F4480088F0490880A9
:1063E00015980068079000F03FFCF3480088F049DA
:1063F0000880F2480088ED490880ED48018820981F
:106400000180EA480188219801801D988068EA4946
:106410000968884203D90020E94908701CE11D98E9
:106420008068E5490968884227D81D98C068E24914
:106430000968884221D91D98C1688068081A0A2114
:106440000290FDF7A3FA0390FDF7D8FC05901D9884
:106450008068D9490968081A0390FDF7CFFC0490B9
:106460000599FDF76BFB00210690FDF7DDFA07901B
:10647000FDF7EFFCD2490870EEE01D98C068CE49E8
:106480000968884227D81D980069CB490968884265
:1064900021D91D980169C068081A0A210290FDF7E8
:1064A00075FA0390FDF7AAFC05901D98C068C249D3
:1064B0000968081A0390FDF7A1FC04900599FDF7FF
:1064C0003DFBC0490690FDF7AFFA0790FDF7C1FC10
:1064D000BB490870C0E01D980069B7490968884247
:1064E00027D81D984069B4490968884221D91D9868
:1064F00041690069081A0A210290FDF747FA0390E2
:10650000FDF77CFC05901D980069AB490968081AE5
:106510000390FDF773FC04900599FDF70FFBAA4962
:106520000690FDF781FA0790FDF793FCA4490870E7
:1065300092E01D984069A0490968884227D81D98B3
:1065400080699D490968884221D91D9881694069FF
:10655000081A0A210290FDF719FA0390FDF74EFC84
:1065600005901D98406994490968081A0390FDF741
:1065700045FC04900599FDF7E1FA94490690FDF772
:1065800053FA0790FDF765FC8D49087064E01D988B
:10659000806989490968884227D81D98C069864959
:1065A0000968884221D91D98C1698069081A0A21A1
:1065B0000290FDF7EBF90390FDF720FC05901D9884
:1065C00080697D490968081A0390FDF717FC04905B
:1065D0000599FDF7B3FA7E490690FDF725FA079075
:1065E000FDF737FC7649087036E01D98C06972499E
:1065F0000968884227D81D98006A6F49096888424F
:1066000021D91D98016AC069081A0A210290FDF774
:10661000BDF90390FDF7F2FB05901D98C06966492E
:106620000968081A0390FDF7E9FB04900599FDF746
:1066300085FA68490690FDF7F7F90790FDF709FC20
:106640005F49087008E01D98006A5B490968884244
:1066500002D83C205A4908701D98406A5749096879
:10666000884203D900205C4908703BE11D98406ACC
:1066700052490968884227D81D98806A4F4909689D
:10668000884221D91D98816A406A081A0A2102901D
:10669000FDF77CF90390FDF7B1FB05901D98406A6A
:1066A00046490968081A0390FDF7A8FB049005996C
:1066B000FDF744FA00210690FDF7B6F90790FDF7C3
:1066C000C8FB454908700DE11D98806A3B4909687F
:1066D000884227D81D98C06A38490968884221D95C
:1066E0001D98C16A806A081A0A210290FDF74EF9C6
:1066F0000390FDF783FB05901D98806A2F49096878
:10670000081A0390FDF77AFB04900599FDF716FA35
:106710002C490690FDF788F90790FDF79AFB2E4962
:106720000870DFE01D98C06A24490968884227D8AC
:106730001D98006B21490968884221D91D98016B79
:10674000C06A081A0A210290FDF720F90390FDF7AC
:1067500055FB05901D98C06A18490968081A0390EE
:10676000FDF74CFB04900599FDF7E8F916490690F2
:10677000FDF75AF90790FDF76CFB17490870B1E077
:106780001D98006B0D490968884246D81D98406BDA
:106790000A490968884240D91D98416B006B1DE089
:1067A000920400209A9999999999E93F8E040020C2
:1067B0008C04002090040020AC040020B0040020D1
:1067C00098040020000020410000A0410000F0419A
:1067D000000020420000484299040020081A0A21C3
:1067E0000290FDF7D3F80390FDF708FB05901D9884
:1067F000006BFE490968081A0390FDF7FFFA049040
:106800000599FDF79BF9FA490690FDF70DF90790F8
:10681000FDF71FFBF749087064E01D98406BF349D2
:106820000968884227D81D98806BF049096888421A
:1068300021D91D98816B406B081A0A210290FDF73F
:10684000A5F80390FDF7DAFA05901D98406BE7492B
:106850000968081A0390FDF7D1FA04900599FDF72D
:106860006DF9E5490690FDF7DFF80790FDF7F1FABD
:10687000E049087036E01D98806BDC490968884261
:1068800027D81D98C06BD9490968884221D91D981D
:10689000C16B806B081A0A210290FDF777F803900C
:1068A000FDF7ACFA05901D98806BD0490968081A6D
:1068B0000390FDF7A3FA04900599FDF73FF9CF493E
:1068C0000690FDF7B1F80790FDF7C3FAC9490870C3
:1068D00008E01D98C06BC5490968884202D83C2071
:1068E000C4490870C6480078002839D0C5480078E7
:1068F000002835D1C44800780A281DDDBD4800783D
:10690000C149097888420CDC0020C0490870BC49A4
:106910000870BD490870B748007841B21F980170EF
:1069200034E0B9480078401CB74908700846007840
:1069300041B21F98017029E0B4480078142825DC82
:10694000B1480078401CB04908700846007841B250
:106950001F980170AD480078401CAC49087015E0E4
:10696000AB480078002803D1AA480078002808D056
:10697000A9480078002804D100211F98017005E083
:106980001CE19C48007841B21F980170A348007830
:10699000002839D09B480078002835D1A0480078DD
:1069A0000A281DDD9F4800789D49097888420CDC43
:1069B00000209D49087099490870994908709948C4
:1069C000007841B21E98017033E095480078401C71
:1069D000934908700846007841B21E98017028E07B
:1069E00091480078142824DC8D480078401C8C499C
:1069F00008700846007841B21E9801708A480078F5
:106A0000401C8949087014E088480078002803D1A8
:106A100087480078002807D07F480078002803D1F5
:106A200000211E98017004E07E48007841B21E9853
:106A300001707E480078002803D17D480078002846
:106A40000CD074480078002803D1714800780028E1
:106A500004D000211E9801701F98017075480088AD
:106A6000022807DC74480088022803DC7348007899
:106A70007349087000211E9841561D984068814254
:106A800006D200211F9841561D984068814202D3CA
:106A900000211598016015980068002809D16949FE
:106AA00008705D490870564908705C49087055497E
:106AB00008705C48007800280BD061480078C00757
:106AC000C00F002805D11E980078404241B21E98A0
:106AD00001704848007800280BD05948007880079A
:106AE000C00F002805D11F980078404241B21F987E
:106AF000017053480078C007C00F53490978884295
:106B000029D04F480078C007C00F002811D04F4847
:106B10000078801C41B21E98017000211E984156D9
:106B2000002918DA464800784008400044490870B7
:106B300011E046480078801E41B21E980170002185
:106B40001E984156002906DD3D4800784008400067
:106B5000401C3B4908703A4800788007C00F3C4908
:106B60000978884229D0364800788007C00F00286D
:106B700011D038480078801C41B21F980170002164
:106B80001F984156002918DA2D48007802218843C1
:106B90002B49087011E02F480078801E41B21F98E1
:106BA000017000211F984156002906DD2448007815
:106BB00002218843801C2249087000BF26480078C3
:106BC000264908701E980078204908701F980078A0
:106BD000204908701A480078C007C00F1A49087089
:106BE000174800788007C00F194939E0B004002029
:106BF0000000F041990400200000204200004842BB
:106C00007B0400207D0400208704002085040020F0
:106C100081040020800400207C0400207A040020ED
:106C20008604002098040020840400207E040020B4
:106C30007F04002096040020940400209E0400207D
:106C40009D040020780400209F0400209A04002066
:106C5000A00400209B040020BE040020BD040020EE
:106C6000087017B000BD000070B506464A4800889D
:106C70004A490968884205D9474800884749096850
:106C8000441A04E04548006843490988441A4448C6
:106C9000008844490968884206D94148008841492A
:106CA0000968401A041905E03E4800683C49098813
:106CB000401A0419002E18D07D20C000844201D94A
:106CC000032510E019204001844201D904250AE07F
:106CD000FF200130844201D9052504E0642C01D94C
:106CE0000A2500E00A250A2500E00125012D07D12B
:106CF00000202D4908602D4908602D49087017E0D3
:106D000012E02948006825490968401A26490860A8
:106D10002648006823490968401A24490860244825
:106D20000078401E2249087021480078A842E8D225
:106D30001D4800681849098840181B4908601B480D
:106D400000681749098840181849086018480078F1
:106D5000401C1749087008460078002810DD0846D6
:106D6000017811480068FCF711FE0C4908601048D2
:106D700001780E480068FCF709FE0A4908600AE03D
:106D800005480088054908600548008805490860ED
:106D900000200749087070BD8C040020AC0400205E
:106DA0008E040020B0040020B4040020B8040020A9
:106DB000BC0400202DE9F04140F2125002F06AF8C4
:106DC000284D002405F1180605EBC40755F83400DA
:106DD000002201217B6801F07EFB55F834007968C0
:106DE00001F070FB06EBC40756F8340000220121C5
:106DF0007B6801F070FB56F83400796801F062FBA3
:106E0000641CE4B2032CDFD3164D002415F13005C9
:106E100005EBC40655F8340000220121736801F027
:106E20005AFB55F83400716801F04EFB641CE4B263
:106E3000042CEDD30B4D002415F1500505EBC406D1
:106E400055F8340000220121736801F044FB55F825
:106E50003400716801F038FB641CE4B2032CEDD3FC
:106E6000BDE8F08198C0000870B540F2115002F002
:106E700011F840F2125002F00DF840F2135002F0F7
:106E800009F840F2145002F005F840F2165002F0F2
:106E900001F8214D4FF48044234600220121284669
:106EA00001F019FB2146284601F00CFB6410234633
:106EB00000220121284601F00EFB2146284601F060
:106EC00001FBA400234600220121284601F003FB18
:106ED000124EE5112B4600220121304601F0FBFA4B
:106EE0002946304601F0EEFA2346002201213046C1
:106EF00001F0F1FA2146304601F0E6FAA4112346EA
:106F000000220121304601F0E6FA21463046BDE874
:106F1000704001F0D9BA00000008004800040048A1
:106F200070B50A4D002400BF05EBC4000122436880
:106F300055F83400002101F0CEFA641CE4B2062CAE
:106F4000F2D3BDE8704001F081BB0000CCBF000867
:106F50002DE9F041274802F0F9FB274802F0F6FB43
:106F600014212648FCF755FD244814211430FCF761
:106F700050FD22482C212830FCF74BFD1F482C21C6
:106F80005430FCF746FD1D4C0220A4F140031C4A7E
:106F900060700021997111701A4A03F13406117062
:106FA000194A1170FF22DA7101253570174A0A2734
:106FB000D770917011705170998403F5167303F1B5
:106FC00020025960116099605160D9609160D16070
:106FD0001161516111765176F57121790C4A32F8BF
:106FE00011100C4A12F8111002F0F0FCBDE8F0414B
:106FF00000F0CABF002C014000440140A40600205C
:1070000026030020CC030020CD030020E90300204C
:10701000BEBF00086EBF000810B530211648FCF74F
:10702000F8FC154830216C30FCF7F3FC1C211348A8
:10703000FCF7EFFC104810491438C279CA71837903
:107040008B71C389CB8100790D4B13F8100000239D
:10705000C870022802D9801E087100E00B71064832
:10706000042120380170A0F13401132A8B7101D85A
:107070000121C17110BD0000B8060020DC0800200D
:10708000BEBF0008084800224270C178022902D918
:10709000891E017100E0027103480421203801704B
:1070A0000121C17170470000B8060020AFF30080D5
:1070B00001490020887170479806002001488079B6
:1070C0007047000098060020014901208871704730
:1070D0009806002010B500225A2801D95A2202E051
:1070E0000A2800D302464FF080446320E062032167
:1070F000204602F0B4FA2046BDE81040012102F01B
:10710000CBBB0000104910B5086010490B7828224D
:10711000042B06D00B78012B03D00B78022B00D068
:107120000B784A72084C42082C3C0021204602F0A1
:1071300096FA0121204602F0AFFB2046BDE8104040
:10714000012102F00DBB00002C2C0140980600200C
:1071500070B5264C2449204602F034FE90B32046F8
:1071600002F0E6FD234C224D002621786854491C8C
:10717000C9B22170012912D0022915D0042912D3D5
:10718000E878401D88421ED12846491EFDF7F8FACE
:107190002178294411F8011C88420ED002E0287899
:1071A000552800D0267070BD68785628FBD0267010
:1071B0005528F8D10120207070BDA8780C4802F045
:1071C00089FBEFE702E01929ECD270BD0A4D204699
:1071D000294602F0F7FD0028F7D029462046BDE8F1
:1071E000704002F0DBBD00000500050700380140DB
:1071F000F8080020F003002005000307014804F010
:1072000087BA0000340000200C4810B5807978B1AE
:10721000FEF728FD002001F04DFD0948006801F04F
:1072200063FE40F20C5001F035FE044803F00EFA04
:10723000BDE810404FF4802001F008B83400002071
:10724000180000202DE9F041074640F2115001F0EE
:1072500021FE40F20E6001F01DFE4FF400744FF06D
:10726000904622460121304601F0FAF865002A4690
:107270000121304601F0F4F8234601220221304674
:1072800001F029F9234601220021304601F046F998
:107290002B4601220221304601F01DF92B46012226
:1072A0000021304601F03AF9384602F045FD002150
:1072B000384602F0C6FD0021384602F0AEFD00213E
:1072C000384602F096FD4FF4E131384602F002FDF7
:1072D0000421384602F099FD0821384602F0A9FD44
:1072E0000521384602F050FD002211461B2001F016
:1072F0008BFA3846BDE8F04102F036BD7047704762
:10730000FEE7000070B5074D002400BF05EBC40088
:10731000416855F8340001F0D7F8641CE4B2042C3D
:10732000F4D370BDC8C0000870B5074D002400BF7D
:1073300005EBC400416855F8340001F0C5F8641C41
:10734000E4B2032CF4D370BDE8C0000802E008C822
:10735000121F08C1002AFAD170477047002001E0CF
:1073600001C1121F002AFBD17047000007480168C5
:1073700041F00801016001680907FCD4016841F08F
:107380000401016001684907FCD4704708240140EA
:107390000905A1F5801101280CD0022809D10A485D
:1073A000026822F44012026001F4401102681143A5
:1073B0000160704704480C38026822F470020260D1
:1073C00001F47001F2E700003824014010B50021FB
:1073D000022000F0C5F84FF46021012000F052F8BF
:1073E000002000F017F801210846FFF7D1FF012225
:1073F0000921002000F078F80121084600F024F867
:1074000000F016F8012000F051FEBDE81040FFF733
:10741000ADBF000005490028086802D040F40060B4
:1074200001E020F40060086070470000082401407B
:1074300004480168C90703D1016841F001010160F6
:1074400070470000082401400D4A00294FEAC0712E
:107450000AD019B1116841F48011116080070ED56E
:10746000106840F4004009E019B1116821F480115E
:107470001160800703D5106820F400401060704749
:1074800008240140084A012809D0022806D11068C2
:1074900020F4E040106010680843106070471068E6
:1074A00020F46020F6E700000824014002490A6841
:1074B00082430A607047000000240140022300223A
:1074C0000321014801F007B80004004810B540F25C
:1074D000135001F0DFFC40F2096001F0DBFCBDE875
:1074E0001040032001F09EBB70B51F23062802D276
:1074F0001A4D2C6814E00C280CD2184E361F346834
:10750000801F00EB8005AB409C4301FA05F020434F
:1075100030600DE010280BD2104D083D2C680C385F
:1075200000EB8006B3409C4301FA06F0204328603C
:1075300007230A2903D2094C243C206805E01329BB
:107540000AD2064C283C20680A3901EB41018B40E5
:1075500098438A400243226070BD000034240140F9
:10756000154B1A1F00294FEAC05111D0002903DA28
:10757000116841F480711160410503D5116841F42F
:1075800080611160800715D5186840F0020010E096
:10759000002903DA116821F480711160410503D5D7
:1075A000116821F480611160800703D5186820F00C
:1075B0000200186070470000082401400A7840F675
:1075C0004C3398420BD940F6B863984201D9921CCB
:1075D00000E0521CD2B21E2A10D91E220EE040F644
:1075E000180398420AD24AB1B0F59B6F08D80A2A0C
:1075F00006D9921ED2B21E2A00D900220A70704704
:10760000521EF7E7F8B515484FF49652C378144860
:107610000178009200EB8100103007C8FDF788FF69
:107620001049114A114BC8604FF41661B0FBF1F1DB
:1076300003EB8104C2E90201646853F82130E61AC1
:107640000B4C54F82150401B464304EB810040682A
:10765000401BB6FBF0F018445060F8BDB80600209F
:1076600024070020BC0800200C0400201CC30008D4
:107670004CC400082DE9F041664F674D674CF8791E
:10768000002690B16E766E610A216068644DB0FB91
:10769000F1F121613860FB79032243F6FF716BB190
:1076A000012B68D0022B7DD08FE0FEF7B5F95D4944
:1076B00060688842E8D9A8686060E5E7D4F814C03B
:1076C000BCF1010F04D0D4F818C0BCF1030F7CD179
:1076D000554B1B69FF2B4CD9544B42F2283C0344B9
:1076E000634530D26078012803D066702670FE7141
:1076F0003FE02078401CC0B22070042804D32270E0
:10770000FE71EE60667078E0012810D00228E06A11
:1077100013D0C308A3EBD013834225D2C823B0FBF8
:10772000F3F0E86006281FD80620E86065E0E06A0C
:10773000A0EBD003A3EB101003E0A0EB9003A3EBAE
:10774000D000E86010E0374B5B42184447F618134E
:1077500098420ED8C0EB803043F2B063B0FBF3F038
:10776000E860012060702670E868884245D3E960CF
:1077700043E0EE6041E0D4F81CC0BCF1030F04D03C
:10778000D4F820C0BCF1030F1FD1294B42F20F7473
:107790000344A3420BD3274B984208D3C01AC0EB33
:1077A000803001E007E010E041F27C531FE0EE6022
:1077B00025E0E96023E0D4F824C0BCF1030F07D032
:1077C000D4F828C0BCF1030F02D0EE60ABB116E0D4
:1077D000194B42F2F5240344A342E8D3174B9842D5
:1077E000E5D35B421844C0EB803041F2A273B0FB9A
:1077F000F3F0E8608842DCD201E0E868E0623879C2
:1078000008B9EE603A71E868FEF7C0F8E860B8843D
:10781000BDE8F08164060020DC0800200C04002094
:10782000BC08002048C4070024070020E05EF8FFE1
:10783000D706F9FF38200700FFACF8FFF675070000
:107840002DE9F041244B002108460A4603F16C055E
:107850005E7808E005EB81046469944201D9224610
:107860000846491CC9B28E42F4D81B4905EB4004B6
:10787000543967884E79B7F5967F00D916B1012E35
:1078800002D005E0012602E0C82F01D200264E7189
:1078900011490228C97802D9861E314402E0C0F19C
:1078A0000206891BD9700D492A6128700A6701F800
:1078B0006C0F60880881D878401E272802D3FFF714
:1078C00047FB05E002F048F960880549FFF776FEBE
:1078D0000020BDE8F0810000B80600204408002028
:1078E000EB0300202DE9F0472D490020A1F19C0475
:1078F0000546064663780AE000EB400201EB82028F
:107900005268B24201D916460546401CC0B28342B5
:10791000F2D805EB4502224801EB8207F038884691
:107920003A8941794FF00109B2F5967F00D919B132
:10793000012904D0A9B108E080F8059005E0C82A23
:1079400003D200214171FFF703FB032D0ED9A1796A
:10795000E81E0844C0B2A071202812D92020A071CE
:107960000FE0FFF7F5FA0020BDE8F087A079C5F138
:107970000301401AC0B2A071202800D808B984F8C9
:107980000690C8F8706088F86C503889A8F87400C0
:107990000449FFF713FE02F0F1F80620E4E70000C7
:1079A00054070020E90300202DE9F0412549002279
:1079B000A1F58A701346154646780AE002EB4204A8
:1079C00001EB84046468AC4201D925461346521C7D
:1079D000D2B29642F2D803EB430201EB820632891F
:1079E000C82A07D2FFF7B4FA1749002048710120CE
:1079F000BDE8F081144A01245432032BD27908D90E
:107A0000DF1E3A44D2B2C271132A0BD91322C271BB
:107A100008E0C3F10307D21BD2B2C271132A00D807
:107A200002B9C4710D6701F86C3F308908810749BC
:107A3000FFF7C4FD0448072134300170847106202B
:107A4000D6E70000CC07002064060020EA030020EF
:107A500070B5194840F285424168914201D24260B6
:107A600070BD47F6D862914203D948F299714160DE
:107A700070BD124B002100BF53F82120446894428E
:107A800015D903EB81056D68AC4210D8A41A4FF4E8
:107A9000C8767443AA1AB4FBF2F201EBC10404EBFA
:107AA000011102EB011101F2854141605621491C8F
:107AB00089B25629E0D370BDBC08002000C100087F
:107AC00070B5194840F276528168914201D28260C5
:107AD00070BD44F64722914203D945F2621181609C
:107AE00070BD124B002100BF53F8212084689442DE
:107AF00015D903EB81056D68AC4210D8A41A4FF478
:107B0000C8767443AA1AB4FBF2F201EBC10404EB89
:107B1000011102EB011101F2765181602F21491C04
:107B200089B22F29E0D370BDBC0800205CC20008D8
:107B3000F0B54448444942F228364368434A5C1849
:107B400001250021B4420DD243695B1C436103D07F
:107B5000D171C0E9055100E08161C16101624162FA
:107B60008162F0BD3A4C47F618171E190324BE4235
:107B70000AD283695B1C8361032B03D3D171C0E9F3
:107B80000514EAE74161E8E7324E42F210771E44FD
:107B9000BE420CD2C3695B1CC361032B04D3D571F5
:107BA0004161C0E90614D9E741618161D6E7A3F5D7
:107BB000E426383E43F2C827BE420ED2036A5B1C5D
:107BC0000362032B05D3D57141618161C0E90714BC
:107BD000C5E741618161C161C1E71F4D42F2F627EE
:107BE0005E190225BE4210D2436A5B1C4362032B1E
:107BF00006D3D57141618161C161C0E90814AFE765
:107C000041618161C1610162AAE7144E334442F6C9
:107C10002A36B34212D2836A5B1C8362032B07D3DA
:107C2000D57141618161C1610162C0E90914F0BD92
:107C300041618161C16101624162F0BDFF23D37185
:107C4000416189E70C040020E05EF8FF6406002033
:107C5000B83BF8FFD806F9FF00ADF8FF0A8AF8FF35
:107C6000114B81681B78CAB29A4219D10F4AC1F3ED
:107C700007211278914213D10D4A017B127891426B
:107C80000ED10C4A017C1278914209D10A4A017D39
:107C90001278914204D10949007E0978884201D0C6
:107CA00001207047002070471D0300201F030020A3
:107CB0001E03002023030020240300204303002090
:107CC0002DE9F04344F6C0190125584B494501D927
:107CD00002B9DD70554CA1F59448A8F1390894F823
:107CE00001C0277803260024B8F5A47F0BD941F200
:107CF000301840456FD244F6D41841457ED944F639
:107D0000823841457AD23AB1B2F57A7F03D9BCF1D3
:107D1000000F00D0D7B386E0BCF1000F04D0022FD3
:107D200002D11E705A609D70A0F5E447203F40F6D6
:107D3000493C3F493F4A674503D25D700C700520BE
:107D40003AE0A0F5C44CACF1C60C0827BCF5466F70
:107D500003D8022058700C7047E0A0F5A44CACF199
:107D6000EA0C40F65748C44504D2042058700C7001
:107D70002F2021E0A0F58648A8F131084FF4476C88
:107D8000E04504D25F700C70302015E033E0A0F5C0
:107D90004C57C83F674504D2102058700D705620CC
:107DA0000AE0A0F51057283F40F67F4C674505D202
:107DB000202058700D705720107034E0A0F5A05CA2
:107DC000ACF1790C40F67A481D27C44504D2402016
:107DD00058700D7009E011E040F65D35A0F2D35007
:107DE000A84204D2802058700E7017701BE05C709F
:107DF0000C70147017E01D705A6013E0494500D2F2
:107E0000DC705A60BCF1000F01D0022F09D044F69B
:107E10003820814207D29C705C701C700020BDE845
:107E2000F0831E709D700120F9E70000C00400205F
:107E30003D04002048040020F0B591B04021684680
:107E4000FBF7E7FD274D00240F226946284601F085
:107E500011FE6E4606EB8400806A411C0CD022495C
:107E6000020E01EBC4014A80C0F307428A80C0F3CE
:107E70000722CA80C0B20881641CE4B2052CE9D391
:107E8000009A42F6BD0042F60411824205D1019AE1
:107E90008A4202D1029A521C22D1144C0022CDE90E
:107EA000000100BF04EBC2039878010606EB8200D4
:107EB000521C81609F88D2B241EA07418160DF880D
:107EC00041EA072181601B8919438160082AE9D3AF
:107ED000284601F0A3FD0F226946284601F0B0FDB7
:107EE00011B0F0BD00300008CA01002056BC0008E7
:107EF00000B5012804D0022804D0042808D005E0E9
:107F0000812000E0822000F093FA18B1002000BD2B
:107F10008320F8E7012000BD07490020497819B9FE
:107F200005490C310A5C0AB101207047401CC0B2FF
:107F30000628F7D3002070473C04002070B50020CD
:107F40000B4A0123044600BF00EB800152F8215088
:107F500002EB81014E68B54201D90B7201E000D2FB
:107F60000C7200F10100C0B20628EDD370BD000014
:107F7000F40900200348006A0A2801D9012070474B
:107F80000020704714030020014900204871704709
:107F90001000002064280CD90649CA68824208D221
:107FA000C860A1F15400028A8A6042784A70007960
:107FB00088707047F80600202DE9F043394900EB3E
:107FC000800201EB8203002693F808C05A7ADFF89A
:107FD000D880944557D089460122414688F8002030
:107FE00001F112054F780C79AA1F00EB40012944DA
:107FF000BCF1010F11D0887818744978394388F89A
:10800000011040EA040188F8036088F80410002495
:1080100098F80310555C55B32EE01E7491F801C01A
:1080200027EA0C0788F8017089788C4388F80440A7
:108030005C7C18E011194F781755002181420CD053
:1080400001EB410CAC449CF802C0674505D101EB43
:10805000810709EB87014C7403E0491CC9B206296A
:10806000ECD3641CE4B2052CE4D356710BE0052973
:1080700002D8505459740624491C641CE4B288F890
:108080000310062CC4D3187A587298F80200401CCA
:10809000C0B288F80200082801D188F80260BDE863
:1080A000F0830000F40900203C04002010B5064CC9
:1080B0002060012000F00CF820680028FCD1BDE809
:1080C0001040024801F042BB58010020002000404F
:1080D0007FB504464FF4E16000F0DCFE184D284601
:1080E00001F0F4FA022C02D0012C02D004E00B20A3
:1080F00001E042F6DF600290124869460078ADF870
:1081000000000020ADF80400ADF80200ADF8060054
:108110008DF80C00284601F02FFB284601F0C8FB23
:108120000121284601F078FB0121284601F01CFBC3
:108130000121284601F0C1FB284601F00CFB7FBD60
:10814000002000401300002010B5064C20600220E3
:10815000FFF7BEFF20680028FCD1BDE810400248B0
:1081600001F0F4BA5801002000200040034A53688F
:10817000800081400B4353607047000000000240C4
:10818000830010B5124A01FA03F300EB800002EB02
:108190008004022904D0042908D0082915D10BE055
:1081A0001068A168184001F002010AE01068A16897
:1081B000184001F0040104E01068A168184001F0C3
:1081C000080110B109B1012010BD002010BD000050
:1081D00000000240F0B5184D2B6883432B602E1D24
:1081E000336883433360331D1C6884431C601C1D4B
:1081F00027688743276011B1012907D103E0296867
:108200000143296002E031680143316052B1012A23
:108210000ED0022A05D11968014319602168014373
:108220002160F0BD19680143196021688143F7E7B7
:1082300019688143F1E700000004014002490A681F
:1082400002430A60704700000004014001490860D1
:10825000704700001404014006490968064A0142BB
:10826000126802EA000202D00AB101207047002021
:108270007047000014040140000401400149C86037
:1082800070470000002002400248016941F080016F
:10829000016170470020024070B505464FF470261A
:1082A000304600F017F8002810D1094C206940F042
:1082B000020020616561206940F040002061304685
:1082C00000F008F8216921F00201216170BD000071
:1082D0000020024000B5034600F008F85B1E0128AC
:1082E00002D1002BF8D1042000BD00000849002075
:1082F000CA68D20701D001207047CA68D20601D5EA
:1083000003207047C9684907FBD502207047000069
:108310000020024004480169090603D50349416071
:108320000349416070470000002002402301674577
:10833000AB89EFCDF0B506464FF470270D463846B1
:10834000FFF7C8FF00280CD1064C206940F001005F
:10835000206135603846FFF7BDFF216921F001013A
:108360002161F0BD002002400148007A7047000002
:10837000440300200148807870470000C0040020BA
:108380000148407870470000440300200EB50F48B4
:108390000F49827991F86C00B0B1082800D9072004
:1083A00000EB400001EB800040F2FA33C1698DE838
:1083B0000E0050F8081C0369426850F8140CFDF7D1
:1083C00038F8044948600EBD0120E9E7B8060020EE
:1083D00054070020BC0800200EB50F480F49C27991
:1083E00091F86C00B0B1082800D9072000EB4000DC
:1083F00001EB800040F2FA33C1698DE80E0050F8BD
:10840000081C0369426850F8140CFDF712F804497F
:1084100088600EBD0120E9E7B8060020CC070020E7
:10842000BC0800200148806870470000F00300206D
:108430000749812805D0822805D0832805D00878EF
:1084400070474878704788787047C8787047000050
:10845000380300200148407B7047000034000020B2
:10846000F0B5036A446A002501260F2706FA05FCC9
:108470001CEA020F09D04FEA850C07FA0CFE23EA2A
:108480000E0301FA0CFE4EEA03036D1CADB2082D7B
:10849000ECD3082506FA05FC1CEA020F0BD04FEAC4
:1084A000850CACF1200C07FA0CFE24EA0E0401FA4C
:1084B0000CFE4EEA04046D1CADB2102DEAD303622B
:1084C0004462F0BD81627047816170470069084075
:1084D00000D0012070472DE9F04789460168924697
:1084E000C268002401274FF0030C07FA04F51D426F
:1084F0000BD066000CFA06F5A943AA4309FA06F860
:108500000AFA06F548EA01012A43641CA4B2102CB9
:10851000EBD30160C260BDE8F0870000F0B501292F
:10852000416831D099434160816801270325A2F554
:108530007F44FF3C13D0002407FA04F61E4208D003
:10854000660005FA06FC21EA0C0102FA06FC4CEA78
:108550000101641CA4B2102CEED38160F0BDC66B87
:108560005FF0000407FA04F21A4206D04FEA440C06
:1085700005FA0CFC4CEA01011643641CA4B2102C51
:10858000F0D38160C663F0BD1943CCE7F0B5154A5E
:108590001549134814684D7A477D4A7C27262323C2
:1085A000002137B1042A01D08672C372012D05D093
:1085B00008E0877D37B18172C172F7E7022C01D1E3
:1085C0008672C372C37D2BB1042A08D07F21017249
:1085D0003E2103E0027E002A01D001724172F0BD0B
:1085E000640600207C0300201403002010B50C4812
:1085F00006210024017044708470C47004714471B9
:108600008471C4718120FFF713FF002806D108226E
:108610000349812001F04CFB0248047010BD0000AA
:10862000F00500203C0400200020074A014600BF5E
:1086300000EB8003401C42F8231002EB8303C0B21E
:1086400059600628F4D37047F409002010B50D488E
:10865000002478218470447004710B48FBF7D9F929
:10866000084809490C300460848000205FF0010252
:1086700000EB800301EB8303401CC0B25A72062852
:10868000F6D310BD3C040020F40900202DE9F04190
:10869000164C0023A07C012814D14103E27C14482D
:1086A000144D154E8AB12F464FF4FA7ED7F800C00C
:1086B0003746012A3F68ACEB07070DD0022A02D1EA
:1086C000774500D3E374BDE8F081FFF7FDFE28682D
:1086D00030600120E074F6E77745F4D3FFF7F2FE4F
:1086E0000220E07428683060EDE7000014030020E9
:1086F00000080048080400200404002028494FF026
:10870000006000F0CFF862B601F070FF02F01AF9D5
:10871000FEF7AAFBFEF704FCFEF74CFBFCF7DAFDC4
:10872000FBF73CFE1F48FEF78DFD01211E4802F0BD
:108730000DFE02F0B5F8FBF7BCFC00F04DFD00F0BB
:10874000D5FD00F033FE00F003FEFDF75DF80220DA
:1087500000F0D2FC022000F0CFFCFEF7A7FCFEF7F1
:10876000F7FB114D114C0126A5F1240720780128B3
:1087700002D002280DD00EE0687B032809D1FFF754
:10878000F9FB30B17E71022000F0B6FC00F0C2FBB4
:1087900001E000F00DF801F043F8FFF777FFE5E79F
:1087A0000038000800380140340000204C0300204D
:1087B00010B5FEF783FC18B1FEF778FCFBF7C8FC98
:1087C000FDF77EF9FFF7D0FD01280BD0FCF738FB51
:1087D000FCF7EAFAFFF7C8FD012806D0BDE8104013
:1087E000FBF7DCBFFEF78AFDF4E7BDE81040FEF7BB
:1087F00086BD00F01F02012191404009800000F178
:10880000E020C0F88011704770B505461F4800246D
:108810000E460068234600F4E0614FF4A0608142F8
:108820000FD006DCB1F5407F16D0B1F5806F06D1D0
:108830000FE0B1F5C06F09D0B1F5E06F04D000F0E2
:1088400027F80224234608E0042306E0012403233A
:1088500003E00324012300E00424C4F10400864063
:10886000C3F104010F20C8401040304305F1E0215E
:10887000000181F8000405F01F010120884069090A
:10888000890001F1E021C1F8000170BD0CED00E0AC
:108890000249084302490860704700000000FA05D9
:1088A0000CED00E0024A11400143024801607047AC
:1088B00080FFFF1F08ED00E00A4A10B502EB4001FF
:1088C00012F81040497804290AD8491EC8B200F0AD
:1088D0002FFB082C04D22046BDE8104000F040BB1E
:1088E00010BD00002CC000080A4A10B502EB400180
:1088F00012F81040497803290AD8491EC8B200F07E
:108900007BFB082C04D22046BDE8104000F08CBB55
:1089100010BD00006EC000082DE9F05F8648874F4B
:10892000DFF810E2D0F800807146B86A91F809903B
:10893000F96A9EF81150824600F0FF0CC0F307233D
:108940007F4C0026CAB2C1F307204FF0030B012D64
:1089500005D0C021022D30D0042D2DD1B8E009253D
:108960002570BE746670B9F1010F02D1B8F1020F23
:108970000BD084F802C0E37022716071A671E671B9
:108980008120FFF755FD70B112E075469EF80B206F
:108990005046FDF765F8A88AA070000AE070288BA1
:1089A0002071000AE9E708226549812001F080F979
:1089B0003E71607800286ED1A8E007252570B97453
:1089C00061707546B9F1010F02D1B8F1020F04D000
:1089D00084F802C0E370227147E0387A797A00EBBC
:1089E00001206861B97AFA7A01EB0221A9616A78FB
:1089F00012B1012A05D031E00422EA72FDF730F805
:108A00002CE0AA78012A02D0022A03D004E0012235
:108A1000EA7201E085F80BB0EA7AFDF721F8A97B4C
:108A2000484B4FF47A7843F67F60012904D002293D
:108A300025D0032912D12FE0297B40F6D75211FB14
:108A400002F16A7BB1FBF2F1B3FBF1F16A695143C8
:108A5000B1FBF8F16961814200D36861A88AA07016
:108A6000000AE070288B2071000A6071A671E6711F
:108A7000267266728220FFF7DBFC28B340E069694A
:108A800041F2D542914201D26E61D5E7A1F5A051E4
:108A9000D5396961D0E737E0696940F6D752A0EB74
:108AA000010C297B11FB02F16A7BB1FBF2F1B3FBF4
:108AB000F1F101FB0CF1B1FBF8F16961814200D3E6
:108AC00068616969401AC8E70A221D49822015E0D9
:108AD00002252570B974617084F802C0E3702271B8
:108AE0006071A671E67126726672A672E6728320C4
:108AF000FFF79EFC20B90C221149832001F0D8F821
:108B00003E716078C02801D087F804B0BE620E497B
:108B1000FE620E48BE84CE6086604E6006608E6047
:108B20004660C6600661466106764676084806706D
:108B3000BDE8F09F140300207C03002064060020A1
:108B4000F0050020781D6000BC080020DC08002033
:108B50000D04002030B51F4A136823F0030313608F
:108B60001368034313601C4A106840F0040010604F
:108B70004FF0E0200469194B1C60D0F800415C60A4
:108B8000D0F804419C60D0F80841DC600469144DC1
:108B90002C400461134CC0F880416FF48064C0F82D
:108BA00084414417C0F8884191B140BF20BF20BF25
:108BB000196801615968C0F800119968C0F804117A
:108BC000D968C0F80811106820F00400106030BDAA
:108BD00030BFEDE70070004010ED00E054060020CB
:108BE0000400010019EFFFB770B504468068E36820
:108BF000421CB2FBF3F503FB152263689A4201D1D4
:108C0000002070BD2368226900FB0230FAF7E8FEFD
:108C1000D4E90201401CB0FBF1F201FB1200A0609C
:108C2000012070BD21494A6822F440424A600A6B23
:108C30001F4B1A400A630A2827D2DFE800F0050913
:108C40001113151A272B2F33086B20F4803002E004
:108C5000086B40F480300863086B20F4807013E0E8
:108C6000486804E0486807E0486840F4804048608D
:108C700007E0486840F480404860086B40F00040DE
:108C80000863086B40F4807008637047486840F4DC
:108C90000040ECE7486840F40040EDE7486840F4E5
:108CA0004040E4E7486840F44040E5E700100240F7
:108CB000FFFEFE7F034A52F8C01F21F0010101436D
:108CC00011607047001002402DE9F04766A688B099
:108CD0006ACE8DE86A0065A38046D3E90013CDE92A
:108CE000041362A30020D3E90013CDE90613624BFD
:108CF000024604465968614EC1F3810121B1604DBD
:108D0000012903D0022903D031462CE029462AE06C
:108D100059685F68C1F38341C7F3C06CDF6AFF0F16
:108D2000BCF1000F01D0113102E00F2917D0891CCE
:108D300007B11F315F68C7F3004CDF6ABCF1000F59
:108D4000C7F380770DD0D3F82CC00CF00F0C0CF1CA
:108D5000010C07B14B4DB5FBFCF54D43D6E7102197
:108D6000E6E7494D69435D68C5F303151DF80570D5
:108D700021FA07F55F680DF1100CC7F302271CF804
:108D8000077025FA07F95F680DF1180CC7F3C227C1
:108D90004FF4004A1CF8077025FA07F7B8F1070FDF
:108DA00006D2DFE808F004080A0C0E3E460008462A
:108DB00008B0BDE8F0872846FAE74846F8E73846A5
:108DC000F6E7186BC00506D4186BC00301D42F4A10
:108DD00025E02F4A23E05868C0F38131186BC00F9B
:108DE00031B1012909D002290ED0032917D112E08F
:108DF00008B1032003E07A0811E018B10520B5FBA3
:108E0000F0F20CE0BA080AE008B10720F7E7062004
:108E1000B7FBF0F203E008B10920F0E7FA081046CA
:108E2000C6E7186B400602D448F21200C0E750466D
:108E3000BEE7186B80070ED0186B00F00300012806
:108E40000BD0186B00F00300022808D0186BC04349
:108E5000800706D006E03C4604E00C4602E054469B
:108E600000E034462046A3E70000000000000000B8
:108E700001020304060708090010024000127A00EC
:108E8000001BB700006CDC0200093D00809FD5008C
:108E9000003FAB01054901EB90110A6800F01F0388
:108EA0000120984002430A60704700000010024011
:108EB000054901EB90110A6800F01F03012098405A
:108EC00082430A607047000000100240054901EB30
:108ED00090110A6800F01F030120984002430A60C5
:108EE000704700000010024009494A6822F440021D
:108EF0004A600A6B22F080420A634A6820F080438D
:108F00001A434A600A6B00F0804002430A637047CC
:108F10000010024010B500F05FF900F019FAFDF7FB
:108F2000FFFFBDE81040FEF713B8002070470000B7
:108F300070B50A4D0646002405EBC400B4424168F2
:108F400055F8340002D1FFF7BDFA01E0FFF7BCFA93
:108F5000641CE4B2042CEFD370BD0000C8C000084C
:108F600070B54FF48051234C4D008E0008283FD23D
:108F7000DFE800F00408101421252D312046FFF70A
:108F8000A1FA02E02046FFF79FFA29462046FFF7A4
:108F900099FA0AE02046FFF795FA02E02046FFF72B
:108FA00093FA29462046FFF78FFA31462046BDE85E
:108FB0007040FFF787BA2046FFF784FA02E02046A8
:108FC000FFF782FA29462046FFF77CFA0AE020469E
:108FD000FFF778FA02E02046FFF776FA29462046A6
:108FE000FFF772FA31462046BDE87040FFF76CBAD1
:108FF00070BD00000004004870B50A4D064600240C
:1090000005EBC400B442416855F8340002D1FFF7C3
:1090100059FA01E0FFF758FA641CE4B2032CEFD3CD
:1090200070BD0000E8C0000810B54FF0904408285B
:1090300047D2DFE800F004091217252A333801214E
:109040002046FFF73FFA03E001212046FFF73CFAF4
:1090500002212046FFF736FA0CE001212046FFF7F7
:1090600031FA03E001212046FFF72EFA02212046C3
:10907000FFF72AFA2046BDE810400421FFF722BA84
:1090800001212046FFF71EFA03E001212046FFF7E9
:109090001BFA02212046FFF715FA0CE001212046B9
:1090A000FFF710FA03E001212046FFF70DFA022135
:1090B0002046FFF709FA2046BDE810400421FFF7DB
:1090C00003BA10BD10B58EB034216846FAF7A1FC82
:1090D000084C0D226946204600F0CCFC012000908F
:1090E000204600F09BFC0D226946204600F0A8FCBB
:1090F0000EB010BD0034000810B5044607484FF408
:109100000041012C07D0FFF7DFF905490020086076
:109110000448047210BDFFF7D5F9F9E700080048CC
:1091200054010020440300200149487070470000AA
:10913000440300200149887270470000980600200F
:10914000014908717047000038030020064A812950
:1091500005D0822905D0832900D1D0707047507086
:1091600070479070704700003803002018480021B5
:10917000026842F480320260C3140268491C12F48F
:10918000003F01D19942F8D1016889031FD5416898
:109190004160016B41F00101016341680D4A1140DA
:1091A0004160416841F488114160016841F080717B
:1091B000016001688901FCD5416821F0030141602B
:1091C000416841F00201416041680907FCD57047E0
:1091D00000100240FFFFC27730B589B040F20B604B
:1091E000FFF758FE40F21150FFF754FE4FF4807421
:1091F0004FF090452346002202212846FFF76BF9E5
:1092000023464FF6FF7200212846FFF787F92246D2
:1092100002212846FFF724F9254D284600F056FA8A
:1092200000248D20ADF81040ADF814400690ADF844
:109230001240ADF816408DF81C4004A9284600F0F5
:109240009BFA02210120ADF80440ADF8081000900F
:10925000ADF80610ADF80A40ADF80C406A460021A2
:10926000284600F0DFF847220021284600F0F7F9F1
:1092700060220021284600F0CBF900221146284642
:1092800000F0FCF9284600F0C8F80021284600F05C
:1092900014FB0121284600F0F5FA0121284600F0D0
:1092A000BBFA012211460D20FFF7AEFA09B030BD1E
:1092B000002C014010B50B4C0121204600F057FA5C
:1092C000002809D00121204600F04EFA064908681E
:1092D00018B10868401E086010BD2046BDE8104067
