:020000040000FA
:10600000D81200206161000093610000456100002A
:1060100097610000996100009B6100000000000092
:106020000000000000000000000000009D61000072
:106030009F61000000000000A1610000A36100005A
:10604000A5610000A5610000A5610000A561000038
:10605000A5610000A5610000A5610000A561000028
:10606000A5610000A5610000A5610000A561000018
:10607000A5610000A5610000A5610000A561000008
:10608000A5610000A5610000A5610000A5610000F8
:10609000A5610000A5610000A5610000A5610000E8
:1060A000A5610000A5610000A5610000A5610000D8
:1060B000A5610000A5610000A5610000A5610000C8
:1060C000CF680000CDD50000A56100008F6A0000F8
:1060D000A561000087D50000A5610000A561000052
:1060E000F9D50000A5610000A5640000A5610000CD
:1060F000A5610000A5610000A5610000A561000088
:10610000A5610000A5610000A5610000A561000077
:10611000A561000049BD0000A5610000A561000067
:10612000A5610000A5610000A5610000DFF810D0A6
:106130000BF010FB00480047879E0000AFF3008083
:10614000D812002004207146084202D0EFF30980E3
:1061500001E0EFF308807146004A104713E30000A6
:1061600011484FF0590101604FF0160101604FF0E6
:10617000880101600D4A45F6A52111600C4A11689D
:1061800021F480511160002101600A4880470A48CB
:106190000047FEE7FEE7FEE7FEE7FEE7FEE7FEE775
:1061A000FEE7FEE7FEE7000000010040240000409B
:1061B00000020040076200002D61000070B500F091
:1061C00057F8414908604148006800F00705022D72
:1061D00002D10846046802E03D4850F825403B489B
:1061E0001030006800F00F00461CB4FBF6F039498F
:1061F000086008460068384908444900B0FBF1F0DF
:106200003649086070BD00BF00BF00BF5920344947
:10621000086016208905C1F800018820C1F8000136
:10622000C006D0F800010028F0D000BF0846006882
:1062300040F64511B1EB103F05D18807406940F0A9
:1062400080008907486121481038006820F4805098
:106250004FF08041C1F8000200BF002020490860D3
:1062600000BF2048006840F470001E490860704775
:10627000F8B500261CA00068009014483030016872
:1062800001F4A02008B10020F8BD01F4002008B1FD
:10629000164A00E0164A01F4003008B11046F3E750
:1062A000C1F381371DF80740C1F30800831CC1F317
:1062B0004420851C9008584315FB04F7B0FBF7F009
:1062C00086003046E0E70000080000201002004091
:1062D0000C0000200000002020A107000400002086
:1062E0000001004088ED00E001020204008051013D
:1062F000001BB70010B5002807DA0A07140EFE4A83
:1063000000F00F031B1FD45403E00A07130EFB4ACF
:10631000135410BDFA49096841434FF0E02251611E
:10632000002191610521116100BF4FF0E021096951
:1063300001F480310029F8D000214FF0E0221161F2
:10634000704710B5042009F087FD102009F007FC04
:106350000021072009F014FC012009F07DFD012037
:1063600009F0FDFBE74809F0F7FC042009F0F7FB12
:10637000E54809F069FB20220021E34809F03DFBD4
:10638000E24809F061FB0121022009F0F9FB00223B
:106390001146DE4809F031FBDD4809F055FB0022CB
:1063A0004FF04071DA4809F028FBDA4809F0D1FAD9
:1063B000FFF704FFD84809F047FB4FF40022002103
:1063C000D54809F01AFBD54809F03EFB00221146DA
:1063D000D24809F012FBD24809F036FBD14809F047
:1063E00033FBD14809F030FB00224FF40071CC4858
:1063F00009F003FB00224FF40051CA4809F0FDFAEE
:1064000000221146C84809F0F8FA012009F01CFBE7
:10641000C648806940F07000C4498861022009F0D4
:1064200098FA02200AF022FE4FF08040406D20F0E2
:10643000FF004FF0804148650846406D40F0110074
:1064400048650846006C20F0704040F0C040086489
:106450004FF04020006C20F440604FF04021086471
:106460000804806B20F47000090488630846806B80
:1064700040F4801088634FF04020406C40F40010DE
:106480004FF04021486410BD10B5A94809F061FAE9
:106490000121A84809F0CAFD4FF4E131A54809F0EF
:1064A000E4FD10BD0120A4490860A4480068401C18
:1064B000A24908600120A2490860704710B504464F
:1064C0002046FFF727FF10BD10B59E4804F09BFB48
:1064D00002219D480AF0DFF800BF9B489430006815
:1064E00080B20028F9D1022197480AF0E5F802218C
:1064F00095480AF000FA0020944908609448007812
:1065000003287DDD93480078012879D18F494439EB
:106510000860091D0860091D0860091D0860091D43
:106520000860091D0860091D086088492C31086051
:10653000091D0860091D0860091D0860834918319C
:10654000086082497C310860091D0860091D0860E7
:106550007F48007811285ED17F48007830B97F48A5
:1065600090F8D900001F7E4908703FE07A48007813
:10657000012806D1794890F8D900801E7849087022
:1065800034E075480078022806D1744890F8D900A4
:10659000401E7349087029E06F480078032805D130
:1065A0006E4890F8D9006E4908701FE06A4800787C
:1065B000042806D1694890F8D900401C6849087041
:1065C00014E065480078052806D1644890F8D900A1
:1065D000801C6349087009E05F480078062805D1EF
:1065E0005E4890F8D900001D5D4908705C4800784D
:1065F00000F0800018B95A480078302804DD00E027
:1066000069E00020564908705649554A1278885C5E
:1066100004F0B2FB5FE04E48007814285BD14E488E
:10662000007830B9504890F8D900001F4F490870E1
:106630003FE049480078012806D14B4890F8D9003E
:10664000801E4A49087034E043480078022806D189
:10665000454890F8D900401E4449087029E03E485A
:106660000078032805D1404890F8D9003F490870C8
:106670001FE039480078042806D13B4890F8D9003B
:10668000401C3A49087014E033480078052806D1C8
:10669000354890F8D900801C3449087009E02E482C
:1066A0000078062805D1304890F8D900001D2F4900
:1066B00008702E48007800F0800018B92B48007848
:1066C0001F2802DD0020294908702949274A12782D
:1066D000885C04F083FB2748006858B125490968A5
:1066E0008800FFF7EBFE0520FFF7E8FE00201749C2
:1066F000091F41E048E0000018ED00E000E400E080
:1067000004000020004495089B3C0040110010A2AA
:10671000113D8057110000081CFE03400400005F7B
:106720000200805E0300C05E0500405F00C00040C4
:106730001100000400100740180200201C02002075
:10674000F83004400000054000900540C448004077
:10675000D8000020300300208001002030090020F4
:106760008201002064080020200A0020840100200B
:10677000950800205401002008600520FFF79EFEC8
:106780000020FE4908600CE00520FFF797FE00207E
:10679000FA49643108600520FFF790FE0020F749B0
:1067A00008600020F6490860F6490860F64800785D
:1067B0000F2806DBF5480068C0F11900F4490860AD
:1067C00010E0F1480078032809DDF248007830B97C
:1067D000EE480068C0F10F00ED49086002E01920A2
:1067E000EB490860EC4804F00EFA36E00120EB4972
:1067F0000860EA49F839486500BFE848006800F0D9
:1068000001000028F9D0E548F838006880B2E44972
:106810000860DC48006809680844DA490860D8481C
:106820000068401CD649086008460068072803D164
:10683000D4480068DB490860D1480068D449096839
:10684000884203D1D6480068D7490860CC48006820
:10685000CF490968884200D300E0C7E700BFCE48AF
:1068600004F0CCF9C8480078012802D10020CF49B3
:1068700008600120C14964310860C0490860BF490F
:1068800024310860091D0860091D0860091D0860A1
:10689000091D0860091D0860091D0860B749943189
:1068A0000860091D0860091D0860091D0860B349DA
:1068B00080310860B149E4310860091D0860091D94
:1068C0000860BB4908700020BA49086010BD10B5C7
:1068D00000BFB1482038806800F0010028B1AE4800
:1068E000203804F09AF9FFF7EFFD10BD70B50446AB
:1068F0000D460120A149683108600221AE4809F027
:10690000CAFE0221AC4809F0F6FF322322460121DB
:10691000A94809F009FE0221A74809F0E6FF022173
:10692000A54809F0B4FE9C48203804F06CF99A4858
:106930002038456004F071F99748203804F05EF97A
:106940009E4804F05BF970BD00219D4A11709D4A7C
:1069500011709D4A11609D4A11609D4A11609D4AC7
:1069600011609D4A11609D4A11609D4A11609D4AC7
:1069700011609D4A11609D4A11609D4A11609D4AB7
:1069800011609D4A11609D4A11609D4A1160FF216E
:106990009C4A11700021854A11607B4A11709A4A05
:1069A00011700121994A11700021994A1170994A78
:1069B0001170994A1170774A117000200CE0002183
:1069C00000EB4002954B03EBC202516000EB40022A
:1069D00003EBC2025170401C0A28F0DB002017E0D4
:1069E000002100EB40028E4B03EBC202517000EB22
:1069F000400203EBC202516000EB4002894B03EB03
:106A0000C202517000EB400203EBC2025160401C15
:106A10000A28E5DB0021844A5160844A1160824AD9
:106A20009160824A5160804AD160804A9160D16011
:106A300011615161117651767D4A116001214F4AF1
:106A400024321160121D1160121D1160121D11609F
:106A5000121D1160121D1160121D1160474A9432FF
:106A60001160121D1160121D1160121D1160434A48
:106A700080321160414AE4321160121D1160121D12
:106A800011606C4A117000216B4A1170704710B58B
:106A900000BF4A48806800F0010000286AD04748DB
:106AA00004F0BBF863480078012863D100206149F5
:106AB00008704FF496704149203948623248007896
:106AC0000A2858D003DC38B1022855D138E0102804
:106AD00053D01328F9D14DE10120574908702D20DA
:106AE00056490860564A494B1B78D15C554A464B7B
:106AF0001B78D05C04F0BAF800202E490860524898
:106B00004349097850F821005049086050484049ED
:106B10000978405C4949096848434E4908600020AB
:106B20001A4908604B48016848480068FFF7DEFED4
:106B3000012015490870484800684849086048E144
:106B40002D203E4908603E4A304B1B78D15C3D4ABF
:106B50002D4B1B78D05C04F089F8002015490860A3
:106B60003549087038482B49097850F821003749D1
:106B7000086075E02EE18DE02AE1CDE05C48004040
:106B8000F40000206C010020D800002054010020F7
:106B9000580100203003002020000540F830044058
:106BA00020020020740100207001002068010020F4
:106BB0005C01002064010020009005402010054089
:106BC0005F01002058030020480100204C010020F4
:106BD000500100202403002028030020E4020020AC
:106BE000E8020020DC020020E0020020C4020020B5
:106BF000C8020020CC020020D0020020D4020020D5
:106C0000D80200205B0300208201002084010020C4
:106C10007D0100207E01002033030020100B0020A6
:106C200030090020200A002050050020140900200F
:106C300054030020950100200C0100204401002095
:106C40009508002064080020A4220100980200207A
:106C5000C42201009C02002038010020780100209D
:106C6000FD48FE490978405CFD4909684843FD49F3
:106C700008600020FC490860FA480168FB48006889
:106C8000FFF734FE0320FA490870FA480068FA4911
:106C900008609EE0F94800782A2802DDFFF754FEDC
:106CA00039E02820EE490860F54890F8D900F54908
:106CB0000870F54890F8D900F4490870F44A0B467A
:106CC0001B78D15CF34AEF4B1B78D05C03F0CEFF0E
:106CD0000020F1490860F148E849097850F821009E
:106CE000E2490860EE48E5490978405CDC490968FA
:106CF0004843DC490860DC480078EA490870D94814
:106D00000168DA480068FFF7F1FD0B20D8490870E8
:106D10000120E54908705CE0D3480078E14908703B
:106D20002420CF4908601120D1490870D84AD74B98
:106D30001B78D15CD74AD34B1B78D05C03F096FF0D
:106D40000020D5490860D548C449097850F8210089
:106D5000C6490860D248C1490978405CC049096801
:106D60004843C049086008460168C0480068FFF70A
:106D7000BDFD2EE0BC480078CA4908702420B849FF
:106D800008601420BA490870C14AC04B1B78D15C16
:106D9000C04ABC4B1B78D05C03F068FF0020BE49A2
:106DA0000860BE48AD49097850F82100AF49086035
:106DB000BB48AA490978405CA94909684843A949E0
:106DC000086008460168A9480068FFF78FFD00E0E9
:106DD00000BF00BF10BDA74800684FF6FA71884297
:106DE00002D30020A3490860B04800684FF6FA714A
:106DF000884202D30020AD490860704710B54FF0BB
:106E00000060AB4908606C204860084603F000FF52
:106E100002212020FFF76EFA0A224FF00061A448F9
:106E2000203009F0C2FFA248203003F0F1FE4FF0FD
:106E30000060A04908624FF4967048629D48203077
:106E400003F0E6FE18209B4948604FF0026008609E
:106E500002212220FFF74EFA202003F0C4FE212059
:106E600003F0C1FE232003F0BEFE9148203003F062
:106E7000C5FE9048203003F0C1FE322300220121DC
:106E80008D4809F051FB01218B4809F02EFD0021AE
:106E90008A4809F033FA0621884809F06BFA0D2375
:106EA00000221146854809F038FA01208349F8315B
:106EB00008608248D0F8D00040F001007F49D0310E
:106EC000086010BD10B501207D490860012208212D
:106ED0007C4809F06FFA0120794970390860012275
:106EE00080217848803809F065FA00207449083913
:106EF000086001220221734809F05CFA0120704900
:106F000024310860012201036E4809F053FA012080
:106F10006B4928310860012241036A4809F04AFAA6
:106F2000012067492C31086001228103654809F07E
:106F300041FA01206249303108600122C1036148F1
:106F400009F038FA01205E497431086001221146C7
:106F50005C48803009F02EFA0120594978310860E8
:106F6000012202215748803009F024FA01205449B7
:106F70007C310860012204215248803009F01AFA5D
:106F800001204F4910310860012280214D4809F04D
:106F900011FA01204A494C3908600122114649483A
:106FA000403809F007FA01204549483908600122B4
:106FB00002214448403809F0FDF901204049443994
:106FC0000860012204213F48403809F0F3F901200C
:106FD0003B4940390860012208213A48403809F00D
:106FE000E9F9012036493C39086001221021354871
:106FF000403809F0DFF901203149383908600122B1
:1070000020213048403809F0D5F901202C49343985
:107010000860012240212B48403809F0CBF90120BB
:107020002749503908600122C1032648803809F0F9
:10703000C1F9012022490C3908600122114621487A
:1070400009F0B8F901201E49703908601C490C3953
:10705000086000201A4937E0C42201007E010020A8
:10706000440100209C0200205401002098020020CE
:10707000D800002038010020780100207D01002088
:107080003009002082010020200A00208401002015
:1070900095080020640800206401002044260100B7
:1070A000EC260100350100200C0100203C010020ED
:1070B00000000540001005400090054000300440ED
:1070C000CC480040C0400040C0390860012208217F
:1070D0004FF0402009F06EF90020FE4908600122BF
:1070E000C914FD4809F066F903F0F8FD03F01DFE30
:1070F0004CF2FC70F949086047F65240F8490860C4
:107100000020F8490860F8490860F849086007203D
:10711000F74908700220F7490870F7490870022201
:10712000F649002005F087F8F4480068F449086043
:10713000F2484068F3490860F1480068401C18B9FB
:107140000120F149086003E0ED480078EE4908604D
:10715000EC480068401C18B90220EC49086003E0C4
:10716000E8480078E94908600122E449302005F048
:1071700062F8E2480068E349086008460068401C7D
:1071800040B940F65E20E249086040F61420E1492B
:1071900008600CE0DB48008880B2DD490860D9480F
:1071A00000684FF6FF7101EA1040DA490860C82014
:1071B000D94908704870B4208870A020C8708C200D
:1071C000087178204871642088715020C8713C2073
:1071D0000872282048728872C872087348738873CE
:1071E000C873C820CD4908804FF4966048804FF49A
:1071F000487088804FF41670C8804FF4FA70088188
:107200004FF4C87048814FF4967088814FF4FA505B
:10721000C881401008824010488205208882C882B8
:10722000088348838883C883088448848884C88402
:10723000088548858885C885088648860120B8491C
:10724000087002204870142088704FF4966088807F
:107250004FF47A70C88008814FF4966048814FF4EB
:107260007A708881C88110BD9A49EC390968AD4AA5
:1072700011729849E8390968CAB2AA490A7795494A
:10728000E4390968CAB2A74981F830209149E03948
:107290000968CAB2A34981F844208E49DC390968DB
:1072A000CAB2A04981F858208A49CC390968CAB2C3
:1072B0009C4981F86C208749C0390968CAB299494C
:1072C00081F88020834908310968CAB2954981F85C
:1072D0009420097A934A527A914243D00121924AEA
:1072E00011709049097A01290FD100218D4A11743A
:1072F0008E494A788E49097891438D4A1170002150
:10730000884A527C8B4B99542CE088490978854AED
:10731000117486494978864A12781143844A11705B
:107320000021854A117000201AE08249824A1278B1
:10733000895C71B98049097807290ADC7949097C97
:107340007C4A7D4B1B78D1547B490978754A51742E
:10735000082079490978491C774A1170411CC8B244
:107360000828E2DB6F49097A6E4A517211460A7F9A
:10737000497F8A4248D001216B4A11706949097FCF
:10738000012911D10022674981F824206B494A78EC
:10739000674909789143664A11700022614991F862
:1073A0002510644B5A542FE064490A785D4981F8EE
:1073B0002420624949785E4A127811435C4A117070
:1073C00000215D4A117000201CE05A495A4A127887
:1073D000895C81B95849097807290CDC514991F831
:1073E00024205449544B1B78CA5453490A784D49B8
:1073F00081F82520082050490978491C4E4A11700F
:10740000411CC8B20828E0DB46490A7F4A7791F858
:10741000302091F831108A4249D00121424A11703E
:10742000404991F83010012911D100223D4981F8DD
:10743000382043494A783E49097891433C4A1170C3
:107440000022384991F839103A4B5A542FE03C4900
:107450000A78344981F8382039494978344A127811
:107460001143334A11700021334A117000201CE08F
:107470003049314A1278895C81B92F490978072946
:107480000CDC284991F838102A4A2B4B1B78D15430
:1074900029490A78234981F83920082026490978A2
:1074A000491C254A1170411CC8B20828E0DB1D495F
:1074B00091F8302081F8312091F8442091F845105E
:1074C0008A4251D00121184A1170164991F844108E
:1074D000012937E02C4900400041004018010020FC
:1074E0001C010020480100204C0100205001002018
:1074F00081010020B7010020310300207C0600201C
:1075000034020020380200202C020020300200202B
:10751000EC020020F002002008030020C808002030
:10752000B808002088040020B40100209601002043
:10753000B501002070060020B6010020990100204E
:107540009C01002011D10022FE4981F84C20FE4907
:107550004A78FE4909789143FC4A11700022F949A2
:1075600091F84D10FA4B5A542FE0F7490A78F54933
:1075700081F84C20F4494978F44A12781143F34ACF
:1075800011700021F34A117000201CE0F049F14A0B
:107590001278895C81B9EF49097807290CDCE9493F
:1075A00091F84C10EA4AEB4B1B78D154E9490A7820
:1075B000E44981F84D200820E6490978491CE54A4C
:1075C0001170411CC8B20828E0DBDE4991F8442064
:1075D00081F8452091F8582091F859108A4249D0F5
:1075E0000121DD4A1170D74991F85810012911D1B4
:1075F0000022D44981F86020D8494A78D3490978D3
:107600009143D24A11700022CE4991F86110D04BBB
:107610005A542FE0D1490A78CA4981F86020CF49ED
:107620004978CA4A12781143C84A11700021C94AE0
:10763000117000201CE0C649C64A1278895C81B9E5
:10764000C449097807290CDCBE4991F86010C04A8A
:10765000C04B1B78D154BF490A78BA4981F86120E0
:107660000820BC490978491CBA4A1170411CC8B2AB
:107670000828E0DBB34991F8582081F8592091F8A7
:107680006C2091F86D108A4249D00121B24A1170E4
:10769000AC4991F86C10012911D10022A94981F857
:1076A0007420AF494A78A94909789143A74A1170D3
:1076B0000022A44991F87510A54B5A542FE0A8490F
:1076C0000A78A04981F87420A54949789F4A127820
:1076D00011439E4A117000219E4A117000201CE047
:1076E0009B499C4A1278895C81B99A490978072993
:1076F0000CDC944991F87410954A964B1B78D15440
:1077000094490A788F4981F87520082091490978B1
:10771000491C904A1170411CC8B20828E0DB894915
:1077200091F86C2081F86D2091F8802091F88110FB
:107730008A4249D00121884A1170824991F880100B
:10774000012911D100227F4981F8882085494A7892
:107750007E49097891437D4A11700022794991F858
:1077600089107B4B5A542FE07E490A78754981F87D
:1077700088207C494978754A12781143734A117000
:107780000021744A117000201CE07149714A12787E
:10779000895C81B96F49097807290CDC694991F83E
:1077A00088206B496B4B1B78CA546A490A78654933
:1077B00081F88920082067490978491C654A1170B9
:1077C000411CC8B20828E0DB5E4991F8802081F8AE
:1077D000812091F8942091F895108A4249D0012196
:1077E0005D4A1170574991F89410012911D1002276
:1077F000544981F89C205C494A785449097891435E
:10780000524A117000224F4991F89D10504B5A5422
:107810002FE055490A784B4981F89C205249497814
:107820004A4A12781143494A11700021494A11709D
:1078300000201CE04649474A1278895C81B94549D5
:10784000097807290CDC3F4991F89C204049414BBD
:107850001B78CA543F490A783A4981F89D2008208C
:107860003C490978491C3B4A1170411CC8B20828A0
:10787000E0DB344991F8942081F8952091F8A82014
:1078800091F8A9108A4249D00121334A11702D493B
:1078900091F8A810012911D100222A4981F8B020BD
:1078A00032494A78294909789143284A11700022BF
:1078B000244991F8B110264B5A542FE02B490A78ED
:1078C000204981F8B02029494978204A127811438B
:1078D0001E4A117000211F4A117000201CE01C4933
:1078E0001C4A1278895C81B91A49097807290CDC8D
:1078F000144991F8B010164A164B1B78D15415490B
:107900000A78104981F8B120082012490978491CE9
:10791000104A1170411CC8B20828E0DB094991F8EF
:10792000A82081F8A92091F8BC2091F8BD108A42C6
:1079300060D00121084A1170024991F8BC10012958
:1079400028D115E0880400209F010020B501002007
:1079500070060020B6010020B4010020A201002022
:10796000A5010020A8010020AB010020AE010020ED
:107970000022FB4981F8C420FA494A78FA4909787B
:107980009143F94A11700022F54991F8C510F74B5F
:107990005A542FE0F3490A78F14981F8C420F1499B
:1079A0004978F14A12781143EF4A11700021F04AE8
:1079B000117000201CE0ED49ED4A1278895C81B914
:1079C000EB49097807290CDCE54991F8C420E7491F
:1079D000E74B1B78CA54E6490A78E14981F8C5208B
:1079E0000820E3490978491CE14A1170411CC8B2DA
:1079F0000828E0DBDA4991F8BC2081F8BD20704707
:107A0000DC49096869B9DC49097B0170DA4989896F
:107A1000090A4170D94909788170D9490978C1703A
:107A2000BAE0D4490968012911D1D64991F8E0108A
:107A30000170D449B1F8E010090A4170D14991F8B8
:107A4000D9108170D04991F8D910C170A4E0C9490A
:107A50000968022911D1CC4991F8E0100170CA4996
:107A6000B1F8E010090A4170C64991F8D910817047
:107A7000C54991F8D910C1708EE0BE490968032943
:107A80000FD1C24991F880100170C049B1F880103F
:107A9000090A4170BE4909788170BE490978C170F0
:107AA0007AE0B449096804290FD1BB49097801700B
:107AB000B9490988090A4170B24991F8D910817011
:107AC000B14991F8D910C17066E0AA490968052941
:107AD0001BD1AC49B1F8E020AB49B1F8E01011443A
:107AE000C1F347010170A749D1F8E020A649D1F8B8
:107AF000E0101144490A4170A24991F8D9108170EF
:107B0000A14991F8D910C17046E09A49096806293F
:107B10000DD1A2490978017000214170994991F86D
:107B2000D9108170984991F8D910C17034E0914909
:107B3000096807290DD19A4909780170002141701F
:107B4000904991F8D91081708F4991F8D910C1707E
:107B500022E08849096808290DD192490978017005
:107B600090490988091241708449097881708449D3
:107B70000978C17010E07F49096809290CD18A4948
:107B80000978017088490988091241707B49097890
:107B900081707B490978C170704700B587B00020BB
:107BA0000490059006900190029003907F48007821
:107BB000032855D107208DF81000C0207C4908709B
:107BC000084600788DF811007A4800788DF8120088
:107BD00078480088000A8DF81300774800788DF8FF
:107BE000140075480088000A8DF8150000208DF8F3
:107BF00016008DF817008DF818008DF8190004A8EC
:107C000004F02EFA00BF02208DF80400C02068495D
:107C10000870084600788DF80500664800788DF8F1
:107C2000060064480088000A8DF807006248007862
:107C30008DF8080060480088000A8DF809000020CF
:107C40008DF80A008DF80B008DF80C008DF80D00F2
:107C500001A804F01BFA00BF0020544908706FE02F
:107C60004548C06838B955480078A02101EB40006C
:107C70004F49087014E04D48007850B94F480078DB
:107C8000A02101EB40004A49087000203A49C86031
:107C900006E04A480078A12101EB40004449087001
:107CA00007208DF81000424800788DF811004448F4
:107CB000C0788DF81200424800798DF813004048D2
:107CC00040798DF814003E4880798DF815002A48D7
:107CD000007B8DF8160028488089000A8DF817006F
:107CE00000208DF818008DF8190004A804F0B8F9E8
:107CF00002208DF804002E4800788DF805003048E9
:107D0000C0788DF806002E4800798DF807002C48C1
:107D100040798DF808002A4880798DF809001648C6
:107D2000007B8DF80A0014488089000A8DF80B004A
:107D300000208DF80C008DF80D0001A804F0A6F9C4
:107D400007B000BD10B50AB1042A00DD0222012AE5
:107D500038D0022A3BD0032A41D0042A52D149E02C
:107D600088040020B1010020B50100207006002029
:107D7000B60100202804002050050020BC0200208D
:107D8000BD02002030090020200A0020100B002036
:107D9000480100204C01002050030020FC0200207C
:107DA00090030020FA030020FC0300204001002083
:107DB00060010020D0000020D40000205B030020E0
:107DC000FE080020FE4B1860FE4B19601AE0FD4BC8
:107DD000186043F629635B1AF94C236012E046F2FF
:107DE000FE331B1AF64C236043F629635B1AF54CED
:107DF000236007E0F24B196043F629631B1AF14C2C
:107E0000236000BF00BF10BD30B591B0044620789C
:107E100002287DD16078B02804D0B22828D0B428B8
:107E200025D153E3A07800F07F00E7490870A078DF
:107E300000F07F00E549087020788DF80400607834
:107E4000401CC0B28DF80500A0788DF80600002017
:107E50008DF807008DF808008DF809008DF80A00EC
:107E60008DF80B0001A804F011F9002020704CE3FC
:107E7000A07818287BD008DC092854D2DFE800F06D
:107E8000FEFDAA53D6535353FC00402870D004DCA7
:107E9000202807D0212846D146E0482869D08028EC
:107EA000F9D1D8E1E078012810D1C94908602079DA
:107EB000C8490860C6480068C7490860C5480068E6
:107EC00048600222002004F022F90CE0E07850B96A
:107ED0000020BF49086008460068BF4908600122C9
:107EE000002004F014F900208DF808008DF8090036
:107EF0008DF80A008DF80B008DF80C008DF80D0040
:107F000020788DF8040060788DF80500A07800E0F6
:107F1000FCE28DF8060001208DF8070001A804F0AE
:107F2000B5F800202070CFE2E07818B901208DF874
:107F3000070022E0E07801281FD12079A7490870C6
:107F40006079A7490870A079A6490870E079A64928
:107F500008700120A5490870A0480078FF2809D1C1
:107F60009F480078FF2805D10020087005E004E252
:107F700093E02DE201209D49087020788DF80400DF
:107F800060788DF80500A0788DF80600E0788DF80F
:107F90000700924800788DF80800914800788DF825
:107FA0000900904800788DF80A008F4800788DF815
:107FB0000B0000208DF80C008DF80D008DF80E00E0
:107FC0008DF80F008DF810008DF8110001A804F055
:107FD0005DF879E2002507E0681D205CE17829441E
:107FE000834A5054681CC5B22079A842F4DC0020B2
:107FF0008DF808008DF809008DF80A008DF80B0047
:108000008DF80C008DF80D0020788DF80400607854
:108010008DF80500A0788DF8060001208DF8070086
:1080200001A804F033F8002020704DE2E07801222E
:10803000694904F023F9684800686E4908600846F9
:1080400000788DF8080008460088000A8DF80900BD
:1080500008460068000C8DF80A0008460068000E0B
:108060008DF80B0000208DF80C008DF80D002078A5
:108070008DF80400607802E04AE1C1E06AE08DF822
:108080000500A0788DF8060001208DF8070001A8F2
:1080900003F0FCFF0020207016E2002534E0564873
:1080A0000078C01C5249085C544941F825005248E8
:1080B0000078801C4E49085C504951F8251040EA70
:1080C00001204E4941F825004B480078401C4849A2
:1080D000085C4A4951F8251040EA0120474941F817
:1080E0002500454800784249085C444951F825106C
:1080F00040EA0120414941F825003F480078001D31
:108100003D490870681CC5B2402DC8DB40223B4980
:10811000002004F048F800208DF808008DF80900D0
:108120008DF80A008DF80B008DF80C008DF80D000D
:1081300020788DF8040060788DF80500A0788DF81F
:10814000060001208DF8070001A803F09FFF002022
:108150002070B9E1E17801F1100001221E4904F01C
:108160006AF81D48006823490860084600788DF8C1
:10817000080008460088000A8DF8090008460068D3
:10818000000C8DF80A0008460068000E8DF80B0000
:1081900000208DF80C008DF80D0020788DF804007B
:1081A00060788DF80500A0788DF8060001208DF824
:1081B000070001A803F06AFF0020207084E100009E
:1081C000880100208C01002031030020B70100202D
:1081D0002C020020300200207C06002090010020AC
:1081E00091010020920100209401002093010020C1
:1081F00070050020340200200D010020C40600207C
:10820000002507E0281D205CE1782944FD4A5054F0
:10821000681CC5B2042DF5DD00208DF808008DF82E
:1082200009008DF80A008DF80B008DF80C008DF810
:108230000D0020788DF8040060788DF80500A07896
:108240008DF8060001208DF8070001A803F01EFF3D
:108250000020207038E1002534E0EB480078C01C95
:10826000E849085CE94941F82500E7480078801CA6
:10827000E449085CE54951F8251040EA0120E3494A
:1082800041F82500E0480078401CDE49085CDF49E1
:1082900051F8251040EA0120DC4941F82500DA4870
:1082A0000078D849085CD94951F8251040EA0120E6
:1082B000D64941F82500D4480078001DD2490870FD
:1082C000681CC5B2042DC8DB0422D049102003F07D
:1082D0001EFF00208DF808008DF809008DF80A00B7
:1082E0008DF80B008DF80C008DF80D0020788DF8BE
:1082F000040060788DF80500A0788DF80600012054
:108300008DF8070001A803F0C1FE00202070DBE01B
:10831000E17801F130000122BD4903F08CFFBC4837
:108320000068BC490860084600788DF808000846D7
:108330000088000A8DF8090008460068000C8DF8D6
:108340000A0008460068000E8DF80B0000208DF82A
:108350000C008DF80D0020788DF8040060788DF801
:108360000500A0788DF8060001208DF8070001A80F
:1083700003F08CFE00202070A6E0002507E0281DF9
:10838000205CE17829449F4A5054681CC5B2042DF2
:10839000F5DD00208DF808008DF809008DF80A0041
:1083A0008DF80B008DF80C008DF80D0020788DF8FD
:1083B000040060788DF80500A0788DF80600012093
:1083C0008DF8070001A803F061FE002020707BE01B
:1083D00000252FE08C480078C01C8A49085C8E4933
:1083E00041F8250088480078801C8649085C8A4945
:1083F00051F8251040EA0120874941F825008248BC
:108400000078401C7F49085C834951F8251040EAF8
:108410000120814941F825007B4800787949085CB2
:108420007D4951F8251040EA01207B4941F825009B
:10843000681CC5B2012DCDDB01227749302003F045
:1084400066FE754800687349086000208DF80800D2
:108450008DF809008DF80A008DF80B008DF80C00DE
:108460008DF80D0008460068401C28B108460068D9
:108470004FF6FF71884208D140F65E2067490860D8
:1084800040F61420664908600CE06248008880B21B
:10849000624908605F4800684FF6FF7101EA1040CA
:1084A0005F49086020788DF8040060788DF8050039
:1084B000A0788DF8060001208DF8070001A803F0D0
:1084C000E5FD0020207000BF00BF1EE0A07810284E
:1084D0001AD1E078782817D1207A52490870607A4A
:1084E0004870A07A8870E07AC870207B0871607B41
:1084F000487104F0BBFC4C48FDF70CFF04F0E0FCB5
:108500004FF47A70FDF706FF00BF00BF11B030BD19
:1085100010B54648006818B101204549086010BDF3
:108520004448007828B14448FFF76EFC00204149D8
:10853000087042480078032862D141480078032837
:108540005EDC404800780028F6D13F4800780028DB
:1085500057D1012036490860002444F62064E7E042
:108560003A480078012806D002282CD003287DD074
:1085700004287CD1ACE00920354908700020354939
:10858000087008460078324948703348007888708F
:1085900031480088000AC8703048007808712F48B8
:1085A0000088000A487100208871C871084603F0ED
:1085B00024FD00BF0020214908702548407808B1FB
:1085C00003200870B3E0072021490870C02021492A
:1085D0000870084600781E49487021480078012834
:1085E00050D1204802781D4801681B480068FFF7F9
:1085F000A9FB1D480078164988701B48008837E0A1
:10860000C9E0F7E3700500200D010020C407002039
:108610007C06002034020020D4070020EC02002059
:10862000F0020020BD03002040420F004003002064
:108630007C48004037030020D00B00204001002080
:10864000D800002058030020CE0000203103002075
:10865000E407002060010020200100202401002008
:108660009301002030020020880100202DE05AE014
:10867000000AC870FB4800780871FA480088000AB0
:1086800048710EE0F8480078F8498870F64800888C
:10869000000AC870F64800780871F5480088000A9A
:1086A00048710020F1498871C87108724872084603
:1086B00003F0D6FC00BF0020EE490870EB4840787C
:1086C000C02801D00320087031E0FFF766FA2EE0E1
:1086D0000220E6490870C020E74908700846007883
:1086E000E2494870E04800788870DF480088000A56
:1086F000C870DF4800780871DD480088000A4871BA
:1087000000208871C87108724872084603F0BEFCE8
:1087100000BF0020D7490870D4484078C02801D055
:108720000320087003E00120D449087000BF00BF97
:10873000201EA4F101047FF413AFD1490860D14990
:108740000860C9490860CA490860CF490860CF4934
:108750000860CF490860CF490860CF490860CF4919
:108760000860CF490860CF490860CF490860CF4909
:108770000860CF49C860CF498860CD494860CD497D
:108780000860CB498860CB494860C860086148618F
:10879000087648768FE3C84800780228FADBC74895
:1087A0000078FF28F6D0C64800780128F2D1C048EA
:1087B000C06810B9C148007830B1BD48C06838B948
:1087C000BE480078042803D10120BE49087004E0A7
:1087D0000020BD490860BB490870BC4800780028EB
:1087E000D8D1B548007803283BD1B948007888B182
:1087F000A2480078042808D1B6480078B6494871E4
:10880000B4480088000A88710DE047F6FF709F4960
:10881000086008E0B148007828B10020AE494871EE
:1088200088719A490860AE48007830B10020AA49A2
:10883000C87008719449086013E0AA48007880B1B4
:108840008E480078042808D1A7480078A249C8704B
:10885000A5480088000A087103E047F6FF708A49BE
:10886000086086480078012806D0022841D00328F5
:1088700076D0042875D149E28D48C06838B98F4850
:108880000078002101EB40007B49087014E0794832
:10889000007850B989480078002101EB4000764902
:1088A000087000208249C86006E0844800780121F1
:1088B00001EB40007049087009206C4908706E484F
:1088C000007848708448C078887083480079C87000
:1088D0008148407908718048807948717448007BEC
:1088E000887173488089000AC871084603F085FBC7
:1088F000B7E26F48C06850B970480078A02101EB1A
:1089000040005D49087000207849087017E0012098
:10891000764908705748007850B968480078A02117
:1089200001EB40005449087000206149C86006E02E
:1089300062480078A12101EB40004F4908700720F0
:108940004A4908704C480078487069480078002807
:108950007ED068480078012804D16749086010E09B
:10896000D1E17AE263480078022803D1032062490A
:10897000086006E05F480078032802D102205E49C3
:1089800008605D480278414801683F480068FFF789
:10899000D9F958480078032834D158480078642120
:1089A00010FB01F05649097890FBF1F0A02805DA98
:1089B0006F2053490870B220504908705048007821
:1089C00042F25E7110FB01F04C49097890FBF1F026
:1089D0004C4991FBF0F04C49096848434A4908600A
:1089E000084600684FF47A71B0FBF1F04649086020
:1089F0000846006846F2FE31884202D308464249E2
:108A00000860F1E041480078012804D0022828D00D
:108A100003287FD1B4E03A48007841F6790110FB91
:108A200001F03649097890FBF1F0394991FBF0F0FB
:108A300035490968484334490860084600684FF4DE
:108A40007A71B0FBF1F0304908600846006800E038
:108A5000DAE046F2FE31884202D308462A4908602D
:108A6000C1E058E08C01002020010020E407002034
:108A7000240100204001002060010020310300207B
:108A80002403002028030020E4020020E802002044
:108A9000DC020020E0020020C4020020C802002006
:108AA000CC020020D0020020D4020020D8020020F6
:108AB0005005002014090020300300205B03002033
:108AC000580300205F0100207C480040CE000020B9
:108AD000BE0200201C010020FE080020BF02002072
:108AE000C0020020C1020020180100205C03002009
:108AF0009301002094010020300200209101002009
:108B000090010020A8985F008801002092010020B9
:108B100030C7990066E0FE48006842F2541188426E
:108B200003D20020FA49086006E0F9480068A0F581
:108B300004505438F6490860F648007841F6790147
:108B400010FB01F0F449097890FBF1F0F34991FB37
:108B5000F0F0EF4909684843ED49086008460068AD
:108B60004FF47A71B0FBF1F0E949086008460068FB
:108B700046F2FE31884202D30846E549086032E0F9
:108B8000E348006846F2FE31081AE1490860E1480E
:108B9000007841F6790110FB01F0DF49097890FB7C
:108BA000F1F0DE4991FBF0F0D94909684843D84912
:108BB0000860084600684FF47A71B0FBF1F0D449C0
:108BC00008600846006846F2FE31884202D3084633
:108BD000CF490860CE48006846F2FE31081ACC49F9
:108BE000086000E000BF00BFC9480078CC49887029
:108BF000C7480088000AC870CA4800780871C94888
:108C00000088000A48710EE0C7480078C44988709F
:108C1000C5480088000AC870C44800780871C34875
:108C20000088000A4871C248007BBD498871C0486D
:108C30008089000AC871BF4800780872BE48007871
:108C40004872BE48007898BBB948C06880B3BC4839
:108C50000078A02101EB4000B149487000208871E4
:108C6000C8710120B54908700020B6490860B649AE
:108C70000860AB48C078B349096800EB0120B149EE
:108C80000860A7488078096800EB0120AD490860BA
:108C9000A3484079AC49096800EB0120AA49086063
:108CA0009F480079096800EB0120A749086026E089
:108CB000FFE7A248007801281BD19D48C068C0B1D9
:108CC0009F480078A12101EB4000954948709D48DC
:108CD000007888709B480088000AC8709A4800781D
:108CE000087199480088000A487102209349087069
:108CF00005E08F48C06810B9002090490870884886
:108D000003F0AEF9ADE0FEF748FFAAE08848C0687E
:108D100050B98B480078A02101EB40008B490870C6
:108D200000208B49087017E00120894908708948A4
:108D3000007850B982480078A02101EB40008349B7
:108D4000087000207A49C86006E07D480078A121BB
:108D500001EB40007D4908700220714908707B4892
:108D6000007848707C48C07888707B480079C8706B
:108D7000794840790871784880794871881DFEF7F4
:108D80003FFE6E480078B0BB6948C06898B36C4835
:108D90000078A02101EB4000614948706F480068ED
:108DA000012801D16E48006800205D498871C871B2
:108DB0000120624908705A48C0786249096800EB8E
:108DC00001206049086056488078096800EB01205E
:108DD0005C490860524840795B49096800EB012012
:108DE000594908604E480079096800EB012056494E
:108DF00008602EE05FE0FFE750480078012822D1AC
:108E00004B48C068F8B14E480078A12101EB400002
:108E1000434948704B48007888704A480088000AE7
:108E2000C87049480078087147480088000A4871AE
:108E30003F48007B88713E488089000AC871022043
:108E40003E49087005E03A48C06810B900203B4927
:108E50000870334803F01AF903E001204149087013
:108E600000BF00BF00BF3C4800793F4908603A4856
:108E7000C078096800EB01203B49086036488079DA
:108E80003A49086034484079096800EB01203749C5
:108E900008602748C0683649086003202D490870DB
:108EA00000203449087000BF334800680028FBD018
:108EB00000203149086000BFFFF731BB10B52F48D3
:108EC000007801287ED100202D4908702D490870B6
:108ED0002D480068C043097860F3000129480170FB
:108EE0002948001D0068C0432649097860F3410104
:108EF00024480170244808300068C043214909789B
:108F000060F382011F4801701F480C3000683DE08B
:108F100088010020900100209101002030C79900B5
:108F2000E40700208C010020E4020020E802002079
:108F300050050020BC020020BD020020DA00002005
:108F40005B030020DC000020E00000206001002026
:108F50005C03002040010020FE0800202C020020BD
:108F60002C040020310300202001002024010020D7
:108F70002C0300200C01002038030020B401002045
:108F8000CD000020CC00002040480040C043FE49F6
:108F9000097860F3C301FC480170FC480068C043D5
:108FA000F949097860F30411F7480170F748103067
:108FB0000068C043F449097860F34511F248017034
:108FC000F24800E012E01C300068C043EE49097826
:108FD00060F38611EC480170EC48E4300068C0434F
:108FE000E949097860F3C711E74801700020E749B3
:108FF0002C310860E6480078012806D0022859D0B4
:1090000003287DD004287CD1ADE0E2480078012817
:109010001BD10620E0490870E04800784870E0481D
:1090200000788870DE484078C870DD488078087124
:10903000DB48C0784871DA4800798871D8484079AF
:10904000C871084602F0D9FF00BFD6480078012851
:109050002FD10620D0490870012048700020C87028
:10906000087148718871C871CF480078012805D10E
:10907000572088700020CC4908700EE0CB4800785B
:10908000012806D15620C44988700020C7490870BD
:1090900003E00020C04948708870BF4802F0ADFF6F
:1090A00000BF0020BF490870BB48807808B101208C
:1090B0000870AAE0B748007801281BD10620B649FD
:1090C0000870B64800784870B54800788870B44891
:1090D0004078C870B24880780871B148C07848714B
:1090E000AF4800798871AE484079C871084602F0EF
:1090F00084FF00BFAB480078012832D1062001E090
:1091000030E07EE0A4490870012048700020C8705B
:10911000087148718871C871A3480078012805D189
:10912000572088700020A04908700EE09F48007802
:10913000012806D156209849887000209B49087064
:1091400003E00020944948708870934802F055FF6E
:1091500000BF0020934908708F48807808B1012033
:10916000087052E051E08B480078012813D10220AA
:1091700089490870F0204870834800788870002082
:10918000C870087148718871C871087248720846C1
:1091900002F07CFF00BF83480078012830D182486C
:1091A0000078012805D17C49C87100207E490870EB
:1091B0000DE07E480078012806D102207649C8716A
:1091C00000207A49087002E000207349C87102202B
:1091D00071490870F020487000208870C8700871CC
:1091E0004871887108724872084602F04FFF00BF4C
:1091F00000206C4908706848C07908B101200870E7
:1092000003E002206249087000BF00BF5E4800789A
:1092100030B96448007818B901205C492C310860E5
:1092200010BD63480078012834D16248007858B9ED
:10923000002056492C3108605F4800685F4908608B
:1092400001205C49087028E05A480078012812D1B2
:109250005948006859490968401A02281DD301205D
:109260004A492C310860022052490870524800686F
:109270005249086011E04F48007802280DD14E484D
:1092800000684E490968401A0E2806D30020494953
:10929000087002E0002047490870704710B5484840
:1092A00000780F286AD00CDC0B2868D004DC012879
:1092B00012D0032864D1B9E00C2862D00D28F9D16E
:1092C000C0E2113806285BD2DFE810F06103D0035A
:1092D0005A00280497040D053A480078012851D116
:1092E00002203849087038480078401C3649087018
:1092F0000020364908703648D0F8DC003549096846
:1093000088421AD23348006833490968884214D326
:10931000304801682E48C0F8DC102B480078401E09
:10932000C1B22B4880F8D9102C4800782C4908701D
:109330002C4801682648C0F8E0102348007820280F
:1093400068DB01202049087024480078401C23492C
:10935000087008460078082858DB1D48D0F8E0104F
:109360001D480068B730814248D9194890F8D900A3
:1093700048B101201C490870154837E0A7E205E113
:109380002DE298E151E039E0CC0000205048004047
:10939000B7010020B4010020E4070020B50100203F
:1093A0007006002010020020BC010020BD0100203A
:1093B0005F0100203401002038010020300100202E
:1093C000D80000205C010020840100200C01002056
:1093D000200A00206C010020680100207D0100208F
:1093E0007E010020700100208201002090F8D90049
:1093F000FB4908700220FB4908700EE0FDF7A4FA53
:109400000020F9490870F949087006E00020F54984
:10941000087002E00020F34908700020F449086059
:10942000F44908600120F4490870D8E1F348007855
:1094300001286ED10220F1490870F1480078401CE3
:10944000EF4908700020E9490870EE48D0F8DC00C8
:10945000E7490968884216D2E5480068EA49096880
:10946000884210D3E2480168E648C0F8DC10E448BE
:109470000078401EC1B2E34880F8D910DD48016889
:10948000E048C0F8E010DE480078312874DB0120A5
:10949000DB490870DB48D0F8E010DB480068B730E3
:1094A000814262D9D74890F8D90000285DD00A20BF
:1094B000CC4908700020D5490870D548007820B9FB
:1094C000D4480078D24908703EE0D148007801289D
:1094D00004D1D0484078CE49087035E0CC480078B7
:1094E000022804D1CB488078C94908702CE0C848CC
:1094F0000078032804D1C748C078C549087023E024
:10950000C3480078042805D1C2480079C0490870D2
:109510001AE03AE0BE480078052804D1BD484079F9
:10952000BB49087010E0BA480078062804D1B94851
:109530008079B749087007E0B5480078072803D15B
:10954000B448C079B2490870B1480078801EB24969
:1095500008700020B1490870B1490860B14908603D
:10956000B1490860B149086009E0FDF7EDF9002054
:109570009E49087003E0FFE702209A490870002026
:109580009B49086001209C4908704EE79B48007881
:10959000012873D1A648006868BB9F4800789F499E
:1095A000097801EB4101A34A02EBC10148709048E0
:1095B00000689A49097801EB410102EBC10148605A
:1095C0008C4800689549097801EB410102EBC10123
:1095D0008860924800789149097801EB410102F8CE
:1095E00031008D480078401C8B4908708B4800780A
:1095F000401C8A490870022080490870874800781A
:1096000005284EDB8A480068B8BB012088490860FD
:109610008948006820B101280CD002281ED113E02F
:1096200010207D4908700A206E4908700120724997
:10963000087021E01D20784908700A2069490870E7
:1096400001206D49087017E01620734908700A2040
:10965000644908700120684908700DE000207649CF
:109660000860764908606D4908700C205D490870F3
:1096700000206F49086000BF19E000E01AE06C4864
:109680000068012813D15A4800686C49086000201E
:10969000624908700C205349087000206449086032
:1096A00005E00A204F490870012053490870002046
:1096B0004F4908606CE300215E48C167002415E053
:1096C00004EB44005B4901EBC00041685948C06F9E
:1096D000814209D904EB4400564A02EBC00118222A
:1096E0005448783007F0A6FE601CC4B2052CE7DBB6
:1096F000504890F87900464908704E4890F8790033
:10970000801E454908704B48C06F4C490968884223
:109710000BD9484890F879003D490870454890F8C1
:109720007900801E3C4908702FE04248C06F4349D1
:109730000968884229D24048006820B1012809D030
:10974000022815D10DE01020314908700E20324951
:10975000087019E01D202E4908701B202E49087042
:1097600012E016202A49087014202B4908700BE0DB
:10977000304890F87900264908702E4890F8790012
:10978000801E2549087000BF00BF2B480068401CA0
:109790002949086008460068022801D900200860AD
:1097A0002448D0F88000F82806D92548007818B950
:1097B0000120234908700BE021480078012807D1D7
:1097C0001C48D0F88000B72802D200201C4908703D
:1097D00002F08AFD02F030FE0D2002490870D7E247
:1097E00084010020D80000205E0100200C01002030
:1097F0006C01002070010020950100205C01002018
:109800008201002030090020680100204001002072
:109810007E010020CC2201007D0100205A0300209F
:10982000480100204C01002050010020540100207C
:10983000EC000020100B0020F0000020E4000020CD
:1098400058030020FA48007818B1F9480078042835
:109850001CD103F0EAF9F7480068F749884207D9B4
:10986000F348007820B9F5488068F249086011E0B3
:10987000F0480068F24988420CD9ED480078042885
:1098800008D1EE488068EB49086003E00020EB490E
:1098900048764861E74800680A21B0FBF1F0E949E1
:1098A0000860E4480068E849086002F0DBFFE74927
:1098B000C86803F061F9E549C8600F20E449087001
:1098C0000020E44908700120E349087060E2E348A1
:1098D00090F8D900E2490870E24890F8D900E249CE
:1098E0000870DF480078E1490870DF480078E049F7
:1098F00008701020D6490870D948007800F0800020
:1099000038B9D7480078302803DCD54800780128DA
:1099100001DAFDF719F8D148D0F8E000B0F51F6F73
:1099200019D9CE48D0F8E00040F6B861884205D990
:10993000D04800680A30CF49086004E0CD4800688C
:10994000401CCC490860CB480068142817D9142063
:10995000C849086013E0C148D0F8E00040F674112F
:1099600088420CD2C348006848B1C2480068401E13
:10997000C04908600846006808B900200860BD4872
:109980000068BD4908600120BC49087000E2BC487D
:109990000078012869D10220B9490870B0480078E0
:1099A000AC49097801EB4101AC4A02EBC1014870B6
:1099B000B4480068A749097801EB410102EBC101F5
:1099C0004860A4480078A349097801EB410102F8F6
:1099D0003100AD4800689F49097801EB410102EB75
:1099E000C101C860A94800689A49097801EB4101A2
:1099F00002EBC101886097480078401C95490870C7
:109A0000104690F8D90096490870924800780628C8
:109A100006DA90480078012802DD0520FCF74EFDAB
:109A20008C4800789A490978884215DB00208949DA
:109A300008708A48806BB7280AD88848006DB72814
:109A400006D88648806EB72802D8FCF77DFF09E06B
:109A500012207F49087005E010207D490870012020
:109A60008649087000208749086091E17B4890F89A
:109A7000D9007B4908707B4890F8D9007A49087072
:109A80001320734908707848007800F0800038B9D6
:109A9000754800781F2803DC73480078012801DA34
:109AA000FCF752FF6F48D0F8E000B0F51F6F19D9EE
:109AB0006C48D0F8E00040F6B861884205D9754896
:109AC00000680A307349086004E072480068401C6E
:109AD000704908606F480068142817D914206D4930
:109AE000086013E05F48D0F8E00040F67411884247
:109AF0000CD26848006848B166480068401E654955
:109B000008600846006808B90020086061480068DD
:109B10005949086001205949087039E158480078CE
:109B2000012869D10220564908704F4800784949F8
:109B3000097801EB41014B4A02EBC10148705148E1
:109B400000684449097801EB410102EBC10148601A
:109B5000404800783F49097801EB410102F83100A3
:109B6000494800683B49097801EB410102EBC1011A
:109B7000C860464800683749097801EB410102EBAB
:109B8000C101886033480078401C32490870104693
:109B900090F8D900344908702E480078062806DA73
:109BA0002C480078012802DD0520FCF787FC2948B5
:109BB000007837490978884215DB0020254908706C
:109BC0002848806BB7280AD82648006DB72806D8E1
:109BD0002448806EB72802D8FCF7B6FE09E01520AD
:109BE0001B49087005E0132019490870012023491A
:109BF0000870002023490860CAE001F0CFF901F0A5
:109C000007FA01F04CFA01F025F901F070F9224849
:109C100001682248006801F048FB01F028FF01F0CC
:109C200076FC1F48007804283CD001F0F0FA3BE0B5
:109C30005B030020440300206EC6070014090020C7
:109C400090BE060050030020540300205005002061
:109C5000D8000020800100203003002030090020BF
:109C600082010020200A00208401002083010020BE
:109C700085010020480100205401002095010020AA
:109C80005C0100206C0100207401002070010020A4
:109C9000810100204C010020C8020020C4020020E5
:109CA0003103002001F04CFF01F056FFFE48007820
:109CB000FE49C870FC480088000A0871FC4800781A
:109CC0004871FB480088000A8871FA48007801282A
:109CD00002D10220F74908700120F74908601620D8
:109CE000F649087054E00120F549087008460078EC
:109CF00001283DD10A20F14908700120F14908707E
:109D0000F148D0F88000B0F51F6F18D9EE48D0F8B0
:109D10008000B0F57A6F05D9EC4800680A30EB494D
:109D2000086004E0E9480068401CE8490860E7482A
:109D300000680F2817D90F20E449086013E0E248B3
:109D4000D0F8800040F6741188420CD2DF480068D9
:109D500048B1DE480068401EDC49086008460068DB
:109D600008B900200860D9480068D949086002E0B5
:109D70000C20D2490870D2480078042802DB002069
:109D8000CF4908700020CB490870FFF74AFA00BF9E
:109D900000BF10BD10B5FFF781FACE48007801284A
:109DA00009D1CD480068022803D1CC4800680128B9
:109DB00001D0C9480068CA48007801280DD100BF09
:109DC000C84800680028FBD00020C6490860FFF79B
:109DD00075F80020C249087001E0FEF799FBC248FF
:109DE000007808B9FDF740FA10BD10B50022012136
:109DF000BE4806F0DFFA00220221BC4806F0DAFA7B
:109E000000220421B94806F0D5FA00220821B748FB
:109E100006F0D0FA00221021B44806F0CBFA002256
:109E20004FF48071B14806F0C5FA00224FF400618A
:109E3000AE4806F0BFFA00224FF40051AB48C030E4
:109E400006F0B8FA0120AA49087248720121A84810
:109E50000177417780F8301080F8311080F8441095
:109E600080F8451080F8581080F8591080F86C1070
:109E700080F86D1080F8801080F8811080F89410C0
:109E800080F8951010BD00BF00BF00BF5920994950
:109E9000086016208905C1F800018820C1F800017A
:109EA000C006D0F800010028F0D000BFFCF749FA46
:109EB00000BF00208F49086000BFFFF796FFFDF745
:109EC00001F8FCF79BFF00228B498C4804F0E1FA73
:109ED00001F0FAFF04F0F6FA352000F084FE0321C9
:109EE0003520FCF707FA00207349C0310860724939
:109EF00070310860002404E04FF47A70FCF7DEFA59
:109F0000641CB4F5FA7FF7DB01206B4970310860FF
:109F10006C4908707A4800F071FE03E0FFF73AFFE1
:109F2000FCF759FFFAE77748007810B1012816D1FD
:109F300016E075480068754908600020744908609B
:109F4000744908607449086074490860744908706D
:109F5000744908706B480078401C6A49087055E1E4
:109F60006948006869490968401A022820D852489F
:109F700060300068012805D165480068401C6449CC
:109F8000086004E063480068401C624908604A4871
:109F900064300068012805D15F480068401C5E49B4
:109FA000086032E15D480068401C5C4908602CE1B3
:109FB0005748006857490968884203D901205A491F
:109FC000087008E05248006852490968884202D285
:109FD0000020554908705048006850490968884277
:109FE00003D901205149087008E04B4800684B49EB
:109FF0000968884202D200204C4908704A4800781B
:10A000004A490978884236D149480068401C484985
:10A01000086008460068022805D302200860012075
:10A0200044490870DCE0002042490870424800784A
:10A0300001280DD13D48007840490978884207D071
:10A0400002203D49087001203649087021490870F6
:10A050003B48007801280DD1334800783949097808
:10A06000884207D002203649087001202C49087028
:10A0700018490870B4E000202D4908602D48007888
:10A0800001286ED1284800782849097888426AD08A
:10A09000254800782C490978884264D02348007804
:10A0A00026490870002051E0E4020020FE0800204C
:10A0B000E8020020300300200C480040D8000020B7
:10A0C0003D02002095010020100B002050010020CF
:10A0D00054010020100200203C030020D80300207F
:10A0E000B4010020380300200C0100204040004053
:10A0F00088040020000100404BBF00008C220100BA
:10A1000020100540BA0100203C010020D4010020AD
:10A11000F0010020F4010020F8010020FC010020E3
:10A12000BD010020BC010020C0010020C2010020B0
:10A13000E0010020BB010020B8010020C90100207F
:10A14000B9010020C8010020C1010020FE490870AB
:10A150000120FE4908700020FD490870FD49086093
:10A160001CE01FE0FFE7FC480078FC4909788842C2
:10A1700014D0FA480078FA49097888420ED0F64897
:10A180000078F84908700020EF490870EF4908701E
:10A190000120EF4908700020F34908600020F349CE
:10A1A00008701DE0E948007802280AD1EA480078E2
:10A1B000EF490978884204D0E6480068401CE54928
:10A1C0000860E348007802280AD1E4480078E449AE
:10A1D0000978884204D0E4480068401CE2490860DD
:10A1E000DD480078E2490870DC480078DC490870F6
:10A1F0000020E0490860E0490860E0490860E04963
:10A200000860E0480068E049086000BF00BF704790
:10A2100010B5DE480078012852D10020DC490870D2
:10A22000DC490870DC480068C043097860F300012D
:10A23000D8480170D848001D0068C043D549097846
:10A2400060F34101D3480170D34808300068C0432F
:10A25000D049097860F38201CE480170CE480C30B5
:10A260000068C043CB49097860F3C301C948017055
:10A27000C94810300068C043C649097860F304112A
:10A28000C4480170C44820300068C043C1490978FF
:10A2900060F34511BF480170BF482C300068C043CF
:10A2A000BC49097860F38611BA480170BA48F430A5
:10A2B0000068C043B749097860F3C711B548017019
:10A2C0000020B5493C310860B4480078012806D028
:10A2D000022872D003286FD004286BD1DAE0AB4893
:10A2E0000078012826D15520AD49087056204870C5
:10A2F000F42088700A20C87006200871A9480078E8
:10A300004871A94800788871A7484078C871A64864
:10A3100080780872A448C0784872A348007988728F
:10A32000A1484079C8720020087348730F219C48E7
:10A3300002F01FFD9D48007801283BD15520984927
:10A34000087056204870F42088700A20C8700620D3
:10A350000871012048710020C87108724872887223
:10A36000C87293480078012805D1572088710020D1
:10A370008F4908700EE08F480078012806D15620DA
:10A380008749887100208B49087003E000208449C8
:10A390004871887100208249087348730F218048F2
:10A3A00002F0E7FC0020814908707D48807908B1FF
:10A3B0000120087006E100E06BE074480078012895
:10A3C00026D155207649087056204870F4208870B0
:10A3D0000A20C870062008717248007848717248D7
:10A3E0000078887170484078C8716F48807808722A
:10A3F0006D48C07848726C48007988726A48407924
:10A40000C8720020087348730F21654802F0B1FC40
:10A410006648007801283BD15520614908705620D4
:10A420004870F42088700A20C87006200871012046
:10A4300048710020C871087248728872C8725C48FE
:10A440000078012805D157208871002058490870EC
:10A450000EE058480078012806D1562050498871EE
:10A4600000205449087003E000204D49487188716C
:10A4700000204B49087348730F21494802F079FCCA
:10A4800000204A4908704648807908B101200870C8
:10A4900098E097E03D48007801281BD155204049BD
:10A4A000087056204870F42088700A20C870022076
:10A4B0000871F02048713748007888710020C87111
:10A4C000087248728872C872087348730F21344842
:10A4D00002F04FFC35480078012872D134480078EA
:10A4E000012805D12E49C8720020314908700DE0BD
:10A4F00030480078012806D102202949C87200207E
:10A500002C49087002E000202549C87255202449D2
:10A51000087056204870F42088700A20C870022005
:10A520000871F020487100208871C8710872487263
:10A530008872087348730F21194802F01AFC002032
:10A540001A490870164838E0BA010020B801002006
:10A55000B9010020CC010020C0010020C201002070
:10A56000C3010020C8010020D0010020BB01002051
:10A57000C1010020F0010020F4010020F8010020BA
:10A58000FC0100203C010020D4010020B401002087
:10A59000CD000020CC00002040480040B701002042
:10A5A00024080020B50100207006002010020020C1
:10A5B000BC010020BD01002003E0C07A08B10120E9
:10A5C000087000BF00BFFE48007828B9FD48007839
:10A5D00010B90120FC49086010BD10B5FB48007897
:10A5E00003287DD1FA480078032879DCF9480078FF
:10A5F0000028F6D10120F4490860F74800780128C6
:10A6000006D0022832D003286BD004286AD184E017
:10A610005520F249087056204870F42088700A20AE
:10A62000C8700920087100204871ED4800788871D1
:10A63000EB480088000AC871EA4800780872E948C7
:10A640000088000A487200208872C8720873487334
:10A650000F21E24802F08DFB00BF0020DB490870AB
:10A66000DE48407908B10320087089E0DE480068C0
:10A6700001281BD1DD480068022817D1DC48027888
:10A68000D8480168D6480068FDF75CFBD9480078D7
:10A69000D2498871D7480088000AC871D648007826
:10A6A0000872D5480088000A48720EE0CC4800784D
:10A6B000CA498871CA480088000AC871C948007828
:10A6C0000872C8480088000A48725520C3490870BB
:10A6D00056204870F42088700A20C870072002E0D5
:10A6E0007AE017E048E00871C020487100208872C5
:10A6F000C872087348730F21B84802F03AFB00BFD4
:10A700000020B2490870B5484079C02801D0032024
:10A71000087035E0FDF741FA32E05520AF49087086
:10A7200056204870F42088700A20C87002200871F2
:10A73000C0204871AA4800788871A9480088000A9A
:10A74000C871A84800780872A6480088000A4872B4
:10A7500000208872C872087348730F219F4802F066
:10A7600008FB00BF0020994908709C484079C02828
:10A7700001D00320087003E001209749087000BF52
:10A7800000BF00209D4908609D4908609D49086000
:10A790009D4908609D4908609D4908609D49086081
:10A7A0009D4908609D4908609D4908609D49086071
:10A7B0009D4908609D49C8609D4988609B494860E3
:10A7C0009B4908609949886099494860C860086158
:10A7D00048610876487605E2964800780228FADB58
:10A7E00095480078FF28F6D07A4800780128F2D101
:10A7F0008E48C06810B99048007830B18B48C06866
:10A8000038B98D480078042803D101208B4908709D
:10A8100004E000206C490860884908708548007889
:10A8200003283BD18648007888B16B48007804281B
:10A8300008D1844800788449487182480088000A19
:10A8400088710DE047F6FF706F49086008E07F48A7
:10A85000007828B100207C49487188716A490860F5
:10A860007B48007830B100207749C870087165498D
:10A87000086013E07748007880B1574800780428D2
:10A8800008D1754800787049C87073480088000A7C
:10A89000087103E047F6FF705A4908604E48007897
:10A8A000012806D002284AD003287DD004287CD174
:10A8B00020E15E48C06838B95F480078002101EBAC
:10A8C00040006649087014E04048007850B95A4882
:10A8D0000078002101EB40006049087000205349D6
:10A8E000C86006E054480078012101EB40005B4954
:10A8F000087055203949087056204870F420887037
:10A900000820C870092008715448007848714E48E2
:10A91000C07888714C480079C8714B4840790872FA
:10A920004948807948724148007B88723F48808955
:10A93000000AC8720F21294802F01BFA30E13B4897
:10A94000C06850B93C480078A02101EB4000434961
:10A95000087000204249087017E001204049087043
:10A960001A48007850B934480078A02101EB400023
:10A970003A49087000202D49C86006E02E4800784A
:10A98000A12101EB400035490870174800680128F3
:10A9900072D11648006802286ED1154802781A480C
:10A9A00001681848006801E0A1E0F5E0FDF7CAF988
:10A9B00010480078094988710E480088000A52E062
:10A9C000CC000020100200207C4800404001002004
:10A9D000D800002058030020310300202408002064
:10A9E00020010020240100202C0200202C04002043
:10A9F00030020020880100208C0100202403002068
:10AA000028030020E4020020E8020020DC020020ED
:10AA1000E0020020C4020020C8020020CC02002076
:10AA2000D0020020D4020020D802002050050020CF
:10AA300014090020300300205B0300205F01002088
:10AA4000BE0200201C010020FE080020BF020020E2
:10AA5000C0020020C1020020180100206001002077
:10AA60005C03002008E0C8716F48007808726E48E7
:10AA70000088000A48720EE06C4800786C498871C2
:10AA80006A480088000AC8716A48007808726948F4
:10AA90000088000A487255206549087056204870A1
:10AAA000F42088700A20C870072008716248007876
:10AAB00048716248C078887160480079C8715F4801
:10AAC000407908725D48807948725D48007B8872E1
:10AAD0005B488089000AC8725A48007808735A484F
:10AAE000007848730F21524802F043F958E0FDF70F
:10AAF00054F855E05248C06850B954480078A02135
:10AB000001EB40004C49087000205149087017E0E3
:10AB100001204F4908704F48007850B94B480078E1
:10AB2000A02101EB40004449087000204449C8605E
:10AB300006E046480078A12101EB40003E4908703C
:10AB400055203B49087056204870F42088700A2030
:10AB5000C870022008713848007848713748C078BA
:10AB6000887136480079C871344840790872334892
:10AB7000807948723248007B887231488089000AA7
:10AB8000C8723048007808732F48007848730F2146
:10AB9000274802F0EEF803E001202F49087000BFBB
:10ABA00000BF00BF254800792C4908602348C078C1
:10ABB000096800EB0120294908602048807928496C
:10ABC00008601E484079096800EB012024490860AC
:10ABD0001B48C0682349086003201E4908700020F4
:10ABE0002149087010BD00F01F0201219140420967
:10ABF000920002F1E022C2F800117047016841F0B2
:10AC0000804101607047016821F080410160704718
:10AC1000016841F0005101607047816821F0020134
:10AC200041F00101816070478C010020E4020020A6
:10AC300024080020E802002060010020FE08002017
:10AC400050050020BC020020BD0200205B03002054
:10AC50005C0300204001002031030020200100207F
:10AC6000240100202C0300200C010020C0F3C0129E
:10AC70006F4B1A60C0F380126D4B20331A60C0F323
:10AC800040121B1F1A60C0F300121B1F1A60C0F392
:10AC9000C0021B1F1A60C0F38002654B6C331A6040
:10ACA000C0F340021B1F1A6000F001021B1F1A6054
:10ACB0008A095F4B443B1A604A091B1F1A600A0944
:10ACC0001B1F1A60CA081B1F1A608A081B1F1A6004
:10ACD0004A081B1F1A601A1F1160704710B5002028
:10ACE00000210122F823534C237000BF1AE00021F9
:10ACF00015E0052809D0504B13F820304F4C645C08
:10AD000023444C4CA354521C08E04B4B13F8203006
:10AD10004B4C645C2344474CA354521C491C0729E8
:10AD2000E7DD401C0628E2DD10BD10B50020002143
:10AD30000122F823434C237000BF1AE0002115E0E4
:10AD4000032809D0404B13F82030404C645C234466
:10AD50003C4CA354521C08E03B4B13F820303C4CB5
:10AD6000645C2344374CA354521C491C0729E7DD7B
:10AD7000401C0428E2DD10BD01212D4A5C3A11601F
:10AD8000121D1160121D1160121D1160121D116043
:10AD9000121D1160121D1160C109254A1160C0F316
:10ADA0008011234A20321160C0F34011121F11603C
:10ADB000C0F30011121F1160C0F3C001121F116017
:10ADC000C0F380011A4A6C321160C0F34001121FB7
:10ADD000116000F00101121F116070470121144A37
:10ADE00014321160121D1160121D1160121D1160CC
:10ADF0000F4A11600E4A64321160121D1160121D5B
:10AE0000116081110A4A443A11604111121F116008
:10AE10000111121F1160C110121F11608110121F49
:10AE200011604110121F1160111F0860704700006F
:10AE3000DC48004064080020440200207802002022
:10AE40008802002095080020640200208002002073
:10AE5000900200204C4949684C4A1268914245D3FF
:10AE600049494968494AD2F8142291420ED94649C3
:10AE70004968464AD2F81422891A444A12684CF6A4
:10AE8000D0731A441144424A11602FE000202BE095
:10AE90003D4949683D4A52F82020914222D93A4919
:10AEA0003A4B4A68411C53F821108A421AD8364955
:10AEB00049681A4652F82020891A4FF4C872514343
:10AEC000421C53F8222053F82030D21AB1FBF2F181
:10AED0002E4A12684FF4C87303FB002211442C4A17
:10AEE00011608520411C88B28528D1DB7047264936
:10AEF0008968284A1268914245D323498968254ABE
:10AF0000D2F8542191420ED91F498968214AD2F8BA
:10AF10005421891A1F4A126848F2D0431A44114436
:10AF20001D4A11602FE000202BE017498968194A5B
:10AF300052F82020914222D91349164B8A68411CAD
:10AF400053F821108A421AD80F4989681A4652F8D4
:10AF50002020891A4FF4C8725143421C53F8222012
:10AF600053F82030D21AB1FBF2F10A4A12684FF4BA
:10AF7000C87303FB00221144074A11605520411C8D
:10AF800088B25528D1DB704750050020D42201003B
:10AF9000C4020020EC240100C802002010B50024E7
:10AFA0000021F848C0F8E010F748C0F8E01000BFF2
:10AFB0002BE004EB4400F34901EBC0008168F14849
:10AFC000D0F8E000814209D304EB4400ED4A02EBE3
:10AFD000C0011822EB48D83006F02CFA04EB4400EC
:10AFE000E94901EBC0008168E748D0F8E000814200
:10AFF00009D304EB4400E44A02EBC0011822E24802
:10B00000D83006F017FA601CC4B2092CD1DB10BD91
:10B010002DE9FE43DB4890F8D800DC49087008466B
:10B020000078801E00EB4000D64901EBC000846828
:10B03000D6480078401E00EB400001EBC000856858
:10B04000D248007800EB400001EBC0008668CF4892
:10B050000078401C00EB400001EBC0008768CB4843
:10B060000078801C00EB400001EBC000D0F80880A5
:10B0700040F26C41C548007800EB4000C14A02EB49
:10B08000C00040783B463246CDE900800291294617
:10B09000204606F090FBBE494860BDE8FE832DE9DE
:10B0A000FE43B94890F8D800B849087008460078BF
:10B0B000801E00EB4000B44901EBC0008468B34837
:10B0C0000078401E00EB400001EBC0008568AF48EF
:10B0D000007800EB400001EBC0008668AB480078C8
:10B0E000401C00EB400001EBC0008768A7480078D7
:10B0F000801C00EB400001EBC000D0F8088040F25B
:10B100006C41A248007800EB40009F4A02EBC0006F
:10B1100040783B463246CDE90080029129462046E0
:10B1200006F049FB9A498860BDE8FE8399480068AB
:10B1300040F6F61188420BD8032097490870012089
:10B14000964908700020964908709649086025E0E5
:10B15000904800684CF6D07188420DD903208E4982
:10B16000087001208E49087000208C4908704CF24C
:10B17000FC708C49086011E086480068A0F6F61063
:10B180004CF2FC7148434CF2DA51B0FBF1F08549C6
:10B190000860002081490870814908707D48406836
:10B1A00040F6543188420BD803207B4908700120B7
:10B1B0007D49087000207D4908707D49086025E0C0
:10B1C0007448406847F6A82188420DD90320724987
:10B1D000087001207549087000207349087047F60F
:10B1E00052407349086011E06A484068A0F6543044
:10B1F00047F65241484346F65471B0FBF1F06C49B2
:10B2000008600020684908706849087070476948FC
:10B21000006878B1674800684CF2FC71884209D830
:10B2200064480068491048434900B0FBF1F06249A6
:10B2300008600FE05F48006818B900205E490860A8
:10B2400008E05C4800684CF2FC71884202D9481062
:10B25000594908605948006878B15848006847F66D
:10B260005241884209D8554800684910484349006E
:10B27000B0FBF1F0524908600FE05048006818B97F
:10B2800000204F49086008E04C48006847F65241EA
:10B29000884202D948104A4908604948006843F684
:10B2A0002961081A46490860704738B504460D46BA
:10B2B0004448006838B93648C06820B10020354994
:10B2C000C86008610876404800903148314B2946F3
:10B2D000C268204606F048FB3A48006860B92C482E
:10B2E000C06848B13948006830B900202849C860B2
:10B2F00001203649086002E000203449086038BD6A
:10B300000A203349086027480068324909688842A2
:10B3100007D3244800682F490968401A2E4908605D
:10B3200006E02C4800681F490968401A2A4908604D
:10B330001F48006829490968884207D31C480068EB
:10B3400026490968401A2649086006E02348006833
:10B3500017490968401A224908601F4800681C49BB
:10B36000096888423ED30F4800684CF2FC7188425D
:10B370003CD80C4800680F4908600A480068154925
:10B38000086033E030090020200A0020F402002089
:10B39000500500201409002030030020C0020020C6
:10B3A000C1020020D4020020BE020020BF02002003
:10B3B000D8020020DC020020E4020020E00200208D
:10B3C000E80200202C030020C8080020B80200205A
:10B3D000FC0200202403002000030020280300209A
:10B3E00004030020FE480068FE490860FE4800682B
:10B3F000FE49096888420ED3FD48006847F652416D
:10B4000088420CD8FA480068FA490860F848006891
:10B41000F949086003E0F8480068F6490860704799
:10B42000F6490968EE4A1268914207D3F349096860
:10B43000EB4A1268891AF24A116006E0E849096885
:10B44000EE4A1268891AEE4A1160E9490968EA4A27
:10B450001268914207D3E6490968E74A1268891AD7
:10B46000E14A116006E0E4490968E14A1268891A74
:10B47000DD4A1160E2490968DB4A126811448142E1
:10B480003CD3DE4909684CF2FC72914217D8D4498A
:10B49000096861B1D9490968D14A1268114449085B
:10B4A000D04A1160D5490968CD4A116007E0D349F7
:10B4B0000968CC4A1160D1490968C94A1160CC4970
:10B4C000096847F65242914220D8CB49096861B1D8
:10B4D000C7490968C84A126811444908C54A116039
:10B4E000C3490968C44A116010E0C1490968C14AEA
:10B4F0001160BF490968C04A116007E0B84909688E
:10B50000B84A1160BC490968BA4A1160704700B571
:10B51000BA4800684CF22C01884205D9B44800684A
:10B5200047F2824188421FD8B4480068B0F5FA6FEC
:10B5300005D2AF48006847F28241884214D8AF482C
:10B5400000684CF22C01884204D9A9480068B0F583
:10B55000FA6F09D3A9480068B0F5FA6F17D2A4486A
:10B560000068B0F5FA6F12D20220A6490870A6480A
:10B57000D0F8E000B0F5487F05D9A448D0F8E00045
:10B58000B0F5487F2FD80020A14908702BE09B48D8
:10B5900000684CF22C0188420FD898480068B0F53A
:10B5A000FA6F0AD39248006847F28241884204D871
:10B5B0008F480068B0F5FA6F12D2012091490870E7
:10B5C0009148D0F8E000B0F5E17F05D98F48D0F878
:10B5D000E000B0F5E17F06D800208D49087002E058
:10B5E00000208849087000208A4908608548007852
:10B5F000022806D18848C06818B11C207B49086021
:10B6000074E080480078012806D18348C06818B1EA
:10B610001C207649086069E07F48C06818B11C208A
:10B620007249086062E07748007802281DD17648A8
:10B63000D0F8E0107548D0F8E000084440084FF416
:10B640009671B0FBF1F073490860084600680F2856
:10B6500004D37248C07B6549086047E06F486D4974
:10B660000968405C6149086040E06648007801284C
:10B670001DD16548D0F8E0106448D0F8E0000844D7
:10B6800040084FF49671B0FBF1F06249086008463B
:10B6900000680F2804D36148C07B5449086025E046
:10B6A0005E485C490968405C504908601EE05548A6
:10B6B0000078D8B95448D0F8E0105448D0F8E000E9
:10B6C00008444008FA21B0FBF1F0524908600846EE
:10B6D00000680F2804D35148C07B4449086005E046
:10B6E0004E484C490968405C404908603F49087829
:10B6F000FFF796FE00BD4A480068B0F5C86F10D944
:10B700004748006848F6103188420AD244484068E9
:10B71000B0F5C86F05D94248406845F630418842C7
:10B7200003D301203F49087002E000203D49087022
:10B730003B48006840F26C71884211D33848006879
:10B7400048F6801188420BD83548406840F29E7117
:10B75000884205D33248406845F6D221884202D952
:10B7600000202D49C86070472D4840682E4909685F
:10B77000884273D82D4800682B49096888426DD9E2
:10B780002548C06850B32A48006838BB01202849C2
:10B7900008602348406824490968081A254909684F
:10B7A000484301EE100AB8EE412A1D4840681F497F
:10B7B0000968081A01EE100AB8EE411AC2EE011A21
:10B7C0001A48006818490968401A15490968484329
:10B7D00001EE100AB8EE412A11482DE03EE00000CB
:10B7E00024030020DC02002004030020FC020020CF
:10B7F000D8020020E002002028030020D40200200C
:10B80000000300201803002030090020200A002037
:10B8100058030020F80200205005002008030020F3
:10B820001409002033030020F0020020B40200209D
:10B83000A0020020B00200204068DE490968081A12
:10B8400001EE100AB8EE411AC2EE012A71EEA20A08
:10B85000BCEEE01AD84880ED001A53E0D7484068A3
:10B86000D749096847F65242114488424AD3D4481E
:10B87000006811460844CF490968884242D9D14836
:10B88000C068E0B3D0480068C8BB0120CE4908605A
:10B89000CA484068CA4909681144401ACB49096836
:10B8A000484301EE100AB8EE412AC4484068C14935
:10B8B0000968401A01EE100AB8EE411AC2EE011AE8
:10B8C000BF48006811460844BA490968401ABB4994
:10B8D0000968484301EE100AB8EE412AB7484068AB
:10B8E000B4490968401A01EE100AB8EE411AC2EED6
:10B8F000012A71EEA20ABCEEE01AAF4800E001E0B6
:10B9000080ED001AB0480068012806D10220AE4937
:10B910000860A9480068A9490860A8480068AC49BF
:10B920000968884245D8A9480068A9490968884239
:10B930003FD9A448C068D8B3A6480068C0BB01205E
:10B94000A44908609D480068A1490968081A9949F6
:10B950000968484301EE100AB8EE412A974800688A
:10B960009A490968081A01EE100AB8EE411AC2EEA7
:10B97000011A9648006896490968401A8F49496833
:10B98000484301EE100AB8EE412A8C4800688F49FE
:10B990000968081A01EE100AB8EE411AC2EE012A2F
:10B9A00031EEA20ABCEEC01A8B4880ED001A52E0BC
:10B9B000FFE782480068864909684CF2FC7211442E
:10B9C000884248D382480068114608447F49096884
:10B9D000884240D97B48C068E8B37E480068D0BB45
:10B9E00001207C490860754800687949096811445C
:10B9F000401A70490968484301EE100AB8EE412A1E
:10BA00006E48006871490968401A01EE100AB8EEE4
:10BA1000411AC2EE011A6E480068114608446B498B
:10BA20000968401A65494968484301EE100AB8EEB2
:10BA3000412A6248006865490968401A01EE100A07
:10BA4000B8EE411AC2EE012A31EEA20ABCEEC01ACB
:10BA5000614880ED001A5F480068012806D1022085
:10BA60005C4908605C480068544948607047534826
:10BA700000685749096888420BD803205749087065
:10BA8000012057490870002056490870564908603F
:10BA900021E04A4800684E4909684CF2FC721144A2
:10BAA00088420CD303204D49087001204D4908708D
:10BAB00000204B49087010464B4908600BE00020FD
:10BAC00048490870464908703C4800684049096880
:10BAD000401A454908603948406839490968884230
