:020000040800F2
:10380000A80B002069390008DB4A000819430008AA
:10381000D94A00082140000825590008000000008E
:1038200000000000000000000000000049520008F5
:1038300055400008000000007D4B00083953000887
:103840008339000883390008833900088339000868
:10385000833900088D400008833900088339000847
:10386000833900083540000883390008833900088F
:1038700083390008DD53000883390008D554000857
:10388000F5540008833900080000000009540008BE
:10389000833900080D540008833900088339000873
:1038A0008339000883390008833900088339000808
:1038B0008339000800000000833900080000000080
:1038C0008339000800000000833900080000000070
:1038D00000000000000000000000000000000000E8
:1038E0000000000000000000515800080000000027
:1038F00000000000000000000000000000000000C8
:1039000083390008000000000000000000000000F3
:1039100000000000000000000000000000000000A7
:103920000000000000000000000000000000000097
:103930000000000000000000000000000000000087
:1039400000000000000000000000000045580008D2
:10395000DFF810D000F0A2F9004800478D6B000896
:10396000AFF30080A80B00200648804706480047B8
:10397000FEE7FEE7FEE7FEE7FEE7FEE7FEE7FEE71F
:10398000FEE7FEE73D5300085139000830B50B460D
:10399000014600202022012409E021FA02F59D427F
:1039A00005D303FA02F5491B04FA02F52844151E53
:1039B000A2F10102F1DC30BD70B5002425460028DB
:1039C00001DA01244042002901DA01254942FFF7CA
:1039D000DDFFAC4200D04042002C00D0494270BD17
:1039E00040EA01039B0703D009E008C9121F08C081
:1039F000042AFAD203E011F8013B00F8013B521E01
:103A0000F9D27047D2B201E000F8012B491EFBD277
:103A100070470022F6E710B513460A4604461946D9
:103A2000FFF7F0FF204610BDF0B480EA0102D40F8A
:103A30004200B2EB410F02D20246084611464A004C
:103A400042D0C30DDDB2C1F3C752AD1A202D35DA15
:103A5000C1F3160141F4000204B15242C5F120063F
:103A600002FA06F12A411044B3EBD05F23D0C4B16F
:103A7000012DA0EBC35009DCF0BC4FF0004202EA7C
:103A8000C352DBB200F5000000F0DAB8400000F1EC
:103A9000807000EBC350A0F1807040EAD170490003
:103AA00009E0490841EAC071A0EBC35000F50000ED
:103AB000400800EBC350F0BC00F0B9B861420122ED
:103AC00002EB4101001BF6E7F0BC704781F00041BA
:103AD000AAE780F00040A7E780EA010210B502F0F3
:103AE0000043400022D04A001FD0010E01EB1261BA
:103AF000C0F35600C2F3560240F4000042F4000244
:103B0000A0FB022000047F39140400D0401C50EABE
:103B1000124001D44000491EC2B20C0604EBD01082
:103B2000401C4008802A02D003E0002010BD20F095
:103B30000100002900DA0020184310BD30B480EAEB
:103B4000010202F0004530F0004221F0004013D0A5
:103B500090B1C30DD40DC2F31601C0F31600E41AE0
:103B600041F4000140F400027D34914201D3641C11
:103B700000E04900002C02DA30BC002070474FF40E
:103B800000000023914201D3891A034340084FEA01
:103B90004101F7D151B1914202D14FF0004105E00E
:103BA00002D24FF0010101E06FF0010103EBC450BC
:103BB000284430BC00F03BB8C10F80EAE0700844F4
:103BC000CA079623002100F03BB896230022114635
:103BD00000F036B800F0004220F00040C10DC0F304
:103BE000160040F400007F2901DA00207047962972
:103BF00003DCC1F19601C84001E096398840002AF3
:103C0000F4D04042704720F00040C10DC0F31600D0
:103C100040F400007F2901DA00207047962903DC78
:103C2000C1F19601C8407047963988407047002915
:103C3000A8BF7047401C490008BF20F00100704732
:103C400010B4B0FA80FC00FA0CF050EA010404BF92
:103C500010BC704749B1CCF1200421FA04F411FAE8
:103C60000CF118BF012121430843A3EB0C01CB1D2C
:103C70004FEA00614FEA102042BF002010BC70479D
:103C800000EBC35010440029A4BF10BC7047401C77
:103C9000490008BF20F0010010BC7047064C074DDA
:103CA00006E0E06840F0010394E80700984710340C
:103CB000AC42F6D3FFF750FE30A3000850A3000833
:103CC00070B58C1810F8015B15F0070301D110F8DE
:103CD000013B2A1106D110F8012B03E010F8016B0B
:103CE00001F8016B5B1EF9D12B0705D40023521E8E
:103CF0000DD401F8013BFAE710F8013BCB1A921CF6
:103D000003E013F8015B01F8015B521EF9D5A142F3
:103D1000D8D3002070BD10B501F0B0FF01F0A6FFB0
:103D2000BDE8104001F022BF10B501F00FFEBDE864
:103D3000104001F0F9BD000010B51848017800EB03
:103D400041004088002804D01448B8384079012840
:103D50001BD013490020C86002F0D0FA02F074F8BA
:103D600002F098FD02F0D0FD02F060FA02F092FA43
:103D700001F06CFA00F070F900F0B0FE094800782C
:103D8000042805D000F070FE04E002F01FF8E3E71D
:103D900000F052FEBDE8104000F02EB80C050020E7
:103DA000A40600202902002010B507480078062844
:103DB00009D1FFF7C1FF0449022030398871BDE8FD
:103DC000104001F0DFBC10BD8404002009480078D9
:103DD00006280ED2DFE800F00D030507090B01F0FD
:103DE00007B901F0D1B801F053B905F0D5BD05F020
:103DF000F5BD7047840400202DE9F00151493C20B5
:103E000008704870322088702D20C87028200871F2
:103E10001E20487188711420C87108724872887217
:103E2000C872087348730F238B73CB73464846F2EE
:103E3000540743F6A5458269C0694FF00008A1F117
:103E40000C04BA4201D9A8420FD840F65C4C624536
:103E500001D2A84209D841F24F06BA4201D9B04274
:103E600003D3624504D2B04202D20225A5700EE00F
:103E7000A2F65C4745F2F93C674503D2A84201D857
:103E8000B04202D20125A57001E084F80280C4F896
:103E900004802E4DED68ADB1401E632809D9501E37
:103EA000B0F5AF7F05D3A2F5BA42C03AB2F5BD7FF7
:103EB00002D21920A06000E0A360207ABDE8F001E2
:103EC00000F04AB82248234DA278B0F87400B5F843
:103ED00074504FF420762844022A0CD0012A18D0BE
:103EE000002A2BD14FF40C72B0FBF2F060600F2867
:103EF0001DD3A3601DE0B0FBF6F060600F2801D376
:103F0000A36001E0085CA060207ABDE8F00100F049
:103F100023B8B0FBF6F060600F2801D3A36001E086
:103F2000085CA060207ABDE8F00100F015B8085CDC
:103F3000A060207ABDE8F00100F00EB8BDE8F00105
:103F4000704700002003002054040020A406002035
:103F50003C050020B40500202DE9F0432E490F78E0
:103F6000042F06D0C0EBC03045F63A71B0FBF1F03B
:103F7000C0B22A4E736AB169B46ACA1AF169091BE0
:103F800000D54942002A00DA5242114481423BDB0B
:103F9000DFF88890D9F81810D9F824004A1E084490
:103FA0004508D9F81C00CBB2C1F30724D9F82890F2
:103FB000411E00F0FF0CC0F3072848444008042FBE
:103FC00011D042F69C77BA4202D83372747275628D
:103FD00041F6C352914204D886F80AC086F80B8095
:103FE000B062BDE8F08345F63977BA4202D8337241
:103FF0007472756243F687329142F2D886F80AC02D
:1040000086F80B80B062ECE73372180A7072B472F3
:10401000200AF072E5E70000290200205404002085
:10402000FEE7000002480021416101767047000070
:104030002402002010B50221002002F01BFB002802
:1040400007D00121002002F00BFBBDE8104001F079
:10405000B9BB10BD704700000A4846F23D620168D6
:10406000A1F2D351914208D2406840F2E751884210
:1040700003D344F6AF31884202D9034900200884B3
:1040800070470000C40600205404002070B50120D1
:1040900002F064FB002827D0144D6869F8B101F0E4
:1040A0004DF9002002F062FF1148006803F082F829
:1040B00040F20C5003F054F8284604F071F90D4C0E
:1040C000206840F001002060052002F067FA2068B7
:1040D00020F001002060E87B687300206861BDE883
:1040E0007040012002F034BB70BD000018000020B9
:1040F000140000200408005070B50646002000217E
:10410000094B084A5D791B7AEB1A03E032F811403B
:104110002044491C8B42F9D86D1E32F815103180AD
:1041200070BD0000E0060020840400202DE9F05F4F
:104130000024724EA04686F80880DFF8C4914FF440
:104140000041484602F06AFC40F2C62003F098FDA8
:1041500030786C4D6C4F04280DD03078052831D064
:104160003078032855D03078684F01285FD03078F8
:1041700002286AD076E0FFF7D7FD7978D1B1062919
:104180001CD078790844C01EB870B878010601D4F4
:10419000182801D987F80280B87803F07FFD2878C5
:1041A00040F2631110FB01F080B203F069FD287842
:1041B000307257E07879001FB870E6E77879001D13
:1041C000B870E2E7FFF7B0FD7978D1B106291CD0CD
:1041D000B8790844C01EB870B878010601D4102818
:1041E00001D987F80280B87803F076FD687840F24C
:1041F000631110FB01F080B203F042FD6878307269
:1042000030E0B879001FB870E6E7B879001DB870E3
:10421000E2E7FFF789FDB87903F05EFDA8788E210B
:1042200010FB01F003F02CFDA87830721AE0FFF7C4
:104230007BFD787803F050FD68788E2110FB01F04B
:1042400003F01EFD687830720CE0FFF76DFD7878A2
:1042500003F024FD28788E2110FB01F003F010FDFF
:1042600028783072C8464FF40071404602F0D6FB01
:10427000472003F005FD4FF4807B5946404602F08D
:10428000CDFB244DDFF88CA0214FDFF88890083D4E
:104290000AF1440A15E0641C022001F0DFFCD9F8A1
:1042A000000040F48000C9F80000012003F0E8FCA1
:1042B00028688007FCD5DAF8000020F00F0027F806
:1042C00014007079317A401AA042E4DC707937F832
:1042D0001410401E27F8101001F074FA5946404699
:1042E00002F09EFB4FF40071404602F099FBFFF78D
:1042F0001BFDBDE8F05FFFF769BD000084040020EE
:104300000004004830030020A00400208E04002098
:10431000E006002008240140FEE700002DE9F05FE0
:1043200002F044FB032877D102F028FB50B903F0D8
:1043300097FE012003F09CF81423FE4A0321FE4857
:1043400004F0B6FBDFF8F48398F8050002F0DAF821
:10435000002861D0FA4EFB4809273179DFF8E8B32D
:104360000024FA4D4FF00309032901D1717971B18D
:10437000F179FF2950D0B279022A4DD37279012AFE
:104380004AD1328C4FF0010A002A74D0BBE088F881
:104390000640802102F044FB98F80500012805D072
:1043A000C021022839D0042866D172E02F703474FD
:1043B0006C7098F80100012803D1DBF80000022896
:1043C0000ED0B08CA870000AE870308D2871000AF9
:1043D0006871AC71EC71812002F0D6FA88B115E0F9
:1043E00098F80320D6E9090100F0E2FEB8F80800C9
:1043F000A870000AE870B8F80C002871000A68710B
:10440000E7E70822D149812003F0A6FD34716878DE
:1044100090B386F804905FE070E007202870317454
:10442000697098F80100012803D1DBF80000022828
:1044300010D0B08CA870000AE870308D2871000A86
:104440006871AC71EC712C726C72822002F09CFA73
:1044500098B117E098F80320D6E9090100F0A8FE0A
:10446000B8F80800A870000AE870B8F80C002871C5
:10447000000A6871E5E743E00AE00A22B3498220B6
:1044800003F06AFD34716878C02825D086F804905E
:1044900022E002272F7031746970B08CA870000A76
:1044A000E870308D2871000A6871AC71EC712C7263
:1044B0006C72AC72EC72832002F066FA20B90C22A6
:1044C000A249832003F048FD34716878C02802D0E7
:1044D00086F8049000E037717462B46234849C49B9
:1044E000CC609C4884604C6004608C604460C46014
:1044F000046144610476447697480470BDE8F09FF7
:10450000A9B1042913D0802102F088FA88F8064066
:10451000B471B37CC42191481D22A3B183787BB1CF
:1045200098F80530042B1BD0B172F27218E098F89D
:1045300006000028ECD188F806A088F80740E7E7D5
:10454000B472F4720CE0F37C53B1837813B1B4729B
:10455000F47205E098F80530042B01D0B172F272C4
:10456000337D9D212F225BB1407830B198F8050052
:10457000042812D0317272720FE0347274720CE03F
:10458000737D53B1407810B13472747205E098F8BD
:104590000500042801D03172727298F805000128D4
:1045A00006D0A121A027022851D004282DD1FDE05A
:1045B000308C68B1307978B1F0790AEB4000307412
:1045C0002F70307C687098F80100012809D00CE049
:1045D000F07940003074F3E7F079400030743484AF
:1045E000EEE7DBF80000022810D0307AA870707A6D
:1045F000E870B07A2871F07A6871308CA871000A7E
:10460000E871812002F0C0F9D8B1CBE1307A717A3B
:1046100000EB0120C8F80800B17AF27A01EB022120
:10462000C8F80C1098F8032000F0C2FDB8F8080094
:10463000A870000AE870B8F80C002871000A6871C8
:10464000DBE708224149812003F086FCAAE1308C97
:1046500048B1307960B1F07901EB40003074307CC2
:10466000A0280BD00CE0F07907EB40003074F6E79F
:10467000F07907EB400030743484F0E736490C7071
:10468000A92801D1A420307407202870307C6870DC
:1046900098F80100012803D1DBF80000022818D0A7
:1046A000307AA870707AE870B07A2871F07A687100
:1046B000308CA871000AE8712948007828722948CE
:1046C00000786872307CC1071ED098F80010F1B1F4
:1046D00061E0307A717A00EB0120C8F80800B17A05
:1046E000F27A01EB0221C8F80C1098F8032000F0D0
:1046F0005FFDB8F80800A870000AE870B8F80C0070
:104700002871000A6871D3E788F8004043E088F810
:1047100000A0A1283FD1072028706F70AC71EC7108
:10472000822002F031F90028FAD1822002F02CF91F
:10473000F8B919E0E003002018000020240200204E
:104740005404002000040048C4020020F8030020A4
:10475000A4060020C40600204903002040020020D7
:1047600014030020150300200A229649822003F03A
:10477000F3FB954C204603F0BFF9822002F004F9C8
:104780000028FAD1307C6870308CA871000AE8717A
:10479000204603F0B6F9822002F0F6F8002804D192
:1047A0000A228849822003F0D7FBFBE0308CE8B373
:1047B0003079E0B3F07901EB4000307402202870CA
:1047C000337C6B70307AA870707AE870B07A287198
:1047D000F07A6871308C00F0FF0C85F806C04FEA63
:1047E000102B85F807B0794801782972784802784B
:1047F0006A72AC72EC727748DFF8DCE1006801287D
:1048000029D0022834D003283FD004284BD00528D3
:1048100055D0062865D0072872D008287DD00928F1
:104820006DD085F806C085F807B001E008E00CE01F
:1048300029726A72D8076FD098F8000090B3A8E088
:10484000F07907EB40003074B8E7F07907EB4000EF
:1048500030743484B2E76148B0F87400A871000A7B
:10486000E8719EF8050028729EF80600687290E0D4
:104870005B48B0F87400A871000AE8719EF8050062
:1048800028729EF80600687283E05648B0F87400FB
:10489000A871000AE8719EF8050028729EF80600CB
:1048A000687276E04CE050480088A871000AE87110
:1048B0009EF8050028729EF80600687269E0474875
:1048C000B0F874104648B0F8740008444108A97163
:1048D000400AE8719EF8050028729EF8060068728A
:1048E00057E042480088A871000AE8719EF8050068
:1048F00028729EF8060068724BE001E00DE014E0BB
:104900003B480088A871000AE8719EF805002872EB
:104910009EF8060068723CE00FE036480088A871F7
:10492000000AE87129726A7233E033480088A8717E
:10493000000AE87129726A722BE088F8004028E0CA
:1049400088F800A0A12B24D1022028706F70AC71D0
:10495000EC71832002F018F80028FAD1832002F0CD
:1049600013F820B90C221749832003F0F5FA164CEE
:10497000204603F0C1F8832002F006F80028FAD19F
:10498000307C6870308CA871000AE871204603F012
:10499000B8F8832001F0F8FF20B90C2209498320E0
:1049A00003F0DAFA707A317A01EB00207062F07A63
:1049B000B17A01EB0020B062308CB08586F80490AB
:1049C0009CE50000F803002000440140140300208F
:1049D00015030020C0020020A00400203C05002098
:1049E000B40500202C060020580300201C030020E2
:1049F000C4030020A8030020AA03002010B50A2148
:104A00000B48FFF706F80A4830213038FFF701F865
:104A1000084800210160017101F03CFD03F006FA35
:104A200003480121017101703221417110BD000064
:104A3000840400203003002009490A484A78002AEB
:104A400004D0826945F63A739A1A826189780029FE
:104A500004D0C16943F68832511AC1617047000021
:104A6000400200205404002070B5194945F63975FC
:104A70006A1C88695310441EAC4205D85410604328
:104A8000B0FBF2F0886103E010B1904200D98B6175
:104A9000C86943F68736721C451E5410B54205D8C6
:104AA00055106843B0FBF2F0C86103E010B19042CA
:104AB00000D9CC610748427812B18A699A1A8A6192
:104AC0008078002802D0C869201AC86170BD000033
:104AD0005404002040020020FEE7704770B5254CCA
:104AE00040F6F6150123216800222348A94203D984
:104AF00040F64C05A94202D20375826100E00275BE
:104B000046F6301645F63A75B14203D846F6882681
:104B1000B14202D94375856100E04275A1F6F611F4
:104B2000A94200D88161616840F63514A14203D9D9
:104B300040F62914A14202D28374C26100E082745B
:104B400044F2BD4543F68834A94203D844F2705577
:104B5000A94202D9C374C46100E0C274A1F6351140
:104B6000A14200D8C161817C11B9017D002900D02A
:104B7000028470BDC4060020540400207047FFB5B5
:104B800089B0099808900A9C0B9F0C9D1298079079
:104B900013980690149EE01B411B079808180028E4
:104BA0002AD00898001BC01B4019002824D0A54219
:104BB00011DBE21B531B079A9918621B72431046C4
:104BC000FEF7FAFE01460698704308180290FEF7B9
:104BD000F3FF059010E0089A121BD21B5119621BBB
:104BE00072431046FEF7E8FE014606987043081827
:104BF0000290FEF7E1FF05907800001B401B40008B
:104C0000002810D07A00121B521B5100621B724305
:104C10001046FEF7D1FE014606987043401A0290F6
:104C2000FEF7CAFF049005990498FEF74FFF019024
:104C3000FEF7D0FF0290002801DB029801E0029805
:104C40004042B04207DD0498FEF7C4FF0290FEF731
:104C5000B3FF03900DE004990598FEF7E5FE01907F
:104C6000FEF7B8FFC20F111802904810FEF7A4FF1C
:104C700003900398FEF7C7FF0DB0F0BDF0B58BB001
:104C800004460D4616461F4600200A90781EC7B2FD
:104C90006800001B801B3FD0A9006200A218891A7F
:104CA000881B002801DB014600E0414209916900B0
:104CB000091B881B002801DB014600E041420891E6
:104CC0000898FEF782FF06900998FEF77EFF059090
:104CD0000699FEF733FF079010994808FEF775FF15
:104CE000059010994808FEF770FF01900799FEF7AC
:104CF000F3FE0390109979430846FEF766FF029091
:104D00000399FEF791FE04900599FEF7DFFE0690E9
:104D1000FEF779FF0A9001E000200A900A980BB094
:104D2000F0BD000070B590B005460E461446202236
:104D3000294608A8FEF754FE1C22314601A8FEF7BA
:104D40004FFE01990998884205D901990998401A9E
:104D50007D49086004E009990198401A7A49086081
:104D600002990A98884208D902990A98401A764905
:104D7000096840187449086007E00A990298401AC7
:104D8000714909684018704908606F480068322806
:104D900003D200206D49087002E001206B490870C1
:104DA0000B9800285DD0608A67490968884203D261
:104DB000608E674908607BE0208A63490968884201
:104DC00003D2208E6249086072E0E0895E4909687A
:104DD000884203D2E08D5E49086069E060885A49E4
:104DE0000968884203D2608C5949086060E0A08855
:104DF00055490968884203D2A08C5549086057E09C
:104E0000E08851490968884203D2E08C5049086023
:104E10004EE020894C490968884203D2208D4C49D4
:104E2000086045E0608948490968884203D2608D7E
:104E3000474908603CE0A08943490968884203D299
:104E4000A08D4349086033E020883F4909688842C3
:104E500003D2208C3E4908602AE0E08B3C49086080
:104E600026E0E08938490968884203D2A08B384996
:104E700008601DE0608834490968884203D2208BAD
:104E80003349086014E0A0882F490968884203D29A
:104E9000608B2F4908600BE020882B490968884205
:104EA00003D2E08A2A49086002E0A08A2849086003
:104EB00027480068012805D1002004900590694624
:104EC000087714E00DE001990498401A04900299C3
:104ED0000598401A05906846007F401EC1B268469A
:104EE00001776846007F1A4909688842EBD2099920
:104EF0000498401804900A9905984018059068464F
:104F0000007F401CC1B268460177007F00280CDD9D
:104F10006A46117F0498FEF739FD01906A46117FB9
:104F20000598FEF733FD029006E0099801900A9873
:104F300002900020694608771C2201A93046FEF73E
:104F40004FFD10B070BD0000C00300209E03002084
:104F5000C403002010B50B4C8021204601F05EFDFB
:104F6000002247F230534FF4FA700021491C994255
:104F7000FCD3521C8242F8D32046BDE81040802169
:104F800001F04EBD0004004810B51748FFF7B4F813
:104F900001F0F0FA144910390878012823D1487833
:104FA000401CC0B24870182819D301F15203CA89B5
:104FB000986802F58C7290420DD95A784A7180B285
:104FC000088103220A390A70084900F0DBFEBDE8B7
:104FD000104000F09FBBBDE8104000F045BBBDE8AD
:104FE000104002F041BE10BD9E040020300300209E
:104FF00010B52548FFF780F801F0BCFA22481038B8
:10500000017800293FD14178491CC9B2417010296B
:1050100006D901790122072906D0491C0171427085
:10502000BDE8104002F020BE174C4234A168B1F533
:105030008C7F24D9A37803716378837141810270D6
:105040004270018AC181A4F18C0100200871022004
:10505000303108703021A4F12C00FEF7DAFC302149
:105060002046FEF7D6FC2089084C80B2611C00F077
:1050700089FE6078A070BDE8104002F0F5BDBDE883
:10508000104000F0F1BA10BD9E0400203003002053
:1050900070B5124C04F16C05607805EB4000801C83
:1050A000FFF72AF8617805EB81025061491CC8B20C
:1050B0006070052803D3BDE8704000F0C1BF2079BF
:1050C000401CC0B22071272803D9BDE8704000F011
:1050D000CBBABDE8704002F0C7BD0000A0040020BC
:1050E00070B590B0044620221E4908A8FEF778FC4F
:1050F00020221C4920316846FEF772FC002108ADD1
:1051000055F82100A0421FD24A1C134655F8222010
:10511000A24219D35DF823305DF82110261A5B1ADC
:10512000734300EE103A101AB8EE401A00EE100A5F
:10513000B8EE400AC1EE000A00EE101AB8EE400ABE
:1051400030EE800A072103E000EE104AB8EE400A74
:10515000491C89B20729D3D3BDEEC00A10B010EEA6
:10516000100A70BDF0A2000810B507230E498A6826
:1051700004E04C69A41A4C61401E4876487E98426F
:10518000F7D20A484B69426813444B61487E401C81
:10519000C0B2487618B1B3FBF0F0886010BD8A60E9
:1051A0000020487610BD0000C406002048030020FF
:1051B00030B5002A01D0042A00D904221F4C012A4C
:1051C00020D041F6C4535B1A022A1ED042F69D75C8
:1051D000281A032A2ED0042A13D141F2BF225143A8
:1051E00040F6B832B1FBF2F1A16000EE100ADFED3B
:1051F000140AB8EE400A20EE200ABCEEC00A84ED84
:10520000030A30BDA060E16030BD00EE103ADFED72
:105210000D0AB8EE400A20EE200ABCEEC00A84ED6A
:10522000020A40F6B831484341F2BF21B0FBF1F029
:10523000E06030BDA060E36030BD000024020020CB
:105240008908203FE1C1CC3F7047000000B58FB016
:10525000C820ADF804004FF49660ADF806004FF496
:105260004870ADF808004FF41670ADF80A004FF41E
:10527000FA70ADF80C004FF4C870ADF80E004FF4A2
:105280009670ADF810004FF47A60ADF8120040103F
:10529000ADF81400ADF816000F20ADF818000A2084
:1052A000ADF81A000821ADF81C100921ADF81E1048
:1052B0000722ADF820201E23ADF822300C23ADF8D4
:1052C00024300523ADF826300623ADF82830ADF89C
:1052D0002A20ADF82C10ADF82E000B20ADF83000D0
:1052E0000420ADF83200ADF83400ADF836000F48B8
:1052F000818D0020002908D10D4940F2DC52C96897
:10530000914202D3ADF8380002E00121ADF8381027
:10531000BDF8381019B90749C8600861087601AAB4
:1053200004490348FFF7FEFC0FB000BD5404002001
:10533000A4060020C4060020704700002048016831
:1053400041F4700101601F48016841F001010160F2
:1053500001688907FCD541681B4A114041604168DA
:105360001A4A11404160416821F440014160016BDB
:10537000174A114001630168164A11400160C16A71
:10538000154A1140C162016B40F20312914301635F
:10539000016B21F480310163016B21F00041016355
:1053A000416B21F001014163D0F8C01021F480313C
:1053B000C0F8C01000218160C0F8CC1002F0A4B881
:1053C00088ED00E0001002400C00FF08FFFFC277EC
:1053D000BFFFFFBFFFFFF2FEF0FFFF3F10B5094C1C
:1053E0000121204602F099FB00280AD00121204625
:1053F00002F090FB204602F07FFBBDE81040FEF774
:1054000095BE10BD002C014002F0F0B870B52C4CD8
:105410000121204602F081FB002850D025460121C1
:10542000284602F077FB02F0FBFC254C2C34E0B35D
:1054300002F020FCC4202060224804782349224B3B
:10544000234AA1F15000062C39D2DFE804F03803DA
:105450000D171F271A7931F8121010F8111058780B
:10546000BDE8704002F07EBC1A7931F8121010F8D5
:1054700011105878BDE8704002F04CBC117910F85A
:1054800011109079BDE8704002F06CBCD17810F832
:1054900011105079BDE8704002F03CBCD17810F892
:1054A00011109079BDE8704000E001E002F05ABCB4
:1054B000322020602846BDE8704002F022BB70BD5B
:1054C00000440140840400208E040020D49D000884
:1054D000A004002010B501218C07204602F01DFB1E
:1054E000002805D02046BDE81040012102F012BB83
:1054F00010BD000010B5084C0121204602F00DFB44
:10550000002807D00121204602F004FB034801686F
:10551000491C016010BD0000000400403803002059
:105520002DE9F04140F2125001F01AFE0024254E00
:1055300006F1180706EBC40556F8340000220121D5
:105540006B6801F06FFA56F83400696801F066FA8A
:1055500007EBC40557F83400002201216B6801F005
:1055600061FA57F83400696801F058FA641CE4B233
:10557000032CDFD30024134E303606F1300706EB40
:10558000C40556F83400002201216B6801F04AFA84
:1055900056F83400696801F043FA07EBC40557F880
:1055A0003400002201216B6801F03CFA57F8340006
:1055B000696801F035FA641CE4B2032CDFD3BDE85E
:1055C000F0810000389E000870B540F2115001F0E3
:1055D000C7FD40F2125001F0C3FD40F2135001F03C
:1055E000BFFD40F2145001F0BBFD1D4D4FF40054BF
:1055F000234600220121284601F014FA21462846BC
:1056000001F00CFA174D802300220121284601F0F9
:1056100009FA8021284601F003FA6411234600228A
:105620000121284601F0FEF92146284601F0F6F94D
:10563000E401234600220121284601F0F3F9214626
:10564000284601F0EDF9A411234600220121284645
:1056500001F0E8F921462846BDE8704001F0E0B9C4
:10566000000800480004004870B512212248FEF7E7
:10567000D0F9214812211230FEF7CBF91E482C2117
:105680002630FEF7C6F91C482C215230FEF7C1F92E
:10569000194C02206070A4F13A0300219971174A55
:1056A0001170174A1170174A1170FF22DA7103F155
:1056B000300501222A70144A0A25D57091701170A4
:1056C0005170198403F51473596003F120021160BD
:1056D00099605160D9609160D1601161516111761A
:1056E00051762179094A32F81110094A12F811103D
:1056F000BDE8704002F036BB8E0400202A02002074
:10570000140300201503002030030020D49D00085E
:10571000849D000810B530211748FEF77AF9164825
:1057200030216C30FEF775F91C211448FEF771F931
:105730001148114A12388179917143795371C389A3
:10574000D38100790E4B13F81000D070002302288B
:1057500002D9801E107100E01371074A03201C3A21
:105760001070A2F130008371102903D8BDE81040F9
:1057700002F07ABA10BD0000A0040020C406002088
:10578000D49D0008074900224A70C878022802D92F
:10579000801E087100E00A71024903201C3908705C
:1057A00002F062BAA0040020AFF30080014900209B
:1057B0008871704784040020014880797047000098
:1057C000840400200149012088717047840400206E
:1057D00010B55A2801D95A2204E00A2801D2012220
:1057E00000E00246064C6521E1620121204602F0FC
:1057F000D9F82046BDE81040012102F013BA00009C
:105800000040014010B50D4908600D490B78242275
:10581000032B11D04A72094C42082C3C002120462F
:1058200002F0C0F80121204602F0FCF92046BDE854
:105830001040012102F06AB94A72ECE72C2C0140B9
:1058400084040020014803F0F3BE0000180000208B
:1058500010B50D48807900280FD0FFF76FFD0020AC
:1058600001F084FB0948006801F0A4FC40F20C50F0
:1058700001F076FC044802F093FDBDE810404FF4BF
:10588000802000F065BF00001800002014000020F8
:105890002DE9F041064640F2115001F061FC20482C
:1058A000008801F05DFC1E4C4FF090470C34012144
:1058B0003846226801F080F8251D012138462A6803
:1058C00001F07AF8012202213846236801F0AAF893
:1058D000012200213846236801F0C8F80122022184
:1058E00038462B6801F09EF80122002138462B68CB
:1058F00001F0BCF8304602F073FB4FF4E131304662
:1059000002F03CFB0421304602F09AFB08213046AD
:1059100002F09EFB3046BDE8F04102F07FBB000084
:105920004C020020FEE7000070B50024064D05EB98
:10593000C400416855F8340001F072F8641CE4B208
:10594000032CF4D370BD0000689E000870B50024DD
:10595000064D05EBC400416855F8340001F060F8CD
:10596000641CE4B2022CF4D370BD0000989E0008C1
:105970000FB4054B10B503A9044A029800F018F8BB
:1059800010BC5DF814FB00006D680008DC0300200B
:1059900002E008C8121F08C1002AFAD170477047F8
:1059A000002001E001C1121F002AFBD17047000056
:1059B0002DE9FF4F89B09B460446002506E02528C7
:1059C0000BD05A460B999047641C6D1C2078002818
:1059D000F5D10DB02846BDE8F08F0027B84601226A
:1059E000474900E0074314F8013F203B02FA03F067
:1059F0000842F7D120782E2819D114F8010F47F06A
:105A000004072A280ED06FF02F022078A0F1300171
:105A100009290CD808EB880102EB410100EB0108D1
:105A2000641CF2E70A98641C50F8048B0A902078F2
:105A30000028CED0642808D0692806D075281ED04A
:105A40005A460B9990476D1C58E00A994FF00A0985
:105A500001C90A91002802DA40422D2102E03905ED
:105A600004D52B218DF82010012103E0F90704D083
:105A70002021F7E78A4608AE0DE00021FAE70A99EF
:105A80004FF00A0901C90A91F7E74946FDF77EFF81
:105A9000303106F8011D0028F7D1ADEB060000F10A
:105AA0002009780701D44FF00108C84502DDA8EBB2
:105AB000090000E000208046002706E008A85A46BA
:105AC000C05D0B9990476D1C7F1C5745F6DB04E0C9
:105AD00030205A460B9990476D1CB8F10001A8F18F
:105AE0000108F5DC05E016F8010B5A460B999047C2
:105AF0006D1CB9F10001A9F10109F4DC641C65E732
:105B0000092801000748016841F0080101600168A7
:105B10000907FCD4016841F00401016001684907EC
:105B2000FCD4704708240140491E01280ED00228E9
:105B30000BD10D48026822F44012026002684FF453
:105B4000401303EA01510A430260704706480C38CB
:105B5000026822F47002026002684FF4700303EAE4
:105B600001510A43026070473824014010B50021FA
:105B7000022000F0DBF84FF46021012000F056F81D
:105B8000002000F017F801210846FFF7CDFF0122A1
:105B90000921002000F080F80121084600F026F8D5
:105BA00000F018F8012000F0F9FCBDE81040FFF704
:105BB000A9BF00000649002804D0086840F400602E
:105BC00008607047086820F40060086070470000B3
:105BD0000824014004480168C90703D1016841F065
:105BE0000101016070470000082401400E4A0029AD
:105BF0000CD0C10703D0116841F4801111608007F7
:105C000003D5106840F4004010607047C10703D00E
:105C1000116821F4801111608007F6D5106820F416
:105C20000040106070470000082401400A4A012823
:105C300009D0022806D1106820F4E04010601068F6
:105C4000084310607047106820F4602010601068EE
:105C500008431060704700000824014002490A68A8
:105C600082430A60704700000024014002230022A2
:105C70000321014800F0D6BE0004004810B540F2F0
:105C8000125001F06DFA40F2096001F069FABDE8C6
:105C90001040032001F0EEB830B51F2306280AD2C9
:105CA000214D2C6800EB800083409C4301FA00F3F7
:105CB00023432B601CE00C280CD21B4D2D1F2C689D
:105CC000801F00EB800083409C4301FA00F32343D4
:105CD0002B600DE010280BD2134D083D2C680C38BA
:105CE00000EB800083409C4301FA00F323432B60C8
:105CF00007240A290AD20C4D243D2B6801EB4100F0
:105D00008440A34382401A432A6030BD1329FCD249
:105D1000054D283D2B680A3901EB41008440A3431F
:105D200082401A432A6030BD34240140144B1A1FAC
:105D3000002912D0C10503D5116841F480711160AA
:105D4000410503D5116841F480611160800703D5D6
:105D5000186840F0020018607047C10503D511684B
:105D600021F480711160410503D5116821F480612F
:105D700011608007F0D5186820F0020018607047A5
:105D8000082401400A7840F63E1398420CD940F6A8
:105D9000B863984202D90A32D2B201E0921CD2B260
:105DA000282A11D928220FE0B0F59B6F0CD85AB1E0
:105DB0003E2807D20A2A02D90A3AD2B204E0921E39
:105DC000D2B201E0921ED2B20A707047F8B51848FC
:105DD000C378184C20784FF496510091411C04EB85
:105DE00081014A6904EB8001401E04EB800049698F
:105DF0004069FEF743FF1049C860104CA0604FF4A3
:105E00001661B0FBF1F1E1600D4B4A1C53F82250D2
:105E100053F82130EE1A0B4D55F82110401A464325
:105E200055F82200401AB6FBF0F018446060F8BD47
:105E3000A00400200C050020A40600204803002038
:105E400090A00008C0A100082DE9F041714F724CEC
:105E5000724EF879002500280ED06576656170686D
:105E60000A21B0FBF1F131613860F9796C4C032300
:105E700041F6FF7249B112E0FFF776F9694970689F
:105E80008842ECD9A0687060E9E7D6F814C0BCF18C
:105E9000010F07D0D6F818C0BCF1030F02D00129BA
:105EA0005BD064E060490969FF2954D95F4941F634
:105EB000C81C0144614536D27078012804D0757041
:105EC0003570FD71E56041E03078401CC1B2317041
:105ED000042904D33370FD71E560757036E0706B92
:105EE00000EB401C4FEA4C084FF0640CB8FBFCFC84
:105EF000C4F80CC001290AD002290ED0062825D9E1
:105F0000400AE060062821D20620E0601EE0A0EBF7
:105F1000D001A1EB1010E06018E0A0EB9001A1EB24
:105F2000D000E06012E03F494942084447F6B4011E
:105F300088420AD2C0EB403043F2C821B0FBF1F0F6
:105F4000E06001207070357000E0E560E06890422C
:105F500033D3E26031E0E5602FE0D6F81CC0BCF13D
:105F6000030F07D0D6F820C0BCF1030F02D00229DE
:105F70001CD021E02E4942F2FB1C0144614501D2B4
:105F8000E5600EE02B49084443F6AC71884207D225
:105F9000C0EB403042F26C01B0FBF1F0E06000E099
:105FA000E560E068904208D3E26006E0716A032988
:105FB00006D0B16A032903D0E560F879E0B11DE0AD
:105FC0001D4941F2873C0144614501D2E5600EE084
:105FD0001A49084443F68C41884207D2C0EB40304E
:105FE00041F62C21B0FBF1F0E06000E0E560E068F4
:105FF0009042E2D3E260E0E7E0687063387908B984
:10600000E5603B71E068FFF76BF8E0603884BDE85D
:10601000F081000054040020C40600204803002042
:10602000A4060020ACC407000C0500201C55F8FF96
:10603000D706F9FFDCE4F8FF2FA5F8FFA891F8FFD9
:106040002DE9F041002000210022244E06F16C04CD
:10605000757808E004EB80035B69934201D91A4626
:106060000146401CC0B28542F4D81C4F04EB4105E8
:106070004C3F6B884FF4A07C7879634500D910B110
:10608000012803D006E00120787103E0634501D2C6
:106090000020787111480229C07803D98B1E18445A
:1060A000F07003E0C1F10203C01AF07022612170A8
:1060B0000B484260017069880181F078401E2728F2
:1060C00002D3FFF7D1FA05E001F0E0FE6888054948
:1060D000FFF758FE0020BDE8F0810000A00400207A
:1060E000980600203203002070B500200021002215
:1060F000224CA4F19C056E780AE000EB400304EB0F
:1061000083035B68934201D91A460146401CC0B222
:106110008642F2D801EB410004EB80031889B0F508
:10612000A07F07D2FFF7A0FA14490020E839487190
:10613000022070BD11489C380329407908D9CE1E31
:106140003044C0B2687118280CD91820687109E071
:10615000C1F10306801BC0B26871182800D808B9C5
:10616000012068716C3462602170188920810449B3
:10617000FFF708FE01F09CFE052070BD3C050020E5
:106180003003002070B5002000210022244CA4F52B
:106190008A756E780AE000EB400304EB83035B68CA
:1061A000934201D91A460146401CC0B28642F2D839
:1061B00001EB410004EB80031889B0F5A07F06D203
:1061C000FFF752FA174900204871012070BD1548A9
:1061D0004C300329807908D9CE1E3044C0B2A87152
:1061E00010280CD91020A87109E0C1F10306801B0A
:1061F000C0B2A871102800D808B90120A8716C3469
:1062000062602170188920810749FFF7BBFD0549AD
:10621000062030310870FFF7D5FA052070BD000068
:10622000B4050020540400203103002070B5174D40
:1062300040F262516868884201D2696070BD46F2DE
:106240008661884203D947F27C00686070BD0020F7
:106250000F4C6A6854F820108A4211D9431C54F834
:1062600023309A420CD8521A40F28F167243591AB0
:10627000B2FBF1F100FB061000F2625068604420AE
:10628000401C80B24428E4D370BD0000A406002066
:10629000C89E000870B5174D40F2BE51A8688842EC
:1062A00001D2A96070BD44F29031884203D944F60E
:1062B000C540A86070BD00200F4CAA6854F820109B
:1062C0008A4211D9431C54F823309A420CD8521AEE
:1062D00040F28F167243591AB2FBF1F100FB06101F
:1062E00000F2BE50A8602C20401C80B22C28E4D3C1
:1062F00070BD0000A4060020DC9F0008F0B5534AE2
:10630000534841F6C8145168524B0E18012500201D
:10631000A64211D25169491C516139B1D8715561F8
:106320009061D061106250629062F0BD9061D06166
:10633000106250629062F0BD474C47F6B4070E19E8
:106340000324BE4212D29169491C9161032907D3EB
:10635000D87150619461D061106250629062F0BD5A
:106360005061D061106250629062F0BD3B4E42F2CB
:10637000FC170E44BE4212D2D169491CD1610329D7
:1063800007D3DD7150619061D461106250629062F8
:10639000F0BD50619061106250629062F0BD304E6D
:1063A00043F6AC770E44BE4212D2116A491C116208
:1063B000032907D3DD7150619061D061146250628E
:1063C0009062F0BD50619061D06150629062F0BD0A
:1063D000244D41F288374E190225BE4212D2516A2D
:1063E000491C5162032907D3DD7150619061D0616E
:1063F000106254629062F0BD50619061D061106291
:106400009062F0BD184E314443F68C46B14212D230
:10641000916A491C9162032907D3DD715061906133
:10642000D061106250629462F0BD50619061D061A1
:1064300010625062F0BDFF21D97150619061D0614E
:10644000106250629062D0621063F0BD4803002079
:106450001C55F8FF54040020543BF8FFD806F9FF00
:10646000DCE4F8FF30A5F8FFA891F8FF074A017AAD
:106470001278914201D0012070470549007B0978CC
:10648000884201D00120704700207047260200207A
:106490002802002070B5A0B080216846FDF7B9FA47
:1064A0000024164D17226946284601F0ADFC009BDA
:1064B00042F6BD0012494FF41362834206D1019B9C
:1064C000934203D18E8C139BB34214D0009001925F
:1064D0006A4601EB4400A31C408842F82300641C78
:1064E000E4B2152CF5D3284601F064FC1722694666
:1064F000284601F070FC20B070BD0000003000089C
:10650000669A000800B5012805D002280BD004289F
:1065100011D0002000BD812000F036FA08B1002023
:1065200000BD012000BD822000F02EFA08B100203D
:1065300000BD012000BD832000F026FA08B1002034
:1065400000BD012000BD0000002009494978002954
:1065500001D00120704706490C310A5C0AB10120C4
:106560007047401CC0B20828F7D3002070470000D5
:1065700080030020B0F58C7F0CD90749CA6882429D
:1065800008D2C860A1F15200028A8A6042784A703B
:106590000079887070470000E004002010B5064CB8
:1065A0002060012000F00CF820680028FCD1BDE834
:1065B0001040024801F0A0BA38010020002000403D
:1065C0007FB504464FF4E16000F0CAFD194D28463E
:1065D00001F022FA022C02D0012C03D005E00B209E
:1065E000029002E042F6DF60029013480078ADF8B6
:1065F00000000020ADF80200ADF80400ADF8060080
:106600008DF80C006946284601F08EFA284601F004
:1066100017FB0121284601F0D7FA0121284601F095
:1066200079FA0121284601F010FB284601F069FAA9
:106630007FBD0000002000401000002010B5064C77
:1066400020600220FFF7BCFF20680028FCD1BDE8D5
:106650001040024801F050BA3801002000200040EC
:10666000034A5368800081400B4353607047000029
:106670000000024070B50023002286000C46124D37
:10668000B14000EB800005EB8000022C04D0042C0C
:1066900008D0082C11D10BE02A680A40806800F06D
:1066A00002030AE02A680A40806800F0040304E05C
:1066B0002A680A40806800F0080312B10BB101207B
:1066C00070BD002070BD000000000240F0B51B4E00
:1066D000336883433360351D2B6883432B602B1D48
:1066E0001C6884431C601C1D2768874327600029A1
:1066F00002D0012907D103E031680143316002E093
:1067000029680143296052B1012A0FD0022A05D11C
:10671000196801431960216801432160F0BD1968BF
:1067200001431960216881432160F0BD19688143EC
:106730001960216801432160F0BD000000040140A0
:1067400002490A6802430A607047000000040140E1
:1067500001490860704700001404014006490A68B6
:1067600002400549143909680140002A02D009B1E4
:106770000120704700207047140401400149C8609F
:1067800070470000002002400248016941F080018A
:10679000016170470020024070B505464FF4702635
:1067A000304600F017F8002810D1094C206940F05D
:1067B000020020616561206940F0400020613046A0
:1067C00000F008F8216921F00201216170BD00008C
:1067D0000020024000B5034600F00AF85B1E0128C5
:1067E00001D1002BF8D1012800D1042000BD000008
:1067F00000200849CA68D20701D001207047CA6842
:10680000D20601D503207047C9684907FBD502208D
:10681000704700000020024004480169090603D5C2
:106820000349416003494160704700000020024075
:1068300023016745AB89EFCDF0B506460D464FF411
:1068400070273846FFF7C6FF00280CD1064C206998
:1068500040F00100206135603846FFF7BBFF216939
:1068600021F001012161F0BD0020024070B5044615
:10687000074DE1B2284601F0AFFB40F20776314602
:10688000284601F0D0FB0028F9D0204670BD00005A
:10689000003801403EB519484279194C94F86C0013
:1068A000002828D0082800D90720811C01EB4101CD
:1068B00004EB810140F24C4349688DE80E00411C15
:1068C00001EB410104EB81014B6800EB400104EB5B
:1068D00081014A68411E801E01EB410100EB40002E
:1068E00004EB810104EB800049684068FEF747F93A
:1068F000044948603EBD0120D7E70000A004002005
:106900003C050020A40600203EB519488279194CA8
:1069100094F86C00002828D0082800D90720811C92
:1069200001EB410104EB810140F24C4349688DE8E1
:106930000E00411C01EB410104EB81014B6800EBAF
:10694000400104EB81014A68411E801E01EB4101B8
:1069500000EB400004EB810104EB800049684068D3
:10696000FEF70DF9044988603EBD0120D7E700001D
:10697000A0040020B4050020A406002001480079EE
:1069800070470000380200200749812805D082287E
:1069900005D0832805D008787047487870478878F4
:1069A0007047C87870470000380200200148407BDB
:1069B00070470000180000202DE9F043046A456A82
:1069C000002301274FF00F0C07FA03F6164208D0F8
:1069D0009E000CFA06F824EA080401FA06F848EAD0
:1069E00004045B1C9BB2082BEED3082307FA03F8C0
:1069F00018EA020F0AD0A3F10806B6000CFA06F84E
:106A000025EA080501FA06F949EA05055B1C9BB26F
:106A1000102BEBD304624562BDE8F08381627047BE
:106A2000816170472DE9F0470568C66800244FF082
:106A300001084FF0030908FA04F71F420ED067005F
:106A400009FA07FC25EA0C0501FA07FA4AEA0505E6
:106A500026EA0C0602FA07FC4CEA0606641CA4B2FD
:106A6000102CE8D30560C660BDE8F087F0B50129B9
:106A700031D0416899434160816801260327A2F51E
:106A80007F44FF3C13D0002406FA04F51D4208D0D1
:106A9000650007FA05FC21EA0C0102FA05FC4CEA44
:106AA0000101641CA4B2102CEED38160F0BDC46B54
:106AB000002206FA02F51D4206D04FEA420C07FA00
:106AC0000CFC4CEA01012C43521C92B2102AF0D368
:106AD0008160C463F0BD416819434160CCE70000A8
:106AE00010B50C4806210170002444708470C470F5
:106AF000047144718471C4718120FFF745FF00283F
:106B000006D108220349812001F026FA02480470C8
:106B100010BD0000F8030020800300202DE9F041A3
:106B2000164C0027A079012802D0E771BDE8F0815A
:106B3000E1791348134D144E71B12A463346126859
:106B40001B68D21A01290FD00229EFD140F6282064
:106B50008242EBD3E771E9E78021FFF75FFF286806
:106B600030600120E071E1E7C82ADFD38021FFF720
:106B700057FF0220E07128683060D7E72402002028
:106B800000040048440300204003002030494FF037
:106B9000006000F0EBF862B601F0D0FB01F0A8FD58
:106BA000FEF712FDFEF7BCFC2A48FEF771FE01213C
:106BB000294802F0F1FA01F047FDFDF71FFFFDF74C
:106BC000AAF800F0A3FC00F05BFD00F089FD00F0E6
:106BD00029FDFEF7BFF9002000F0D2F901461FA001
:106BE000FEF7C6FE012000F0CBF901461FA0FEF71C
:106BF000BFFE022000F0C4F9014620A0FEF7B8FE57
:106C0000032000F0BDF9014620A0FEF7B1FE2348A5
:106C1000017823A0FEF7ACFE2548016825A0FEF709
:106C2000A7FEFEF7C1FDFEF71FFD0121254800F07C
:106C3000CBFFFEF7C1FD18B1FEF7B6FDFDF7B4F8C6
:106C4000FDF76CFBFFF76AFF00F0C2FFF1E7000001
:106C50000038000800380140180000200D0A434B9E
:106C60005F53595320697320256400000D0A434B7C
:106C70005F41484220697320256400000D0A434BA0
:106C80005F41504231206973202564000D0A434B57
:106C90005F415042322069732025640025020020A4
:106CA0000A414F535F666C6167203D25640A00000E
:106CB000C4020020636865636B5F737973203D20B5
:106CC00025640A00002C0140F0B506460F4600235B
:106CD00000242048006800F4E0654FF4A06085427D
:106CE0002FD006DCB5F5407F31D0B5F5806F06D1E9
:106CF0002AE0B5F5C06F21D0B5F5E06F1CD000F0EB
:106D00002BF802230224C3F104008740C4F10401DC
:106D10000F20C84010403843000106F1E02181F8FF
:106D2000000406F01F01012088407109890001F16B
:106D3000E021C1F80001F0BD0424E4E701230324AD
:106D4000E1E702230224DEE703230124DBE7042337
:106D5000D9E700000CED00E0024908430249086051
:106D6000704700000000FA050CED00E0024A1140F7
:106D7000014302480160704780FFFF1F08ED00E0FB
:106D800010B50A4A02EB4001497812F81040032975
:106D90000AD8491EC8B200F023FA082C04D22046B3
:106DA000BDE8104000F038BA10BD0000E49D0008B6
:106DB00010B50A4A02EB4001497812F81040022946
:106DC0000AD8491EC8B200F0A1FA082C04D2204605
:106DD000BDE8104000F0B6BA10BD0000169E0008D5
:106DE00030B51F4A136823F003031360136803438D
:106DF00013601C4B186840F0040018604FF0E0204E
:106E00000469194A1460D0F800415460D0F8044174
:106E10009460D0F80841D4600469144D2C4004619A
:106E2000134CC0F880416FF48064C0F8844144176B
:106E3000C0F88841002911D040BF20BF20BF8C304E
:106E4000116840F87C1C5168416791688167D1687E
:106E5000C167186820F00400186030BD30BFEEE74D
:106E60000070004010ED00E0440400200400010028
:106E700019EFFFB73B494A6822F440424A600A6B67
:106E8000394B1A400A630A280ED2DFE800F0050EDB
:106E9000171E29323F48555E086B20F48030086386
:106EA000086B20F4807008637047086B40F48030F2
:106EB0000863086B20F48070086370474868486076
:106EC000086B40F480700863704748684860086B3E
:106ED00040F000400863086B40F48070086370471E
:106EE000486840F480404860086B40F48070086354
:106EF0007047486840F480404860086B40F00040AC
:106F00000863086B40F4807008637047486840F479
:106F100000404860086B40F4807008637047486820
:106F200040F400404860086B40F000400863086B84
:106F300040F4807008637047486840F440404860FF
:106F4000086B40F4807008637047486840F4404024
:106F50004860086B40F000400863086B40F48070A4
:106F60000863704700100240FFFEFE7F034A11686D
:106F700021F001010143116070470000C010024080
:106F80002DE9F04788B0064600200021002569A2BF
:106F900092E89800D268CDE905470493079266A26B
:106FA0000CCACDE9022364A20CCACDE90023654FC7
:106FB0007A68C2F38102DFF890C1002A27D0DFF897
:106FC0008C81012A25D0022A25D062467B68C3F332
:106FD000031304ACE35C22FA03F37C68C4F30224D9
:106FE0000DF1080818F8044023FA04F87C68C4F38B
:106FF000C2241DF8044023FA04F44FF40049072E7C
:1070000036D2DFE806F034383A3C3E747C00624603
:10701000DCE74246DAE77A68C2F383427B68C3F36F
:10702000C064FB6ADB0F0CB1113202E00F2A03D0FF
:10703000921C012B02D002E01022FAE71F327B687B
:10704000C3F30043FC6AC4F380746BB1FB6A03F0C2
:107050000F035B1C24B13E4CB4FBF3F35A43B5E77A
:10706000B8FBF3F35A43B1E73A4B5A43AEE7104645
:1070700008B0BDE8F0871846FAE74046F8E7204632
:10708000F6E7386BC00506D4386BC00301D432492B
:1070900029E0324927E07868C0F38132386BC00FAD
:1070A00032B1012A0BD0022A10D0032A1BD116E0DC
:1070B00018B10320B3FBF0F115E0610813E018B13B
:1070C0000520B3FBF0F10EE0A1080CE018B1072099
:1070D000B3FBF0F107E00620B4FBF0F103E020B1D0
:1070E0000920B3FBF0F10846C2E7E108FBE7386B83
:1070F000400602D448F21200BAE74846B8E7386BB7
:1071000080070ED0386B00F0030001280BD0386BDD
:1071100000F00300022808D0386BC043800706D077
:1071200006E0254604E0154602E04D4600E06546CF
:1071300028469DE700000000000000000102030453
:10714000060708090010024000127A00001BB70071
:10715000006CDC0200093D00809FD500003FAB01C0
:10716000054901EB90110A6800F01F0301209840C7
:1071700002430A607047000000100240054901EB1D
:1071800090110A6800F01F030120984082430A60B2
:107190007047000000100240054901EB90110A6899
:1071A00000F01F030120984002430A60704700006E
:1071B0000010024009494A6822F440024A600A6B02
:1071C00022F080420A634A6820F080431A434A60F2
:1071D0000A6B00F0804002430A63704700100240CF
:1071E00070B5064600240B4DB44207D105EBC40030
:1071F000416855F83400FFF711FC06E005EBC400C8
:10720000416855F83400FFF70BFC641CE4B2032C12
:10721000EAD370BD689E000870B54FF480513A4CB7
:107220004D008E0008286DD2DFE800F004111E2BFF
:107230003845525F2046FFF7F1FB29462046FFF70D
:10724000EDFB31462046BDE87040FFF7E7BB204626
:10725000FFF7E6FB29462046FFF7E0FB31462046D4
:10726000BDE87040FFF7DABB2046FFF7D7FB2946A1
:107270002046FFF7D5FB31462046BDE87040FFF7BA
:10728000CDBB2046FFF7CCFB29462046FFF7C8FBC5
:1072900031462046BDE87040FFF7C0BB2046FFF7EF
:1072A000BDFB29462046FFF7B9FB31462046BDE825
:1072B0007040FFF7B5BB2046FFF7B2FB29462046DA
:1072C000FFF7ACFB31462046BDE87040FFF7A8BB96
:1072D0002046FFF7A3FB29462046FFF7A1FB3146D6
:1072E0002046BDE87040FFF79BBB2046FFF798FBA8
:1072F00029462046FFF794FB31462046BDE8704002
:10730000FFF78EBB70BD00000004004870B5064654
:1073100000240B4DB44207D105EBC400416855F879
:107320003400FFF77BFB06E005EBC400416855F82D
:107330003400FFF775FB641CE4B2022CEAD370BD85
:10734000989E000810B54FF09044082875D2DFE8E9
:1073500000F00412202E3C4A586601212046FFF717
:107360005DFB02212046FFF759FB2046BDE8104097
:107370000421FFF753BB01212046FFF751FB0221F7
:107380002046FFF74BFB2046BDE810400421FFF7E5
:1073900045BB01212046FFF741FB02212046FFF7B4
:1073A0003FFB2046BDE810400421FFF737BB012119
:1073B0002046FFF735FB02212046FFF731FB204630
:1073C000BDE810400421FFF729BB01212046FFF74B
:1073D00025FB02212046FFF721FB2046BDE8104097
:1073E0000421FFF71DBB01212046FFF719FB0221F5
:1073F0002046FFF713FB2046BDE810400421FFF7AD
:107400000FBB01212046FFF709FB02212046FFF7B1
:1074100007FB2046BDE810400421FFF701BB012116
:107420002046FFF7FDFA02212046FFF7F9FA204631
:10743000BDE810400421FFF7F3BA10BD1FB50020CE
:107440000090019002900390084C04226946204667
:1074500000F0DAFC01210091204600F0ABFC042290
:107460006946204600F0B7FC1FBD0000003400084C
:10747000014908717047000038020020064A81293E
:1074800005D0822905D0832900D1D0707047507073
:1074900070479070704700003802002000201849A3
:1074A0000A6842F480320A60CB14401C0A6802F475
:1074B00000320AB99842F8D1086880031FD548689D
:1074C0004860086B40F00100086348680D4A1040AE
:1074D0004860486840F488104860086840F0807050
:1074E000086008688001FCD5486820F00300486007
:1074F000486840F00200486048680007FCD57047C3
:1075000000100240FFFFC277FFF7C8BF30B589B057
:1075100040F20B60FFF724FE40F21150FFF720FE0F
:107520004FF480744FF090452346002202212846F4
:10753000FFF778FA23464FF6FF7200212846FFF73F
:1075400095FA224602212846FFF736FA264D2846AC
:1075500000F062FA0024ADF80440ADF80640ADF842
:1075600008408D200390ADF80A4024208DF81000CB
:1075700001A9284600F0D8FA01200590ADF818407E
:107580000221ADF81A10ADF81C10ADF81E40ADF890
:10759000204005AA0021284600F0DEF847220021FD
:1075A000284600F0FFF960220021284600F0D0F9BB
:1075B00000221146284600F005FA0021284600F076
:1075C00031FB284600F0C3F80021284600F03DFBBF
:1075D0000121284600F01AFB012200210D20FFF7AF
:1075E00073FB09B030BD0000002C014010B50B4CFE
:1075F0000121204600F091FA002809D001212046FF
:1076000000F088FA06490A681AB10868401E086046
:1076100010BD2046BDE8104000F06EBA00200040CA
:10762000380100201FB540F21160FFF799FD134C9F
:10763000204600F0F1F94721ADF800100021ADF827
:107640000210ADF80410B4220292ADF806108DF8C5
:107650000C106946204600F067FA204600F072F8E8
:107660000021204600F0DEFA0121204600F0ACFAAD
:10767000022201211520FFF727FB1FBD0044014016
:107680001FB54FF4E060FFF76BFD4FF080442046DC
:1076900000F0C2F90021ADF80010ADF80210ADF80D
:1076A00004104CF250320292ADF806108DF80C1016
:1076B0006946204600F038FA204600F048F80121DB
:1076C000204600F0AFFA0121204600F07DFA0222A8
:1076D00001210F20FFF7F8FA204600F012FA1FBD33
:1076E0001FB540F20170FFF73BFD154C204600F03E
:1076F00093F94721ADF800100021ADF80210ADF864
:10770000041064220292ADF806108DF80C10694640
:10771000204600F009FA204600F014F80121204626
:1077200000F080FA0121204600F04EFA03220121E8
:107730001020FFF7C9FA204600F0E3F91FBD000052
:1077400000040040016821F0800101607047016879
:1077500041F080010160704730B5794B794C0029C8
:1077600027D0012964D002297ED0032920D1016AC3
:1077700021F480510162C16921F44071C161016A43
:10778000146841EA04310162016A21F40051016286
:10779000016AD48841EA04310162984208D1416803
:1077A00021F4804141604168528941EA821141607F
:1077B00030BD016A21F001010162816921F00301FC
:1077C0008161016A156829430162016A21F00201A1
:1077D0000162016AD58829430162984207D0A0421C
:1077E00005D05949884202D058498842E0D1016AFF
:1077F00021F004010162016A938819430162016A60
:1078000021F008010162016A13891943016241688C
:1078100021F4807141604168538919434160416896
:1078200021F400714160416892891143416030BD8B
:10783000016A21F010010162816921F440718161C6
:10784000016A156841EA05110162016A21F020010F
:107850000162016AD58841EA05110162984225D189
:10786000016A21F0400100E02CE00162016A938886
:1078700041EA03110162016A21F080010162016A9B
:10788000138941EA03110162416821F4806141607A
:107890004168538941EA83014160416821F40061F4
:1078A00041604168938941EA83014160A042BED1B1
:1078B000416821F4806141604168528941EA820156
:1078C000416030BD016A21F480710162C16921F01B
:1078D0000301C161016A146841EA04210162016A7D
:1078E00021F400710162016AD48841EA0421016235
:1078F0009842E6D1016A21F480610162016A9388AD
:1079000041EA03210162016A21F400610162016A16
:10791000138941EA03210162416821F480514160E9
:107920004168538941EA03114160416821F40051E3
:1079300041604168928941EA0211416030BD000016
:10794000002C01400040014000440140004801403B
:1079500000290ED0012914D002291BD0032907D1F8
:10796000C16921F4E041C161C16941EA0221C161FB
:107970007047816921F070018161816911438161E2
:107980007047816921F4E0418161816941EA022106
:1079900081617047C16921F07001C161C169114302
:1079A000C1617047002907D0012907D0022907D0FB
:1079B000032900D1026470474263704782637047B5
:1079C000C263704700290ED0012914D002291BD0B0
:1079D000032907D1C16921F40061C161C16941EA8C
:1079E0000221C1617047816921F0080181618169CB
:1079F000114381617047816921F40061816181696E
:107A000041EA022181617047C16921F00801C16129
:107A1000C1691143C161704710B5354A4FF4E05355
:107A2000811A904227D014DCB0F1804F2DD031491B
:107A3000401834D0B0F5406F3BD0984257D14FF446
:107A400081642046FFF7A8FB2046BDE81040FFF701
:107A500095BBB1F5A05F36D0B1F5C05F3DD099427E
:107A600045D140F212342046FFF796FB2046BDE890
:107A70001040FFF783BB40F20B342046FFF78CFB2E
:107A80002046BDE81040FFF779BB4FF480642046E4
:107A9000FFF782FB2046BDE81040FFF76FBB40F2C6
:107AA00001442046FFF778FB2046BDE81040FFF771
:107AB00065BB40F204442046FFF76EFB2046BDE85C
:107AC0001040FFF75BBB4FF444742046FFF764FBA4
:107AD0002046BDE81040FFF751BB40F2113420466C
:107AE000FFF75AFB2046BDE81040FFF747BB10BD2B
:107AF000002C014000FCFFBF016821F00101016082
:107B00007047016841F001010160704742690A4312
:107B100042617047C943016170470069084201D062
:107B20000120704700207047F0B50A888262204A21
:107B3000204D4FF08047904203D0B84201D0A84278
:107B40000BD1036823F07003036003684C88234360
:107B5000036003688C88234303608B68C362164B01
:107B6000164C174E90420CD0B8420AD0A84208D00A
:107B7000144DA84205D0984203D0A04201D0B04293
:107B800007D1056825F4407505600568CF883D4339
:107B90000560904205D0984203D0A04201D0B04287
:107BA00001D1097B0163416941F001014161F0BDEF
:107BB000002C01400004004000400140004401400E
:107BC0000048014000200040C2680A43C26070477C
:107BD0000B4A0C49002013680A2B03D310600A6873
:107BE000521C0A600A684FF6FA739A4200D3086082
:107BF00005494CF250330A689A4200D90860704730
:107C000038030020440300203C030020012904D055
:107C1000416C21F4004141647047416C41F40041E2
:107C200041647047002906D0012903D1016821F081
:107C3000080101607047016841F008010160704768
:107C4000016821F0020101607047002906D0012976
:107C500003D1016821F0040101607047016841F01F
:107C6000040101607047000001490120C87170479C
:107C70008404002001490020C8717047840400205A
:107C800070B505464FF08044002120466162012115
:107C9000FFF740FF606AA842FCD370BD10B51828FA
:107CA00017D80C4901EB4002547811F81000072C4A
:107CB0000FD2082801D2FFF7AFFA06488430641EBD
:107CC00000EBC40150F834004968BDE81040FEF7ED
:107CD000A5BE10BDE49D000810B5102817D80C49AA
:107CE00001EB4002547811F81000072C0FD208283D
:107CF00001D2FFF727FB06488230641E00EBC40167
:107D000050F834004968BDE81040FEF787BE10BD4A
:107D1000169E000870B505460846182D18D80D4C5B
:107D2000207300216173FDF76DFDA079FFF740F826
:107D30002846FFF725F84FF400410748FEF770FE8C
:107D40000648FFF7DEFEBDE870400548FFF7D9BEE4
:107D500070BD0000A004002000040048002C014079
:107D60000044014070B505460846102D18D80D4C4A
:107D7000207300216173FDF745FD2846FFF718F8D1
:107D80006079FEF7FDFF4FF400410748FEF748FE1B
:107D90000648FFF7B6FEBDE870400548FFF7B1BEE4
:107DA00070BD0000A004002000040048002C014029
:107DB0000044014010B50446FEF72EFD3420FEF7C6
:107DC000DDFC2046FEF7E8FC3420FEF7D7FCBDE8DA
:107DD0001040FEF7D9BC2DE9F04105460E46174686
:107DE0000024FEF719FD09E056F8241005EB840085
:107DF000FEF722FD641C3420FEF7C0FCBC42F3D326
:107E0000BDE8F041FEF7C0BC10B5002304E050F817
:107E1000234041F823405B1C9342F8D310BD00007F
:107E20000148C07970470000840400200FB5042287
:107E300069461048FFF7E8FF01980F4AC0B210707A
:107E40000E4B002119700E4B012119700D4B029938
:107E5000197003990C4BC9B21970012805D002287A
:107E600003D0042801D002201070FF2901D1322054
:107E700018700FBD003400082902002025020020E0
:107E800027020020260200202802002010B57821B9
:107E90000648FBF7BEFD054900209C3948700420C8
:107EA0001C390870BDE81040FFF7DEBE3C0500201D
:107EB00010B578210648FBF7ACFD06490020487054
:107EC00005201C390870BDE81040FFF7CDBE00004A
:107ED000B4050020A00400201FB50D4C0422694603
:107EE0002046FFF791FF6846FEF7C0FA00280DD044
:107EF0000848007802900848007803902046FFF771
:107F000059FF042269462046FFF765FF1FBD0000A8
:107F10000034000826020020280200207FB5044615
:107F20000D46042C14D80B4E042269463046FFF748
:107F30006BFF5DF824106846A94209D040F8245030
:107F40003046FFF737FF042269463046FFF743FF0C
:107F50007FBD00000034000870B504460D4613468E
:107F600021460120FFF78AFA2A462146BDE87040E3
:107F7000014800F005BE00001800002070B504465E
:107F80000D4600201349611806D0B1F5744F06D193
:107F90000620FEF7F5FF02E00220FEF7F1FF216860
:107FA0000A044FF6F0710AD5400000EB5500B0FB13
:107FB000F5F00140C0F342000143E16070BD00EB09
:107FC0005500B0FBF5F0014000F00F021143E160F5
:107FD00070BD000000BCFFBFC1F3080181627047A3
:107FE00010B50D4940180CD0B0F5744F13D140F2C4
:107FF0000E342046FFF7D0F82046BDE81040FFF7CA
:10800000BDB840F211442046FFF7C6F82046BDE84F
:108010001040FFF7B3B810BD00BCFFBF016841F0CE
:1080200001010160704700EB9110006801F01F0230
:1080300001219140084201D0012070470020704783
:10804000026822F00402026002680A43026070477C
:10805000026822F00802026002680A430260704768
:108060002DE9F05F4FF000094FF0300BAF4E317843
:1080700002297DD1304696F801C090F804A04379DA
:108080008278AB4CAB4FC07800258846BCF1D00F4E
:108090006FD00BDCBCF1B00F12D04FF00109BCF176
:1080A000B20F74D0BCF1B40F70D1B0E0BCF1D10FFD
:1080B0006CD0BCF1DA0FFBD0BCF1DF0FF4D106E1DC
:1080C00021700CF1010C84F801C0A270E5702571DB
:1080D0006571A571E5718320FEF756FC20B90C226D
:1080E00093498320FFF738FFFEF72EFAB8B378796B
:1080F000012804D0022802D0042816D02FE0FEF771
:1081000023FA60B3062020706570A570E5702571B4
:108110006571A571E5718120FEF736FCF8B908227A
:1081200083498120FFF718FF19E0FEF70DFAB0B17F
:1081300084F80080F0206070A570E570257165718D
:10814000A571E57125726572A572E5728320FEF74F
:108150001BFC20B90C2276498320FFF7FDFEB17885
:1081600001F07F007871012809D0022807D002E0D1
:10817000DAE093E00BE0042801D087F805800806D8
:1081800003D579790120FFF7C9FE3570C6E0920664
:1081900003D5694A012801D0F8B1BFE0C2F80080D8
:1081A00084F8008084F801C084F8029084F8039079
:1081B00025716571A571E5718320FEF7E5FB20B996
:1081C0000C225B498320FFF7C7FE357087F80190CA
:1081D0003079F870FFF780FEA0E0C2F800902170BF
:1081E00084F801C0A57084F8039025716571A571AC
:1081F000E5718320FEF7C8FB20B90C224C4983208F
:10820000FFF7AAFE35707D70FFF766FE86E0D207A5
:108210005CD0C2074748007927D05FEA8A717DD5D4
:10822000834209D03B71642B01D9642038713879BD
:10823000FDF7CEFAFFF750FE30782070707860704E
:1082400084F8029084F8039084F80480387960718F
:1082500084F80690E5718320FEF796FBB0BB0C22F4
:1082600033498320FFF778FE58E05FEA8A7255D5DC
:10827000217084F801C084F80290E57084F80480CD
:10828000607184F80690E5718320FEF77DFBE8B904
:108290000C2227498320FFF75FFE3FE057073DD5BB
:1082A000A0B92170E0216170A270E07084F804A090
:1082B00084F805B0A571E5718320FEF765FB20B950
:1082C0000C221B498320FFF747FE357026E00AEB9E
:1082D0000020B27902EB0323F279B0F5136F09D1D4
:1082E000A3F52050BD3805D1092A03D187F80280B3
:1082F0004FF001092170EF20607084F80290E57062
:1083000025716571A571E5718320FEF73DFB20B9EC
:108310000C2207498320FFF71FFE3570BDE8F05F90
:1083200015210248FBF775BBBDE8F09FE003002074
:10833000F803002024020020C402002010B5002011
:10834000FEF71EFE1249134C884205D14FF48000FF
:108350006060032020700FE00F49884204D10020A4
:1083600060600520207007E00C49884204D14FF47A
:1083700040006060072020700020FEF7F7FD606875
:10838000FEF718FFBDE8104040F20C50FEF7E8BEC3
:10839000006CDC021000002000A24A0400D8B805DE
:1083A00008B58079002810D008480068C0070CD0B4
:1083B000074801680091009921F00201009100999D
:1083C00021F0010100910099016008BD08080050EA
:1083D000000E00504FF0A0404FF0FF3141600149C6
:1083E000816170470008008010B50446204600F007
:1083F0001BF84FF0A041886B40F4502088638868D8
:1084000020F080008860886B40F4001088636079F9
:1084100018B1886B40F480108863D4F81C1109B13E
:1084200014208847002010BD10B500214FF0A04255
:10843000136943F001031361064B491C994202D8AA
:108440001469E407F9D1D0F8181109B1032088475D
:10845000002010BD400D0300012242704023038123
:1084600001290AD102700821C170042101714FF461
:10847000A07141810221817042710020704700008B
:108480002DE9FC4105464FF0A040816A019100248E
:10849000009449490C6049490A6822F4C0520A60B4
:1084A0000A680A602A78012A40D10A6822F0030289
:1084B0000A600A6842F003020A60416A6FF30F0122
:1084C0004162416A41F080014162019989B20191A2
:1084D000019941F48001019101996FF30F0101911C
:1084E000019941F08001019101998162802201216D
:1084F00033484B1E30F813603244009EB6B20096EB
:1085000030F81160009F47EA06460096009E6FF320
:108510000F060096009E164300969B0003F1A043B1
:10852000009EC3F80461491C0429E2D310212846A7
:1085300000F0EAF8284600F0C5F820481030046042
:10854000001D04601D494FF0FF3018310860081D00
:108550000460002226E0510101F1A041D1F8000998
:10856000002806DAD1F8000940F09040C1F800096F
:1085700001E0C1F80049D1F8000B002806DAD1F873
:10858000000B40F09040C1F8000B01E0C1F8004B37
:10859000C1F81049C1F8104BFF20C1F80809C1F813
:1085A000080B521C28799042D5D8284600F00AF8CA
:1085B0000020BDE8FC810000000E005000080050C3
:1085C0000C03002010B54FF0A0440021A1616FF012
:1085D00080416161FFF7FEFE0448A1698143A1610A
:1085E000A1690143A161002010BD000018383C00C2
:1085F00008B5024800900249086008BD18000860EC
:10860000100B005010B50022C91C8908044B03E070
:108610001C6840F8044B521C8A42F9D310BD00007C
:108620000010005010B50023491C4FF0A04404EB8B
:108630000131D21C920803E050F8044B0C605B1C23
:108640009342F9D3002010BD10B50022032143202E
:10865000FEF73AFB40F21C70FEF782FD4FF48024D7
:108660002046FEF775F8002211462046FEF72EF848
:108670002046FEF765F80022BDE8104011462A208A
:10868000FEF722BB10B54FF0A042012901D049B13D
:1086900010E0D16821F08041D160D16841F00051F3
:1086A000D16007E0D16821F00051D160D16841F07C
:1086B0008041D160D0F81C1109B1322088470020D8
:1086C00010BD000010B500214FF0A042102313612F
:1086D000064B491C994202D81469E406F9D4D0F833
:1086E000181109B103208847002010BD400D030078
:1086F00010B54FF4A060FEF72FFB00220221BDE869
:1087000010401320FEF7E0BA10B500224FF0A0434E
:108710001C6924F4F8641C61202444EA8111196165
:108720000649521C8A4202D81C69A406F9D4D0F822
:10873000181109B103208847002010BD400D030027
:1087400070B505460C46207810F0030009D00128CA
:1087500021D0022833D021462846BDE8704000F0E1
:10876000EDB8687B022807D0032805D021462846AB
:10877000BDE8704000F0E2B86088012841D10020D7
:108780006861D5F810212146284690472846BDE863
:10879000704000F04DB8687B02280AD0032830D121
:1087A000207903282DD921462846BDE8704000F0E5
:1087B000C5B821462846BDE8704000F0BFB8217911
:1087C000687B022804D003281BD1608848B113E0DD
:1087D000002916D0802914D02846BDE8704000F04A
:1087E000ABB949B1802907D0284600F0B6F8D5F8D2
:1087F00010212146284690472846BDE8704000F0E9
:1088000017B870BDD0F8001189781180D0F8000138
:10881000704710B504460520A07300231A46194678
:10882000204600F045F92046FFF7E2FE002010BD8B
:1088300010B504460420A07300231A4619462046AA
:1088400000F09EF92046FFF7D3FE002010BD10B5C2
:108850000024C26182610223837313460A46002109
:1088600000F08EF9204610BD70B505460E46002476
:10887000687B032805D03146284600F05FF8204683
:1088800070BD307903280ED8D5F81021314628461E
:1088900090470446F0880028F1D1002CEFD12846FB
:1088A000FFF7C6FFEBE73146284600F047F8E6E75A
:1088B00050F8FC1F09781180006870472DE9F041DD
:1088C0000E4606EB460100EBC1043C34D4E903013B
:1088D000401A6168814200D20846C01C4FEA9008E5
:1088E000770107F1A0471BE0151A6068A84200D283
:1088F0000546E81C4FEA9008AAB23146A068FFF787
:1089000091FEA0682844A060206928442061E168A5
:10891000814205D10120B04007490A6882430A60BC
:10892000D7F8180980B2404503D9D4E90320904212
:10893000DAD30120BDE8F0813408005010B50446B8
:108940008021204600F0F8F80021204600F0F4F8DD
:108950002046BDE81040FFF74BBE08B5002200924C
:10896000CB0901F07F0101EB410200EBC2024FEAAB
:10897000411000F1A04014D0D0F8001900910099E6
:1089800021F40011009192F83C10032901D0022932
:1089900003D1009941F0805100910099C0F800196D
:1089A00008BDD0F8001B0091009921F4001100913E
:1089B00092F89C10032901D0022903D1009941F0BB
:1089C000805100910099C0F8001B08BD10B500232C
:1089D000CC094FF0010201F07F0002FA00F24FEAE9
:1089E000401000F1A04006D0D0F8001921F4004159
:1089F000C0F8001907E043EA0242D0F8001B21F456
:108A00000041C0F8001B024801689143016010BD9D
:108A10001C0800502DE9F0414FF0000C8A7802F05C
:108A20007F07CB7803F003058E885FEAD21802F047
:108A30007F014FF0010401EB410204FA01F44FEA17
:108A4000411100EBC20301F1A04104D03C33D1F845
:108A50000009012205E09C334CEA0444D1F8000BE4
:108A600000225FEA004C10D46FF30A00304320F478
:108A7000402040EA8540012A03D120F0707040EA8E
:108A8000875040F0805040F40040012A01D01AB1D4
:108A900004E0C1F8000901E0C1F8000B5E601D7040
:108AA0000248016821430160BDE8F0811C080050C4
:108AB00070B501F07F0404EB440100EBC1009C3071
:108AC0008260C36000210161650105F1A045D5F810
:108AD000001BD5F8102BD30CDB04164A1340C668D4
:108AE000002E11D0ACB14268B418641EB4FBF2F48D
:108AF00043EAC443C3F3C94462431A43C5F8102B85
:108B00000278012A0AD010E042681A4342F4002297
:108B1000F4E742681A4342F40022EFE7407810B1CC
:108B200041F0005101E041F0805141F00440C5F8AE
:108B3000000B70BDFFFF07E008B5002000904FEA72
:108B400041604FEA1050CA0900F1A04011D0D0F89E
:108B5000001900910099002903DA009941F0804141
:108B60000091009941F4001100910099C0F800199A
:108B700008BDD0F8001B41F40011C0F8001B08BD6F
:108B80003CB401F07F01002401EB410500EBC5007E
:108B90003C308260C36004614A0102F1A042D2F815
:108BA00000390193D2F810390093009B6FF3120340
:108BB00000932D4C009B23400093C368002B11D0E1
:108BC000A9B1446823445B1EB3FBF4F3009C44EA60
:108BD000C3430093C368009C234300930378012B95
:108BE0000ED011E0009B43F4002300930CE0446896
:108BF000A34200D9C460009B43F400230093E9E73B
:108C0000009B43F000530093009BC2F81039037897
:108C1000012B0CD1154B1B68DB0504D4019B43F0E1
:108C20000053019303E0019B43F080530193019BA8
:108C300043F004430193019BC2F800390278012AF2
:108C40000BD0C068002806D008482C3002680123E9
:108C50008B401A4302603CBC70478289806802B036
:108C600092B230BCFFF7DEBCFFFF07E008080050FF
:108C7000CA88012A01D0FFF761BE427B022A03D0D5
:108C8000032A05D0FFF75ABE01220449FFF7DFBDD2
:108C9000012200F10C01FFF7DABD0000BC02002048
:108CA0002DE9F84F82460E46307881070BD000F050
:108CB0000300012841D1DAF8102101B031465046B5
:108CC000BDE8F04F104770884FEA102BC4B201275F
:108CD0006E4D4FF008084FF00209BBF1030F31D879
:108CE000032C2FD805F14801ABF101006A4651F879
:108CF00020302146504698470346BDF8001091B1F8
:108D0000F08880B1884200D801460091BBF1010F84
:108D100003D1402801D1CDF80080BDF800201946CC
:108D20005046FFF794FD002C07D1BBF1030F04D18F
:108D3000F0882861FE2802D0EF60BDE8F88FC5F802
:108D40000C90FAE7BBF1030F72D85148042C38D0CD
:108D5000052C38D0622C38D0642C38D0652C38D013
:108D6000662C38D0682C38D06D2C38D06E2C38D08A
:108D70006F2C38D0792C38D07A2C38D07B2C38D046
:108D80007C2C38D0832C38D0A82C38D0142C38D058
:108D9000152C3AD0162C3BD0172C3DD0182C3FD098
:108DA000192C41D01A2C44D01B2C46D01C2C48D056
:108DB0001D2C4AD0C82C56D031465046FFF7BEFD78
:108DC000BBE7016944E0416942E0816940E0C16973
:108DD0003EE0016A3CE0416A3AE0416F38E0816A76
:108DE00036E0C16A34E0016B32E0416B30E0816B08
:108DF0002EE0C16B2CE0016C2AE0416C28E0816C14
:108E000026E0C16C0020A86022E0016DAF601FE089
:108E1000416DC5F808901BE0816D0320A86017E044
:108E2000C16D0420A86013E0016E0520A8600FE06A
:108E300027E0416E0620A8600AE0816E0720A86046
:108E400006E0C16EC5F8088002E0016F0920A86045
:108E50000A780092F088904200D80246009250466C
:108E6000FFF7F5FC69E7FEF7E9FABFF34F8F094812
:108E70000168094A01F4E06111430160BFF34F8FBB
:108E8000FEE731465046FFF759FD56E7B80200208D
:108E9000AC0100200CED00E00400FA05D0F8102130
:108EA0001047000030B48A88D5B20B78234C13F0F9
:108EB000030306D0012B18D0022B20D030BCFFF7C3
:108EC0003DBD417B022902D0417B032934D10121E0
:108ED0002170416911B10321217001E0002121704D
:108EE00030BC02221549FFF7B2BC417B032923D1D4
:108EF000032D21D830BC02221049FFF7A8BC417BCA
:108F0000032919D1110609D55106090D01F1A04116
:108F1000D1F80019C1F34051217008E05106090D44
:108F200001F1A041D1F8001BC1F34051217030BCC8
:108F300002220249FFF78BBC30BC7047B902002007
:108F400070B5002200230C783D4D14F0600429D048
:108F5000202C73D14A780C2A20D2DFE802F01F06B9
:108F60000C121F1F1F1F1F6F181C354901220831CB
:108F7000FFF76DFC62E0324901220831FFF767FC20
:108F80005CE02F490122091DFFF761FC56E048888B
:108F9000000AA86052E0887868604FE0FFF7CEFCD6
:108FA000022070BD4C78062C04D00A2C3FD00B2C2C
:108FB00044D141E04C88240A212C1AD0222C32D1F1
:108FC0008C8824B1012C08D0022C2CD10BE0CA884B
:108FD000662A00D966221B4B25E0CA886D2A00D973
:108FE0006D22194B1FE0CA88242A00D92422174B6E
:108FF00019E08C8824B1012C08D0022C13D10CE08C
:10900000CA88092A00D90922114B0CE0CA88092A0A
:1090100000D909220E4B193305E0CA88092A00D964
:1090200009220B4B32331946FFF711FC06E00122EF
:109030000349FFF70CFC01E088782860002070BD30
:1090400000000020889C0008EE9C00085B9D000842
:109050006001002010B50846012807D142F08001C8
:10906000832905D0822903D0812901D028B106E0C7
:109070000020FEF703FA002010BD032A01D00220D1
:1090800010BD0020FEF7F4F9002010BD10B5044615
:1090900081212046FFF79AFC82212046FFF796FCAB
:1090A00083212046FFF792FC03212046FFF78EFC28
:1090B000002010BD10B504460E492046FFF7AAFC5B
:1090C0000C4920461931FFF7A5FC0A4920463231E8
:1090D000FFF7A0FC074920463931FFF79BFC14231A
:1090E000054A03212046FFF7E3FCFDF7F9FC0020C9
:1090F00010BD000069010020E003002010B5044607
:10910000002903D0607B03283ED043E004F13C01FA
:10911000A07B02283ED1A269486882420DD9131A69
:10912000A3618A6800212046FFF72AFD00231A4622
:1091300019462046FFF7BCFC2CE0E169B1FBF0F2D8
:1091400000FB12129AB9814211D3206A81420ED2D9
:1091500000231A4619462046FFF712FD0020206220
:1091600000231A4619462046FFF7A2FC12E0607B56
:10917000032805D10022D4F8143101212046984754
:109180002046FFF746FB05E00A46D4F814310121DA
:1091900020469847002010BD70B504462046FFF7D2
:1091A0005BF9012060734FF0A046B06820F0010029
:1091B000B0602046FFF718F900212046FFF762FA59
:1091C0000D4D286840F002002860D4F81C1109B148
:1091D000032088472046FFF753F9286820F0020053
:1091E0002860D4F81C1109B103208847B06840F00A
:1091F0000100B06070BD0000040800504FF0A040B6
:10920000816921F4806181614FF4806141610120B5
:109210007047000010B51D490968C1F341011B4AA0
:10922000F83213681A4C645C23431360174A121F08
:10923000136823F480731360136843F4807313601E
:10924000144A525C4FF0A041032A10D00122427010
:1092500040220281C86820F47050C860C86840F499
:10926000A050C8604FF400504861012010BD00229A
:1092700042704FF400720281C86820F47050C860D8
:10928000C86840F41050C860ECE7000008080050BF
:109290007F9D0008B40200202DE9F8438046002598
:1092A0000020009026480168001F0068014001F07E
:1092B0003F06234F18373EE0F00739D06C0104F128
:1092C000A044D4F808293868E840C007010E1C48BB
:1092D0000C3800680143114000910098C0070BD082
